:100000000C949D070C94C5070C94C5070C94C50768
:100010000C94C5070C94C5070C94C5070C94C50730
:100020000C94C5070C94E2120C9415280C94C3266A
:100030000C94C5070C94C5070C94C5070C94C50710
:100040000C94C5070C94C5070C94C5070C94C50700
:100050000C94C5070C94C5070C94C5070C947B1F22
:100060000C94C5070C94C5070C94C5070C94C507E0
:100070000C94C5070C94C5070C94C5070C94C507D0
:100080000C94C5070C94C5070C94C5070C94C507C0
:100090000C94C5070C94C5070C94C5070C94C507B0
:1000A0000C94C5070C94C5070C94C5077A207D20D5
:1000B000702074209E209E209E20812085208920F3
:1000C0008F2093209E2099202D3D2D3D2D3D2D3DAF
:1000D0002D3D2D3D2D3D2D3D2D3D2D3D2D3D2D3DD0
:1000E0002D3D2D3D2D3D2D3D2D3D2D3D2D3D2D3DC0
:1000F0002D005468652041726475696E6F2043431A
:1001000033303030204669726D7761726520312E50
:1001100032342050617463686572002200556E723B
:1001200065636F676E697A656420636F6D6D616E7C
:1001300064202200202020203959202D2057726968
:100140007465206E6577206669726D7761726520CF
:10015000746F204343333030300020202020385942
:10016000202D205772697465206E6577206472694E
:1001700076657220746F2043433330303000202086
:1001800020203759202D20436F7079204D41432086
:100190006164647265737320616E64207261646966
:1001A0006F2066696C652066726F6D2041726475A0
:1001B000696E6F20454550524F4D20746F20434368
:1001C0003330303000202020203659202D20577227
:1001D0006974652061206E65772066696C6520749E
:1001E00061626C6520746F2074686520434333300E
:1001F000303000202020203544202D20436F70799E
:100200002064656661756C74204D414320616E64A5
:1002100020726164696F2066696C6520746F20418B
:10022000726475696E6F20454550524F4D00202015
:1002300020203459202D20436F7079204D414320D8
:100240006164647265737320616E642072616469B5
:100250006F2066696C652066726F6D204343333092
:10026000303020746F2041726475696E6F2045458F
:1002700050524F4D00202020203320202D20536845
:100280006F772063757272656E742043433330302C
:10029000302066696C65207461626C6500202020E6
:1002A000203220202D2053686F77204D414320615C
:1002B00064647265737320616E6420726164696F37
:1002C0002066696C6520696E2041726475696E6F85
:1002D00020454550524F4D00202020203120202D18
:1002E0002053686F77204D414320616464726573C9
:1002F0007320616E6420726164696F2066696C6549
:10030000206F6E20434333303030002020202030D7
:1003100020202D2054657374207468652043433376
:10032000303030000A0A436F6D6D616E64206F706B
:1003300074696F6E733A0020202020202020205006
:10034000726F626C656D2077726974696E67207078
:10035000617463682E2041626F7274696E672E004B
:10036000202020202020202053756363657373664E
:10037000756C21002020202057726974696E6720F7
:10038000646174612E2E2E005772697465206E654B
:1003900077206669726D7761726520746F204343C0
:1003A00033303030005772697465206E6577206491
:1003B000726976657220746F2043433330303000A9
:1003C00020202020202020205375636365737366EE
:1003D000756C2E002E2041626F7274696E672E005C
:1003E000202020202020202050726F626C656D201C
:1003F00077726974696E6720524D207265636F72FF
:10040000642C206368756E6B2000202020205772BA
:100410006974696E6720524D207265636F72642043
:10042000746F204343333030302E2E2E0020202096
:10043000202020202050726F626C656D20777269D9
:1004400074696E67204D4143206164647265737303
:100450002E2041626F7274696E672E00202020206A
:1004600052656164696E6720524D207265636F72D8
:100470006420646174612066726F6D20454550523E
:100480004F4D0020202020202020205375636365DD
:10049000737366756C2E0020202020577269746972
:1004A0006E67204D414320746F204343333030301A
:1004B0002E2E2E002020202052656164696E672058
:1004C0004D4143206164647265737320646174619B
:1004D0002066726F6D20454550524F4D005772692E
:1004E00074696E67204D616320616E6420524D20F7
:1004F0007265636F726420746F2043433330303011
:1005000000202020202020202050726F626C656D1A
:100510002077726974696E67204641542E204162CB
:100520006F7274696E67206F6E206572726F7220D1
:1005300000202020202020202053756363657373E2
:1005400066756C21002020202057726974696E67DF
:10055000204641540057726974696E672046696C81
:1005600065205461626C6520746F204343333030E2
:1005700030002020202020202020556E61626C65F4
:1005800020746F2072656164204641542E00202043
:1005900020202020202020202020202D2D2D2D2D1A
:1005A0002D2D2D2D2D2D2D2D2D2D2D2D2D2D2D2D7B
:1005B0002D2D2D2D2D2D2D00202020202020202000
:1005C0002020202020413D4163746976652020561B
:1005D0003D56616C69642020573D577269746520EF
:1005E00050726F7465637465642020416464723D69
:1005F0005374617274206164647265737320204C5B
:10060000656E3D4C656E67746800202020202020B8
:10061000202020202020202D2D2D2D2D2D2D2D2D65
:100620002D2D2D2D2D2D2D2D2D2D2D2D2D2D2D2DFA
:100630002D2D2D0020002000200020202000200053
:1006400020002000202020003F004E0059002020E4
:1006500020003F004E005900202020003F004E00A7
:1006600059002020200020002020202020202020B1
:10067000202020202000202020202020202020209A
:100680002020202D2D2D2D2D2D2D2D2D2D2D2D2DC1
:100690002D2D2D2D2D2D2D2D2D2D2D2D2D2D2D00B7
:1006A0002020202020202020202020202020232047
:1006B0002020412020205620202057202020416447
:1006C0006472202020204C656E00202020202020F5
:1006D0002020464154207265616420737563636510
:1006E000737366756C002020202052656164696E0A
:1006F0006720464154004343333030302046696C14
:1007000065205461626C650020202020446F6E6576
:100710002100202020202020202056657269667943
:10072000204F4B002020202020202020202020208F
:10073000566572696679206661696C65642E204130
:10074000626F7274696E672E0020202020202020A6
:1007500020566572696679696E672E2E2E002020FC
:100760002020436F7079696E672064656661756CDF
:100770007420524D2066696C6520646174612E2E70
:100780002E002020202047656E65726174696E67B7
:100790002072616E646F6D204D41432E2E2E004DF0
:1007A000616B652072616E646F6D204D4143206105
:1007B0006E6420636F70792064656661756C742067
:1007C000526164696F2046696C6520746F204172C4
:1007D0006475696E6F20454550524F4D00202020B2
:1007E0002020202020566572696679204F4B00201A
:1007F000202020202020202020202056657269669D
:1008000079206661696C65642E2041626F7274693B
:100810006E672E002020202020202020566572693F
:100820006679696E672E2E2E002020202020202041
:100830002057726974696E6720726164696F2072F3
:1008400065636F726420746F2041726475696E6FA6
:1008500020454550524F4D2E2E2E00202020202086
:1008600020202052656164204F4B2E205261646924
:100870006F20646174613A00206661696C65642E62
:100880002041626F7274696E672E00202020205212
:10089000656164696E67206368756E6B2000202057
:1008A000202052656164696E6720726164696F20FF
:1008B0007265636F72640057696C6C206E6F742090
:1008C0007361766520746F20454550524F4D00206E
:1008D0002020202020202020556E61626C6520742D
:1008E0006F2072656164204D4143206164647265CC
:1008F00073732E2000202020202020202056657297
:10090000696679204F4B00202020202020202020C5
:10091000202020566572696679206661696C65647D
:100920002E2041626F7274696E672E002020202095
:1009300020202020566572696679696E672E2E2EFA
:1009400000202020202020202057726974696E67C3
:10095000204D4143206164647265737320746F207D
:1009600041726475696E6F20454550524F4D2E2E71
:100970002E0020202020202020204D414320616493
:100980006472657373207265616420737563636557
:10099000737366756C2E204D41432069733A2000B5
:1009A0002020202052656164696E67204D414320FC
:1009B000616464726573730053686F7720434333D7
:1009C000303030204D414320616E64207261646993
:1009D0006F2066696C6500436F7079204343333044
:1009E0003030204D414320616E6420726164696F34
:1009F0002066696C6520746F20454550524F4D004C
:100A000020202020526164696F20646174613A0083
:100A1000202020204D414320616464726573733A45
:100A200020002020202052656164696E6720524DAD
:100A3000207265636F726420646174612066726FF6
:100A40006D20454550524F4D0020202020526561B9
:100A500064696E67204D41432061646472657373FD
:100A600020646174612066726F6D20454550524F5D
:100A70004D0053686F77204D414320616E642072B2
:100A80006164696F2066696C6520696E666F2066B7
:100A9000726F6D2041726475696E6F2045455052CA
:100AA0004F4D00200020002020202020202020006A
:100AB00020627974657300202020205458206275CC
:100AC000666665722073697A653A200020627974DF
:100AD000657300202020205258206275666665727A
:100AE0002073697A653A20002E00202020202020E3
:100AF00020204669726D7761726520766572736930
:100B00006F6E3A20002020202020202020556E618A
:100B1000626C6520746F20726574726976652066F8
:100B200069726D776172652076657273696F6E2187
:100B30002041626F7274696E672E2E2E0020202075
:100B400020202020204D414320416464726573734E
:100B50003A20002020202020202020556E61626C49
:100B60006520746F207265747269657665204D41E9
:100B7000432041646472657373212041626F727413
:100B8000696E672E2E2E0020202020434333303004
:100B90003020696E6974616C697A65642E204765DE
:100BA0007474696E6720696E666F2E2E2E00202089
:100BB000202020202020556E61626C6520746F20FB
:100BC000696E697469616C697A652074686520432F
:100BD00043333030302120436865636B20796F7573
:100BE0007220776972696E67212041626F72746941
:100BF0006E672E2E2E0020202020496E69746961B8
:100C00006C697A696E672068617264776172652EBB
:100C10002E2E0054657374696E67207468652043D6
:100C200043333030302E2E2E002020202020202054
:100C30002053746F70706564002020202053746FFF
:100C40007070696E67204343333030302E2E2E2E65
:100C500000202020202020202053746172746564BD
:100C600000202020205374617274696E6720434312
:100C7000333030302077697468206E6F2070617473
:100C800063686573003A000300010114140027270C
:100C900027272727272727272727272723252525EE
:100CA00025252525252523232323000000000000DA
:100CB00000000000000000000000000000000050E4
:100CC0005050505050505050505050505050505024
:100CD0005050505050505050505050505050505014
:100CE00050500177801D1F222628291A1F222426F2
:100CF00028161D1E2024251E2D01020202020015A9
:100D000015151115150E000000000200080E000058
:100D1000030401000B0000000000000000000000C0
:100D20000000000000040802011040804010204034
:100D300080408008020401804020100201108010D1
:100D400020404004040404040304050202020204D7
:100D50000302020202060606060606040402020256
:100D600004000000002300260029002C002F0000B2
:100D7000000000250028002B002E0031000000009C
:100D800000240027002A002D003000080B0002027A
:100D90000201000904000001020200000524001005
:100DA00001052401010104240206052406000107AF
:100DB00005810310004009040100020A0000000739
:100DC0000502024000000705830240000000C180C8
:100DD00081C112010002020000404123368000015F
:100DE0000102000112010002000000404123368090
:100DF0000001010200011803410072006400750047
:100E000069006E006F0020004C004C00430022037C
:100E1000410072006400750069006E006F002000E0
:100E20004C0065006F006E006100720064006F008E
:100E30000403090400000000000000002A2B280021
:100E400000000000000000000000000000000000A2
:100E5000000000002C9EB4A0A1A2A434A6A7A5AEB9
:100E6000362D3738271E1F20212223242526B33371
:100E7000B62EB7B89F8485868788898A8B8C8D8E9D
:100E80008F909192939495969798999A9B9C9D2F69
:100E90003130A3AD350405060708090A0B0C0D0E09
:100EA0000F101112131415161718191A1B1C1DAF49
:100EB000B1B0B500090402000103000000092101DE
:100EC00001000122650007058403400001050109B6
:100ED00002A1010901A100850105091901290315D4
:100EE00000250195037501810295017505810305B2
:100EF000010930093109381581257F75089503816D
:100F000006C0C005010906A1018502050719E029EF
:100F1000E715002501750195088102950175088185
:100F200003950675081500256505071900296581D3
:100F300000C03E16F41ECC23A32911241FBECFEF00
:100F4000DAE0DEBFCDBF11E0A0E0B1E0E2E5F5E51B
:100F500002C005900D92A237B107D9F714E0A2E7BD
:100F6000B1E001C01D92A130B107E1F71FE0CAE373
:100F7000DFE004C02297FE010E94052AC233D10798
:100F8000C9F70E94DD230C94A72A0C940000E2E725
:100F9000F1E021E030E033832283958384830C9455
:100FA000B80EAF92BF92CF92DF92EF92FF920F9363
:100FB0001F93E2E7F1E071876087538742873587A7
:100FC0002487118B008BF38AE28AD58AC48AB78A78
:100FD000A68A9787868781E084A71F910F91FF904B
:100FE000EF90DF90CF90BF90AF900895CF92DF92B7
:100FF000EF92FF92CF93DF93EC0110929601109243
:101000009701109298011092990110929A011092F2
:101010009B0110929C0110929D01109273011092FD
:10102000720110928F0110928E0110929101109214
:1010300090011092930110929201109295011092DA
:10104000940110928A0110928B0110928C011092DF
:101050008D01109275011092740110927701109217
:10106000760181EA91E0909379018093780187EC91
:1010700097E00E941E13E0918201F091830109958F
:101080006B017C01E0918801F091890181E0099573
:10109000CD28CE28CF28A9F1E0918201F0918301DB
:1010A0000995672B682B692BB9F7609178017091CE
:1010B00079019E01C330D10510F022E030E0FB0140
:1010C000218741E080E090E40E94530B60E070E0F3
:1010D00080E090E40E947C11609178017091790128
:1010E00040E08BE090E40E94530B60E070E08BE006
:1010F00090E4DF91CF91FF90EF90DF90CF900C9430
:101100007C11E0918201F09183010995672B682B96
:10111000692BB9F3E0918201F09183010995672B66
:10112000682B692BB9F7C1CFE0918801F091890153
:1011300080E00995E0918201F09183010995672B88
:10114000682B692BB9F38091780190917901892BF3
:1011500021F010927901109278010C940F138F9264
:101160009F92AF92BF92CF92DF92EF92FF920F9336
:101170001F93CF93DF9300D000D0CDB7DEB74901E6
:101180005A01670178010FEF1FEF980109831A8355
:101190002B833C830091780110917901AB01BC0154
:1011A000C80109960E945116B501A4010E9451166A
:1011B000B701A6010E9451164CE0B80184E090E00E
:1011C0000E94530BBE016F5F7F4F84E090E00E944E
:1011D0007C1169817A818B819C810F900F900F9097
:1011E0000F90DF91CF911F910F91FF90EF90DF90C3
:1011F000CF90BF90AF909F908F9008950F931F93C3
:10120000CF93DF9300D000D0CDB7DEB7AB01BC01E8
:101210000091780110917901C80109960E94511638
:101220008FEF9FEFDC0189839A83AB83BC8344E01B
:10123000B80186E090E00E94530BBE016F5F7F4FC4
:1012400086E090E00E947C1169817A818B819C818B
:101250000F900F900F900F90DF91CF911F910F91F2
:1012600008950F931F93CF93DF9300D000D0CDB795
:10127000DEB7AB01BC01DB01CA0188709078AA27F8
:10128000BB2788309048A105B10571F410929E01EA
:10129000483080E858076105710551F1477F5F7755
:1012A00066277727506803C081E080939E018FEF07
:1012B0009FEFDC0189839A83AB83BC830091780123
:1012C00010917901C80109960E94511644E0B801B5
:1012D00088E090E00E94530BBE016F5F7F4F88E073
:1012E00090E00E947C1169817A818B819C8103C08E
:1012F00060E070E0CB010F900F900F900F90DF91A6
:10130000CF911F910F9108954F925F926F927F92AC
:101310008F929F92AF92BF92CF92DF92EF92FF9205
:101320000F931F93CF93DF931F92CDB7DEB72901A1
:101330003A01470158012FEF29830091780110915C
:101340007901AB01BC01C80109960E945116B30195
:10135000A2010E945116B501A4010E9451164CE051
:10136000B80181E092E00E94530BBE016F5F7F4F96
:1013700081E092E00E947C1140E050E060E070E08B
:10138000C6010E948811698170E080E090E00F90B2
:10139000DF91CF911F910F91FF90EF90DF90CF9051
:1013A000BF90AF909F908F907F906F905F904F9085
:1013B00008954F925F926F927F928F929F92AF9219
:1013C000BF92CF92DF92EF92FF920F931F93CF9332
:1013D000DF9300D000D0CDB7DEB749015A01270115
:1013E00038010FEF1FEF980109831A832B833C8389
:1013F0000091780110917901AB01BC01C8010A96F6
:101400000E9451164CE050E060E070E00E945116DE
:10141000B501A4010E945116B301A2010E94511608
:10142000A401B601C8014A960E94802A940140E1B5
:10143000B80180E990E00E94760BBE016F5F7F4F9C
:1014400082E092E00E947C1169817A818B819C818B
:101450000F900F900F900F90DF91CF911F910F91F0
:10146000FF90EF90DF90CF90BF90AF909F908F90C4
:101470007F906F905F904F900895CF92DF92EF92A0
:10148000FF920F931F936C01E12CF12C870126E052
:1014900030E040E050E066E070E080E090E00E94E4
:1014A000D909862F1F910F91FF90EF90DF90CF9079
:1014B0000895CF92DF92EF92FF920F931F936C01EA
:1014C000E12CF12C870126E030E040E050E066E0BE
:1014D00070E080E090E00E948409862F1F910F91B8
:1014E000FF90EF90DF90CF9008950F931F93CF93CD
:1014F000DF9300D000D01F92CDB7DEB78C01609192
:1015000078017091790140E087E092E00E94530BEE
:10151000BE016F5F7F4F87E092E00E947C118C815B
:10152000F80180838D81818389810F900F900F90C6
:101530000F900F90DF91CF911F910F9108952F92EF
:101540003F924F925F926F927F928F929F92AF9253
:10155000BF92CF92DF92EF92FF920F931F93CF93A0
:10156000DF93CDB7DEB7A9970FB6F894DEBF0FBEF5
:10157000CDBF4B015C0129A33AA34BA35CA3290176
:101580003A01CE0101961C0190E2920D9DA3E9A0C3
:10159000FAA0E418F50890E24916510461047104B8
:1015A00058F16CE171E085E993E00E94E921810145
:1015B00085E993E00E94D42218161906CCF785E934
:1015C00093E00E94F822F80181938F01FDA1F013AE
:1015D000EFCF00E010E0610120E230E040E050E0B9
:1015E000C501B4010E94D90980E2481A5108610876
:1015F0007108662361F23DC0411451046104710415
:10160000B9F16CE171E085E993E00E94E9218E0176
:101610000F5F1F4F20E030E0A901680185E993E0EA
:101620002EA33FA348A759A70E94D4222EA13FA1D1
:1016300048A559A5181619068CF785E993E00E946C
:10164000F822F80181938F012EA13FA148A559A549
:101650002F5F3F4F4F4F5F4F241535054605570508
:10166000E9F600E010E0C501B4010E94D90901C00B
:1016700060E0862FA9960FB6F894DEBF0FBECDBFEF
:10168000DF91CF911F910F91FF90EF90DF90CF905E
:10169000BF90AF909F908F907F906F905F904F9092
:1016A0003F902F9008950F931F93CF93DF931F9236
:1016B000CDB7DEB78B0121E0FB012583BC01C8015A
:1016C000069649830E9458164981FC01408350E0E8
:1016D000BA016C5F7F4FC8010E94F71380E090E071
:1016E0000F90DF91CF911F910F9108950F931F934A
:1016F000CF93DF938B0192E0FB0195838683478331
:10170000E901C40FD11DBE01C80108960E945816F8
:10171000BE016B5F7F4FC801DF91CF911F910F9189
:101720000C94F7134F925F926F927F928F929F92D9
:10173000AF92BF92CF92DF92EF92FF920F931F93DF
:10174000CF93DF938B017A01E90193E0FB0195834D
:101750002B01F7E04F0E511CFB0186835901F2E08B
:10176000AF0EB11CB501C2010E9458166C01C80130
:101770000B964C01C93E93E0D90718F5BE01C6018E
:101780000E945816BE01C6010E945816AE01B7014C
:10179000C4010E94802ABE016A5F7F4FC801DF91A9
:1017A000CF911F910F91FF90EF90DF90CF90BF905E
:1017B000AF909F908F907F906F905F904F900C9420
:1017C000F71388EE682E83E0782ECE01B3010E94D5
:1017D000AE29660F771F6A0D7B1DC6010E94581641
:1017E00068EE73E0C6010E945816F701D401C301E8
:1017F00001900D920197E1F76E01E8EECE1AE3E059
:10180000DE0AF8E1EF1AFCEFFF0A6EEE73E0C801A2
:101810000E94F713580185E0A80EB11C0E942E16F5
:1018200099EEC91693E0D90638F0E8EECE1AE3E057
:10183000DE0AC8EED3E003C0E601C12CD12CF801CA
:10184000D683C583AE01B701C2010E94802AEC0E87
:10185000FD1EBE016E5F7F4FC5010E94F713C114CC
:10186000D104E1F6DF91CF911F910F91FF90EF909E
:10187000DF90CF90BF90AF909F908F907F906F90B0
:101880005F904F900895CF93DF9300D000D0CDB7F5
:10189000DEB719821A821B821C82FC01858182308C
:1018A00039F1833009F445C0813009F064C080917A
:1018B0007C0190917D01892B89F0E0917C01F09170
:1018C0007D01CE0101960995009741F06091780164
:1018D0007091790129813A81AC0108C06091780149
:1018E0007091790120E030E040E050E081E041C0BB
:1018F00080917A0190917B01892B89F0E0917A01A6
:10190000F0917B01CE0101960995009741F060911D
:1019100078017091790129813A81AC0108C0609108
:1019200078017091790120E030E040E050E082E001
:1019300020C080917E0190917F01892B89F0E091F8
:101940007E01F0917F01CE0101960995009741F04B
:10195000609178017091790129813A81AC0108C0C8
:10196000609178017091790120E030E040E050E032
:1019700083E00E94920B0F900F900F900F90DF91D9
:10198000CF9108958F929F92AF92BF92CF92DF92A4
:10199000EF92FF926830710581059105B8F522300C
:1019A00031054105510590F5E1E0F0E0062E02C059
:1019B000EE0FFF1F0A94E2F7E095F0956F01EE2419
:1019C000D7FCE094FE2C8090040190900501A0903B
:1019D0000601B0900701C820D920EA20FB20490168
:1019E0005A0104C0880C991CAA1CBB1C6A95D2F72A
:1019F000D701C60188299929AA29BB298093040106
:101A000090930501A0930601B0930701FF90EF901A
:101A1000DF90CF90BF90AF909F908F9008958F925E
:101A20009F92AF92BF92CF92DF92EF92FF920F936D
:101A30001F93CF93DF93CDB7DEB765970FB6F894BA
:101A4000DEBF0FBECDBF8C0161E070E00E945D166D
:101A50006C01E12CF12C96FF69C0811521E49207FD
:101A600009F064C065E070E0C8010E945D164C0199
:101A7000095F1F4FA12CB12CC12CD12C7601A814C9
:101A8000B90479F062E070E0C8010E945D16C80EEA
:101A9000D91EE11CF11C0C5F1F4F8FEFA81AB80A6A
:101AA000EECF80918E0190918F018C0D9D1D9093B2
:101AB0008F0180938E0180919A0190919B01A0915A
:101AC0009C01B0919D01C80ED91EEA1EFB1EC0925A
:101AD0009A01D0929B01E0929C01F0929D0140916D
:101AE0009A0150919B0160919C0170919D018091A0
:101AF000960190919701A0919801B0919901481792
:101B000059076A077B0709F048C080919E01882326
:101B100009F443C0E0918001F091810120E040E0B0
:101B200050E069E970E080E090E036C097FFC9C0FE
:101B30008031E0E89E07B1F168F4813020E8920737
:101B400008F400C18330E0E89E07B8F08430904884
:101B5000A1F0F8C0803820E8920779F028F48034AA
:101B6000904809F45FC0EEC0811522E8920729F081
:101B70008115984809F492C0E5C080918001909148
:101B80008101892B51F0E0918001F091810120E0E9
:101B900040E050E0C701B601099561E070E080E0E7
:101BA00090E0D3C0D8011596FE013196CE0105967E
:101BB000AF012D912193E817F907D9F7F801818535
:101BC0008D8382858E8383858F83848588873D96E8
:101BD000DE011996C801419621912D93E817F90766
:101BE000D9F7DE011D96C801459621912D93E8177E
:101BF000F907D9F7DE015196C801499621912D9335
:101C0000E817F907D9F7F80184818D8B809180015D
:101C100090918101892B09F2E0918001F09181017D
:101C200025E1B8CF0B5F1F4F60E070E0C8010E9454
:101C3000691669837A838B839C8364E070E0C801B2
:101C40000E9469166D837E838F83988768E070E0B9
:101C5000C8010E94691669877A878B879C876CE028
:101C600070E0C8010E9469166D877E878F87988B08
:101C700060E170E0C8010E946916698B7A8B8B8BDA
:101C80009C8B8091800190918101892B09F485CFF3
:101C9000E0918001F091810124E10FC0F80185817C
:101CA00089838091800190918101892B09F475CFFE
:101CB000E0918001F091810121E0AE014F5F5F4F23
:101CC00069CFF3E0CF16F0E1DF06E104F10421F083
:101CD0008E5090410297B0F5780125E0E20EF11C9C
:101CE00064E070E0C7010E946916673C7F4F8F4F28
:101CF0009F4F41F5F801848190E0A0E0B0E080932F
:101D00008A0190938B01A0938C01B0938D0160E0C8
:101D100070E0C7010E9469164B015C0164E070E04D
:101D2000C7010E946916673C7F4F8F4F9F4F09F094
:101D300034CF21E030E040E050E0C501B4010E9422
:101D4000C20C2BCF60E070E0CB0165960FB6F89423
:101D5000DEBF0FBECDBFDF91CF911F910F91FF90DE
:101D6000EF90DF90CF90BF90AF909F908F900895AD
:101D70008091740190917501892B21F460E070E0ED
:101D8000CB0108958091760190917701FC0120812B
:101D90002430A1F70E940F0D613071058105910576
:101DA00069F710927501109274010E94331561E079
:101DB00070E080E090E008954F925F926F927F9282
:101DC0008F929F92AF92BF92CF92DF92EF92FF924B
:101DD0000F931F93CF93DF938C014B015A01E12C9A
:101DE000F12C80E1482E96E2592E0E942E16809109
:101DF000740190917501892BC1F3C0907601D09048
:101E00007701F6018081843009F016C261E070E04C
:101E1000C6010E945D167C01C6010E940F0D672B52
:101E2000682B692B09F0FCC1E6012596F8E0EF1656
:101E3000F0E1FF0608F076C046E0E41640E1F40663
:101E400008F0FDC082E0E816F80609F4F8C000F5D5
:101E5000FDE0EF16F10480F448E0E416F10408F028
:101E6000EEC081E0E816F10408F4DAC1E7E0EE160E
:101E7000F10408F05EC1E3C0FDE0EF16F10409F4DF
:101E8000D9C041E0E41642E0F40609F4D3C0C8C169
:101E900083E0E81680E1F80610F5E1E0EE16E0E1F7
:101EA000FE0608F0CCC0F5E0EF16F2E0FF0608F4FD
:101EB000C1C047E0E41642E0F40609F0B1C1F60102
:101EC0008481F80181938F0160E070E0CE010E946F
:101ED0006916AB01BC01C8010E945116A1C184E082
:101EE000E81680E1F80609F4CBC008F4FCC060E015
:101EF00070E0CE010E946916F801608371838283CD
:101F0000938364E070E0CE010E946916F801648357
:101F1000758386839783085F1F4FF6013D96D8012E
:101F2000842D39C1F1E1EF16F0E1FF0609F482C01A
:101F300008F04BC08BE0E81680E1F80609F47FC09A
:101F4000A8F5F9E0EF16F0E1FF0609F478C008F013
:101F5000E1C060E070E0CE010E946916F801608384
:101F600071838283938364E070E0CE010E946916DE
:101F7000F801648375838683978368E070E0CE01FF
:101F80000E946916F80160877187828793873801FC
:101F9000FCE06F0E711C6CE070E0CE010E946916CF
:101FA000F801648775878687978739C18FE0E816BF
:101FB00080E1F80609F497C008F04CC0FDE0EF1688
:101FC000F0E1FF0609F45CC02BC146E0E41640E2F4
:101FD000F40681F168F4E1E0EE16E0E2FE0608F4B2
:101FE0001FC1F5E0EF16F0E2FF0608F0D9C022C0ED
:101FF00048E0E41640E2F40608F412C18AE0E8166C
:1020000080E2F806B8F0EBE0EE16E0E4FE0609F038
:1020100007C1F601858190E090938F0180938E0136
:1020200061E070E0CE010E945D1690939101809373
:102030009001F6C0F6018481F8018083F1C060E070
:1020400070E0CE010E946916F8016083718382837B
:102050009383E6C060E070E0CE010E946916F8014B
:1020600061937193819391933F0164E070E0CE019D
:102070000E946916F8016483758386839783CFC0B5
:1020800060E070E0CE010E946916F8016083718300
:102090008283938364E070E0CE010E946916F801A8
:1020A00064837583868397833801F8E06F0E711C13
:1020B00068E070E0CE010E946916F80160877187C0
:1020C000828793870485158526853785073C1F4FB2
:1020D0002F4F3F4F09F0A3C021E030E040E050E037
:1020E0000E94C20C9CC060E070E0CE010E946916A4
:1020F000F801608371838283938364E070E0CE0192
:102100000E946916F8016483758386839783085F4C
:102110001F4F86C0F6018481F8018483F601858112
:102120009681A781B085F80180839183A283B383D0
:1021300077C060E070E0CE010E946916F80160830C
:1021400071838283938364E070E0CE010E946916FC
:10215000F801648375838683978368E070E0CE011D
:102160000E945D16A0E0B0E0F80180879187A28709
:10217000B3876AE070E0CE010E945D16A0E0B0E097
:10218000F80182879387A487B587045F1F4FF60104
:102190007196D801852D01900D928A95E1F740C086
:1021A000F801C601099629912193C817D907D9F7D3
:1021B000F8013496C6010D9629912193C817D907C5
:1021C000D9F7F8013896C601419629912193C8178D
:1021D000D907D9F7F8013C96C60145962991219374
:1021E000C817D907D9F7F8017096C6014996299101
:1021F0002193C817D907D9F7F8017496C6014F96ED
:1022000029912193C817D907D9F7F8017A96C60101
:10221000CF9629912193C817D907D9F701C0830117
:102220008091720190917301E816F90699F5109268
:102230007301109272012EC0F601728063E070E0AB
:10224000C6010E945D16EC018114910499F064E0CE
:1022500070E0C60105960E946916F50160837183DE
:1022600082839383462F50E0B6016B5E7F4FC4019B
:102270000E94802A672D70E0AE01461B570B6B5FF2
:102280007F4F6C0D7D1DC8010E94802A1092950120
:102290001092940110927501109274010E943315EE
:1022A000F6018081843039F4E114F0E1FF0619F47D
:1022B000C6010E94430C8091720190917301892B99
:1022C00009F093CD8091940190919501892B09F0AB
:1022D0008CCD80E090E0DF91CF911F910F91FF9026
:1022E000EF90DF90CF90BF90AF909F908F907F90B6
:1022F0006F905F904F9008959C01CB0130937301D4
:102300002093720140E050E060E070E00C94DC0E3D
:1023100021E030E030939501209394010C94DC0E81
:10232000CF93DF93DC01FB0122835183408312961C
:10233000CD91DC91139798818381892B8883828149
:102340008D7F813041F415969C9115978381892B5F
:1023500015968C93159782818150823040F41696A1
:102360009C9116978381892B16968C931697909142
:10237000680014968C91892B80936800DF91CF912F
:102380000895EF92FF920F931F93CF93DF9300D0A6
:1023900000D0CDB7DEB78C01FC0180859185009718
:1023A00079F07C01FC018481861306C0B701C80165
:1023B0000E94901180E03DC0F70185819681EFCFAA
:1023C00087E090E02C834A835B8369830E945821D5
:1023D000DC0111961C921E9212961C9212972C816F
:1023E0004A815B816981009719F114966C93149767
:1023F00012962C93129716961C921E921597E62F02
:10240000F0E0EB5DF24FE4911396EC931397F80133
:1024100080859185892B19F4B187A08703C0F701C6
:10242000B683A583BD01C8010E94901181E001C05F
:102430008FEF0F900F900F900F90DF91CF911F9122
:102440000F91FF90EF900895242FE82FF0E0ED5BBF
:10245000F24FE491EE2399F06115710581F0E230BD
:1024600019F4E9EBF2E002C0E0E0F0E0A081B18114
:102470009C919783AB01682FCF010C94C1118FEF12
:102480000895CF93DF9390E0FC01ED5BF24FE49170
:10249000EE2309F446C0E23019F4A9EBB2E002C021
:1024A000A0E0B0E0FC01EB5DF24F84911896CD9175
:1024B000DC9119972097A9F19B8198132EC04FB7F3
:1024C000F89412962D913C911397F9019081809583
:1024D000892380831296ED91FC911397808181115D
:1024E00009C09091680014968C9114978095892367
:1024F0008093680015969C9115978B818095892310
:1025000015968C93159716969C9116978B818095AE
:10251000892316968C934FBF04C00D80DE81C02D99
:10252000C9CFDF91CF910895FF920F931F93CF935F
:10253000DF93EC018091C502FF802D819091C5024F
:102540004E813091C502309534232923932F922B4D
:102550008F25F92EF8228091C5028F830885198571
:1025600001151105E1F0D80113968C919F2D982348
:1025700081F09091C502892391E009F490E0909355
:10258000C302F80184818093C4020190F081E02DA0
:102590000995D80115960D911C911697E1CF9BB323
:1025A0008C81982349F09BB3892B8BBBE881F981FF
:1025B00080818093C502BECFDF91CF911F910F9193
:1025C000FF9008951F920F920FB60F9211242F9330
:1025D0003F934F935F936F937F938F939F93AF93AB
:1025E000BF93EF93FF93E091B902F091BA0280811B
:1025F0008093C50289EB92E00E949412FF91EF91C3
:10260000BF91AF919F918F917F916F915F914F910A
:102610003F912F910F900FBE0F901F9018958091B2
:10262000B3029091B402892B21F01092B40210925F
:10263000B302E0918601F09187010994CF93DF9373
:10264000E7EAF2E01682178210861186A4E2B2E071
:1026500023E8ED01322F19923A95E9F741EA51E06A
:10266000EA0119922A95E9F79183808313821282F5
:1026700013861286B587A487158214828EED809307
:10268000A60280932302E0918401F0918501DF91FD
:10269000CF91099461E0809101030E949F2060E046
:1026A000809101030E94DB2064EF71E080E090E004
:1026B0000E94EA1F559A60E0809102030E949F20C9
:1026C00061E0809102030E94DB208CB58093B5020B
:1026D0008DB581708093B6020E94411F84E00E94F4
:1026E000601F81E00E94571F8091FF020E94651FBA
:1026F0008CB58093B8028DB581708093B7025D9AD6
:102700008091B5028CBD8091B602882319F08DB5F9
:10271000816002C08DB58E7F8DBD80E090E0089510
:10272000AC0190E0292F30E02617370758F4FA0162
:10273000E20FF31F80818EBD0DB407FEFDCF8EB575
:102740009F5FF0CF08950F931F93CF93DF938C017A
:10275000EB015D988CB58093B5028DB58170809347
:10276000B6028091B8028CBD8091B7029DB58823D6
:1027700011F0916001C09E7F9DBD61E070E080E03E
:1027800090E00E94EA1F64E070E0C8010E9490138C
:1027900061E070E080E090E00E94EA1FBE016450BA
:1027A0007109C80104960E94901382E090E0A0E0B5
:1027B000B0E08093AD029093AE02A093AF02B093CD
:1027C000B0025D9A8091B5028CBD8091B6028823DB
:1027D00019F08DB5816002C08DB58E7F8DBD60E032
:1027E00070E0CB01DF91CF911F910F9108950F936E
:1027F0001F93CF93DF93EC01CB018170992721E0E8
:10280000822721E028838C01060F171F198381700E
:10281000860F8A831B821C82809123028E3D09F0E1
:10282000FFCF8091AD029091AE02A091AF02B09126
:10283000B0020097A105B10509F4FFCF0B5F1F4F50
:102840000197A105B10529F4B801CE010E94A31397
:102850006DC0E0918601F091870109958091AD02EC
:102860009091AE02A091AF02B091B002823091057A
:10287000A105B105D9F783E090E0A0E0B0E0809336
:10288000AD029093AE02A093AF02B093B002D0938A
:10289000B202C093B1021093AA020093A9025D98FC
:1028A0008CB58093B5028DB581708093B60280910E
:1028B000B8028CBD8091B702882319F08DB5816074
:1028C00002C08DB58E7F8DBDE0918401F0918501B0
:1028D0000995E0918201F09183010995672B682B9E
:1028E000692B21F56091A9027091AA028091B10231
:1028F0009091B2020E94901382E090E0A0E0B0E0DC
:102900008093AD029093AE02A093AF02B093B00259
:102910005D9A8091B5028CBD8091B602882319F032
:102920008DB5816002C08DB58E7F8DBD8091AD0269
:102930009091AE02A091AF02B091B00282309105A9
:10294000A105B105D9F760E070E0CB01DF91CF912F
:102950001F910F910895EF92FF921F93CF93DF93F2
:102960001F92CDB7DEB7182F7B0184E099830E94B8
:10297000601FE12F9981F92F97012E0F3F1F83E0F0
:10298000E217F30739F08EBD0DB407FEFDCF9EB5FB
:102990009193F6CF0F90DF91CF911F91FF90EF9021
:1029A00008956AE070E08091B3029091B4020C94B3
:1029B000AB140F931F93CF93DF93C091B302D091C9
:1029C000B4028D81823019F08430E1F03EC063E0C2
:1029D00070E0CE0105960E945D169C01BC0180E06E
:1029E00090E020FD05C06F5F7F4F8F4F9F4F05C068
:1029F000611571058105910541F1CE010A960E948C
:102A0000AB1423C0088510E020E030E0C901B80114
:102A1000615071098109910960FF02C0C901B801C3
:102A2000611571058105910521F0CE010A960E947C
:102A3000AB1488E090E0A0E0B0E08093AD0290930A
:102A4000AE02A093AF02B093B00260E070E0CB01A1
:102A5000DF91CF911F910F91089510929F01809166
:102A600002030C94411281E080939F0142E050E008
:102A700064E775E1809102030C9424120E942D15E5
:102A80005D9A8091B5028CBD8091B602882319F0C1
:102A90008DB5816002C08DB58E7F8DBD8091B302F2
:102AA0009091B402FC01EE57FF4F20812E3D09F0BA
:102AB000FFCF42E050E060E070E04093AD02509301
:102AC000AE026093AF027093B002E091A702F09162
:102AD000A802059609940E94D914672B682B692BCC
:102AE00011F40C943E15089581E08093A00180912B
:102AF000AD029091AE02A091AF02B091B0020097EA
:102B0000A105B10569F481E090E0A0E0B0E0809318
:102B1000AD029093AE02A093AF02B093B0025FC03B
:102B200082309105A105B10591F586E090E0A0E025
:102B3000B0E08093AD029093AE02A093AF02B09349
:102B4000B0025D988CB58093B5028DB5817080938D
:102B5000B6028091B8028CBD8091B702882319F02B
:102B60008DB5816002C08DB58E7F8DBD0E94D11460
:102B700088E090E0A0E0B0E08093AD029093AE02D8
:102B8000A093AF02B093B0020E946B1528C00397C8
:102B9000A105B10521F56091A9027091AA02809169
:102BA000B1029091B2020E94901382E090E0A0E006
:102BB000B0E08093AD029093AE02A093AF02B093C9
:102BC000B0025D9A8091B5028CBD8091B6028823D7
:102BD00019F08DB5816002C08DB58E7F8DBD1092CC
:102BE000A0010895882311F061E001C060E08091A8
:102BF00001030C94DB20809102030E940B21BC0195
:102C0000882777FD8095982F089581E080939F0114
:102C100042E050E064E775E1809102030C942412D5
:102C200010929F01809102030C944112FC011082CA
:102C300011821282138280E090E00895FC011082DC
:102C400011821282138280E090E00895FC011082CC
:102C500011821282138280E090E008958091020335
:102C60000E940B21892B49F48091A001811105C09C
:102C700080919F0181110C9474150895E5E6FDE0A3
:102C800085919491E9EBF2E0918380838BE690E06B
:102C90009383828381E08483158216821186108655
:102CA0000895FC01408351836283738304960895E1
:102CB000FC016083718302960895FC01E60FF71F03
:102CC0009181892F90E0982F88272081820F911D74
:102CD00008950F931F93FC01E60FF71F438150E007
:102CE00060E070E0342F2227112700279281492FBE
:102CF00050E060E070E0BA0155274427400F511FB3
:102D0000621F731F8081480F511D611D711D8181DC
:102D100090E0A0E0B0E0BA2FA92F982F88278A0171
:102D20009B01080F191F2A1F3B1FC901B8011F91E2
:102D30000F9108950F931F93603820E87207810563
:102D4000910581F401E010E020E030E00093DB0227
:102D50001093DC022093DD023093DE0221E0209309
:102D6000CA0257C06130A0E87A078105910569F46D
:102D700001E010E020E030E00093D7021093D80289
:102D80002093D9023093DA0244C06230B0E87B0766
:102D900081059105C9F41092D7021092D8021092C1
:102DA000D9021092DA021092D3021092D402109239
:102DB000D5021092D6021092CB021092CC02109241
:102DC000CD021092CE0233C0603120E87207810537
:102DD000910569F481E090E0A0E0B0E08093D30237
:102DE0009093D402A093D502B093D60220C0693943
:102DF00071058105910569F481E090E0A0E0B0E003
:102E00008093CF029093D002A093D102B093D202CC
:102E10000EC0611578488105910549F4DA01EC91FD
:102E2000E03228F4F0E0E152FD4F81E080831F9111
:102E30000F9108950F93FC01108260930303409358
:102E40000203209301038FEF809300030093FF029E
:102E50001092D3021092D4021092D5021092D60290
:102E60001092D7021092D8021092D9021092DA0270
:102E70001092C6021092C7021092C8021092C902A4
:102E80001092DB021092DC021092DD021092DE0240
:102E90000F9108959F92AF92BF92CF92DF92EF92DF
:102EA000FF920F931F93CF93DF93EC01962E0E9416
:102EB0004A1382EFA82E85E1B82E90E1C92E96E143
:102EC000D92E25E0E22E26E1F22E0BEF15E12EE1C0
:102ED00036E146E156E166E276E18AE996E10E9452
:102EE000D107892D90E00E94F607E12CF12C870193
:102EF00020E030E0A90160E070E0CB010E94AF0863
:102F00006FEF70E080E090E00E94FE0864E072E8FD
:102F100080E090E00E94310981E08883DF91CF91C9
:102F20001F910F91FF90EF90DF90CF90BF90AF90E7
:102F30009F9008950F931F93CF93DF9305E813E0BD
:102F4000C0E0D0E0F80161918F0140E150E085E9F7
:102F500093E00E94B0222196C630D10539F065E891
:102F60007CE085E993E00E949721ECCF85E993E02E
:102F7000DF91CF911F910F910C94C32161E67CE00A
:102F800085E993E00E94D72162E084E093E00E940B
:102F90004A1761E57CE085E993E00C94D72169E369
:102FA0007CE085E993E00E94D7210E94940869E2C1
:102FB0007CE085E993E00C94D721CF93DF9300D098
:102FC000CDB7DEB763E17CE085E993E00E94D721CD
:102FD00066EF7BE085E993E00E94D72160E084E022
:102FE00093E00E944A17811107C06EEA7BE085E9F1
:102FF00093E00E94D721FFCF67E87BE085E993E06B
:103000000E94D72185E893E00E94590A882339F06D
:1030100063E57BE085E993E00E94D721FFCF6DE374
:103020007BE085E993E00E9497210E949A17CE01E8
:1030300001960E94750A882339F065E07BE085E9F6
:1030400093E00E94D721FFCF6AEE7AE085E993E012
:103050000E9497214AE050E0698185E993E00E944F
:10306000B02268EE7AE085E993E00E9497214AE079
:1030700050E06A8185E993E00E94B72263ED7AE02F
:1030800085E993E00E9497214AE050E063E870E010
:1030900085E993E00E949B226CEC7AE085E993E05D
:1030A0000E94D72167EB7AE085E993E00E9497219F
:1030B0004AE050E063E870E085E993E00E949B22DB
:1030C00060EB7AE085E993E00E94D7210E94CF1758
:1030D0000F900F90DF91CF910895CF92DF92EF92F2
:1030E000FF920F931F93CF93DF93C5E0D3E067EA7E
:1030F0007AE085E993E00E9497218E01E12CF12C82
:103100006801F8018081803130F465EA7AE085E970
:1031100093E00E9497210F5F1F4F40E150E0F601BE
:10312000608185E993E00E94B02263EA7AE085E954
:1031300093E00E949721FFEFEF1AFF0A80E1E81663
:10314000F104F1F685E993E00E94C3216096E3E083
:10315000C538DE0761F6DF91CF911F910F91FF9087
:10316000EF90DF90CF9008950F931F93CF93DF934D
:1031700062E77AE085E993E00E94D72169E47AE08A
:1031800085E993E00E94D72105E813E0C0E1D0E093
:10319000BE018BE893E00E94741FF80181938F01B8
:1031A0002196C631D105A1F762E27AE085E993E084
:1031B0000E94D72105E013E0C0E2D0E0BE018BE819
:1031C00093E00E94741FF80181938F012196C03A09
:1031D000D105A1F760E17AE085E993E00E949721AB
:1031E0000E949A1760E07AE085E993E00E94D72177
:1031F000DF91CF911F910F910C946D184F925F92B8
:103200006F927F92AF92BF92CF92DF92EF92FF9236
:103210000F931F93CF93DF93C82F882319F067ED87
:1032200079E002C068EB79E085E993E00E94D7215C
:103230000E94BE1760EA79E085E993E00E94D721F9
:1032400085E893E00E94590A81114AC062E779E05B
:1032500085E993E00E9497210E949A17CC2309F4F4
:1032600051C061E479E085E993E00E94D72185E8C7
:10327000A82E83E0B82E350100E110E0F301419162
:103280003F01B8018BE893E00E94771F0F5F1F4F4B
:103290000631110599F76CE279E085E993E00E9427
:1032A000D72100E110E0B8018BE893E00E94741F81
:1032B000F50191915F01891739F067E079E085E9BF
:1032C00093E00E94D721FFCF0F5F1F4F06311105FA
:1032D00051F765EF78E085E993E00E94D72112C0AD
:1032E0006FEC78E085E993E00E949721CC2331F0E0
:1032F00067EB78E085E993E00E94972185E993E008
:103300000E94C3216EE978E085E993E00E94D7210D
:10331000412C512C3201A12CB12CC2018B5F9C4F4E
:103320006C018301720128E030E040E050E06BE086
:1033300070E080E090E00E9484096623A1F06BE8D1
:1033400078E085E993E00E9497214AE050E0B501DA
:1033500085E993E00E949B2268E778E085E993E0A5
:103360000E949721FFCF9FEFA91AB90AE8E04E0EFD
:10337000511C611C711CF0E1AF16B10471F66BE5D4
:1033800078E085E993E00E94D7210E946D18CC2354
:10339000D1F169E278E085E993E00E94D72105E068
:1033A00013E05801C0E2D0E0F50141915F01BE0198
:1033B0008BE893E00E94771F2196C03AD105A1F7D0
:1033C00064E178E085E993E00E94D721C0E2D0E093
:1033D000BE018BE893E00E94741FF80191918F0168
:1033E000891739F06FEE77E085E993E00E94D721E5
:1033F000FFCF2196C03AD10559F76DED77E085E909
:1034000093E00E94D721DF91CF911F910F91FF9000
:10341000EF90DF90CF90BF90AF907F906F905F90D4
:103420004F900C94CF171F93CF93DF936FE977E002
:1034300085E993E00E94D72162E877E085E993E08F
:103440000E94D721C0E1D0E060E071E080E090E030
:103450000E943421462FBE018BE893E00E94771F23
:103460002196C631D10581F76EE577E085E993E0D5
:103470000E94D721C0E2D0E0FE01E959F34F449108
:10348000BE018BE893E00E94771F2196C03AD105D8
:1034900099F769E477E085E993E00E94D721C0E2DB
:1034A000D0E0FE01E959F34F1491BE018BE893E09F
:1034B0000E94741F811739F064E277E085E993E098
:1034C0000E94D721FFCF2196C03AD10551F762E182
:1034D00077E085E993E00E94D72168E077E085E90D
:1034E00093E0DF91CF911F910C94D7212F923F92BF
:1034F0004F925F926F927F928F929F92AF92BF9204
:10350000CF92DF92EF92FF920F931F93CF93DF93AF
:10351000CDB7DEB7E6970FB6F894DEBF0FBECDBFCE
:103520001C012B0149AB5AAB2BAB3CAB0DAB1EAB1B
:1035300084E0882E912CA12CB12CCE0101963C0167
:1035400063018501740128E030E040E050E060E173
:1035500070E080E090E00E948409862F98E0690E78
:10356000711CE8E08E0E911CA11CB11CF4E38F16B7
:103570009104A104B10421F7AE014B5F5F4F5101EB
:10358000D20129A83AA88BA89CA86DA87EA8BE0144
:103590006B5C7F4F9A0124503109F9012081922FF1
:1035A0009170F50191935F0121FB992790F99D930B
:1035B00022FB992790F9F10191931F01207F2A01A5
:1035C000F3E04F1A5108F201908130E0392BF401F9
:1035D000219331934F019A0122503109F901208141
:1035E000207F2A01F1E04F1A5108F201908130E06A
:1035F000392BF301219331933F014C5F5F4F461705
:10360000570741F6E6960FB6F894DEBF0FBECDBF62
:10361000DF91CF911F910F91FF90EF90DF90CF90AE
:10362000BF90AF909F908F907F906F905F904F90E2
:103630003F902F9008956F927F928F929F92AF92BA
:10364000BF92CF92DF92EF92FF920F931F93CF938F
:10365000DF93CDB7DEB7C455D1090FB6F894DEBFFE
:103660000FBECDBF66EF76E085E993E00E94D721DB
:103670000E94BE1766EE76E085E993E00E94D721AE
:103680008E010F5F1F4F9E01275E3F4FAE014F5CC3
:103690005F4FBE01635C7F4FCE01875B9F4F0E94EF
:1036A000761A811105C16AEC76E085E993E00E9403
:1036B000D72160EA76E085E993E00E94D72166E7AA
:1036C00076E085E993E00E94D721C8017801085E81
:1036D0001F4FFE01F1963F01CC965C0178964F0199
:1036E000C12CD12C68E676E085E993E00E94972111
:1036F000FAE0CF16D10434F466E676E085E993E08B
:103700000E9497214AE050E0B60185E993E00E94CB
:103710009B2262E676E085E993E00E949721F4011E
:1037200081914F01813019F460E676E007C0811184
:1037300003C06EE576E002C06CE576E085E993E0D3
:103740000E94972168E576E085E993E00E94972141
:10375000F50181915F01813019F466E576E007C0DB
:10376000811103C064E576E002C062E576E085E998
:1037700093E00E9497216EE476E085E993E00E9451
:103780009721F30181913F01813019F46CE476E0D7
:1037900007C0811103C06AE476E002C068E476E005
:1037A00085E993E00E94972164E476E085E993E05F
:1037B0000E949721F801808191818115904130F418
:1037C00062E476E085E993E00E949721F801808128
:1037D00091818F3F910509F030F460E476E085E94E
:1037E00093E00E949721F80180819181409730F405
:1037F0006EE376E085E993E00E949721F80160810D
:10380000718140E150E085E993E00E94CE226AE3B5
:1038100076E085E993E00E949721F701808191810C
:103820008115904130F468E376E085E993E00E94E9
:103830009721F701808191818F3F910509F030F444
:1038400066E376E085E993E00E949721F7018081A5
:103850009181409730F464E376E085E993E00E943B
:103860009721F701619171917F0140E150E085E975
:1038700093E00E94CE2285E993E00E94C321FFEFEE
:10388000CF1ADF0A0E5F1F4F2CE0C216D10409F0D9
:1038900029CF6AE076E085E993E00E94D72168EBC2
:1038A00075E085E993E00E94D7216EE875E002C0DB
:1038B00062E775E085E993E00E94D7210E94CF1767
:1038C000CC5ADF4F0FB6F894DEBF0FBECDBFDF91ED
:1038D000CF911F910F91FF90EF90DF90CF90BF900D
:1038E000AF909F908F907F906F9008958F929F924E
:1038F000AF92BF92CF92DF92EF92FF920F931F93FE
:10390000CF93DF93CDB7DEB7E0970FB6F894DEBF65
:103910000FBECDBF4C015B013EE1C32E31E0D32E83
:10392000E12CF12C870122E030E040E050E060E142
:1039300070E080E090E00E94D90994014501FE0109
:103940003496BE016C5C7F4F5F0143E0A41AB1085E
:10395000D9014C914160D5014C93AF0142505109BE
:10396000D90111968C912E5F3F4FDA018C934F5FF6
:103970005F4FD401BC90DA01BC92D40111968C91B6
:10398000B2E08B0E911C80833496E617F707E1F6C0
:10399000FE0131965F016F0114E0E12EF12C00E091
:1039A00010E028E130E040E050E060E170E080E0CD
:1039B00090E00E94D909CE0149966C011CE1E12EEC
:1039C000F12C00E010E028E130E040E050E060E160
:1039D00070E080E090E00E94D90980E3D5011D925B
:1039E0008A95E9F7650114E3E12EF12C00E010E07F
:1039F00020E130E040E050E060E170E080E090E005
:103A00000E94D909862FE0960FB6F894DEBF0FBE4C
:103A1000CDBFDF91CF911F910F91FF90EF90DF907D
:103A2000CF90BF90AF909F908F900895CF9365E512
:103A300075E085E993E00E94D7210E94BE1765E4F6
:103A400075E085E993E00E94D72169E371E081E2A6
:103A500091E00E94761CC82F811109C061E375E0D6
:103A600085E993E00E94D721CF910C94CF1761E0B4
:103A700075E085E993E00E9497214AE050E06C2FC1
:103A800085E993E00E94B722FFCF8F929F92AF9279
:103A9000BF92CF92DF92EF92FF920F931F93CF933B
:103AA000DF936DED74E085E993E00E94D7210E94D9
:103AB000BE1764EB74E085E993E00E94D72105E826
:103AC00013E0C0E1D0E0BE018BE893E00E94741FD8
:103AD000F80181938F012196C631D105A1F767E9DD
:103AE00074E085E993E00E94D72185E893E00E9485
:103AF0003D0A81116AC063E874E085E993E00E94A1
:103B0000D7216CE574E085E993E00E94D72105E0B8
:103B100013E0C0E2D0E0BE018BE893E00E94741F86
:103B2000F80181938F012196C03AD105A1F76AE08F
:103B300074E085E993E00E94D721812C912C5401F7
:103B4000C0E0D0E0C4018B5F9C4F6C018501740123
:103B500020E230E040E050E06BE070E080E090E098
:103B60000E94D9096623A1F060EE73E085E993E035
:103B70000E9497214AE050E0BE0185E993E00E944F
:103B80009B2264ED73E085E993E00E949721FFCFCB
:103B9000219690E2890E911CA11CB11CC430D10564
:103BA00089F660EC73E085E993E00E94D721DF910C
:103BB000CF911F910F91FF90EF90DF90CF90BF902A
:103BC000AF909F908F900C94CF176DE274E085E9D1
:103BD00093E00E94D721FFCF0F931F93CF93C82F5D
:103BE000882319F065EA73E002C068E873E085E9AC
:103BF00093E00E94D7210E94BE1764E773E085E935
:103C000093E00E94D721CC2369F020910A013091E2
:103C10000B0140E050E007E01DE064E070E080E070
:103C200090E00CC0209108013091090140E050E083
:103C300007E01DE065E070E080E090E00E949F0AF0
:103C400081110BC060E673E085E993E00E94D72103
:103C5000CF911F910F910C94CF1767E373E085E923
:103C600093E00E94D721FFCF64E273E085E993E0FF
:103C70000E94D7216BE073E085E993E00E94D72191
:103C800068ED72E085E993E00E94D7216DE972E06A
:103C900085E993E00E94D72165E772E085E993E02A
:103CA0000E94D7216EE272E085E993E00E94D7215D
:103CB00063EF71E085E993E00E94D72165EC71E044
:103CC00085E993E00E94D7216EE771E085E993E0F2
:103CD0000E94D7216AE571E085E993E00E94D7212F
:103CE00064E371E085E993E00E94D72185E993E0E0
:103CF0000E94C32185E993E00C94C321CF93DF9305
:103D0000FC018081803321F4DF91CF910C94DD1789
:103D1000813311F480E012C0823321F4DF91CF911E
:103D20000C94B418833321F4DF91CF910C941B1BB6
:103D3000843341F48181893589F581E0DF91CF9128
:103D40000C94FE18853339F48181843439F5DF9180
:103D5000CF910C94131A863339F481818935F1F4AB
:103D6000DF91CF910C94161D873339F48181893509
:103D7000A9F4DF91CF910C94451D883329F48181FA
:103D8000893561F481E006C0893341F48181893548
:103D900029F480E0DF91CF910C94EC1DEF016DE1EF
:103DA00071E085E993E00E949721BE0185E993E0E7
:103DB0000E94BA216BE171E085E993E0DF91CF9138
:103DC0000C94D72160E072EC85E993E00E94CB234C
:103DD00062EF70E085E993E00E94D72168EC70E023
:103DE00085E993E00C94D7210F9304E02DE04BE09C
:103DF0006AE084E093E00E941A170F910895EF9211
:103E0000FF920F931F93CF93DF93CDB7DEB7A197A8
:103E10000FB6F894DEBF0FBECDBFCE0101967C0178
:103E200081E2F70111928A95E9F70E94341E00E0C1
:103E300010E085E993E00E94D422892BD1F385E933
:103E400093E00E94F8228A3061F0F701E00FF11F41
:103E500080830F5F1F4F003211055CF30FE110E00C
:103E6000E8CFC7010E947E1EA1960FB6F894DEBF70
:103E70000FBECDBFDF91CF911F910F91FF90EF90BB
:103E8000089561E081E10E94DB2061E081E10E9410
:103E90009F208CB580618CBD8CB580648CBD61E049
:103EA0008FE00E949F2061E080E10C949F208111AF
:103EB00003C08CB5806202C08CB58F7D8CBD089527
:103EC0009CB5937F892B8CBD08959CB5282F2370BA
:103ED0009C7F922B9CBD2DB582FB992790F9822F58
:103EE0008E7F892B8DBD0895CB010C94892ACB013F
:103EF000642F0C94912A1F920F920FB60F921124E7
:103F00002F933F938F939F93AF93BF9380918D0394
:103F100090918E03A0918F03B091900330918C0308
:103F200023E0230F2D3720F40196A11DB11D05C0FC
:103F300026E8230F0296A11DB11D20938C038093C8
:103F40008D0390938E03A0938F03B0939003809181
:103F5000910390919203A0919303B09194030196E1
:103F6000A11DB11D8093910390939203A09393039D
:103F7000B0939403BF91AF919F918F913F912F91F7
:103F80000F900FBE0F901F9018953FB7F894809137
:103F9000910390919203A0919303B091940326B55D
:103FA000A89B05C02F3F19F00196A11DB11D3FBF71
:103FB000BA2FA92F982F8827820F911DA11DB11DFF
:103FC000BC01CD0142E0660F771F881F991F4A95FB
:103FD000D1F70895CF92DF92EF92FF92CF93DF93C4
:103FE0006B017C010E94C51FEB01C114D104E104E7
:103FF000F10479F00E94C51F6C1B7D0B683E734075
:10400000A0F381E0C81AD108E108F108C851DC4FDB
:10401000ECCFDF91CF91FF90EF90DF90CF9008959C
:10402000789484B5826084BD84B5816084BD85B593
:10403000826085BD85B5816085BDEEE6F0E080815A
:1040400081608083E1E8F0E010828081826080837B
:10405000808181608083E0E8F0E0808181608083FE
:10406000E1E9F0E0808182608083808181608083EB
:10407000E0E9F0E0808181608083E1ECF0E0808124
:10408000846080838081826080838081816080837E
:10409000E3ECF0E0808181608083E0ECF0E08081FF
:1040A00082608083E2ECF0E0808181608083EAE7D7
:1040B000F0E0808184608083808182608083808161
:1040C00081608083808180688083089590E0FC0116
:1040D0003197EE30F10590F5EA5AFF4F0C94032A20
:1040E000809180008F7703C0809180008F7D8093C6
:1040F0008000089584B58F7702C084B58F7D84BD1C
:104100000895809190008F7707C0809190008F7DF7
:1041100003C080919000877F8093900008958091E4
:10412000C0008F7703C08091C0008F7D8093C00056
:1041300008958091C200877F8093C2000895CF9335
:10414000DF9390E0FC01EB5DF24F2491FC01ED5B0D
:10415000F24F8491882361F190E0880F991FFC0150
:10416000E358F24FC591D491FC01E159F24FA5916A
:10417000B491611109C09FB7F8948881209582237A
:104180008883EC912E230BC0623061F49FB7F894C2
:104190003881822F809583238883EC912E2B2C935A
:1041A0009FBF06C08FB7F894E8812E2B28838FBF5E
:1041B000DF91CF9108951F93CF93DF93282F30E0A5
:1041C000F901E95FF24F8491F901EB5DF24FD4916F
:1041D000F901ED5BF24FC491CC23C9F0162F811188
:1041E0000E946620EC2FF0E0EE0FFF1FE159F24F26
:1041F000A591B4918FB7F894111105C09C91ED2F42
:10420000E095E92302C0EC91ED2BEC938FBFDF9199
:10421000CF911F910895CF93DF93282F30E0F901BC
:10422000E95FF24F8491F901EB5DF24FD491F9010E
:10423000ED5BF24FC491CC2391F081110E94662076
:10424000EC2FF0E0EE0FFF1FEF59F24FA591B49164
:10425000EC91ED2381E090E021F480E002C080E069
:1042600090E0DF91CF910895CF93DF9300D000D0FD
:10427000CDB7DEB7611571058105910579F09B0118
:10428000AC0169833A834B835C830E94722A298143
:104290003A814B815C810E94E42903C060E070E0B8
:1042A000CB010F900F900F900F90DF91CF91089559
:1042B0000C94EE23CF92DF92EF92FF920F931F9315
:1042C000CF93DF936C01EB017B01E40EF51E00E060
:1042D00010E0CE15DF0561F06991D601ED91FC91FA
:1042E0000190F081E02DC6010995080F191FF1CF4B
:1042F000C801DF91CF911F910F91FF90EF90DF9058
:10430000CF9008956115710579F0FB0101900020AF
:10431000E9F73197AF01461B570BDC01ED91FC919A
:104320000280F381E02D099480E090E00895EF92FF
:10433000FF920F931F93CF93DF937C01FB0100E06B
:1043400010E06491EF012196662361F0D701ED91B1
:10435000FC910190F081E02DC7010995080F191F0C
:10436000FE01EFCFC801DF91CF911F910F91FF9018
:10437000EF9008950C948221DC01ED91FC91019065
:10438000F081E02D09940F931F93CF93DF93EC01FD
:104390006DE00E94BC218C016AE0CE010E94BC212C
:1043A000800F911FDF91CF911F910F9108950F936F
:1043B0001F93CF93DF93EC010E9497218C01CE01D4
:1043C0000E94C321800F911FDF91CF911F910F9108
:1043D00008950F931F93CF93DF93EC010E948221E6
:1043E0008C01CE010E94C321800F911FDF91CF91DC
:1043F0001F910F9108958F929F92AF92BF92CF928B
:10440000DF92EF92FF920F931F93CF93DF93CDB77D
:10441000DEB7A1970FB6F894DEBF0FBECDBF6C011B
:10442000142FE52FCB01022F19A2223008F40AE045
:104430007E0121E2E20EF11C802E912CA12CB12CE8
:10444000612F7E2FA50194010E94C229029F10199D
:10445000112481E0E81AF1081A3014F4105D01C04B
:10446000195CF7011083122FE32FCA01232B242B91
:10447000252B31F7B701C6010E948221A1960FB604
:10448000F894DEBF0FBECDBFDF91CF911F910F918A
:10449000FF90EF90DF90CF90BF90AF909F908F9064
:1044A0000895CF92DF92EF92FF920F931F93CF93D5
:1044B000DF93EC016A017B012115310579F4E88174
:1044C000F9810190F081E02D642FDF91CF911F9150
:1044D0000F91FF90EF90DF90CF9009942A30310533
:1044E000E9F477FF1AC06DE20E94BC218C014427D9
:1044F0005527BA014C195D096E097F092AE0CE01E2
:104500000E94FB21800F911FDF91CF911F910F918E
:10451000FF90EF90DF90CF9008952AE0B701A601B9
:10452000CE01DF91CF911F910F91FF90EF90DF901F
:10453000CF900C94FB219A01AB01662757FD609543
:10454000762F0C9451222115310541F4DC01ED91B7
:10455000FC910190F081E02D642F09940C94FB21D3
:104560009A01462F50E060E070E00C94A3220F9374
:104570001F93CF93DF93EC019A01462F50E060E048
:1045800070E00E94A3228C01CE010E94C321800F03
:10459000911FDF91CF911F910F9108959A01AB0167
:1045A00060E070E00C94A3228091E3039091E40317
:1045B0002091E5033091E603821B930B8F739927BB
:1045C00008952091E3033091E4038091E5039091F5
:1045D000E6032817390749F0E091E503F091E60377
:1045E000ED55FC4F808190E008958FEF9FEF089587
:1045F0002091E3033091E4038091E5039091E60379
:1046000028173907A9F0E091E503F091E603ED558D
:10461000FC4F80812091E5033091E6032F5F3F4FEF
:104620002F7333273093E6032093E50390E008953A
:104630008FEF9FEF0895CF93DF93C091E303D09165
:10464000E4032196CF73DD278091E5039091E60383
:10465000C817D90799F082E00E9486258F3F2FEF77
:10466000920761F0E091E303F091E403ED55FC4F14
:104670008083D093E403C093E303DFCFDF91CF9136
:10468000089583E00C94ED270F931F93CF93DF934E
:104690001F92CDB7DEB78C01698380911301882307
:1046A00059F041E050E0BE016F5F7F4F83E00E9410
:1046B000B725181619063CF081E090E0F8019383C5
:1046C000828380E090E00F90DF91CF911F910F9156
:1046D0000895FC0190819E5F908342E450E06BE876
:1046E0007DE080E80C944E26FC0181819081913A16
:1046F00059F4813209F04BC047E050E06CE071E0C2
:1047000080E00E944E2645C0913209F040C08032C0
:1047100039F467E070E08CE091E00E94952639C0A2
:10472000823209F034C082818093130180910C01A0
:1047300090910D01A0910E01B0910F01803B94402A
:10474000A105B10531F58091130180FD12C087E705
:1047500097E790930108809300082BE088E190E0B0
:104760000FB6F894A895809360000FBE2093600068
:1047700010C088E10FB6F89480936000109260003A
:104780000FBEA895109201081092000802C080E0A8
:10479000089581E008950895E5E9F3E01382128217
:1047A00088EE93E0A0E0B0E084839583A683B7838E
:1047B00085E591E09183808308950E94102087EE23
:1047C00093E00E94F7270E94E21EC0E0D0E00E9422
:1047D000FF1E2097E1F30E940000F9CFCF93DF93F3
:1047E0008230910510F482E090E0E091FF03F091B7
:1047F000000420E030E0C0E0D0E0309711F14081CB
:10480000518148175907C0F04817590761F4828150
:104810009381209719F09B838A832BC09093000487
:104820008093FF0326C02115310519F04217530765
:1048300018F49A01BE01DF01EF010280F381E02D3F
:10484000DCCF2115310509F1281B390B2430310546
:1048500090F412968D919C9113976115710521F03A
:10486000FB019383828304C0909300048093FF0331
:10487000FD01329644C0FD01E20FF31F8193919335
:10488000225031092D933C933AC02091FD03309181
:10489000FE03232B41F42091160130911701309330
:1048A000FE032093FD032091140130911501211581
:1048B000310541F42DB73EB74091180150911901CF
:1048C000241B350BE091FD03F091FE03E217F30783
:1048D000A0F42E1B3F0B2817390778F0AC014E5F70
:1048E0005F4F2417350748F04E0F5F1F5093FE03AC
:1048F0004093FD038193919302C0E0E0F0E0CF018B
:10490000DF91CF9108950F931F93CF93DF9300977B
:1049100009F48CC0FC013297138212820091FF03CC
:10492000109100040115110581F420813181820F5D
:10493000931F2091FD033091FE032817390779F565
:10494000F093FE03E093FD0371C0D80140E050E016
:10495000AE17BF0750F412962D913C911397AD01FD
:104960002115310509F1D901F3CF9D01DA01338316
:10497000228360817181860F971F8217930769F4E4
:10498000EC0128813981260F371F2E5F3F4F31837D
:1049900020838A819B8193838283452B29F4F09322
:1049A0000004E093FF0342C01396FC93EE9312972A
:1049B000ED01499159919E01240F351FE217F3072C
:1049C00071F480819181840F951F029611969C93BA
:1049D0008E938281938113969C938E931297E0E03D
:1049E000F0E0D80112968D919C911397009719F0E1
:1049F000F8018C01F6CF8D919C9198012E5F3F4F6D
:104A0000820F931F2091FD033091FE032817390771
:104A100069F4309729F4109200041092FF0302C049
:104A2000138212821093FE030093FD03DF91CF9156
:104A30001F910F910895615030F02091F100FC0119
:104A400020830196F8CF289884E68093EE0308959A
:104A50002FB7FC012083F89467706093E9000895F4
:104A6000CF93DF931F92CDB7DEB7682FCE010196AB
:104A70000E9428258091F20099819FBF0F90DF91BD
:104A8000CF910895EF92FF920F931F93CF93DF93EF
:104A90001F92CDB7DEB79091ED03992311F057FF28
:104AA00003C08FEF9FEF2AC08A017B01682FCE01E0
:104AB00001960E9428258091F20090E0A8018017BD
:104AC00091070CF4AC01842FF70194E6815038F083
:104AD00028989093EE032091F1002193F7CF411590
:104AE000510521F08091F200882321F089818FBF48
:104AF000CA0104C08BE68093E800F8CF0F90DF91E5
:104B0000CF911F910F91FF90EF900895CF93DF9376
:104B10001F92CDB7DEB741E050E0BE016F5F7F4F1F
:104B20000E944225019719F4898190E002C08FEF1D
:104B30009FEF0F90DF91CF910895CF93DF931F9256
:104B4000CDB7DEB7682FCE0101960E94282590913F
:104B5000E800892F807295FF04C09091F20080E4F4
:104B6000891B99819FBF0F90DF91CF9108954F923C
:104B70005F926F927F928F929F92AF92BF92CF92ED
:104B8000DF92EF92FF920F931F93CF93DF931F92C9
:104B9000CDB7DEB7A82E6B01B42E052F8091ED03A3
:104BA000882369F0E42EF52E8AEF782E8A2D807204
:104BB000582E9AE3692E8A2D8074482E11C08FEFEB
:104BC0009FEF4FC08A2D0E949D25182F81110CC088
:104BD0007A94A9F361E070E080E090E00E94EA1F1F
:104BE000E114F10479F733C090E0E816F9060CF40B
:104BF0001E2D812E912CE818F9086A2DCE01019600
:104C00000E942825552029F01150A8F01092F1009B
:104C1000FBCFF601A7FE07C0115058F08491809396
:104C2000F1003196F9CF115020F081918093F1007D
:104C3000FACFC80CD91C8091E80085FF0FC0E114A1
:104C4000F10411F441100AC089818FBFC9CF5D986A
:104C500084E68093EF038B2D902F03C06092E800D1
:104C6000F3CF0F90DF91CF911F910F91FF90EF90B5
:104C7000DF90CF90BF90AF909F908F907F906F907C
:104C80005F904F9008951092E9001092EC031092FB
:104C9000EB039093EA038093E90308950F931F9326
:104CA000CF93DF93DB01A40FB51FFB016EEFEA1773
:104CB000FB0791F187FF02C0249101C02081009180
:104CC000EB031091EC03C091E903D091EA030C17B8
:104CD0001D07B4F49091E8009570E1F39091E8001D
:104CE00092FD1CC02093F1002091EB033091EC0366
:104CF0002F5F3F4F2F733327232B11F46093E8006E
:104D00002091EB033091EC032F5F3F4F3093EC0386
:104D10002093EB033196CBCFCA0102C08FEF9FEFF8
:104D2000DF91CF911F910F9108951F93CF93DF9340
:104D30001F92CDB7DEB7162F2091E80022FFFCCFDF
:104D4000612F79830E941B258BEF8093E800812FD0
:104D50007981972F0F90DF91CF911F910895CF9375
:104D6000DF931F92CDB7DEB71982CE0101960E9464
:104D70006923CE0101960E949228898190E00F90CC
:104D8000DF91CF9108951F920F920FB60F921124C9
:104D9000CF92DF92EF92FF921F932F933F934F9307
:104DA0005F936F937F938F939F93AF93BF93EF9393
:104DB000FF93CF93DF93CDB7DEB76197DEBFCDBF53
:104DC0001092E9008091E80083FFE9C068E0CE011D
:104DD0000A960E941B2582EF8093E8009A8597FF30
:104DE00005C08091E80080FFFCCF03C08EEF809368
:104DF000E800892F807609F0B7C08B85811105C046
:104E00001092F1001092F100C3C0282F2D7F2130A5
:104E100009F4BEC0853049F48091E80080FFFCCFE2
:104E20008C8580688093E300B3C0863009F070C041
:104E30001D85123079F5C888D98880E090E00E94FD
:104E400043260E94AF2699E09E012F5F3F4F7901D4
:104E5000F901292F11922A95E9F799831A8391E094
:104E60009E8390E898879AEF99872091EB03309181
:104E7000EC03275F3F4F3C832B838D83C6010E9449
:104E8000432649E050E0B70180E00E944E260E9490
:104E9000AF267EC0888999890E944326123241F448
:104EA00082E290E00E949D28892B09F071C074C0B5
:104EB000113069F488899989089711F41093E803EF
:104EC0008091E803811111C064EE7DE016C01330BB
:104ED00009F062C08C85882359F0823061F08130FE
:104EE00009F05AC066EF7DE008C062ED7DE005C0C4
:104EF00060E37EE002C06EE07EE06115710509F4BA
:104F00004BC0FB01449150E080E80E944E2640C017
:104F1000873009F441C0883021F481E08093F100AA
:104F200037C08930A9F59370B9F580E090E031E0A1
:104F300026E341E0480F4093E9003093EB000196EF
:104F4000FC01E353F24FE491E093EC002093ED0079
:104F50008430910571F78EE78093EA001092EA00A1
:104F60008C858093ED0314C0888999890E9443261B
:104F70008E85811105C0CE010A960E94742306C059
:104F8000823051F4CE010A960E94C528882321F070
:104F90008EEF8093E80003C081E28093EB0061967E
:104FA0000FB6F894DEBF0FBECDBFDF91CF91FF915A
:104FB000EF91BF91AF919F918F917F916F915F9191
:104FC0004F913F912F911F91FF90EF90DF90CF90E5
:104FD0000F900FBE0F901F9018958093E90080915D
:104FE000F200882319F08AE38093E8000895109274
:104FF000ED0381E08093D70080EA8093D80082E1BE
:1050000089BD09B400FEFDCF61E070E080E090E072
:105010000E94EA1F80E98093D8008CE08093E20030
:105020001092E000559A209A08951F920F920FB6A1
:105030000F9211242F933F934F935F936F937F931E
:105040008F939F93AF93BF93EF93FF938091E10072
:105050001092E10083FF0FC01092E90091E090935D
:10506000EB001092EC0092E39093ED001092ED03B0
:1050700098E09093F00082FF26C083E00E94ED2725
:1050800082E00E943025882321F085E993E00E9488
:105090001B238091EF03882339F08091EF03815027
:1050A0008093EF03882369F08091EE03882359F001
:1050B0008091EE0381508093EE03811104C0289A01
:1050C00002C05D9AF1CFFF91EF91BF91AF919F9197
:1050D0008F917F916F915F914F913F912F910F90A1
:1050E0000FBE0F901F901895EF92FF921F93CF93D2
:1050F000DF93EC01162FE881F9810480F581E02D22
:1051000009957C01E881F9810680F781E02D612F06
:10511000CE010995C7019927DF91CF911F91FF908B
:10512000EF900895FC0190819F5F908349E150E0EA
:1051300064EB7EE080E80C944E2645E650E06DEC92
:105140007EE080E80C944E26EF92FF920F931F931F
:10515000CF93DF931F92CDB7DEB789838B017A019E
:1051600041E050E0BE016F5F7F4F84E00E94B725B1
:10517000A701B80184E40E94B7250F90DF91CF9179
:105180001F910F91FF90EF900895FC019181808114
:10519000813A31F481E0913091F0933089F411C07B
:1051A000813271F49B3021F4828180931B0105C010
:1051B0009A3031F4828180931A0181E00895089534
:1051C00080E0089548E050E082E00C94A428DC01DF
:1051D000683810F068582EC0E62FF0E067FF12C064
:1051E000E058F10981E090E00E2E01C0880F0A948A
:1051F000EAF714969C911497892B14968C93149724
:1052000060E018C0EC5CF14F6491611109C081E06D
:1052100090E013969C938E93129780E090E008950F
:1052200067FF08C014968C911497826014968C9333
:1052300014976F7716968C911697861751F11796DB
:105240008C911797861729F118968C9118978617C5
:1052500001F119968C9119978617D9F01A968C91AD
:105260001A978617B1F01B968C911B97861789F0B9
:10527000FD01369680E090E02191211105C0FD01ED
:10528000E80FF91F668305C0019686309105A1F7E6
:10529000BECFCD01BD016C5F7F4F0E94E22881E04F
:1052A00090E00895DC01683810F0685826C0E62FB9
:1052B000F0E067FF13C0E058F10981E090E00E2EA6
:1052C00001C0880F0A94EAF7809514969C91149770
:1052D000892314968C93149760E00FC0EC5CF14F17
:1052E0006491662301F167FF08C014968C911497AE
:1052F0008D7F14968C9314976F77FD01369686E018
:10530000662321F09081961301C01082815031965E
:105310008111F6CFCD01BD016C5F7F4F0E94E22865
:1053200081E090E0089580E090E00895FC0116820D
:10533000178210861186128613861482BC016C5F58
:105340007F4F0C94E2281092FC03E0EFF3E013820D
:10535000128287E691E0918380830895AA1BBB1B8C
:1053600051E107C0AA1FBB1FA617B70710F0A61B65
:10537000B70B881F991F5A95A9F780959095BC0186
:10538000CD010895A1E21A2EAA1BBB1BFD010DC081
:10539000AA1FBB1FEE1FFF1FA217B307E407F507E5
:1053A00020F0A21BB30BE40BF50B661F771F881FC1
:1053B000991F1A9469F760957095809590959B0157
:1053C000AC01BD01CF010895052E97FB1EF400949A
:1053D0000E94FB2957FD07D00E94C22907FC03D079
:1053E0004EF40C94FB2950954095309521953F4FF4
:1053F0004F4F5F4F089590958095709561957F4FC1
:105400008F4F9F4F0895EE0FFF1F0590F491E02DF1
:1054100009940E94142AA59F900DB49F900DA49FFB
:10542000800D911D11240895A29FB001B39FC0016A
:10543000A39F700D811D1124911DB29F700D811DC0
:105440001124911D08958F929F92AF92BF92CF9297
:10545000DF92EF92FF92CF93DF93EC016881798125
:105460008A819B81611571058105910521F464E2B2
:1054700079ED8BE597E02DE133EF41E050E00E94BC
:10548000E42949015A019B01AC01A7EAB1E40E9459
:10549000092A6B017C01ACEEB4EFA50194010E94D6
:1054A000A22AC60ED71EE81EF91EF7FE06C081E02E
:1054B000C81AD108E10880E8F80AC882D982EA82CD
:1054C000FB82C701B6019F77DF91CF91FF90EF90EC
:1054D000DF90CF90BF90AF909F908F9008950E94E3
:1054E000232A089580E091E00E94232A0895609382
:1054F00000017093010180930201909303010895CC
:10550000FB01DC0102C001900D9241505040D8F7E0
:105510000895F999FECF92BD81BDF89A992780B57B
:105520000895262FF999FECF1FBA92BD81BD20BDE7
:105530000FB6F894FA9AF99A0FBE01960895B7FF3C
:105540000C94092A0E94092A821B930B0895F8944F
:02555000FFCF8B
:1055520001000000FFFF00000812E81F00E1000048
:1055620000000000000001048000010123004C53F0
:10557200005000F00190039013902390439063A099
:1055820063B063F06330643068A001A001001000D2
:105592001000200020100010004000400000040015
:1055A200020000000044235A21D422F822E12241C1
:1055B200231B230000000074285A21E72852299651
:0255C2002900BE
:00000001FF
