:100000000C948F070C94B7070C94B7070C94B707A0
:100010000C94B7070C94B7070C94B7070C94B70768
:100020000C94B7070C945B130C94AD280C942E29F8
:100030000C94B7070C94B7070C94B7070C94B70748
:100040000C94B7070C94B7070C94B7070C94B70738
:100050000C94B7070C94B7070C94B7070C945F2166
:100060000C94B7070C94B7070C94B7070C94B70718
:100070000C94B7070C94B7070C94B7070C94B70708
:100080000C94B7070C94B7070C94B7070C94B707F8
:100090000C94B7070C94B7070C94B7070C94B707E8
:1000A0000C94B7070C94B7070C94B7072D3D2D3D62
:1000B0002D3D2D3D2D3D2D3D2D3D2D3D2D3D2D3DF0
:1000C0002D3D2D3D2D3D2D3D2D3D2D3D2D3D2D3DE0
:1000D0002D3D2D3D2D005468652041726475696E7B
:1000E0006F20434333303030204669726D77617240
:1000F0006520312E323420506174636865720022AD
:1001000000556E7265636F676E697A656420636F10
:100110006D6D616E64202200202020203959202D31
:10012000205772697465206E6577206669726D77F5
:1001300061726520746F20434333303030002020DB
:1001400020203859202D205772697465206E6577FC
:100150002064726976657220746F204343333030B7
:100160003000202020203759202D20436F70792027
:100170004D4143206164647265737320616E642035
:10018000726164696F2066696C652066726F6D20AC
:1001900041726475696E6F20454550524F4D207411
:1001A0006F20434333303030002020202036592048
:1001B0002D2057726974652061206E65772066690D
:1001C0006C65207461626C6520746F2074686520B2
:1001D00043433330303000202020203544202D2070
:1001E000436F70792064656661756C74204D41437E
:1001F00020616E6420726164696F2066696C65209D
:10020000746F2041726475696E6F20454550524F7E
:100210004D00202020203459202D20436F7079205C
:100220004D4143206164647265737320616E642084
:10023000726164696F2066696C652066726F6D20FB
:1002400043433330303020746F2041726475696EDF
:100250006F20454550524F4D002020202033202054
:100260002D2053686F772063757272656E7420431A
:1002700043333030302066696C65207461626C6590
:1002800000202020203220202D2053686F77204D21
:100290004143206164647265737320616E642072EF
:1002A0006164696F2066696C6520696E20417264C3
:1002B00075696E6F20454550524F4D00202020201B
:1002C0003120202D2053686F77204D4143206164F9
:1002D000647265737320616E6420726164696F205B
:1002E00066696C65206F6E204343333030300020E8
:1002F0002020203020202D205465737420746865E0
:1003000020434333303030000A0A436F6D6D616E15
:1003100064206F7074696F6E733A00202020202073
:1003200020202050726F626C656D2077726974694D
:100330006E672070617463682E2041626F72746909
:100340006E672E002020202020202020537563631C
:1003500065737366756C21002020202057726974C4
:10036000696E6720646174612E2E2E005772697465
:1003700065206E6577206669726D7761726520749D
:100380006F20434333303030005772697465206EFC
:1003900065772064726976657220746F20434333F9
:1003A000303030002020202020202020537563632F
:1003B00065737366756C2E002E2041626F727469CE
:1003C0006E672E00202020202020202050726F6297
:1003D0006C656D2077726974696E6720524D20726A
:1003E00065636F72642C206368756E6B200020203B
:1003F000202057726974696E6720524D20726563C0
:100400006F726420746F204343333030302E2E2EB1
:10041000002020202052656164696E6720524D20C3
:100420007265636F726420646174612066726F6DBF
:1004300020454550524F4D002020202020202020D4
:1004400050726F626C656D2077726974696E672097
:100450004D414320616464726573732E2041626F65
:100460007274696E672E00202020202020202053E7
:1004700075636365737366756C2E002020202057AA
:10048000726974696E67204D414320746F20434345
:10049000333030302E2E2E00202020205265616413
:1004A000696E67204D4143206164647265737320F7
:1004B000646174612066726F6D20454550524F4DE6
:1004C0000057726974696E67204D616320616E64C4
:1004D00020524D207265636F726420746F20434315
:1004E0003330303000202020202020202050726F18
:1004F000626C656D2077726974696E67204641543D
:100500002E2041626F7274696E67206F6E20657273
:10051000726F72200020202020202020205375633D
:100520006365737366756C21002020202057726903
:1005300074696E67204641540057726974696E672A
:100540002046696C65205461626C6520746F20439D
:100550004333303030002020202020202020556ED2
:1005600061626C6520746F2072656164204641543D
:100570002E00202020202020202020202020202D80
:100580002D2D2D2D2D2D2D2D2D2D2D2D2D2D2D2D9B
:100590002D2D2D2D2D2D2D2D2D2D2D0020202020EC
:1005A000202020202020202020413D4163746976B6
:1005B000652020563D56616C69642020573D577276
:1005C0006974652050726F7465637465642020419E
:1005D0006464723D53746172742061646472657303
:1005E0007320204C656E3D4C656E6774680020205A
:1005F00020202020202020202020202D2D2D2D2DBA
:100600002D2D2D2D2D2D2D2D2D2D2D2D2D2D2D2D1A
:100610002D2D2D2D2D2D2D002000200020002020FF
:100620002000200020002000202020003F004E005D
:100630005900202020003F004E00590020202000BB
:100640003F004E00590020202000200020202020C4
:1006500020202020202020202000202020202020BA
:10066000202020202020202D2D2D2D2D2D2D2D2D15
:100670002D2D2D2D2D2D2D2D2D2D2D2D2D2D2D2DAA
:100680002D2D2D0020202020202020202020202063
:1006900020202320202041202020562020205720C9
:1006A000202041646472202020204C656E002020B0
:1006B0002020202020204641542072656164207350
:1006C00075636365737366756C0020202020526526
:1006D0006164696E672046415400434333303030D3
:1006E0002046696C65205461626C6500030001015D
:1006F00014140027272727272727272727272727D7
:1007000027232525252525252525252323232300C6
:1007100000000000000000000000000000000000D9
:100720000000000050505050505050505050505009
:1007300050505050505050505050505050505050B9
:10074000505050505050500177801D1F22262829AC
:100750001A1F22242628161D1E2024251E2D0102C4
:10076000020202001515151115150E00202020207B
:10077000446F6E6521002020202020202020566517
:1007800072696679204F4B002020202020202020F5
:1007900020202020566572696679206661696C6543
:1007A000642E2041626F7274696E672E00202020D3
:1007B0002020202020566572696679696E672E2E8A
:1007C0002E0020202020436F7079696E67206465B9
:1007D0006661756C7420524D2066696C6520646199
:1007E00074612E2E2E002020202047656E657261D8
:1007F00074696E672072616E646F6D204D41432E87
:100800002E2E004D616B652072616E646F6D204D00
:10081000414320616E6420636F7079206465666176
:10082000756C7420526164696F2046696C65207430
:100830006F2041726475696E6F20454550524F4D6F
:100840000020202020202020205665726966792013
:100850004F4B002020202020202020202020205628
:100860006572696679206661696C65642E204162F3
:100870006F7274696E672E002020202020202020B7
:10088000566572696679696E672E2E2E00202020CB
:10089000202020202057726974696E67207261647D
:1008A000696F207265636F726420746F2041726497
:1008B00075696E6F20454550524F4D2E2E2E0020EB
:1008C0002020202020202052656164204F4B2E20C4
:1008D000526164696F20646174613A0020666169E5
:1008E0006C65642E2041626F7274696E672E002001
:1008F00020202052656164696E67206368756E6BA5
:1009000020002020202052656164696E672072619A
:1009100064696F207265636F72640057696C6C2044
:100920006E6F74207361766520746F204545505258
:100930004F4D00202020202020202020556E616275
:100940006C6520746F2072656164204D41432061A5
:100950006464726573732E200020202020202020E4
:1009600020566572696679204F4B00202020202098
:10097000202020202020205665726966792066613B
:10098000696C65642E2041626F7274696E672E0017
:100990002020202020202020566572696679696E0B
:1009A000672E2E2E00202020202020202057726924
:1009B00074696E67204D414320616464726573738E
:1009C00020746F2041726475696E6F2045455052E6
:1009D0004F4D2E2E2E0020202020202020204D4163
:1009E000432061646472657373207265616420736F
:1009F00075636365737366756C2E204D4143206982
:100A0000733A20002020202052656164696E6720BF
:100A10004D414320616464726573730053686F775E
:100A200020434333303030204D414320616E6420F9
:100A3000726164696F2066696C6500436F7079202C
:100A4000434333303030204D414320616E64207287
:100A50006164696F2066696C6520746F204545503C
:100A6000524F4D0020202020526164696F20646144
:100A700074613A00202020204D414320616464725B
:100A80006573733A20002020202052656164696EEE
:100A90006720524D207265636F72642064617461D7
:100AA0002066726F6D20454550524F4D002020202A
:100AB0002052656164696E67204D41432061646422
:100AC0007265737320646174612066726F6D204576
:100AD0004550524F4D0053686F77204D4143206180
:100AE0006E6420726164696F2066696C6520696E4E
:100AF000666F2066726F6D2041726475696E6F203B
:100B0000454550524F4D002000200020202020203D
:100B1000202020002062797465730020202020545A
:100B200058206275666665722073697A653A20009E
:100B3000206279746573002020202052582062754D
:100B4000666665722073697A653A20002E0020205F
:100B50002020202020204669726D77617265207602
:100B6000657273696F6E3A200020202020202020BB
:100B700020556E61626C6520746F207265747269B5
:100B80007665206669726D7761726520766572732D
:100B9000696F6E212041626F7274696E672E2E2E0E
:100BA0000020202020202020204D4143204164644B
:100BB000726573733A2000202020202020202055C9
:100BC0006E61626C6520746F2072657472696576FF
:100BD00065204D4143204164647265737321204157
:100BE000626F7274696E672E2E2E002020202043C3
:100BF000433330303020696E6974616C697A6564A2
:100C00002E2047657474696E6720696E666F2E2E9C
:100C10002E002020202020202020556E61626C654F
:100C200020746F20696E697469616C697A652074DB
:100C30006865204343333030302120436865636B5F
:100C400020796F757220776972696E672120416221
:100C50006F7274696E672E2E2E0020202020496E40
:100C6000697469616C697A696E672068617264771A
:100C70006172652E2E2E0054657374696E67207440
:100C80006865204343333030302E2E2E0020202044
:100C9000202020202053746F707065640020202075
:100CA0002053746F7070696E672043433330303067
:100CB0002E2E2E2E00202020202020202053746154
:100CC0007274656400202020205374617274696E10
:100CD00067204343333030302077697468206E6F6B
:100CE0002070617463686573003A0000000000249E
:100CF0000027002A002D00300000000000250028F9
:100D0000002B002E003100000000002300260029E7
:100D1000002C002F00040404040403040502020252
:100D20000204030202020206060606060604040284
:100D3000020204040802011040804010204080405C
:100D40008008020401804020100201108010204021
:100D5000400000000200080E0000030401000B0028
:100D600000070605040100080A0B0C0D09080B001A
:100D70000202020100090400000102020000052431
:100D800000100105240101010424020605240600C7
:100D9000010705810310004009040100020A000058
:100DA000000705020240000007058302400000041E
:100DB0000309042203410072006400750069006E9B
:100DC000006F0020004C0065006F006E0061007233
:100DD0000064006F00180341007200640075006930
:100DE000006E006F0020004C004C00430012010018
:100DF0000200000040412336800001010200011280
:100E0000010002020000404123368000010102007F
:100E10000100C18081C105010902A1010901A100F0
:100E2000850105091901290315002501950375019F
:100E300081029501750581030501093009310938E1
:100E40001581257F750895038106C0C00501090637
:100E5000A1018502050719E029E7150025017501A3
:100E6000950881029501750881039506750815009E
:100E700025650507190029658100C00904020001E4
:100E8000030000000921010100012265000705841B
:100E90000340000100000000000000002A2B280091
:100EA0000000000000000000000000000000000042
:100EB000000000002C9EB4A0A1A2A434A6A7A5AE59
:100EC000362D3738271E1F20212223242526B33311
:100ED000B62EB7B89F8485868788898A8B8C8D8E3D
:100EE0008F909192939495969798999A9B9C9D2F09
:100EF0003130A3AD350405060708090A0B0C0D0EA9
:100F00000F101112131415161718191A1B1C1DAFE8
:100F1000B1B0B5003A1452198A25EC27B02A112431
:100F20001FBECFEFDAE0DEBFCDBF11E0A0E0B1E041
:100F3000E0EDF8E502C005900D92A037B107D9F7B2
:100F400013E0A0E7B1E001C01D92AD3FB107E1F7AA
:100F50001FE0CEE1DFE004C02297FE010E942B2CAF
:100F6000C431D107C9F70E94A1260C94662C0C94B9
:100F70000000A0E0B0E0EFEBF7E00C94372CEC01C0
:100F8000A880B980CA80DB80A114B104C104D10457
:100F900041F484E2A82E89EDB82E8BE5C82E87E0B7
:100FA000D82EC601B5012DE133EF41E050E00E949B
:100FB0000E2C27EA31E440E050E00E94B92B7B017F
:100FC0008C01C601B5012DE133EF41E050E00E94F4
:100FD0000E2CCA01B9012CEE34EF4FEF5FEF0E94E7
:100FE000B92B6E0D7F1D801F911F97FF04C06150AC
:100FF000704080409048688379838A839B839B01FB
:10100000AC015F77B901CA01CDB7DEB7EAE00C9455
:10101000532C0E94B907089585E091E00E94B9071A
:1010200008956093050170930601809307019093E2
:1010300008010895FB01DC0102C001900D924150AE
:101040005040D8F70895AF92BF92CF92DF92EF92BF
:10105000FF920F931F9370937901609378015093DF
:101060007B0140937A0130937D0120937C011093A2
:10107000810100938001F0928301E0928201D0927D
:101080008501C0928401B0928701A092860190935D
:101090007F0180937E0181E080939C011F910F91DD
:1010A000FF90EF90DF90CF90BF90AF9008950F9397
:1010B0001F93DF93CF9300D000D0CDB7DEB7AB0145
:1010C000BC01DB01CA0188709078A070B0708850B4
:1010D0009048A040B040A9F410929C01483080E8AC
:1010E000580780E0680780E0780729F420E030E0C6
:1010F00040E050E02AC0477F5F77607070705068B2
:1011000003C081E080939C018FEF9FEFAFEFBFEFB3
:1011100089839A83AB83BC83009176011091770118
:10112000C80109960E94EC1788E090E0B80144E0FD
:101130000E94050C88E090E0BE016F5F7F4F0E9427
:10114000CC1229813A814B815C81B901CA010F908F
:101150000F900F900F90CF91DF911F910F910895F5
:101160000F931F93DF93CF9300D000D0CDB7DEB79E
:10117000AB01BC010091760110917701C80109967D
:101180000E94EC178FEF9FEFAFEFBFEF89839A8339
:10119000AB83BC8386E090E0B80144E00E94050C7C
:1011A00086E090E0BE016F5F7F4F0E94CC126981A4
:1011B0007A818B819C810F900F900F900F90CF912F
:1011C000DF911F910F9108954F925F926F927F92DE
:1011D0008F929F92AF92BF92CF92DF92EF92FF9247
:1011E0000F931F93DF93CF9300D000D0CDB7DEB71E
:1011F0005B016C0139014A018FEF9FEFAFEFBFEF49
:1012000089839A83AB83BC834090760150907701A9
:10121000C2010996B601A5010E94EC17B401A30111
:101220000E94EC17B801A7010E94EC1784E090E03F
:10123000B2014CE00E94050C84E090E0BE016F5FBB
:101240007F4F0E94CC1269817A818B819C810F90A3
:101250000F900F900F90CF91DF911F910F91FF9002
:10126000EF90DF90CF90BF90AF909F908F907F9046
:101270006F905F904F900895E0918601F091870103
:1012800080E00995E0918001F09181010995611557
:10129000710581059105B1F38091760190917701F7
:1012A000892B21F010927701109276010E94D013C1
:1012B0000895CF92DF92EF92FF920F931F93D82E53
:1012C000C92E1092940110929501109296011092DD
:1012D0009701109298011092990110929A01109220
:1012E0009B01109271011092700110928D01109269
:1012F0008C0110928F0110928E0110929101109228
:101300009001109293011092920110928801109214
:10131000890110928A0110928B0110927301109230
:10132000720110927501109274018FE392E0909314
:101330007701809376018FEF99E00E941617E09174
:101340008001F091810109957B018C01E09186017A
:10135000F091870181E00995E114F104010511057F
:1013600059F0E0918001F0918101099561157105B5
:1013700081059105B1F714C0E0918001F0918101E0
:1013800009956115710581059105B1F3E091800121
:10139000F091810109956115710581059105B1F7FC
:1013A000E0917601F09177018D2D9C2D9C012330E9
:1013B000310510F022E030E0218780E090E4BF01A9
:1013C00041E00E94050C80E090E460E070E00E9443
:1013D000CC1260917601709177018BE090E440E04F
:1013E0000E94050C8BE090E460E070E00E94CC125B
:1013F0001F910F91FF90EF90DF90CF90089521E023
:1014000030E03093730120937201909375018093C3
:1014100074010E94DA0E08950F931F93DF93CF9308
:1014200000D000D00F92CDB7DEB78C01609176016D
:101430007091770187E092E040E00E94050C87E020
:1014400092E0BE016F5F7F4F0E94CC128C81F80149
:1014500080838D81818389810F900F900F900F90F1
:101460000F90CF91DF911F910F9108952F923F928E
:101470004F925F926F927F928F929F92AF92BF92A4
:10148000CF92DF92EF92FF920F931F93DF93CF9350
:1014900000D000D0CDB7DEB73B014C01522E432E19
:1014A000342E252E8FEF9FEFAFEFBFEF89839A8306
:1014B000AB83BC83A0907601B0907701C5010A96FA
:1014C000B401A3010E94EC174CE050E060E070E032
:1014D0000E94EC17452D542D632D722D0E94EC17A0
:1014E000B801A7010E94EC179501265E3F4FC90184
:1014F000B601452D542D0E941A0880E990E0B501EF
:1015000040E1252D342D0E94E80B82E092E0BE01DF
:101510006F5F7F4F0E94CC1269817A818B819C81A1
:101520000F900F900F900F90CF91DF911F910F911F
:10153000FF90EF90DF90CF90BF90AF909F908F90F3
:101540007F906F905F904F903F902F9008952F92D3
:101550003F924F925F926F927F928F929F92AF9243
:10156000BF92CF92DF92EF92FF920F931F93DF9380
:10157000CF93CDB7DEB7A6970FB6F894DEBF0FBEF8
:10158000CDBF69A37AA38BA39CA329013A0149018A
:101590005A011E010894211C311CCE0181969EA384
:1015A0008DA332C087ED93E060E071E00E942C25AE
:1015B000610187ED93E00E94402518161906CCF7CB
:1015C00087ED93E00E946725D6018D936D01EDA113
:1015D000FEA1AE17BF0769F700E010E069A17AA18C
:1015E0008BA19CA120E230E040E050E061010E942C
:1015F000360A662309F041C080EE9FEFAFEFBFEFE0
:10160000880E991EAA1EBB1E7201E818F90890E206
:1016100089169104A104B10428F681149104A1044F
:10162000B10411F460E029C087ED93E060E071E05F
:101630000E942C258E010F5F1F4F68013801680C36
:10164000791C0EC087ED93E00E94402518161906FC
:10165000CCF787ED93E00E946725D8018D938D012B
:101660000615170579F700E010E069A17AA18BA1B2
:101670009CA1A50194010E94360A862FA6960FB65A
:10168000F894DEBF0FBECDBFCF91DF911F910F91B8
:10169000FF90EF90DF90CF90BF90AF909F908F9092
:1016A0007F906F905F904F903F902F900895CF92D2
:1016B000DF92EF92FF920F931F936C0166E070E050
:1016C00080E090E026E030E040E050E0EE24FF24AF
:1016D00087010E94360A862F1F910F91FF90EF908D
:1016E000DF90CF9008952F923F924F925F926F922A
:1016F0007F928F929F92AF92BF92CF92DF92EF92A2
:10170000FF920F931F93DF93CF930F92CDB7DEB766
:101710004B015C0129013A018FEF8983209076010A
:1017200030907701C1010996B501A4010E94EC1720
:10173000B301A2010E94EC17B801A7010E94EC17A7
:1017400081E092E0B1014CE00E94050C81E092E062
:10175000BE016F5F7F4F0E94CC12C60160E070E057
:1017600040E050E00E94C312698170E080E090E0A8
:101770000F90CF91DF911F910F91FF90EF90DF902D
:10178000CF90BF90AF909F908F907F906F905F9021
:101790004F903F902F900895CF92DF92EF92FF925B
:1017A0000F931F936C0166E070E080E090E026E00C
:1017B00030E040E050E0EE24FF2487010E94730BEC
:1017C000862F1F910F91FF90EF90DF90CF9008959B
:1017D000EF92FF920F931F937B01890192E0FB012F
:1017E000958386834783040F111DCB010896B801AA
:1017F0000E9408180B5F1F4FC701B8010E940D1609
:101800001F910F91FF90EF900895EF92FF920F9329
:101810001F939C017B01042F81E0FB018583CB0199
:101820000696B9010E940818FC01008310E00C5FC5
:101830001F4FC701B8010E940D1680E090E01F9174
:101840000F91FF90EF9008954F925F926F927F9269
:101850008F929F92AF92BF92CF92DF92EF92FF92C0
:101860000F931F93CF93DF936B014A01E90145E08A
:10187000442E512C460E571E93E0FB019583868320
:1018800037E0632E712C660E771E8E010E5F1F4FA0
:10189000C301B8010E9408187C012BE0A22EB12CD4
:1018A000AC0CBD1CF3E0C93EDF0790F4BE010E9402
:1018B0000818C701BE010E940818C501B401AE0195
:1018C0000E941A082696C601BE010E940D1647C046
:1018D000CE0168EE73E00E94D82B660F771F060FCB
:1018E000171FC701B8010E940818C70168EE73E00E
:1018F0000E940818D501F40188EE93E001900D9242
:101900000197E1F78E01085E134088EEE82E83E030
:10191000F82EE80CF91CC6016EEE73E01BC00E94A5
:101920008D1583E0093E180720F4E80100E010E07F
:1019300004C0085E1340C8EED3E0F201D183C08337
:10194000C301B701AE010E941A08EC0EFD1E2296DB
:10195000C201BE010E940D160115110501F7DF91AC
:10196000CF911F910F91FF90EF90DF90CF90BF909C
:10197000AF909F908F907F906F905F904F90089561
:101980008F929F92AF92BF92CF92DF92EF92FF928F
:101990000F931F93DF93CF93CDB7DEB7AA970FB600
:1019A000F894DEBF0FBECDBF8C0161E070E00E94F5
:1019B00010189C016C01EE24FF24D6FE6DC081E45A
:1019C0002030380709F068C0C80165E070E00E9467
:1019D00010184C0197E0A92EB12CA00EB11ECC24FA
:1019E000DD24EE24FF24870112C0C50162E070E00F
:1019F0000E941018A0E0B0E0E80EF91E0A1F1B1F9D
:101A0000A4E0B0E0AA0EBB1E0894C11CD11CC814EF
:101A1000D90458F380918C0190918D018E0D9F1DFA
:101A200090938D0180938C01809198019091990100
:101A3000A0919A01B0919B01E80EF91E0A1F1B1F8D
:101A4000E0929801F092990100939A0110939B0102
:101A5000209198013091990140919A0150919B01F8
:101A60008091940190919501A0919601B091970178
:101A7000281739074A075B0709F07EC180919C014E
:101A8000882309F479C1E0917E01F0917F0169E931
:101A900070E080E090E03FC0C60180709078892BB4
:101AA00009F4E8C0B0E820313B07C9F1E0E8213192
:101AB0003E0770F4F0E821303F0708F462C180E887
:101AC00023303807D8F02450304809F05AC116C0E6
:101AD000A0E820383A0791F0B0E821383B0728F415
:101AE0002054304809F04DC16CC0F2E820303F0767
:101AF00029F02050384809F044C1A7C080917E01E8
:101B000090917F01892B09F437C1E0917E01F0911A
:101B10007F01C701B60140E050E020E094C0F80129
:101B20003596D80115968C9115978E8B81818F8B68
:101B30008281888F8381898FF801399619968C91DB
:101B400019978A8F81818B8F82818C8F83818D8F72
:101B5000F8013D961D968C911D978E8F81818F8FF8
:101B6000828188A3838189A3F801719651968C9113
:101B700051978AA381818BA382818CA383818DA3BA
:101B8000F801759655968C9155978EA381818FA3F8
:101B9000828188A7838189A714968C918AA78091D6
:101BA0007E0190917F01892B09F4E6C0E0917E01CE
:101BB000F0917F01C701B601AE014A5E5F4F25E19A
:101BC00042C00B5F1F4FC80160E070E00E941A180E
:101BD0006A837B838C839D83C80164E070E00E94EC
:101BE0001A186E837F8388879987C80168E070E040
:101BF0000E941A186A877B878C879D87C8016CE0D2
:101C000070E00E941A186E877F87888B998BC801B5
:101C100060E170E00E941A189B01AC0180917E0186
:101C200090917F01892B09F4A7C0E0917E01F0918A
:101C30007F012A8B3B8B4C8B5D8BC701B601AE01BC
:101C40004E5F5F4F24E1099597C0F80105818091AF
:101C50007E0190917F01892B09F48EC0E0917E0175
:101C6000F0917F010983C701B601AE014F5F5F4F5D
:101C700021E0E9CFF3E0CF16F0E1DF06F0E0EF0678
:101C8000F0E0FF0699F02FE0C21620E1D20620E036
:101C9000E20620E0F20651F08EE0C81680E1D80698
:101CA00080E0E80680E0F80609F06BC085E0C82E09
:101CB000D12CC00ED11EC60164E070E00E941A183B
:101CC000675C7F4F8F4F9F4F09F05BC0F8018481A5
:101CD00090E0A0E0B0E08093880190938901A09308
:101CE0008A01B0938B01C60160E070E00E941A186F
:101CF0007B018C01C60164E070E00E941A18675CE9
:101D00007F4F8F4F9F4FC1F528E0E216F104010588
:101D1000110590F581E090E00E2C02C0880F991F0C
:101D20000A94E2F780959095AA2797FDA095BA2F7F
:101D30002091090130910A0140910B0150910C0151
:101D400082239323A423B52321E030E040E050E038
:101D50000E2C04C0220F331F441F551F0A94D2F7C4
:101D6000822B932BA42BB52B8093090190930A010E
:101D7000A0930B01B0930C0121E030E040E050E073
:101D800004C020E030E040E050E0B901CA01AA966A
:101D90000FB6F894DEBF0FBECDBFCF91DF911F917C
:101DA0000F91FF90EF90DF90CF90BF90AF909F90FA
:101DB0008F9008958091720190917301892BD1F0D9
:101DC000E0917401F09175018081843099F4CF0124
:101DD0000E94C00C613071058105910559F4109283
:101DE0007301109272010E94E01721E030E040E0A0
:101DF00050E004C020E030E040E050E0B901CA010A
:101E00000895DF93CF9300D000D0CDB7DEB719820D
:101E10001A821B821C82FC018581823021F1833071
:101E200009F43FC0813009F05FC080917A01909140
:101E30007B01892B91F0E0917A01F0917B01CE0139
:101E400001960995AC01009741F06091760170917F
:101E5000770129813A8181E045C0609176017091D6
:101E6000770181E03BC08091780190917901892BC5
:101E700091F0E0917801F0917901CE0101960995F8
:101E8000AC01009741F06091760170917701298152
:101E90003A8182E027C0609176017091770182E0FB
:101EA0001DC080917C0190917D01892B91F0E09182
:101EB0007C01F0917D01CE0101960995AC0100975E
:101EC00041F0609176017091770129813A8183E038
:101ED00009C0609176017091770183E040E050E0A5
:101EE00020E030E00E94240C0F900F900F900F9094
:101EF000CF91DF9108954F925F926F927F928F9270
:101F00009F92AF92BF92CF92DF92EF92FF920F9388
:101F10001F93CF93DF936C012B013A01AA24BB24BA
:101F20000E948D158091720190917301892BC1F3EC
:101F30008090740190907501D4018C91843009F0E7
:101F4000BDC2C40161E070E00E9410185C01C401D0
:101F50000E94C00C611571058105910509F0A2C2AE
:101F6000E4012596B8E0AB16B0E1BB0608F056C018
:101F7000E6E0AE16E0E1BE0608F0C4C0F2E0AF163F
:101F8000F2E0BF0609F4BEC003E0A01602E0B0060E
:101F900000F51DE0A116B10480F468E0A616B104B6
:101FA00008F0B0C081E0A816B10408F47BC297E045
:101FB000A916B10408F4A6C0C2C1ADE0AA16B104C6
:101FC00009F49BC0B1E0AB16B2E0BB0609F06AC2EF
:101FD00094C0E3E0AE16E0E1BE0698F4F1E0AF167F
:101FE000F0E1BF0608F08EC005E0A01602E0B006E2
:101FF00008F483C017E0A11612E0B10609F052C23E
:1020000085C064E0A61660E1B60609F4C9C085E0A3
:10201000A81680E1B80608F0A0C02FC191E1A9166A
:1020200090E1B90609F469C0A2E1AA16A0E1BA06D6
:1020300058F5BBE0AB16B0E1BB0609F463C0ECE0B9
:10204000AE16E0E1BE0668F4F9E0AF16F0E1BF06B7
:1020500009F458C00AE0A01600E1B00608F05EC11D
:1020600027C11FE0A11610E1B10609F406C160E125
:10207000A61660E1B60608F05AC08DE0A81680E109
:10208000B80609F00FC28CC096E0A91690E2B90616
:10209000A1F1A7E0AA16A0E2BA0660F4B1E0AB167F
:1020A000B0E2BB0608F4FEC1E5E0AE16E0E2BE0613
:1020B00020F180C1F8E0AF16F0E2BF0608F4F2C1EB
:1020C0000AE0A01600E2B006C0F01BE0A11610E482
:1020D000B10609F0E7C1D40115968C9190E0909378
:1020E0008D0180938C01CE0161E070E00E94101898
:1020F00090938F0180938E01D5C1F4018481D60124
:102100008C93D0C1CE0160E070E01FC0D401149662
:102110008C91F60181936F01CE0160E070E00E9426
:102120001A18AB01BC01C6010E94EC17BBC1CE015D
:1021300060E070E00E941A18D6016D937D938D9334
:102140009D936D01CE0164E070E00E941A18F601C3
:102150006083718382839383A5C1CE0160E070E0C8
:102160000E941A18D6016D937D938D939D938D01D6
:10217000CE0164E070E00E941A18F6016483758352
:1021800086839783E4E0CE2ED12CC00ED11ED601DB
:10219000FE01389680E101900D928150E1F782C1F5
:1021A000CE0160E070E00E941A18D6016D937D9315
:1021B0008D939D938D01CE0164E070E00E941A180A
:1021C000F601648375838683978374E0C72ED12CD0
:1021D000C00ED11ECE0168E070E00E941A189B016B
:1021E000AC01D80114966D937D938D939C931797B2
:1021F000F60184819581A681B781875C9F4FAF4F9F
:10220000BF4F09F04FC1283031054105510508F095
:1022100049C1822F21E030E0082E02C0220F331F77
:102220000A94E2F720953095442737FD4095542FC6
:10223000E0900901F0900A0100910B0110910C014E
:102240002E213F214023512361E0E62EF12C012D68
:10225000112D04C0EE0CFF1C001F111F8A95D2F730
:102260002E293F29402B512B2093090130930A013D
:1022700040930B0150930C0115C1CE0160E070E05A
:102280000E941A18D6016D937D938D939D938D01B5
:10229000CE0164E070E00E941A18F6016483758331
:1022A0008683978354E0C52ED12CC00ED11EFAC070
:1022B000CE0160E070E00E941A18D6016D937D9304
:1022C0008D939D938D01CE0164E070E00E941A18F9
:1022D000F601648375838683978344E0E42EF12CB2
:1022E000E00EF11ECE0168E070E00E941A18D801DD
:1022F00014966D937D938D939C93179734E0C32E22
:10230000D12CCE0CDF1CCE016CE070E00E941A18BC
:10231000F7016483758386839783C4C0D4011496C0
:102320008C911497F601848315968D919D910D9053
:10233000BC91A02D80839183A283B383B3C0CE01CF
:1023400060E070E00E941A18D6016D937D938D9322
:102350009D938D01CE0164E070E00E941A18F60191
:102360006483758386839783CE0168E070E00E9462
:102370001018A0E0B0E0F80184839583A683B783AA
:10238000CE016AE070E00E941018A0E0B0E0F60113
:1023900082879387A487B5872CE0E22EF12CCE0CA0
:1023A000DF1CD601FE013C9686E201900D92815021
:1023B000E1F778C0D40115968C91F601819389815B
:1023C000D60111968C938A8181838B8182839601B9
:1023D0002C5F3F4FDE0114968C81F60184831196A9
:1023E0008C911197858312968C9112978683139600
:1023F0008C9113978783A9014C5F5F4FFD01349641
:1024000014968C91D90114968C938181D6011996DA
:102410008C93199782811A968C931A9783811B96B5
:102420008C93DF0114968481FA01848311968C9138
:102430001197F601858712968C91129786871396CD
:102440008C9113978787FD01349614968C91DA014D
:1024500018968C938181D9011D968C931D9782814A
:102460001E968C931E9783811F968C93E401960190
:10247000F401D601A4014A5F5F4F818D54968C937D
:10248000549731961196E417F507B9F7A401405E09
:102490005F4F8F8DF901828F21962F5F3F4FC417B9
:1024A000D507B9F78091700190917101A816B9060E
:1024B000B9F5109271011092700132C0D4011296D8
:1024C0000C91C40163E070E00E941018EC0141140B
:1024D0005104A1F0C401059664E070E00E941A184E
:1024E000462FF301608371838283938394012B5E73
:1024F0003F4FC201B90150E00E941A08202F30E07E
:10250000FE01E21BF30B2B5F3F4F280D391DC60167
:10251000B901AF010E941A08109293011092920122
:1025200010927301109272010E94E017D4018C91F5
:10253000843041F4B0E0AB16B0E1BB0619F4C4013D
:102540000E94010F8091700190917101892B09F017
:10255000E7CC8091920190919301892B09F0E0CC16
:1025600080E090E0DF91CF911F910F91FF90EF906D
:10257000DF90CF90BF90AF909F908F907F906F90A3
:102580005F904F90089521E030E0309393012093C5
:1025900092010E947B0F08959093710180937001C6
:1025A000CB0160E070E040E050E00E947B0F0895B6
:1025B000CF93DF93EC01DB0112962C9312971196C7
:1025C0005C934E93EA81FB81808113969C911397D3
:1025D000892B808312968C911297833011F0813071
:1025E00031F48D8113969C911397892B8D831296CC
:1025F0008C9112978150823028F48E8113969C9191
:10260000892B8E83809168009C81892B8093680040
:10261000DF91CF910895CF93DF9390E0FC01EB5EC3
:10262000F24F2491222309F443C0223019F4A0EA86
:10263000B1E002C0A0E0B0E08D5C924FFC0194914B
:102640001896CD91DC91199731C08B81891759F576
:102650002FB7F8941296ED91FC9113978081909585
:10266000982390831296ED91FC9113978081882393
:1026700049F49091680014968C9114978095892361
:102680008093680015968C9115979B81909589236E
:1026900015968C93159716968C91169798231696E7
:1026A0009C932FBF05C00D80DE81C02D209769F659
:1026B000DF91CF9108951F920F920FB60F921124C0
:1026C0000F931F932F933F934F935F936F937F933A
:1026D0008F939F93AF93BF93CF93DF93EF93FF932A
:1026E000E091A001F091A101808180939D01509122
:1026F0009D012091A7014091A50190919D013091EC
:10270000A60180919D01809583239423892B252701
:10271000822390919D019093A701C091A801D0912F
:10272000A901082F10E01CC08B81282F30E0C801C0
:1027300082239323892B89F080919D0140E090E0D2
:1027400082239323892B09F041E040939F018C81E0
:1027500080939E01E881F98109950D80DE81C02D6D
:10276000209711F78BB39091A401892321F08BB3AB
:10277000892B8BBBB5CFFF91EF91DF91CF91BF91AB
:10278000AF919F918F917F916F915F914F913F9109
:102790002F911F910F910F900FBE0F901F901895C2
:1027A0008091BA019091BB01892B21F01092BB015D
:1027B0001092BA01E0918401F09185010995089584
:1027C0001092C3028091C5020E940B130895CF930B
:1027D000DF930E94E0135D9A8091AD018CBD8091E2
:1027E000AC01882319F08DB5816002C08DB58E7F54
:1027F0008DBDC091BA01D091BB01CE57DF4F88810A
:10280000C258D0408E3D09F0FFCF82E090E0A0E0BA
:10281000B0E08093B4019093B501A093B601B0935A
:10282000B701E091AE01F091AF01CE010596099597
:10283000DF91CF9108951092C3028091C5020E944A
:102840000B130895FC01108211821282138280E022
:1028500090E00895FC01108211821282138280E0C0
:1028600090E00895FC01108211821282138280E0B0
:1028700090E00895EBE0FDE0859194919093A101A3
:102880008093A0018BE690E09093A3018093A20136
:1028900081E08093A4011092A5011092A6011092EC
:1028A000A9011092A80108958091C5020E943023C9
:1028B0009C01442737FD4095542FB901CA01089562
:1028C000882321F08091C60261E003C08091C60296
:1028D00060E00E94FD2208950F931F93CF93DF9332
:1028E0008C01EB0184E00E941F2120E030E093E0A6
:1028F0000BC09EBD0DB407FEFDCF8EB5F801E20FF3
:10290000F31F80832F5F3F4F2C173D0790F3DF911C
:10291000CF911F910F910895EF92FF920F931F9304
:10292000CF93DF93C091BA01D091BB018D818230EA
:1029300021F0843009F047C01BC0CE01059663E04A
:1029400070E00E9410189C0140E050E080FD05C03E
:102950002F5F3F4F4F4F5F4F05C021153105410598
:10296000510589F1CE010A96B9010E946C142BC061
:102970008885282F30E040E050E079018A010894F2
:10298000E108F10801091109DA01C9010996A11D3F
:10299000B11D80FF02C079018A01E114F104010533
:1029A000110529F0CE010A96B7010E946C1488E047
:1029B00090E0A0E0B0E08093B4019093B501A093C3
:1029C000B601B093B70160E070E080E090E0DF9185
:1029D000CF911F910F91FF90EF9008950E948C145A
:1029E000611571058105910511F40E94E7130895A1
:1029F0008091BA019091BB016AE070E00E946C1472
:102A0000089581E08093C2028091B4019091B50154
:102A1000A091B601B091B7010097A105B10569F485
:102A200081E090E0A0E0B0E08093B4019093B50124
:102A3000A093B601B093B7016DC082309105A10596
:102A4000B10591F586E090E0A0E0B0E08093B4019C
:102A50009093B501A093B601B093B7015D988CB582
:102A60008093AD018DB581708093AC018091AA01F6
:102A70008CBD8091AB01882319F08DB5816002C0B7
:102A80008DB58E7F8DBD0E94F81488E090E0A0E0A7
:102A9000B0E08093B4019093B501A093B601B093D8
:102AA000B7010E94EE1436C00397A105B10591F558
:102AB0004091B8015091B9012091B0013091B1011C
:102AC00090E009C0E40FF51F80818EBD0DB407FEB4
:102AD000FDCF8EB59F5FE92FF0E0E217F30790F38B
:102AE00082E090E0A0E0B0E08093B4019093B50163
:102AF000A093B601B093B7015D9A8091AD018CBDF2
:102B00008091AC01882319F08DB5816002C08DB52C
:102B10008E7F8DBD1092C20208958091C5020E94E1
:102B20003023892B51F48091C202882331F48091A3
:102B3000C302882311F00E94011508950F931F937B
:102B4000CF93DF93EC018B015D988CB58093AD0141
:102B50008DB581708093AC018091AA018CBD80916C
:102B6000AB01882319F08DB5816002C08DB58E7FD1
:102B70008DBD61E070E080E090E00E94A72120E040
:102B800030E0FE01E20FF31F80818EBD0DB407FE21
:102B9000FDCF8EB52F5F3F4F2430310591F761E0B7
:102BA00070E080E090E00E94A721FE013496B80119
:102BB0006450704020E009C0AE0FBF1F8C918EBDE5
:102BC0000DB407FEFDCF8EB52F5FA22FB0E0A61784
:102BD000B70790F382E090E0A0E0B0E08093B4010A
:102BE0009093B501A093B601B093B7015D9A80911F
:102BF000AD018CBD8091AC01882319F08DB5816049
:102C000002C08DB58E7F8DBD60E070E080E090E009
:102C1000DF91CF911F910F9108950F931F93CF9341
:102C2000DF93EC0190E060FF91E081E088839B01FD
:102C3000290F311D3983960F9A831B821C82809144
:102C4000C1028E3D09F0FFCF8091B4019091B50192
:102C5000A091B601B091B7010097A105B10509F4A3
:102C6000FFCF89010B5F1F4F0197A105B10529F423
:102C7000CE01B8010E949E157CC0E0918401F091C4
:102C8000850109958091B4019091B501A091B6019B
:102C9000B091B7010297A105B10509F080C083E0AA
:102CA00090E0A0E0B0E08093B4019093B501A093D0
:102CB000B601B093B701D093B901C093B801109396
:102CC000B1010093B0015D988CB58093AD018DB5D5
:102CD00081708093AC018091AA018CBD8091AB0181
:102CE000882319F08DB5816002C08DB58E7F8DBDB2
:102CF000E0918201F09183010995E0918001F091CA
:102D000081010995611571058105910591F5409144
:102D1000B8015091B9012091B0013091B10190E01A
:102D200009C0E40FF51F80818EBD0DB407FEFDCFF5
:102D30008EB59F5FE92FF0E0E217F30790F382E092
:102D400090E0A0E0B0E08093B4019093B501A0932F
:102D5000B601B093B7015D9A8091AD018CBD8091B1
:102D6000AC01882319F08DB5816002C08DB58E7FCE
:102D70008DBD8091B4019091B501A091B601B09143
:102D8000B7010297A105B10549F460E070E080E069
:102D900090E0DF91CF911F910F910895FFCFFFCF6A
:102DA0008091C60261E00E9460228091C60260E0CC
:102DB0000E94FD2264EF71E080E090E00E94A72174
:102DC000559A8091C50260E00E9460228091C50200
:102DD00061E00E94FD228CB58093AD018DB58170BC
:102DE0008093AC010E94352184E00E941F2181E084
:102DF0000E9416218091C8020E9424218CB58093E4
:102E0000AA018DB581708093AB015D9A8091AD016F
:102E10008CBD8091AC01882319F08DB5816002C012
:102E20008DB58E7F8DBD80E090E00895CF93DF93C8
:102E30001092B4011092B5011092B6011092B70130
:102E4000ACEBB1E023E8ED01E22F1992EA95E9F746
:102E5000EFE3F2E0EF0119922A95E9F79093AF01C1
:102E60008093AE011092B1011092B0011092B9019D
:102E70001092B801B093BB01A093BA011092B301B4
:102E80001092B2018EED80933E028093C102E091D8
:102E90008201F09183010995DF91CF910895CF923E
:102EA000DF92EF92FF920F931F93CF93DF938C01EA
:102EB000F62E6A01E22EFC01C085D185209789F0AB
:102EC0008C818F1541F4C801BE01A6012E2D0E94F0
:102ED000D81280E03CC08D819E81009731F0EC01DA
:102EE000EFCF80E090E09C01E90187E090E00E9454
:102EF0008223DC0111961C921E9212961C9212974C
:102F0000009711F48FEF23C01496FC921497129639
:102F1000EC92129716961C921E921597EF2DF0E0E8
:102F2000ED5CF24FE4911396EC931397F8018085D2
:102F30009185892B19F4B187A08702C0BE83AD8328
:102F4000C801BD01A6012E2D0E94D81281E0DF919B
:102F5000CF911F910F91FF90EF90DF90CF90089548
:102F6000582F9B01742FE82FF0E0EB5EF24F849115
:102F70008823C1F021153105A9F0823019F4A0EAA7
:102F8000B1E002C0A0E0B0E0ED91FC91119780812A
:102F900017968C931797CD01652FA901272F0E94B3
:102FA0004F1708958FEF089581E08093C3028091B9
:102FB000C50261E075E142E050E00E94B01708955B
:102FC00081E08093C3028091C50261E075E142E037
:102FD00050E00E94B0170895CF93DF93FC01DC010D
:102FE0004D939D01BB27A72F962F852F8183F90134
:102FF0003196CB01AA27BB27E9018983472F5527A3
:103000006627772741833296CF01DF91CF910895CC
:10301000DC01FC01619311967C933196CF010895F8
:10302000FB01E80FF91F318120E08081280F311D5D
:10303000C9010895FB01E80FF91F238130E040E04A
:1030400050E0522F442733272227828190E0A0E0CE
:10305000B0E0DC0199278827280F391F4A1F5B1F22
:103060008081280F311D411D511D818190E0A0E01C
:10307000B0E0BA2FA92F982F8827280F391F4A1F91
:103080005B1FB901CA0108950F93FC011082609380
:10309000C4024093C5022093C6028FEF8093C702FB
:1030A0000093C8021092F1021092F2021092F30201
:1030B0001092F4021092ED021092EE021092EF02C2
:1030C0001092F0021092FE021092FF021092000382
:1030D000109201031092E9021092EA021092EB02A0
:1030E0001092EC020F9108950F931F938B019C0196
:1030F000FA01003880E8180780E0280780E03807E8
:1031000081F481E090E0A0E0B0E08093E902909348
:10311000EA02A093EB02B093EC0281E08093FD02FF
:103120004BC0013080E8180780E0280780E03807AE
:1031300069F481E090E0A0E0B0E08093ED0290932C
:10314000EE02A093EF02B093F00248C0023080E894
:10315000180780E0280780E03807C9F41092ED02D4
:103160001092EE021092EF021092F0021092F10211
:103170001092F2021092F3021092F4021092F902ED
:103180001092FA021092FB021092FC0235C000313C
:1031900080E8180780E0280780E0380769F481E0BC
:1031A00090E0A0E0B0E08093F1029093F202A0934F
:1031B000F302B093F40220C009391105210531054D
:1031C00069F481E090E0A0E0B0E08093F502909394
:1031D000F602A093F702B093F8020EC00050184810
:1031E0002040304049F44081403230F4E42FF0E098
:1031F000E753FD4F81E080831F910F9108956F92F7
:103200007F929F92AF92BF92CF92DF92EF92FF9206
:103210000F931F933C01962E0E94D01684E798E1ED
:1032200062E374E142E254E12AE234E104E514E1AC
:10323000A4EDEA2EA7E1FA2EFBE1CF2EF4E1DF2E7A
:10324000E0E6AE2EE4E1BE2E0E942308892D90E038
:103250000E94590960E070E080E090E020E030E0FA
:1032600040E050E0EE24FF2487010E94E4086FEF65
:1032700070E080E090E00E94B00864E072E880E0D6
:1032800090E00E94570881E0F30180831F910F9125
:10329000FF90EF90DF90CF90BF90AF909F907F9086
:1032A0006F9008950F9388E893E06AE04BE02DE07B
:1032B00004E00E9444180F9108950F931F9307EDA7
:1032C00013E0C80160E072EC0E943F25C80166ED82
:1032D00070E00E94F223C8016CEA70E00E94F223C1
:1032E0001F910F9108950F931F9307ED13E0C801ED
:1032F00068E073E00E94F223C8016FEE72E00E9462
:10330000F223C8016CEB72E00E94F223C80161E86D
:1033100072E00E94F223C80169E572E00E94F22384
:10332000C80162E172E00E94F223C80167ED71E01A
:103330000E94F223C80169EA71E00E94F223C801E9
:1033400062E671E00E94F223C8016EE371E00E9420
:10335000F223C80168E171E00E94F223C8010E94D3
:10336000D223C8010E94D2231F910F9108958F92FA
:103370009F92AF92BF92CF92DF92EF92FF920F9304
:103380001F93DF93CF93CDB7DEB7E0970FB6F894D6
:10339000DEBF0FBECDBFB82EA92E962E872E60E1C0
:1033A00070E080E090E022E030E040E050E0EE2489
:1033B000FF248701E2E0CE2EE1E0DE2E0E94360AF5
:1033C0002B2D3A2DC901AC01292D382DC901BC0185
:1033D000FE0131969E012F5C3F4FDA018C91816096
:1033E000808311968C918183DB018C91828311966D
:1033F0008C91838334964E5F5F4F6E5F7F4FE217F1
:10340000F30759F760E170E080E090E028E130E0F8
:1034100040E050E0B4E0EB2EF12C012D112D5E01C7
:103420000894A11CB11C65010E94360A60E170E09D
:1034300080E090E028E130E040E050E0ACE1EA2EAE
:10344000F12C012D112DF9E1CF2ED12CCC0EDD1E4A
:103450000E94360A80E3F50111928A95E9F760E14E
:1034600070E080E090E020E130E040E050E0E4E314
:10347000EE2EF12C012D112D65010E94360A862FAA
:10348000E0960FB6F894DEBF0FBECDBFCF91DF91AF
:103490001F910F91FF90EF90DF90CF90BF90AF9072
:1034A0009F908F9008952F923F924F925F926F92CC
:1034B0007F928F929F92AF92BF92CF92DF92EF92C4
:1034C000FF920F931F93DF93CF93CDB7DEB7E897AB
:1034D0000FB6F894DEBF0FBECDBF9AAB89AB7CAB05
:1034E0006BAB5EAB4DAB38AF2FAB18013E01089410
:1034F000611C711C04E0802E912CA12CB12C11E3D5
:10350000412E512C4C0E5D1E60E170E080E090E099
:1035100028E030E040E050E08501740163010E9442
:10352000730B88E090E0680E791E88E090E0A0E0E0
:10353000B0E0880E991EAA1EBB1E6414750421F704
:10354000FE01319680818170A9A9BAA98D93BAAB89
:10355000A9AB808190E08270907095958795ABA91A
:10356000BCA98D93BCABABAB808190E084709070B4
:103570009595879595958795ADA9BEA98D93BEAB79
:10358000ADAB808190E0807F9070518140E0842BD2
:10359000952BAFA9B8AD8D939D93B8AFAFAB82819A
:1035A00090E0807F9070338120E0822B932BD101BB
:1035B0008D939D931D013496E615F70519F6862F18
:1035C000E8960FB6F894DEBF0FBECDBFCF91DF9166
:1035D0001F910F91FF90EF90DF90CF90BF90AF9031
:1035E0009F908F907F906F905F904F903F902F9023
:1035F00008951F93CF93DF9387ED93E063E078E026
:103600000E94F22387ED93E066EE77E00E94F223BA
:10361000C0E1D0E060E071E080E090E00E946023D3
:10362000462F89E893E0BE010E9453212196C631BE
:10363000D10581F787ED93E062EC77E00E94F223F9
:10364000C0E2D0E0FE01E453F94FE49189E893E051
:10365000BE014E2F0E9453212196C03AD10591F709
:1036600087ED93E06DEA77E00E94F223C0E2D0E0BC
:10367000FE01E453F94F149189E893E0BE010E94E2
:103680004C21811739F087ED93E068E877E00E94DC
:10369000F223FFCF2196C03AD10551F787ED93E091
:1036A00066E777E00E94F22387ED93E06CE677E02F
:1036B0000E94F223DF91CF911F910895EF92FF9224
:1036C0000F931F93CF93DF93EE24FF2487ED93E0B6
:1036D0006BE07BE00E94AF238701085F1C4FC0E0D6
:1036E000D0E0F8018081803130F487ED93E069E02B
:1036F0007BE00E94AF2387ED93E0F80161918F0199
:1037000040E150E00E94A62487ED93E067E07BE073
:103710000E94AF232196C031D10519F787ED93E0C0
:103720000E94D22380E190E0E80EF91E90E8E916AD
:10373000F10461F6DF91CF911F910F91FF90EF900F
:103740000895CF93DF93C0E0D0E006C087ED93E00B
:1037500069EE7CE00E94AF23FE01EE5FFC4F87ED37
:1037600093E0608140E150E00E94A6242196C6309B
:10377000D10561F787ED93E00E94D223DF91CF91CD
:103780000895CF93DF9387ED93E066ED7AE00E9492
:10379000F22387ED93E06DEA7AE00E94F223C0E124
:1037A000D0E089E893E0BE010E944C21FE01EE507A
:1037B000FD4F80832196C631D10599F787ED93E0BF
:1037C00066E87AE00E94F223C0E2D0E089E893E064
:1037D000BE010E944C21FE01E851FD4F80832196DD
:1037E000C03AD10599F787ED93E064E77AE00E944B
:1037F000AF230E94A11B87ED93E064E67AE00E946C
:10380000F2230E945E1BDF91CF9108950F931F93C7
:1038100007ED13E0C80165EC7CE00E94F22388E824
:1038200093E062E00E94FF18C80165EB7CE00E9413
:10383000F2231F910F9108950F931F9307ED13E04B
:10384000C8016DE97CE00E94F2230E943C09C80196
:103850006DE87CE00E94F2231F910F9108950F9371
:103860001F93182F882329F087ED93E069E873E010
:1038700004C087ED93E06CE673E00E94F2230E949F
:10388000061C87ED93E068E573E00E94F2231123A4
:1038900069F020910D0130910E0140E050E064E0AC
:1038A00070E080E090E00BE113E00CC020910F018C
:1038B0003091100140E050E065E070E080E090E081
:1038C0000BE113E00E94A70A882359F487ED93E0E7
:1038D00064E473E00E94F2230E941C1C1F910F916C
:1038E000089587ED93E06BE173E00E94F223FFCF30
:1038F0008F929F92AF92BF92CF92DF92EF92FF9200
:103900000F931F93CF93DF9387ED93E061EC74E007
:103910000E94F2230E94061C87ED93E068E974E0A0
:103920000E94F22300E110E089E893E0B8010E94D0
:103930004C21F801EE50FD4F80830F5F1F4F063181
:10394000110591F787ED93E06BE774E00E94F22395
:1039500082E093E00E94570B882379F487ED93E08F
:1039600067E674E00E94F22387ED93E061E174E082
:103970000E94F22300E210E007C087ED93E068E3C5
:1039800074E00E94F223FFCF89E893E0B8010E941F
:103990004C21F801E851FD4F80830F5F1F4F003A23
:1039A000110591F787ED93E06EEE73E00E94F2232C
:1039B000C0E0D0E0882499245401F401E85FFC4F72
:1039C0006BE070E080E090E020E230E040E050E02A
:1039D000850174016F010E94360A6623A1F087ED0C
:1039E00093E064EC73E00E94AF2387ED93E0BE01A7
:1039F0004AE050E00E94162587ED93E068EB73E003
:103A00000E94AF23FFCF219680E290E0A0E0B0E0DB
:103A1000880E991EAA1EBB1EC430D10571F687ED13
:103A200093E064EA73E00E94F2230E941C1CDF9181
:103A3000CF911F910F91FF90EF90DF90CF90BF90AB
:103A4000AF909F908F9008951F9387ED93E069E367
:103A500075E00E94F2230E94061C87ED93E069E264
:103A600075E00E94F2238FE191E067E371E00E942C
:103A7000B719182F882351F487ED93E065E175E0BD
:103A80000E94F2230E941C1C1F91089587ED93E071
:103A900065EE74E00E94AF2387ED93E0612F4AE06A
:103AA00050E00E94B824FFCF2F923F924F925F9236
:103AB0006F927F928F929F92AF92BF92CF92DF923E
:103AC000EF92FF920F931F93DF93CF93CDB7DEB7A3
:103AD000C455D0400FB6F894DEBF0FBECDBF87ED02
:103AE00093E06AED76E00E94F2230E94061C87EDC7
:103AF00093E06AEC76E00E94F2233DE0632E712CA5
:103B00006C0E7D1E29E1422E512C4C0E5D1E95E25D
:103B1000A92EB12CAC0EBD1E8DE3E82EF12CEC0EBF
:103B2000FD1E4E010894811C911CC401B301A20129
:103B3000950187010E94531A882309F00FC187ED70
:103B400093E06EEA76E00E94F22387ED93E064E86A
:103B500076E00E94F22387ED93E06AE576E00E942A
:103B6000F2236701750100E010E0140143015201E6
:103B700087ED93E06CE476E00E94AF230A301105F4
:103B800034F487ED93E06AE476E00E94AF2387ED9A
:103B900093E0B8014AE050E00E94162587ED93E0DB
:103BA00066E476E00E94AF23F101E00FF11FE081AF
:103BB000E13029F487ED93E064E476E00BC0EE2376
:103BC00029F487ED93E062E476E004C087ED93E0AA
:103BD00060E476E00E94AF2387ED93E06CE376E04B
:103BE0000E94AF23F401E00FF11FE081E13029F4DE
:103BF00087ED93E06AE376E00BC0EE2329F487EDCE
:103C000093E068E376E004C087ED93E066E376E056
:103C10000E94AF2387ED93E062E376E00E94AF233A
:103C2000F501E00FF11FE081E13029F487ED93E029
:103C300060E376E00BC0EE2329F487ED93E06EE2BB
:103C400076E004C087ED93E06CE276E00E94AF235B
:103C500087ED93E068E276E00E94AF23F701808170
:103C600091818050904130F487ED93E066E276E0F8
:103C70000E94AF23F701808191818F3F910509F068
:103C800030F487ED93E064E276E00E94AF23F70121
:103C900080819181409730F487ED93E062E276E095
:103CA0000E94AF23F7016081718187ED93E040E1CD
:103CB00050E00E94952487ED93E06EE176E00E944B
:103CC000AF23F601808191818050904130F487EDDF
:103CD00093E06CE176E00E94AF23F6018081918150
:103CE0008F3F910509F030F487ED93E06AE176E0CB
:103CF0000E94AF23F60180819181409730F487EDD7
:103D000093E068E176E00E94AF23F6016191719142
:103D10006F0187ED93E040E150E00E94952487ED2C
:103D200093E00E94D2230F5F1F4F82E090E0E80EE5
:103D3000F91E0C30110509F01BCF87ED93E06EEEF4
:103D400075E00E94F22387ED93E06CE975E00E9434
:103D5000F22387ED93E062E775E004C087ED93E01E
:103D600066E575E00E94F2230E941C1CCC5ADF4FCE
:103D70000FB6F894DEBF0FBECDBFCF91DF911F917C
:103D80000F91FF90EF90DF90CF90BF90AF909F90FA
:103D90008F907F906F905F904F903F902F900895FD
:103DA0007F928F929F92AF92BF92CF92DF92EF92CB
:103DB000FF920F931F93CF93DF93782E882329F0E0
:103DC00087ED93E06BE37AE004C087ED93E06CE16C
:103DD0007AE00E94F2230E94061C87ED93E064E0E3
:103DE0007AE00E94F22382E093E00E94CC0B8823C9
:103DF00009F047C087ED93E066ED79E00E94AF23BC
:103E00000E94A11B772009F44EC087ED93E065EA7C
:103E100079E00E94F22300E110E0F801EE50FD4F3E
:103E200089E893E0B80140810E9453210F5F1F4F42
:103E30000631110591F787ED93E060E979E00E9482
:103E4000F22300E110E089E893E0B8010E944C21E0
:103E5000F801EE50FD4F9081891739F087ED93E01E
:103E60006BE679E00E94F223FFCF0F5F1F4F063110
:103E7000110549F787ED93E069E579E00E94F223A7
:103E800012C087ED93E063E379E00E94AF237720CF
:103E900031F087ED93E06BE179E00E94AF2387ED8D
:103EA00093E00E94D22387ED93E062E079E00E94E4
:103EB000F223C0E0D0E0882499245401F401E85FA3
:103EC000FC4F6BE070E080E090E028E030E040E004
:103ED00050E0850174016F010E94730B6623A1F00D
:103EE00087ED93E06FEE78E00E94AF2387ED93E0DB
:103EF000BE014AE050E00E94162587ED93E06CED8C
:103F000078E00E94AF23FFCF219688E090E0A0E008
:103F1000B0E0880E991EAA1EBB1EC031D10571F6F5
:103F200087ED93E06FEB78E00E94F2230E945E1B26
:103F30007720D9F187ED93E06DE878E00E94F223D5
:103F400000E210E0F801E851FD4F89E893E0B80184
:103F500040810E9453210F5F1F4F003A110591F7D6
:103F600087ED93E068E778E00E94F22300E210E03A
:103F700089E893E0B8010E944C21F801E851FD4F17
:103F80009081891739F087ED93E063E578E00E942E
:103F9000F223FFCF0F5F1F4F003A110549F787ED5E
:103FA00093E061E478E00E94F2230E941C1CDF9100
:103FB000CF911F910F91FF90EF90DF90CF90BF9026
:103FC000AF909F908F907F900895DF93CF9300D014
:103FD000CDB7DEB787ED93E067E77CE00E94F22380
:103FE00087ED93E06AE57CE00E94F22388E893E0A5
:103FF00060E00E94FF18882339F487ED93E062E1C6
:104000007CE00E94F223FFCF87ED93E06BEE7BE034
:104010000E94F22382E093E00E94CC0B882339F0C7
:1040200087ED93E067EB7BE00E94F223FFCF87ED03
:1040300093E061EA7BE00E94AF230E94A11BCE01C6
:1040400001960E940C0A882339F087ED93E069E617
:104050007BE00E94F223FFCF87ED93E06EE47BE0EC
:104060000E94AF2387ED93E069814AE050E00E940F
:10407000A62487ED93E06CE47BE00E94AF2387EDFC
:1040800093E06A814AE050E00E94B82487ED93E013
:1040900067E37BE00E94AF2387ED93E063E870E085
:1040A0004AE050E00E94162587ED93E060E37BE054
:1040B0000E94F22387ED93E06BE17BE00E94AF2347
:1040C00087ED93E063E870E04AE050E00E94162537
:1040D00087ED93E064E17BE00E94F2230E941C1CC8
:1040E0000F900F90CF91DF910895CF93DF93EC0164
:1040F0008881803319F40E94E51F50C0813311F488
:1041000080E010C0823319F40E94C11B47C0833382
:1041100019F40E94541D42C0843339F489818935D1
:1041200061F581E00E94D01E39C0853331F4898168
:10413000843419F50E94F91A31C0863331F489812B
:104140008935D9F40E94241D29C0873331F489812F
:10415000893599F40E94781C21C0883329F489811B
:10416000893559F481E006C0893339F4898189356C
:1041700021F480E00E942F1C11C087ED93E061E0E4
:1041800071E00E94AF2387ED93E0BE010E942925D4
:1041900087ED93E06FEF70E00E94F223DF91CF9103
:1041A0000895EF92FF920F931F93DF93CF93CDB7B4
:1041B000DEB7A1970FB6F894DEBF0FBECDBF8E015C
:1041C0000F5F1F4F81E2F80111928A95E9F70E9473
:1041D0007319EE24FF2487ED93E00E944025892B7C
:1041E000D1F387ED93E00E9467258A3079F0F801DA
:1041F000EE0DFF1D80830894E11CF11CF0E2EF1628
:10420000F1044CF34FE1E42EF12CE5CFC8010E94FC
:104210007520A1960FB6F894DEBF0FBECDBFCF912B
:10422000DF911F910F91FF90EF900895882319F46B
:104230008CB5806202C08CB58F7D8CBD08959CB515
:10424000937F982B9CBD08952CB5382F33702C7F0D
:10425000322B3CBD2DB590E095958795959587952A
:1042600081702E7F822B8DBD089581E161E00E94D7
:10427000FD2281E161E00E9460228CB580618CBDED
:104280008CB580648CBD8FE061E00E94602280E18B
:1042900061E00E9460220895F999FECF72BD61BD70
:1042A000F89A80B50895F999FECF1FBA72BD61BD25
:1042B00040BD0FB6F894FA9AF99A0FBE08951F926E
:1042C0000F920FB60F9211242F933F938F939F93CA
:1042D000AF93BF9380918E0390918F03A091900331
:1042E000B0919103309192030196A11DB11D232F2E
:1042F0002D5F2D3720F02D570196A11DB11D209364
:10430000920380938E0390938F03A0939003B093B6
:10431000910380918A0390918B03A0918C03B091BB
:104320008D030196A11DB11D80938A0390938B0389
:10433000A0938C03B0938D03BF91AF919F918F9108
:104340003F912F910F900FBE0F901F9018959B01DA
:10435000AC017FB7F89480918A0390918B03A09170
:104360008C03B0918D0366B5A89B05C06F3F19F013
:104370000196A11DB11D7FBFBA2FA92F982F8827A5
:10438000860F911DA11DB11D62E0880F991FAA1F04
:10439000BB1F6A95D1F7BC012DC0FFB7F89480917F
:1043A0008A0390918B03A0918C03B0918D03E6B5A5
:1043B000A89B05C0EF3F19F00196A11DB11DFFBFDD
:1043C000BA2FA92F982F88278E0F911DA11DB11DDF
:1043D000E2E0880F991FAA1FBB1FEA95D1F7861B41
:1043E000970B885E9340C8F22150304040405040C7
:1043F00068517C4F211531054105510571F608952D
:10440000789484B5826084BD84B5816084BD85B5AF
:10441000826085BD85B5816085BDEEE6F0E0808176
:1044200081608083E1E8F0E0108280818260808397
:10443000808181608083E0E8F0E08081816080831A
:10444000E1EBF0E0808184608083E0EBF0E080814C
:1044500081608083E1E9F0E08081826080838081F7
:1044600081608083E0E9F0E0808181608083E1EC1D
:10447000F0E080818460808380818260808380819D
:1044800081608083E3ECF0E0808181608083E0ECF8
:10449000F0E0808182608083E2ECF0E080818160E6
:1044A0008083EAE7F0E0808184608083808182609D
:1044B000808380818160808380818068808308958B
:1044C000CF93DF93482F50E0CA018D5C924FFC01DF
:1044D00034914B5E524FFA018491882369F190E048
:1044E000880F991FFC01E551F34FA591B491FC0190
:1044F000E750F34FC591D491662351F42FB7F89448
:104500008C91932F909589238C93888189230BC05C
:10451000623061F42FB7F8948C91932F9095892392
:104520008C938881832B88832FBF06C09FB7F89414
:104530008C91832B8C939FBFDF91CF91089587300F
:10454000C1F1883080F48330F9F0843030F4813068
:1045500029F1823009F050C024C08430C9F086307F
:1045600009F04AC022C08A3091F18B3030F4883093
:1045700031F1893009F040C026C08C3091F18C3087
:1045800060F18E30C9F533C0809180008F7703C011
:10459000809180008F7D80938000089584B58F770F
:1045A00002C084B58F7D84BD08958091B0008F775F
:1045B00003C08091B0008F7D8093B00008958091FA
:1045C00090008F7707C0809190008F7D03C080910D
:1045D0009000877F8093900008958091C0008F772E
:1045E00003C08091C0008F7D8093C00008958091AA
:1045F000C200877F8093C2000895FF920F931F939C
:10460000F62E482F50E0CA018F5A924FFC01249198
:10461000CA018D5C924FFC0114914B5E524FFA011E
:1046200004910023C9F0222319F0822F0E949F22B7
:10463000E02FF0E0EE0FFF1FE750F34FA591B4918C
:104640009FB7F894FF2021F48C911095812302C02C
:104650008C91812B8C939FBF1F910F91FF90089598
:104660000F931F93482F50E0CA018F5A924FFC01BD
:104670002491CA018D5C924FFC0104914B5E524F14
:10468000FA011491112319F420E030E015C022231F
:1046900019F0822F0E949F22812F90E0880F991F8E
:1046A000895F924FFC01A591B4918C9120E030E09C
:1046B000802311F021E030E0C9011F910F9108958E
:1046C000EF92FF920F931F937B018C01611571058F
:1046D0008105910529F420E030E040E050E00BC076
:1046E0000E940C08A80197010E940E2CAC01CB017E
:1046F000DA019C01AD01B901CA011F910F91FF9030
:10470000EF9008950E94B4260895CF92DF92EF9221
:10471000FF920F931F93CF93DF937C016B018A016C
:10472000C0E0D0E00FC0D6016D916D01D701ED91D1
:10473000FC910190F081E02DC7010995C80FD91FA8
:10474000015010400115110571F7CE01DF91CF9195
:104750001F910F91FF90EF90DF90CF900895EF920F
:10476000FF920F931F93CF93DF937C018B01C0E0E7
:10477000D0E0F8010F5F1F4F6491662359F0D70115
:10478000ED91FC910190F081E02DC7010995C80FD2
:10479000D91FEFCFCE01DF91CF911F910F91FF90E5
:1047A000EF900895EF92FF920F931F938C01DC011D
:1047B000ED91FC910190F081E02D6DE009957C0177
:1047C000D801ED91FC910190F081E02DC8016AE0E3
:1047D00009959C012E0D3F1DC9011F910F91FF905E
:1047E000EF900895EF92FF920F931F937C010E9428
:1047F000AF238C01C7010E94D2239C01200F311FDF
:10480000C9011F910F91FF90EF900895CF93DF930F
:10481000EC016115710519F420E030E00FC0DB01F7
:104820000D900020E9F71197A61BB70BE881F981DD
:104830000280F381E02DAD0109959C01C901DF9152
:10484000CF9108954F925F927F928F929F92AF92F5
:10485000BF92CF92DF92EF92FF920F931F93DF935D
:10486000CF93CDB7DEB7A1970FB6F894DEBF0FBEDA
:10487000CDBF2C01742ECB01223008F42AE019A2FE
:1048800031E2C32ED12CCC0EDD1E822E9924AA2417
:10489000BB24672D752FA50194010E94EC2B790193
:1048A0008A01C801B701A50194010E94B92B472DC7
:1048B000461B0894C108D1084A3014F4405D01C079
:1048C000495CF6014083E114F1040105110521F072
:1048D0007E2C5F2DC801DDCFC201B6010E940624E7
:1048E000A1960FB6F894DEBF0FBECDBFCF91DF917A
:1048F0001F910F91FF90EF90DF90CF90BF90AF90FE
:104900009F908F907F905F904F900895DC012115CC
:10491000310541F4ED91FC910190F081E02D642F7F
:10492000099508950E9422240895EF92FF920F9313
:104930001F939A017B0100E010E0B801A7010E94DB
:1049400086241F910F91FF90EF900895EF92FF92B0
:104950000F931F939A01E62EFF2400E010E0B801A8
:10496000A7010E9486241F910F91FF90EF90089558
:10497000CF92DF92EF92FF920F931F936C01E62E7E
:104980009A01FF2400E010E0B801A7010E948624EC
:104990008C01C6010E94D223080F191FC8011F9164
:1049A0000F91FF90EF90DF90CF900895CF92DF921C
:1049B000EF92FF920F931F93CF93DF93EC016A0165
:1049C0007B012115310541F4E881F9810190F081E5
:1049D000E02D642F09951FC02A303105D1F477FFEF
:1049E00017C0E881F9810190F081E02D6DE2099511
:1049F0008C0144275527BA014C195D096E097F09BE
:104A0000CE012AE00E9422249801280F391F04C0F9
:104A10002AE00E9422249C01C901DF91CF911F91BD
:104A20000F91FF90EF90DF90CF900895EF92FF925B
:104A30000F931F937B019A010027F7FC0095102F1D
:104A4000B801A7010E94D6241F910F91FF90EF900B
:104A500008950E9406240895EF92FF920F931F93EA
:104A60007C010E9406248C01C7010E94D223080FFA
:104A7000191FC8011F910F91FF90EF90089508959D
:104A80002091D3033091D4038091D5039091D60324
:104A9000281B390B2F733070C90108952091D3035F
:104AA0003091D4038091D5039091D603281739070C
:104AB00019F42FEF3FEF09C0E091D503F091D60331
:104AC000ED56FC4F8081282F30E0C90108952091D8
:104AD000D3033091D4038091D5039091D603281746
:104AE000390719F42FEF3FEF13C0E091D503F09190
:104AF000D603ED56FC4F20818091D5039091D603CB
:104B000001968F7390709093D6038093D50330E015
:104B1000C90108951092DA031092D90388EE93E048
:104B2000A0E0B0E08093DB039093DC03A093DD036F
:104B3000B093DE0383E591E09093D8038093D7038D
:104B400008950F931F93DF93CF930F92CDB7DEB7E6
:104B50008C01698380911801882369F083E0BE018C
:104B60006F5F7F4F41E050E00E9409281816190638
:104B700014F49C0107C081E090E0F80193838283E4
:104B800020E030E0C9010F90CF91DF911F910F918C
:104B9000089583E00E94E2270895CF93DF9312C027
:104BA00082E00E946E272FEF8F3F9207C9F0E091BD
:104BB000D303F091D403ED56FC4F8083D093D403FC
:104BC000C093D303C091D303D091D4032196CF7364
:104BD000D0708091D5039091D603C817D90701F7FB
:104BE000DF91CF910895FC0180818E5F808380E802
:104BF0006DE67DE042E450E00E9487270895CF9261
:104C0000DF92EF92FF920F931F93FC0181819081BD
:104C1000913A59F4813209F08CC080E061E171E091
:104C200047E050E00E94872782C0913209F081C09E
:104C3000803239F481E191E067E070E00E94CB2797
:104C400076C0823209F075C082818093180180910C
:104C5000110190911201A0911301B0911401805B98
:104C60009440A040B04009F062C08091180180FDDE
:104C700051C010926E0080E090E0A0E0B0E043E010
:104C8000C42ED12CE12CF12C0F921F920F931F9365
:104C9000282F182F0C2D0E94F63F802F1F910F9167
:104CA0001F900F9090E095958795837063E070E07A
:104CB000681B710920E032E002C0220F331F6A95A1
:104CC000E2F7442737FD4095542F8FEF9FE7A0E090
:104CD000B0E0821B930BA40BB50BB695A7959795E7
:104CE00087950196A11DB11D292F30E040E050E0CD
:104CF0009070A070B070E82FF22F09942BE088E13B
:104D000090E00FB6F894A895809360000FBE2093B2
:104D100060000DC088E10FB6F89480936000109297
:104D200060000FBEA895109201081092000881E063
:104D300001C080E01F910F91FF90EF90DF90CF9026
:104D40000895CF93DF930E9400228DEE93E00E949E
:104D5000ED270E945D19C0E0D0E00E94D12020978D
:104D6000E1F30E940000F9CF0F931F93CF93DF93DD
:104D7000BC018230910510F462E070E0E091FB0329
:104D8000F091FC0340E050E0A0E0B0E024C080815E
:104D9000918186179707D0F08617970771F4828163
:104DA0009381109729F013969C938E9312972CC0A1
:104DB0009093FC038093FB0327C04115510519F024
:104DC0008417950718F4AC01EF018D01DF01828192
:104DD00093819C01F9013097D1F641155105F9F005
:104DE000CA01861B970B8430910580F48A819B81D0
:104DF0000115110521F0F8019383828304C090937B
:104E0000FC038093FB03FE0132962FC0FE01E80FE6
:104E1000F91F6193719302979983888326C08DB798
:104E20009EB7885790402091190130911A01281798
:104E30003907C8F4AC01421B530B4617570798F0CB
:104E4000CB0102964817590770F0820F931F909379
:104E50001A018093190190931C0180931B01F901A1
:104E60006193719302C0E0E0F0E0CF01DF91CF9158
:104E70001F910F910895282F8091E7038823B9F09F
:104E800057FF19C014C09093E6038091F1008193FD
:104E9000E217F307C1F74115510539F08091F2008F
:104EA000882319F48BE68093E800AFBF02C04FEF70
:104EB0005FEFCA010895AFB7F89427702093E90017
:104EC0008091F200282F30E0241735070CF4A90157
:104ED000FB019B01240F311D94E6DACFDF93CF93C2
:104EE0000F92CDB7DEB7BE016F5F7F4F41E050E05C
:104EF0000E943B27019719F02FEF3FEF03C08981F4
:104F0000282F30E0C9010F90CF91DF910895FF92D3
:104F10000F931F93F82E142F052F4091EA03509101
:104F2000EB03212F302FC901DC01FB016EEF29C0FB
:104F3000F7FE02C0949101C090812091E803309166
:104F4000E90324173507ACF48091E8008570E1F39C
:104F50008091E80082FF03C02FEF3FEF17C09093CE
:104F6000F100C90101968F739070892B11F4609341
:104F7000E8002F5F3F4F3093E9032093E803119738
:104F800031961097A9F6812F902F9C01C9011F918E
:104F90000F91FF9008959C018091E80082FFFCCF63
:104FA000F901260F311D03C08091F1008193E217B2
:104FB000F307D1F784E68093E6038BEF8093E80054
:104FC000CB0108958093E9008091F200882319F0C5
:104FD0008AE38093E800089508951092E70381E042
:104FE0008093D70080EA8093D80082E189BD09B41C
:104FF00000FEFDCF61E070E080E090E00E94A7211C
:1050000080E98093D8008CE08093E2001092E00069
:1050100008955F926F927F928F929F92AF92BF920C
:10502000CF92DF92EF92FF920F931F93CF93DF9374
:10503000E82E842E752E8091E703882371F18B0171
:10504000242F352FC901EC017AEFF72E67E0962E59
:105050009E2050E4552E8E2D90E040E2A42EB12CDF
:10506000A822B9223AE3632E20E4C22ED12CC82212
:10507000D92258C09FB7F8949092E9008091E80037
:1050800085FD02C020E004C08091F200252D281B80
:105090009FBF222361F4FA9419F42FEF3FEF4CC025
:1050A00061E070E080E090E00E94A7213BC0822F89
:1050B00090E0C817D9070CF42C2FC21BD1094FB7A9
:1050C000F8949092E900A114B10421F406C0109262
:1050D000F10021502223D9F719C0E7FC03C0F801E1
:1050E000922F10C0C801322F06C0FC010196E49136
:1050F000E093F10031503323C1F706C081918093D2
:10510000F10091509923D1F7020F111D8091E80011
:1051100085FF05C0209729F4C114D10411F06092D5
:10512000E8004FBF209709F0A5CF84E68093E50300
:10513000282D372DC9019C01C901DF91CF911F9105
:105140000F91FF90EF90DF90CF90BF90AF909F9026
:105150008F907F906F905F9008951F920F920FB67F
:105160000F9211242F933F934F935F936F937F93ED
:105170008F939F93AF93BF93EF93FF938091E10041
:105180001092E100982F83FF0FC01092E90081E098
:105190008093EB001092EC0082E38093ED0010927C
:1051A000E70388E08093F00092FF2EC083E08093B5
:1051B000E9008091F200882319F08AE38093E800E7
:1051C0008FB7F89492E09093E9009091F2008FBF2E
:1051D000992321F087ED93E00E94CD258091E5038E
:1051E000882339F08091E50381508093E503809115
:1051F000E5038091E603882339F08091E60381502E
:105200008093E6038091E603FF91EF91BF91AF9108
:105210009F918F917F916F915F914F913F912F91CE
:105220000F900FBE0F901F9018950F931F93DF9351
:10523000CF930F92CDB7DEB719828E010F5F1F4F4C
:10524000C8010E94F325C8010E94AD2B898190E01E
:105250000F90CF91DF911F910F9108951F920F92A0
:105260000FB60F921124EF92FF921F932F933F934B
:105270004F935F936F937F938F939F93AF93BF935E
:10528000EF93FF93DF93CF93CDB7DEB76197DEBF88
:10529000CDBF1092E9008091E80083FF0EC1FE01AE
:1052A00031969E01275F3F4F03C08091F1008193AB
:1052B000E217F307D1F784E68093E60382EF809349
:1052C000E800998197FF05C08091E80080FFFCCF3E
:1052D00003C08EEF8093E800292F30E0C90180766B
:1052E0009070892B09F0C2C08A81882329F410921A
:1052F000F1001092F100D6C0813009F4D3C08330A0
:1053000009F4D0C0853049F48091E80080FFFCCFDB
:105310008B8180688093E300C5C0863009F07CC033
:105320001C81EF80F8841230C1F51092E9001092D0
:10533000E9031092E8031092EB031092EA030E9433
:10534000152999E0FE013996DF01292F1D922A9532
:10535000E9F799871A8791E09E8790E8988B9AEFF2
:10536000998B2091E8033091E903275F3F4F3C87F9
:105370002B878D871092E9001092E9031092E803C1
:10538000F092EB03E092EA0380E0BF0149E050E0D5
:105390000E9487270E94152985C01092E90010926B
:1053A000E9031092E803F092EB03E092EA03123271
:1053B00041F482E290E00E94A52B892B09F476C08B
:1053C00071C0113079F488E0E816F10419F481E035
:1053D0008093EC038091EC03882309F06BC0EDEE21
:1053E000FDE013C0133009F061C08B81882319F4EC
:1053F000EFEAFDE00AC0823019F4E3EBFDE005C0FE
:10540000813009F053C0E5EDFDE0449180E8BF0133
:1054100050E00E94872746C0873009F447C0883093
:1054200021F481E08093F1003DC08930D9F52370EB
:105430003070232BD9F5E2E1FEE091E031E026E384
:105440009093E9003093EB0084918093EC002093DB
:10545000ED009F5F3196953099F78EE78093EA00D3
:105460001092EA008B818093E7031CC08F8198859E
:105470001092E9001092E9031092E8039093EB0375
:105480008093EA038D81882329F4CE0101960E943E
:10549000FF2506C0823051F4CE0101960E94762A83
:1054A000882321F08EEF8093E80007C081E280938B
:1054B000EB0003C0EFEFFDE0A8CF6196DEBFCDBFEC
:1054C000CF91DF91FF91EF91BF91AF919F918F911C
:1054D0007F916F915F914F913F912F911F91FF901D
:1054E000EF900F900FBE0F901F901895FC019181C7
:1054F0008081813A31F4913089F080E0933089F4F1
:105500000DC0813269F49B3021F4828180931D01AA
:1055100005C09A3029F4828180931E0181E00895AC
:1055200080E00895EF92FF920F931F938C01E62E77
:10553000DC01ED91FC910480F581E02D0995F82EB8
:10554000D801ED91FC910680F781E02DC8016E2D08
:1055500009958F2D90E01F910F91FF90EF90089586
:105560001092EE031092F2031092F10385E691E09F
:105570009093F0038093EF030895EF92FF920F93BF
:105580001F93DF93CF930F92CDB7DEB789838B0143
:105590007A0184E0BE016F5F7F4F41E050E00E94DE
:1055A000092884E4B801A7010E9409280F90CF912F
:1055B000DF911F910F91FF90EF90089582E048E0F6
:1055C00050E00E94BD2A0895FC01168217821086C1
:1055D00011861286138614823496BF010E94DE2A39
:1055E0000895DC01683810F0685829C0E62FF0E013
:1055F00067FF13C0E058F04081E090E002C0880FE0
:10560000991FEA95E2F7809514962C911497282318
:1056100014962C93149760E012C0EC56F14F6491ED
:10562000662319F420E030E01DC067FF08C014961F
:105630008C9114978D7F14968C9314976F77FD013E
:1056400090E0662321F08681861709F416829F5F19
:1056500031969630B1F7CD011496BD010E94DE2A35
:1056600021E030E0C9010895CF93DF93DC01683871
:1056700010F0685825C0E62FF0E067FF12C0E05830
:10568000F04081E090E002C0880F991FEA95E2F7B0
:1056900014962C911497282B14962C93149760E051
:1056A0000FC0EC56F14F64916623D9F167FF08C033
:1056B00014968C911497826014968C9314976F773C
:1056C00016968C9116978617A9F117968C911797B5
:1056D000861781F118968C911897861759F11996AB
:1056E0008C911997861731F11A968C911A97861713
:1056F00009F11B968C911B978617E1F0ED01E0E014
:10570000F0E09E2F8E81882321F4EA0FFB1F668331
:1057100006C09F5F31962196E630F10591F79630ED
:1057200049F481E090E013969C938E93129720E0C9
:1057300030E007C0CD011496BD010E94DE2A21E0B1
:1057400030E0C901DF91CF91089580E866E17EE005
:1057500045E650E00E9487270895FC0180818F5F15
:10576000808380E86BE77EE049E150E00E94872774
:105770000895629FD001739FF001829FE00DF11D9B
:10578000649FE00DF11D929FF00D839FF00D749FBB
:10579000F00D659FF00D9927729FB00DE11DF91F67
:1057A000639FB00DE11DF91FBD01CF0111240895C4
:1057B000AA1BBB1B51E107C0AA1FBB1FA617B70737
:1057C00010F0A61BB70B881F991F5A95A9F7809553
:1057D0009095BC01CD010895A1E21A2EAA1BBB1B16
:1057E000FD010DC0AA1FBB1FEE1FFF1FA217B307AD
:1057F000E407F50720F0A21BB30BE40BF50B661FC3
:10580000771F881F991F1A9469F760957095809586
:1058100090959B01AC01BD01CF01089597FB092E26
:1058200005260ED057FD04D0D7DF0AD0001C38F46F
:1058300050954095309521953F4F4F4F5F4F0895BC
:10584000F6F790958095709561957F4F8F4F9F4F9C
:105850000895EE0FFF1F0590F491E02D09942F920B
:105860003F924F925F926F927F928F929F92AF92F0
:10587000BF92CF92DF92EF92FF920F931F93CF933D
:10588000DF93CDB7DEB7CA1BDB0B0FB6F894DEBFD4
:105890000FBECDBF09942A88398848885F846E84FA
:1058A0007D848C849B84AA84B984C884DF80EE8044
:1058B000FD800C811B81AA81B981CE0FD11D0FB64D
:1058C000F894DEBF0FBECDBFED010895F894FFCF71
:1058D00023004C530001000000FFFF0000E81F08F8
:1058E0001200E1000000000000FD0364000101500F
:1058F00000F00190039013902390439063A063B055
:1059000063F06330643068A001A001001000100053
:1059100020002010001000400040000004000200A1
:10592000000000A1258523402567254E25C925CDEA
:105930002500000000922A8523342BF12AE42A0056
:00000001FF
