:100000000C94D5010C94FD010C94FD010C94FD01A0
:100010000C94FD010C94FD010C94FD010C94FD0168
:100020000C94FD010C94FF090C949E300C946A2FE3
:100030000C94FD010C94FD010C94FD010C94FD0148
:100040000C94FD010C94FD010C94FD010C94FD0138
:100050000C94FD010C94FD010C94FD010C94272AD5
:100060000C94FD010C94FD010C94FD010C94FD0118
:100070000C94FD010C94FD010C94FD010C94FD0108
:100080000C94FD010C94FD010C94FD010C94FD01F8
:100090000C94FD010C94FD010C94FD010C94FD01E8
:1000A0000C94FD010C94FD010C94FD01462B492B91
:1000B000382B3C2B422B6A2B6A2B6A2B4D2B512B56
:1000C000552B5B2B5F2B6A2B652B737461727469E4
:1000D0006E6720746F2062726F6164636173742055
:1000E0006F6E2055445020706F727420353035305B
:1000F0002E2E2E00556E61626C6520746F20726525
:100100007472696576652074686520495020416481
:100110006472657373210D0A004F4B004641494CD0
:100120000A00092E2E2E0072657175657374696E52
:10013000672044484350004F4B004641494C0A0059
:10014000636F6E6E656374696E6720746F206D6F88
:10015000636170092E2E2E004F4B004641494C0A18
:1001600000696E697420434333303030092E2E2EDF
:10017000004F4B004641494C0A00696E6974204C9F
:10018000534D39445330092E2E2E00626F6F74691F
:100190006E6720554450206D6F74696F6E206361E7
:1001A00070747572652076312E330A0000000002EB
:1001B00000090F0000030401000C00000408020104
:1001C00010408040102040804080080204018040A0
:1001D0002010020110801020404004040404040395
:1001E00004050202020204030202020206060606D7
:1001F0000606040402020204000000002300260098
:1002000029002C002F0000000000250028002B00F2
:100210002E00310000000000240027002A002D00DD
:100220003000080B00020202010009040000010274
:10023000020000052400100105240101010424022C
:10024000060524060001070581031000400904018A
:1002500000020A00000007050202400000070583B3
:100260000240000000C18081C112010002020000B2
:10027000404F1B0692000101020001120100020022
:100280000000404F1B069200010102000153706103
:10029000726B46756E00455353206A4E6F6465005D
:1002A0000403090400000000000000002A2B2800BD
:1002B000000000000000000000000000000000003E
:1002C000000000002C9EB4A0A1A2A434A6A7A5AE55
:1002D000362D3738271E1F20212223242526B3330D
:1002E000B62EB7B89F8485868788898A8B8C8D8E39
:1002F0008F909192939495969798999A9B9C9D2F05
:100300003130A3AD350405060708090A0B0C0D0EA4
:100310000F101112131415161718191A1B1C1DAFE4
:10032000B1B0B50009040200010300000009210179
:100330000100012265000705840340000105010951
:1003400002A1010901A1008501050919012903156F
:10035000002501950375018102950175058103054D
:10036000010930093109381581257F750895038108
:1003700006C0C005010906A1018502050719E0298B
:10038000E715002501750195088102950175088121
:10039000039506750815002565050719002965816F
:1003A00000C03C04520D412D3E3211241FBECFEF40
:1003B000DAE0DEBFCDBF11E0A0E0B1E0EEE3FCE6A5
:1003C00002C005900D92AA3AB107D9F714E0AAEA43
:1003D000B1E001C01D92A631B107E1F713E0CAEA0E
:1003E000D3E004C02297FE010E94E334C23AD10751
:1003F000C9F70E945E2D0C941D360C940000EF92FC
:10040000FF920F931F93CF93DF93CDB7DEB7CD55F8
:10041000D1090FB6F894DEBF0FBECDBF40E052EC5D
:1004200061E070E08AEA93E00E943B2D61E084E1A4
:100430000E946B2B60E084E10E94A72B6BE871E0C7
:100440008AEA93E00E946A2C6AE771E08AEA93E004
:100450000E942A2C82EB91E00E94F61C811103C0BD
:1004600064E771E05EC061E771E08AEA93E00E94B0
:100470006A2C61E671E08AEA93E00E942A2C20E06F
:1004800030E040E060E08FE092E00E94570581118B
:1004900003C06BE571E045C068E571E08AEA93E06E
:1004A0000E946A2C60E471E08AEA93E00E942A2CA0
:1004B00020E043E851E06EE771E08FE092E00E94B7
:1004C0003707811103C06AE371E02BC067E371E075
:1004D0008AEA93E00E946A2C67E271E08AEA93E07C
:1004E0000E942A2C0CE211E08FE092E00E94A0070B
:1004F000811109C064E670E080E090E00E94A22AC9
:100500000150110989F762E271E08AEA93E00E94E2
:100510002A2C8FE092E00E94A007811107C06CE1B5
:1005200071E08AEA93E00E946A2C78CF69E171E079
:100530008AEA93E00E946A2CCE01865B9F4F7C0181
:100540008E01025B1F4F9E012E5A3F4FAE014A5A49
:100550005F4FBE01665A7F4F8FE092E00E94FD051B
:10056000811103C064EF70E0DCCF8AEA93E00E945F
:10057000562C6A962CAD3DAD4EAD5FAD6A97209579
:100580003095409550956E968CAD9DADAEADBFAD9E
:100590006E97282B392B4A2B5B2B0AEB13E16FE06C
:1005A00072E0CE0101960E94A607BE016F5F7F4FE9
:1005B00086EC91E00E9452086AEC70E08AEA93E0CF
:1005C0000E946A2C60ED77E082EB91E00E94201D92
:1005D00060E070E082EB91E00E940A1D60E070E054
:1005E00082EB91E00E94151D62E082EB91E00E9497
:1005F000541D66E070E082EB91E00E94761D60E0A1
:1006000070E082EB91E00E948C1D62E070E082EB72
:1006100091E00E94811D60E070E082EB91E00E9419
:10062000D41D64E070E082EB91E00E94C91D60E09F
:1006300084E10E946B2BC35ADF4F0FB6F894DEBFE4
:100640000FBECDBFDF91CF911F910F91FF90EF9023
:1006500008954F925F926F927F92AF92BF92CF9226
:10066000DF92EF92FF920F931F93CF93DF93CDB75B
:10067000DEB7AC970FB6F894DEBF0FBECDBF0E94B9
:100680007D2A0091AA011091AB012091AC0130911B
:10069000AD01601B710B820B930B0E941C3320E099
:1006A00030E44CE156E40E94B03287FDD0C00E9495
:1006B0007D2A6093AA017093AB018093AC01909363
:1006C000AD0121E08091AE019091AF01A091B00108
:1006D000B091B101892B8A2B8B2B09F020E0822F5E
:1006E00090E0A0E0B0E08093AE019093AF01A093C2
:1006F000B001B093B10161E0622784E10E946B2BED
:1007000062EB71E0CE0101960E94091EAD8CBE8C99
:10071000CF8CD8A0ED84FE840F85188929853A8571
:100720004B855C856D817E818F819885ECE3EF93AD
:10073000E3EAEF93E7EDEF93EAE0EF93498C5A8C0D
:100740006B8C7C8C77FA709477F870947F926F92B0
:100750005F924F92E88DEF93EF89EF93EE89EF93DD
:10076000ED89EF93EC89EF93EB89EF93EA89EF93AF
:10077000E989EF93E8A5EF93EFA1EF93EEA1EF9353
:10078000EDA1EF93ECA1EF93EBA1EF93EAA1EF932F
:10079000E9A1EF930E947A1F7C010E947D2AF70154
:1007A000608371838283938364817581868197815D
:1007B0000FB6F894DEBF0FBECDBF9B01AC010E9407
:1007C0007334882311F180E090E0A0E8BFE3F701E3
:1007D00084839583A683B783108A118A128A138A29
:1007E000148615861686178610861186128613863D
:1007F000148E158E168E178E108E118E128E138EED
:10080000148A158A168A178A22C000E010E098011F
:1008100040E250E0B70186EC91E00E94780897FF33
:1008200016C0AC960FB6F894DEBF0FBECDBFDF91F9
:10083000CF911F910F91FF90EF90DF90CF90BF90DD
:10084000AF907F906F905F904F900C94FF01AC96AB
:100850000FB6F894DEBF0FBECDBFDF91CF911F91D1
:100860000F91FF90EF90DF90CF90BF90AF907F906F
:100870006F905F904F9008950F9304E02DE04BE050
:100880006AE08FE092E00E943F0586EC91E00E94D2
:10089000440882EB91E00F910C94C11CFA0160387E
:1008A00030E873078105910521F43091120231601F
:1008B00009C0613030E873078105910531F430914A
:1008C000120232603093120221C0623030E87307A6
:1008D0008105910531F420911202297F20931202A3
:1008E00027C0603130E873078105910521F48091BC
:1008F0001202846008C0693971058105910531F4DF
:10090000809112028860809312020895603430E86A
:1009100073078105910561F4809147028F5F809391
:100920004702422F50E0BF0183E392E00C9414365B
:10093000611578488105910541F4E081E03228F4A1
:10094000F0E0ED5EFD4F81E080830895CF92DF926D
:10095000EF92FF920F931F93CF93DF931F92CDB728
:10096000DEB76983895B9F4FFC01608171818827B5
:1009700077FD8095982FC12CD12C760101E010E0F5
:1009800020E030E0AE014F5F5F4F0E94AE0F97FF57
:1009900002C080E090E00F90DF91CF911F910F9106
:1009A000FF90EF90DF90CF900895AF92BF92CF92DB
:1009B000DF92EF92FF920F931F93CF93DF93CDB708
:1009C000DEB7C054D1090FB6F894DEBF0FBECDBF5D
:1009D0008C01CB01BA0140E4EEE3F1E09E012F5F10
:1009E0003F4FD90101900D924A95E1F7F8014081FE
:1009F000442391F13F932F931F921F9221E02F9355
:100A00002CE22F931F921F921F921F922FEF2F9372
:100A10002F932F9338E83F931F921F923FE13F930C
:100A20002F9325E0A22EB12CC12CD12C14E6E12E5F
:100A3000F12C00E010E024E130E040E050E00E94C2
:100A4000FA1841E00FB6F894DEBF0FBECDBF672B9A
:100A5000682B692B09F040E0842FC05CDF4F0FB694
:100A6000F894DEBF0FBECDBFDF91CF911F910F91E4
:100A7000FF90EF90DF90CF90BF90AF9008950F93CD
:100A8000FC01108260934C0240934B0220934A0277
:100A90008FEF8093490200934802109212028AEA73
:100AA00093E090931102809310020F9108955F924A
:100AB0006F927F928F929F92AF92BF92CF92DF926E
:100AC000EF92FF920F931F93CF93DF934C01562E1B
:100AD000642EE901FC01708071107CC00E94640AE0
:100AE00056E0A52E5DE0B52E64E2C62E6DE0D62E52
:100AF00079E1E72E7DE0F72E0FE01DE022E33DE0F7
:100B00004AE25DE06AE37DE08EE494E00E94D7165D
:100B1000852D90E00E940B17611012C0E12CF12C82
:100B2000870120E030E0A90160E070E0CB010E9485
:100B300078186FEF70E080E090E00E94C7180CC05A
:100B4000E12CF12C8701E39420E030E0A90160E082
:100B500070E0CB010E94781864E072E880E090E0D9
:100B60000E948719672B682B692BB1F581E0F4018E
:100B70008083662079F1812C912C8091120281FD75
:100B800011C00E94420DFFEF8F1A9F0A8AEE88164D
:100B900083E0980609F16AE070E080E090E00E944E
:100BA000A22AEBCF68EE73E080E090E00E94A22AD8
:100BB0008091120282FF0EC0FE0101900020E9F731
:100BC000AF01415051094C1B5D0BBE0181E090E02B
:100BD0000E94D50F77247394872DDF91CF911F91B9
:100BE0000F91FF90EF90DF90CF90BF90AF909F90CC
:100BF0008F907F906F905F9008957F928F929F92D9
:100C0000AF92BF92CF92DF92EF92FF920F931F931A
:100C1000CF93DF93CDB7DEB7EA970FB6F894DEBF78
:100C20000FBECDBF4B015A016901FC0170807110EC
:100C300002C0712C3CC08091120281FFFACF8091DA
:100C4000120282FFF6CFCE0101960E9426108C81FF
:100C5000882379F389819A81AB81BC81F4018083F7
:100C60009183A283B3838D819E81AF81B885F50185
:100C700080839183A283B38389859A85AB85BC8564
:100C8000F60180839183A283B3834D855E856F8552
:100C90007889F801408351836283738349895A8933
:100CA0006B897C89F7014083518362837383872D2D
:100CB000EA960FB6F894DEBF0FBECDBFDF91CF919D
:100CC0001F910F91FF90EF90DF90CF90BF90AF906A
:100CD0009F908F907F9008958F929F92AF92BF9236
:100CE000CF92DF92EF92FF920F931F93CF93DF93F8
:100CF000EB01FC018081882379F1E12CF12C870143
:100D000020E030E0A90160E070E0CB010E9478189B
:100D1000672B682B692B01F564EF71E080E090E0B0
:100D20000E94A22AFE0101900020E9F73197EC1BF6
:100D3000FD0B8F0120E030E0812C912C5401C12C5F
:100D4000D12CAE0160E070E0CB010E94A91721E038
:100D5000672B682B692B09F020E0822FDF91CF9160
:100D60001F910F91FF90EF90DF90CF90BF90AF90C9
:100D70009F908F9008952F923F924F925F926F9223
:100D80007F928F929F92AF92BF92CF92DF92EF921B
:100D9000FF920F931F93CF93DF931B01EA0128016A
:100DA0003901FC018081882309F44CC0043011050D
:100DB0002105310508F046C0FB0101900020E9F74C
:100DC0003197E61BF70BB197E8F5FA010190002087
:100DD000E9F73197E41BF50BB197A0F5E12CF12C65
:100DE000870120E030E0A90160E070E0CB010E94C3
:100DF0007818672B682B692B29F564EF71E080E088
:100E000090E00E94A22ADE010D900020E9F71197E0
:100E1000AC1BBD0BF10101900020E9F73197E219FD
:100E2000F3094D01A12CB12C8F0120E030E06E01BF
:100E3000A101C301B2010E94A91721E0672B682B11
:100E4000692B09F020E0822FDF91CF911F910F9144
:100E5000FF90EF90DF90CF90BF90AF909F908F90DA
:100E60007F906F905F904F903F902F9008956F927A
:100E70007F928F929F92AF92BF92CF92DF92EF922A
:100E8000FF920F931F93CF93DF93EC017B016A01D5
:100E9000622E7880772009F443C0822E912CA12CF9
:100EA000B12C0E94420D40EA5FE060E070E0CE01AC
:100EB0000E94D50464E971E180E090E00E94A22ADA
:100EC00040E050E0BA01CE010E94D504662021F036
:100ED000F6018081811109C0B701CE010E946C0624
:100EE0008823D1F008EE13E013C095018401A60118
:100EF000B701CE010E94BB06F3CF0E94420D6AE00B
:100F000070E080E090E00E94A22A0150110921F0D7
:100F10008091120281FFF1CF8091120281FFC1CF37
:100F2000872DDF91CF911F910F91FF90EF90DF9070
:100F3000CF90BF90AF909F908F907F906F900895CB
:100F40008091120282FB882780F908952F923F92A8
:100F50004F925F926F927F928F929F92AF92BF92C9
:100F6000CF92DF92EF92FF920F931F93CF93DF9375
:100F7000CDB7DEB762970FB6F894DEBF0FBECDBF18
:100F80006C01B22EA32E942E852E702E612E11E1AF
:100F9000E12EF12C00E010E022E030E040E050E0F3
:100FA00062E070E080E090E00E94B00D7C011C01E6
:100FB000442437FC4094542CC601895B9F4F9A8B84
:100FC000898B9FEF291639064906590619F1AE019A
:100FD0004F5F5F4F80E1FA0111928A95E9F782E055
:100FE00090E09A8389836B827C828D829E82AF821D
:100FF000B88600E110E020E030E0C201B1010E94BB
:10100000550E6F3F7F4F8F4F9F4F91F4C201B1013B
:101010000E940A0EF6011382128288E891E0918301
:1010200080838FEF9FEFE989FA899183808312C0D3
:10103000F6011382128288E891E091838083E98926
:10104000FA89F182E082F601EB5BFF4F1182108298
:1010500031971082C60162960FB6F894DEBF0FBEBC
:10106000CDBFDF91CF911F910F91FF90EF90DF9057
:10107000CF90BF90AF909F908F907F906F905F9038
:101080004F903F902F900895FC011382128228E820
:1010900031E031832083E95BFF4F2FEF3FEF318356
:1010A00020830895FB01E95BFF4F20813181FC0122
:1010B000E95BFF4F31832083FB01EB5BFF4F208116
:1010C0003181FC01EB5BFF4F31832083FB01EC5B43
:1010D000FF4F2081FC01EC5BFF4F2083DC01149665
:1010E000FB01349680E401900D928A95E1F7089512
:1010F0008F929F92AF92BF92CF92DF92EF92FF9228
:101100000F931F93FB014A01A12CB12C895B9F4FC8
:10111000DC016D917C91882777FD8095982F68017F
:10112000790195018401AF010E94AE0F8C0180917D
:10113000900390919103059738F461E070E080E0AE
:1011400090E00E94A22AF3CFC8011F910F91FF9057
:10115000EF90DF90CF90BF90AF909F908F900895C9
:10116000CF93DF93DC01FB012283518340831296EE
:10117000CD91DC91139788819381892B888382811B
:101180008D7F813041F415968C9115979381892B31
:1011900015968C93159782818150823040F4169673
:1011A0008C9116979381892B16968C931697809124
:1011B000680014969C91892B80936800DF91CF91F1
:1011C0000895EF92FF920F931F93CF93DF9300D078
:1011D00000D0CDB7DEB77C01FC01808591850097FA
:1011E00079F08C01FC018481861306C0B801C70127
:1011F0000E94B00880E03DC0F80185819681EFCF64
:1012000087E090E02C834A835B8369830E94002CF3
:10121000DC0111961C921E9212961C9212972C8140
:101220004A815B816981009719F114966C93149738
:1012300012962C93129716961C921E921597E62FD3
:10124000F0E0E454FE4FE4911396EC931397F7010A
:1012500080859185892B19F4B187A08703C0F80197
:10126000B683A583BD01C7010E94B00881E001C01B
:101270008FEF0F900F900F900F90DF91CF911F91F4
:101280000F91FF90EF900895242FE82FF0E0E652A1
:10129000FE4FE491EE2399F06115710581F0E23083
:1012A00019F0E0E0F0E002C0E7E6F3E0A081B181F0
:1012B0009C919783AB01682FCF010C94E1088FEFCD
:1012C0000895CF93DF9390E0FC01E652FE4FE49146
:1012D000EE2309F445C0E23019F0A0E0B0E002C00E
:1012E000A7E6B3E0FC01E454FE4F84911896CD913B
:1012F000DC9119972097A1F19B8198132DC09FB77E
:10130000F8941296ED91FC91139720818095822399
:1013100080831296ED91FC9113978081811109C011
:101320002091680014968C91149780958223809365
:10133000680015962C9115978B81809582231596C0
:101340008C93159716962C9116978B8180958223F6
:1013500016968C939FBF04C00D80DE81C02DCACF2E
:10136000DF91CF910895FF920F931F93CF93DF9357
:10137000EC01209173038F813D81909173034E8125
:10138000F0907303F094F4229323F92A8227F82231
:10139000809173038F830885198501151105E1F08C
:1013A000D80113969C918F2D892381F0809173032E
:1013B000892391E009F490E090937103F80184810E
:1013C000809372030190F081E02D0995D801159664
:1013D0000D911C911697E1CF8BB39C81892349F025
:1013E0008BB3892B8BBBE881F98180818093730358
:1013F000C0CFDF91CF911F910F91FF9008951F9261
:101400000F920FB60F9211242F933F934F935F9338
:101410006F937F938F939F93AF93BF93EF93FF93BC
:10142000E0916703F091680380818093730387E6FE
:1014300093E00E94B309FF91EF91BF91AF919F910B
:101440008F917F916F915F914F913F912F910F906D
:101450000FBE0F901F901895CF93DF9310925B03F0
:1014600010925C0310925D0310925E03E2EDF2E0D5
:1014700023E8DF01C22F1D92CA95E9F7AFE4B2E07D
:10148000ED0119922A95E9F790935603809355033D
:1014900010925803109257031092600310925F034A
:1014A000F0936203E093610310925A031092590380
:1014B0008EED809354038093D102E0918603F091E6
:1014C0008703DF91CF91099461E080914A020E94E5
:1014D0006B2B60E080914A020E94A72B64EF71E0C1
:1014E00080E090E00E94A22A559A62E080914B022F
:1014F0000E946B2B8CB5809363038DB581708093B4
:1015000064030E94DA1984E00E94F91981E00E94C4
:10151000F019809148020E94FE198CB580936603F1
:101520008DB58170809365035D9A809163038CBD56
:1015300080916403882319F08DB5816002C08DB558
:101540008E7F8DBD80E090E00895680F791F86172B
:10155000970749F0FC012191CF012EBD0DB407FE84
:10156000FDCF2EB5F4CF08950F931F93CF93DF9344
:10157000EC018B015D988CB5809363038DB5817010
:1015800080936403809166038CBD809165038823FA
:1015900019F08DB5816002C08DB58E7F8DBD61E083
:1015A00070E080E090E00E94A22A64E070E0CE014A
:1015B0000E94A50A61E070E080E090E00E94A22A0B
:1015C000B80164507109CE0104960E94A50A82E018
:1015D00090E0A0E0B0E080935B0390935C03A09365
:1015E0005D03B0935E035D9A809163038CBD80912F
:1015F0006403882319F08DB5816002C08DB58E7F9C
:101600008DBD60E070E0CB01DF91CF911F910F9114
:1016100008950F931F93CF93DF93EC01CB0181705B
:10162000992721E0822721E028838C01060F171FCC
:1016300019838170860F8A831B821C828091D1025C
:101640008E3D09F0FFCF40915B0350915C036091A8
:101650005D0370915E03411551056105710509F443
:10166000FFCF0B5F1F4F413051056105710529F414
:10167000B801CE010E94B40A6DC0E0918803F091D8
:101680008903099580915B0390915C03A0915D03B0
:10169000B0915E030297A105B10509F0FFCF43E0C9
:1016A00050E060E070E040935B0350935C03609314
:1016B0005D0370935E03D0936003C0935F03109348
:1016C0005803009357035D988CB5809363038DB5E1
:1016D000817080936403809166038CBD8091650363
:1016E000882319F08DB5816002C08DB58E7F8DBDC8
:1016F000E0918603F09187030995E0918403F091CE
:1017000085030995672B682B692B21F56091570399
:101710007091580380915F03909160030E94A50A25
:1017200082E090E0A0E0B0E080935B0390935C03E4
:10173000A0935D03B0935E035D9A809163038CBDBB
:1017400080916403882319F08DB5816002C08DB546
:101750008E7F8DBD80915B0390915C03A0915D03B2
:10176000B0915E030297A105B10509F0FFCF60E0DB
:1017700070E0CB01DF91CF911F910F910895EF920F
:10178000FF921F93CF93DF931F92CDB7DEB7182F31
:101790007B0184E099830E94F919E12F9981F92F47
:1017A00097012E0F3F1F83E0E217F30739F08EBD3C
:1017B0000DB407FEFDCF9EB59193F6CF0F90DF914C
:1017C000CF911F91FF90EF9008956AE070E08091B3
:1017D0006103909162030C94BF0B0F931F93CF93FF
:1017E000DF93C0916103D09162038D81823019F043
:1017F0008430E1F03EC063E070E0CE0105960E94C7
:1018000093169C01BC0180E090E020FD05C06F5F55
:101810007F4F8F4F9F4F05C0611571058105910561
:1018200041F1CE010A960E94BF0B23C0688570E08B
:1018300080E090E08B019C010150110921093109E0
:1018400000FD02C0C901B80161157105810591054E
:1018500021F0CE010A960E94BF0B88E090E0A0E044
:10186000B0E080935B0390935C03A0935D03B0931F
:101870005E0360E070E0CB01DF91CF911F910F918B
:10188000089510924D0280914B020C94610981E001
:1018900080934D0242E050E068E87CE080914B028A
:1018A0000C9444090E94410C5D9A809163038CBDA5
:1018B00080916403882319F08DB5816002C08DB5D5
:1018C0008E7F8DBD8091610390916203FC01EE5784
:1018D000FF4F20812E3D09F0FFCF42E050E060E055
:1018E00070E040935B0350935C0360935D037093DF
:1018F0005E03E0915503F0915603059609940E940A
:10190000ED0B672B682B692B11F40C94520C089586
:1019100081E080934E0280915B0390915C03A091E3
:101920005D03B0915E030097A105B10569F481E004
:1019300090E0A0E0B0E080935B0390935C03A09301
:101940005D03B0935E035FC082309105A105B105D0
:1019500091F586E090E0A0E0B0E080935B03909387
:101960005C03A0935D03B0935E035D988CB5809398
:1019700063038DB5817080936403809166038CBD91
:1019800080916503882319F08DB5816002C08DB503
:101990008E7F8DBD0E94E50B88E090E0A0E0B0E076
:1019A00080935B0390935C03A0935D03B0935E030D
:1019B0000E947F0C28C00397A105B10521F5609115
:1019C00057037091580380915F03909160030E94C8
:1019D000A50A82E090E0A0E0B0E080935B039093E2
:1019E0005C03A0935D03B0935E035D9A80916303F3
:1019F0008CBD80916403882319F08DB5816002C08D
:101A00008DB58E7F8DBD10924E020895882311F002
:101A100061E001C060E080914A020C94A72B8091A4
:101A20004B020E94D72BBC01882777FD8095982F09
:101A3000089581E080934D0242E050E068E87CE048
:101A400080914B020C94440910924D0280914B02FC
:101A50000C946109FC01108211821282138280E0D1
:101A600090E00895FC01108211821282138280E0BE
:101A700090E00895FC01108211821282138280E0AE
:101A800090E0089580914B020E94D72B892B49F456
:101A900080914E02811105C080914D0281110C94FC
:101AA000880C0895ECEFF1E0859194919093680390
:101AB000809367038BE690E090936A0380936903B9
:101AC00081E080936B0310926C0310926D0310926F
:101AD000700310926F03089540918C0350918D0311
:101AE00060918E0370918F03452B462B472BA9F0F5
:101AF00080918C0390918D03A0918E03B0918F0300
:101B0000909311048093100410928C0310928D0313
:101B100010928E0310928F030895BC01882777FDE1
:101B20008095982F0E945915672B682B692B91F48B
:101B30008091900390919103892B79F0809190038B
:101B4000909191030197909391038093900380E08B
:101B500090E008958FEF9FEF08958EEF9FEF089527
:101B60008F929F92AF92BF92CF92DF92EF92FF92AD
:101B70000F931F93CF93DF9300D000D0CDB7DEB784
:101B800049015A01670178010FEF1FEF980109839E
:101B90001A832B833C8300917A0310917B03AB0162
:101BA000BC01C80109960E948716B501A4010E94D4
:101BB0008716B701A6010E9487164CE0B80181E0A4
:101BC00090E10E949215BE016F5F7F4F81E090E12E
:101BD0000E94861569817A818B819C8170931104A2
:101BE0006093100420E030E0A9010E94B8108981C0
:101BF0009A810F900F900F900F90DF91CF911F91CE
:101C00000F91FF90EF90DF90CF90BF90AF909F909B
:101C10008F900895CF92DF92EF92FF920F931F93D0
:101C2000CF93DF9300D000D0CDB7DEB76B017C013E
:101C30008FEF9FEFDC0189839A83AB83BC83009194
:101C40007A0310917B03B701A601C80109960E948F
:101C5000871644E0B8018BE090E10E949215BE0126
:101C60006F5F7F4F8BE090E10E94861589819A819A
:101C7000909311048093100421E030E040E050E0A4
:101C8000C701B6010E94B81069817A818B819C815D
:101C90000F900F900F900F90DF91CF911F910F91A8
:101CA000FF90EF90DF90CF900895EF92FF920F9307
:101CB0001F93CF93DF9300D000D0CDB7DEB77A016A
:101CC0000FEF1FEF980109831A832B833C83009148
:101CD0007A0310917B03AB01BC01C80109960E94F5
:101CE000871648E050E060E070E00E94871648E008
:101CF00050E060E070E00E948716F70120E030E0DD
:101D00004191DC014D93CD012F5F3F4F28303105CC
:101D1000B9F744E1B80187E090E10E949215BE0155
:101D20006F5F7F4F87E090E10E94861569817A811D
:101D30008B819C8170931104609310040F900F901D
:101D40000F900F90DF91CF911F910F91FF90EF9027
:101D500008952F923F924F925F926F927F928F924F
:101D60009F92AF92BF92CF92DF92EF92FF920F932A
:101D70001F93CF93DF93CDB7DEB76A970FB6F89472
:101D8000DEBF0FBECDBF698B7A8B8B8B9C8B5E8B3E
:101D90004D8B2801390185018BA89CA8ADA8BEA850
:101DA00089899A890E946C0D009709F0BEC08091C4
:101DB000980390919903A0919A03B0919B03019687
:101DC000A11DB11D8093980390939903A0939A034A
:101DD000B0939B0320917A0330917B033E872D873C
:101DE000C9010A9631E883169104A104B104C9F02F
:101DF00043E884169104A104B10401F5A301920102
:101E0000285F3F4F4F4F5F4F2F8B388F498F5A8F2F
:101E10004D855E854E5D5F4F588B4F8748E1242E80
:101E20000DC0AD85BE855A96B88BAF8730E1232EA5
:101E30001FA618AA19AA1AAA00E010E049895A890F
:101E40006B897C890E948716312CA101445051096D
:101E500060E070E00E948716B301A2010E9487161D
:101E6000B701A6010E948716B3E88B169104A1045E
:101E7000B10461F44F89588D698D7A8D0E9487165F
:101E800048E050E060E070E00E948716EF85F88936
:101E9000AD89BE89CD01CD88DE888C199D09AC0144
:101EA000662757FD6095762F44155505660577051D
:101EB0001CF48D918193EECF23E882169104A10446
:101EC000B104A9F0EFA4F8A89201A1016D857E8567
:101ED000882D0E94B51533E883169104A104B1043E
:101EE000E1F4BE016F5F7F4F8FE090E11BC0DF0127
:101EF000F801CF01801B910BAC01662757FD60955F
:101F0000762FCFA4D8A8E9A8FAA84C155D056E05D0
:101F10007F05C4F681918D93ECCFBE016F5F7F4F3B
:101F200083E090E10E948615C2016A960FB6F8948C
:101F3000DEBF0FBECDBFDF91CF911F910F91FF90FC
:101F4000EF90DF90CF90BF90AF909F908F907F9059
:101F50006F905F904F903F902F900895AF92BF92F7
:101F6000CF92DF92EF92FF920F931F931F921F92D7
:101F70001F92E1E8EF931F921F921F921F92A12CD4
:101F8000B12C0E94A90E2DB73EB7285F3F4F0FB668
:101F9000F8943EBF0FBE2DBF1F910F91FF90EF90A1
:101FA000DF90CF90BF90AF900895CF92DF92EF92E5
:101FB000FF920F931F93CF93DF931F92CDB7DEB79E
:101FC0006B018A0141325105A8F5E0907A03F09047
:101FD0007B03AC0160E070E0C70109960E948716A0
:101FE00048E050E060E070E00E948716A80160E0E1
:101FF00070E00E948716F6019601200F311FE2174C
:10200000F30729F04191DC014D93CD01F8CF4CE06D
:10201000400FB70181E190E10E949215BE016F5F10
:102020007F4F81E190E10E9486158981992787FD84
:10203000909502C08FEF9FEF0F90DF91CF911F918E
:102040000F91FF90EF90DF90CF900895CF93DF93A3
:10205000EC0160917A0370917B0340E085E090E2AF
:102060000E949215BE0185E090E2DF91CF910C9421
:102070008615CF93DF9300D000D0CDB7DEB719829D
:102080001A821B821C82FC018581823039F18330E7
:1020900009F445C0813009F064C080917E039091BD
:1020A0007F03892B89F0E0917E03F0917F03CE01BD
:1020B00001960995009741F060917A0370917B0336
:1020C00029813A81AC0108C060917A0370917B0349
:1020D00020E030E040E050E081E041C080917C03AE
:1020E00090917D03892B89F0E0917C03F0917D0331
:1020F000CE0101960995009741F060917A037091A5
:102100007B0329813A81AC0108C060917A03709108
:102110007B0320E030E040E050E082E020C080918E
:10212000800390918103892B89F0E0918003F091E5
:102130008103CE0101960995009741F060917A03E1
:1021400070917B0329813A81AC0108C060917A03C8
:1021500070917B0320E030E040E050E083E00E949B
:10216000DB150F900F900F900F90DF91CF91089596
:102170004F925F926F927F928F929F92AF92BF9297
:10218000CF92DF92EF92FF92683071058105910541
:10219000A8F5223031054105510580F5E1E0F0E078
:1021A000062E02C0EE0FFF1F0A94E2F7E095F095AD
:1021B0002F01662457FC6094762C80900A01909041
:1021C0000B01A0900C01B0900D01482059206A200D
:1021D0007B2069017A0104C0CC0CDD1CEE1CFF1CC5
:1021E0006A95D2F74C285D286E287F2840920A0114
:1021F00050920B0160920C0170920D01FF90EF90D4
:10220000DF90CF90BF90AF909F908F907F906F9016
:102210005F904F9008958F929F92AF92BF92CF920E
:10222000DF92EF92FF920F931F93CF93DF93CDB77F
:10223000DEB765970FB6F894DEBF0FBECDBF5C0169
:1022400061E070E00E9493166C01E12CF12C96FF86
:102250006AC0811521E4920709F065C065E070E06D
:10226000C5010E9493164C0187E0A80EB11C00E046
:1022700010E0C12CD12C76010815190579F062E027
:1022800070E0C5010E949316C80ED91EE11CF11C16
:10229000E4E0AE0EB11C0F5F1F4FEECF80919003B4
:1022A000909191038C0D9D1D9093910380939003C9
:1022B00080919C0390919D03A0919E03B0919F03F8
:1022C0008C0D9D1DAE1DBF1D80939C0390939D039F
:1022D000A0939E03B0939F0340919C0350919D0354
:1022E00060919E0370919F03809198039091990350
:1022F000A0919A03B0919B03481759076A077B077F
:1023000009F048C08091A003882309F443C0E091FC
:102310008203F091830320E040E050E069E970E03F
:1023200080E090E036C097FFD8C08031F0E89F078A
:10233000B1F168F48130E0E89E0708F40EC1833003
:10234000F0E89F07B8F084309048A1F006C18038CB
:10235000E0E89E0779F028F48034904809F46DC0D5
:10236000FCC08115E2E89E0729F08115984809F420
:10237000A1C0F3C08091820390918303892B51F017
:10238000E0918203F091830320E040E050E0C70138
:10239000B601099561E070E080E090E0E1C0D50110
:1023A0001596CE010596FE0131962D912193E817E1
:1023B000F907D9F7F50181858D8382858E83838521
:1023C0008F8384858887D5011D96FE01399681E02B
:1023D00090E08C0F9D1F0C962D912193E817F90723
:1023E000D9F7D5015196FE013D9681E090E08C0F22
:1023F0009D1F40962D912193E817F907D9F7D50134
:102400005596FE01719681E090E08C0F9D1F4496D9
:102410002D912193E817F907D9F7F50184818D8B68
:102420008091820390918303892B09F4B3CFE091CB
:102430008203F091830325E14CC0F5E0AF0EB11C9F
:1024400060E070E0C5010E949E1669837A838B83E9
:102450009C8364E070E0C5010E949E166D837E83BC
:102460008F83988768E070E0C5010E949E16698797
:102470007A878B879C876CE070E0C5010E949E166E
:102480006D877E878F87988B60E170E0C5010E9421
:102490009E16698B7A8B8B8B9C8B8091820390919B
:1024A0008303892B09F476CFE0918203F0918303B3
:1024B00024E10FC0F5018581898380918203909189
:1024C0008303892B09F466CFE0918203F0918303A3
:1024D00021E0AE014F5F5F4F5ACFF3E0CF16F0E13E
:1024E000DF06E104F10421F08E5090410297A8F537
:1024F00085010B5F1F4F64E070E0C8010E949E16CB
:10250000673C7F4F8F4F9F4F41F5F501448150E06D
:1025100060E070E040938C0350938D0360938E03D2
:1025200070938F0360E070E0C8010E949E166B01FB
:102530007C0164E070E0C8010E949E16673C7F4FFA
:102540008F4F9F4F09F026CF21E030E040E050E070
:10255000C701B6010E94B8101DCF60E070E0CB014A
:1025600065960FB6F894DEBF0FBECDBFDF91CF9159
:102570001F910F91FF90EF90DF90CF90BF90AF90A1
:102580009F908F9008958091760390917703892B87
:1025900021F460E070E0CB01089580917803909180
:1025A0007903FC0120812430A1F70E940B116130D6
:1025B00071058105910569F71092770310927603F2
:1025C0000E94470C61E070E080E090E008954F9237
:1025D0005F926F927F928F929F92AF92BF92CF92B3
:1025E000DF92EF92FF920F931F93CF93DF93EC0153
:1025F0004B015A0100E010E080E1482E96E2592E8E
:102600000E94420D8091760390917703892BC1F34C
:10261000E0907803F0907903F7018081843009F02D
:10262000E8C161E070E0C7010E9493168C01C70108
:102630000E940B11672B682B692B09F0CEC1670133
:10264000F5E0CF0ED11C083080E1180708F065C016
:102650000630E0E11E0708F0DDC00230F2E01F079F
:1026600009F4D8C0D0F40D30110568F40830110514
:1026700008F0D0C00130110508F4AFC107301105D2
:1026800008F037C1C7C00D30110509F4BFC00130D3
:10269000E2E01E0709F4BAC0A0C10330F0E11F0751
:1026A000E8F4013080E1180708F0B4C00530E2E03A
:1026B0001E0708F4ABC00730F2E01F0709F08DC118
:1026C000F7018481899360E070E0C6010E949E1644
:1026D000AB01BC01CE010E9487167FC1043080E1AE
:1026E000180709F4B6C008F4E4C060E070E0C60161
:1026F0000E949E16688379838A839B8364E070E0DE
:10270000C6010E949E166C837D838E839F832896CC
:10271000F7013D96DE01842D19C10131F0E11F075B
:1027200009F474C008F043C00B30E0E11E0709F45F
:1027300071C080F5093080E1180709F46BC008F01A
:10274000CCC060E070E0C6010E949E166883798369
:102750008A839B8364E070E0C6010E949E166C83AE
:102760007D838E839F8368E070E0C6010E949E1681
:10277000688779878A879B873E01FCE06F0E711C12
:102780006CE070E0C6010E949E166C877D878E8784
:102790009F8722C10F30F0E11F0709F48AC008F0BB
:1027A00043C00D30E0E11E0709F453C016C10630E6
:1027B000F0E21F0759F158F40130E0E21E0708F477
:1027C0000CC10530F0E21F0708F0C5C01FC008307B
:1027D00080E2180708F401C10A30E0E21E07B0F0F9
:1027E0000B30F0E41F0709F0F8C0F701858190E095
:1027F000909391038093900361E070E0C6010E9482
:1028000093169093930380939203E7C0F70184811A
:102810008883E3C060E070E0C6010E949E16688372
:1028200079838A839B83D9C060E070E0C6010E94EF
:102830009E16FE0161937193819391933F0164E031
:1028400070E0C6010E949E166C837D838E839F83F9
:10285000C3C060E070E0C6010E949E166883798361
:102860008A839B8364E070E0C6010E949E166C839D
:102870007D838E839F833E01F8E06F0E711C68E0BC
:1028800070E0C6010E949E16688779878A879B87B9
:102890002C853D854E855F85273C3F4F4F4F5F4FD1
:1028A00009F09AC021E030E040E050E00E94B8100A
:1028B00093C060E070E0C6010E949E166883798331
:1028C0008A839B8364E070E0C6010E949E166C833D
:1028D0007D838E839F83289680C0F70184818C83BB
:1028E00085819681A781B08588839983AA83BB83DC
:1028F00074C060E070E0C6010E949E166883798310
:102900008A839B8364E070E0C6010E949E166C83FC
:102910007D838E839F8368E070E0C6010E949316DA
:10292000A0E0B0E088879987AA87BB876AE070E05B
:10293000C6010E949316A0E0B0E08A879B87AC870F
:10294000BD872C96F7017196DE01852D01900D92C1
:102950008A95E1F742C0F601C7010996DE0121918F
:102960002D93E817F907D9F7DF01FE013496CE0160
:1029700008962D912193E817F907D9F7D7011D96ED
:10298000CE010C962D912193E817F907D9F7D701BD
:102990005196CE0140962D912193E817F907D9F76A
:1029A000D7015596CE0144962D912193E817F9074A
:1029B000D9F7D7015996CE014A962D912193E81760
:1029C000F907D9F7D7015F96CE01CA962D912193C9
:1029D000E817F907D9F701C0E301809174039091DA
:1029E00075030817190799F510927503109274036F
:1029F0002EC0F701728063E070E0C7010E94931659
:102A00006C018114910499F064E070E0C7010596AF
:102A10000E949E16F5016083718382839383462F03
:102A200050E0B7016B5E7F4FC4010E941436672DE2
:102A300070E0A601461B570B6B5F7F4F6E0D7F1D2D
:102A4000CE010E94143610929703109296031092B2
:102A50007703109276030E94470CF701808184303F
:102A600039F40115F0E11F0719F4C7010E9439106C
:102A70008091740390917503892B09F0C1CD8091E9
:102A8000960390919703892B09F0BACD80E090E0EE
:102A9000DF91CF911F910F91FF90EF90DF90CF903A
:102AA000BF90AF909F908F907F906F905F904F906E
:102AB0000895683071058105910518F541E050E0F1
:102AC00002C0440F551F6A95E2F7662757FD6095CF
:102AD000762F80910A0190910B01A0910C01B09189
:102AE0000D01482359236A237B2331E020E080E055
:102AF00090E0452B462B472B09F430E0632F722FD3
:102B0000089561E070E080E090E008959C01CB01C1
:102B1000309375032093740340E050E060E070E070
:102B20000C94E7120F931F93CF93DF931F92CDB7AF
:102B3000DEB78B0121E0FB012583BC01C8010696AD
:102B400049830E948E164981FC014083642F70E006
:102B50006C5F7F4FC8010E94090B80E090E00F90EE
:102B6000DF91CF911F910F910895EF92FF920F93F4
:102B70001F93CF93DF938B01E90192E0FB019583D3
:102B800086834783CE0DDF1DC40FD51FBE01C8014C
:102B900008960E948E16BE016B5F7F4FC8010E948F
:102BA000090B60E070E0CB01DF91CF911F910F9195
:102BB000FF90EF9008954F925F926F927F928F9265
:102BC0009F92AF92BF92CF92DF92EF92FF920F93BC
:102BD0001F93CF93DF93EB016A01890193E09D83FB
:102BE0002B0197E0490E511C8E83390182E0680E5B
:102BF000711CB301C2010E948E167C01CE010B969E
:102C00005C01093E93E0190718F5B801C7010E945D
:102C10008E16B801C7010E948E16A801B601C50123
:102C20000E941436B8016A5F7F4FCE01DF91CF91C9
:102C30001F910F91FF90EF90DF90CF90BF90AF90DA
:102C40009F908F907F906F905F904F900C94090BA6
:102C500088EE882E83E0982EC801B4010E948C343F
:102C6000660F771F660D771DC7010E948E1668EEEE
:102C700073E0C7010E948E16F601D501C4010190D0
:102C80000D920197E1F7085E134088E1C81A8CEFB6
:102C9000D80A6EEE73E0CE010E94090B5E0195E04A
:102CA000A90EB11C0E94420D093E83E0180740F0B6
:102CB000780198EEE91A93E0F90A08EE13E002C0F1
:102CC000E12CF12C1E830D83A801B601C2010E94E4
:102CD0001436C00ED11EB8016E5F7F4FC5010E9431
:102CE000090BE114F10411F08701DCCFDF91CF91E2
:102CF0001F910F91FF90EF90DF90CF90BF90AF901A
:102D00009F908F907F906F905F904F900895FC01FF
:102D1000408351836283738304960895FC0160832A
:102D2000718302960895680F791FFB01818190E0FD
:102D3000982F88272081820F911D08950F931F934C
:102D4000FB01E80FF91F6381862F90E0A0E0B0E05F
:102D5000982F882777276627028110E020E030E04F
:102D6000980111270027600F711F821F931F208178
:102D7000620F711D811D911D018110E020E030E086
:102D8000322F212F102F0027600F711F821F931FDA
:102D90001F910F91089521E030E030937703209345
:102DA000760390937903809378030C94C312AF92C7
:102DB000BF92CF92DF92EF92FF920F931F93709387
:102DC0007D0360937C0350937F0340937E03309395
:102DD0008103209380031093850300938403F09272
:102DE0008703E0928603D0928903C0928803B09251
:102DF0008B03A0928A03909383038093820381E0E4
:102E00008093A0031F910F91FF90EF90DF90CF90E0
:102E1000BF90AF900895CF92DF92EF92FF92CF9341
:102E2000DF93EC01109298031092990310929A0389
:102E300010929B0310929C0310929D0310929E038C
:102E400010929F03109275031092740310929103D5
:102E50001092900310929303109292031092950394
:102E600010929403109297031092960310928C0381
:102E700010928D0310928E0310928F03109277039D
:102E80001092760310927903109278038FE492E007
:102E900090937B0380937A038BEC96E10E942C0A3B
:102EA000E0918403F091850309956B017C01E09129
:102EB0008A03F0918B0381E00995CD28CE28CF2895
:102EC000A9F1E0918403F09185030995672B682BA4
:102ED000692BB9F760917A0370917B03CE01C330FF
:102EE000D10510F082E090E0FB01818741E080E0B5
:102EF00090E40E94921560E070E080E090E40E940F
:102F0000861560917A0370917B0340E08BE090E43A
:102F10000E94921560E070E08BE090E4DF91CF9129
:102F2000FF90EF90DF90CF900C948615E091840392
:102F3000F09185030995672B682B692BB9F3E09114
:102F40008403F09185030995672B682B692BB9F7EA
:102F5000C1CF2F923F924F925F926F927F928F924A
:102F60009F92AF92BF92CF92DF92EF92FF920F9318
:102F70001F93CF93DF93CDB7DEB760970FB6F8946A
:102F8000DEBF0FBECDBF6B877C878D879E871A0102
:102F9000280139019E012F5F3F4F86E0F901119210
:102FA0008A95E9F78FEF9FEFDC018F839887A987D8
:102FB000BA8700917A0310917B034CE150E060E006
:102FC00070E0C80109962F87388B0E948716B301DD
:102FD000A2010E9487164B855C856D857E850E94C7
:102FE0008716B301A201405F5F4F6F4F7F4F0E9472
:102FF0008716B501A4010E94871660E070E00E9468
:103000008E162F853889E114F10479F0D701FC017F
:1030100020E030E04D9141932F5F3F4F2630310546
:10302000C9F70696DC01F1010BC0F901DC019E0134
:10303000295F3F4F41914D93E217F307D9F7F1CF45
:10304000AF0142195309662757FD6095762F441545
:103050005505660577051CF481918D93F1CF811498
:103060009104A104B10481F54CE1480D440DB8016F
:1030700081E090E00E949215BE01695F7F4F81E080
:1030800090E00E9486156F81788589859A85709376
:1030900011046093100460960FB6F894DEBF0FBE63
:1030A000CDBFDF91CF911F910F91FF90EF90DF90F7
:1030B000CF90BF90AF909F908F907F906F905F90D8
:1030C0004F903F902F900895C114D10469F2F601FA
:1030D000AF014C195D09662757FD6095762F48159D
:1030E00059056A057B050CF0BFCF81918D93F0CF18
:1030F0008F929F92AF92BF92CF92DF92EF92FF9208
:103100000F931F93CF93DF9300D000D0CDB7DEB7DE
:1031100049015A01670178010FEF1FEF98010983F8
:103120001A832B833C8300917A0310917B03AB01BC
:10313000BC01C80109960E948716B501A4010E942E
:103140008716B701A6010E9487164CE0B80184E0FB
:1031500090E00E949215BE016F5F7F4F84E090E087
:103160000E94861569817A818B819C810F900F90D6
:103170000F900F90DF91CF911F910F91FF90EF90E3
:10318000DF90CF90BF90AF909F908F9008950F9356
:103190001F93CF93DF9300D000D0CDB7DEB7AB0144
:1031A000BC0100917A0310917B03C80109960E942B
:1031B00087168FEF9FEFDC0189839A83AB83BC83F3
:1031C00044E0B80186E090E00E949215BE016F5F76
:1031D0007F4F86E090E00E94861569817A818B811D
:1031E0009C810F900F900F900F90DF91CF911F91C6
:1031F0000F9108954F925F926F927F92AF92BF921C
:10320000CF92DF92EF92FF920F931F93CF93DF93B2
:10321000CDB7DEB72C970FB6F894DEBF0FBECDBF8B
:103220002B013C012D833E834F835887E986FA8624
:103230000B871C87FDA4EEA400917A0310917B03F9
:1032400044E250E060E070E0C80109960E948716F1
:10325000B301A2010E9487164D815E816F8178853E
:103260000E94871649855A856B857C850E94871642
:10327000B601A5010E9487164D8D5E8D6F8D78A1D8
:103280000E94871649A15AA16BA17CA10E948716B2
:103290004DA15EA16FA178A50E94871649A55AA5E8
:1032A0006BA57CA50E948716EF2DFE2D20E030E057
:1032B0004191DC014D93CD012F5F3F4F203431050B
:1032C000B9F744E6B80183E090E00E949215BE0190
:1032D0006F5F7F4F83E090E00E94861569817A815D
:1032E0008B819C812C960FB6F894DEBF0FBECDBFAC
:1032F000DF91CF911F910F91FF90EF90DF90CF90D2
:10330000BF90AF907F906F905F904F9008950F9314
:103310001F93CF93DF9300D000D0CDB7DEB7AB01C2
:10332000BC01DB01CA0188709078AA27BB278830CE
:103330009048A105B10571F41092A003483080E8CF
:1033400058076105710551F1477F5F776627772739
:10335000506803C081E08093A0038FEF9FEFDC01F2
:1033600089839A83AB83BC8300917A0310917B039A
:10337000C80109960E94871644E0B80188E090E0F1
:103380000E949215BE016F5F7F4F88E090E00E941F
:10339000861569817A818B819C8103C060E070E031
:1033A000CB010F900F900F900F90DF91CF911F9155
:1033B0000F91089561E081E10E94A72B61E081E116
:1033C0000E946B2B8CB580618CBD8CB580648CBDEC
:1033D00061E08FE00E946B2B61E080E10C946B2B2D
:1033E000811103C08CB5806202C08CB58F7D8CBD0D
:1033F00008959CB5937F982B9CBD08952CB5982F6C
:1034000093702C7F922B9CBD9DB582FB882780F901
:103410009E7F982B9DBD08952AEF30E08091BC00DF
:1034200087FD03C021503109C8F781E01216130649
:103430000CF080E008959C011092BC008BB16623D3
:1034400011F0836001C08C7F8BB91092B9004427C2
:1034500037FD4095542F60E87EE380E090E00E94C5
:10346000C2342051310941095109CA01B90122E090
:1034700030E040E050E00E94C2342093B80084E085
:103480008093BC0008950F931F93CF93DF93D82FA1
:10349000DD0FC3E014EB04E81093BC000E940C1A8B
:1034A0008823C1F09091B900987F983011F0903145
:1034B00099F4D093BB000093BC000E940C1A88239F
:1034C00069F09091B900987F903251F4C15021F782
:1034D00084E009C081E007C082E005C083E003C04A
:1034E0009831B1F780E0DF91CF911F910F9108954E
:1034F0008093BB0084E88093BC000E940C1A882350
:1035000049F08091B900887F883211F082E00895F7
:1035100080E0089581E0089584E98093BC000E94D2
:103520000C1A91E0811190E0892F0895EF92FF929B
:103530000F931F93CF93DF9300D01F92CDB7DEB7C9
:10354000142F2A833B8369830E94431A6981862F43
:103550000E94781A2A81022FE22E3B81F32E8E2DB3
:10356000801B811730F4F70181917F010E94781A46
:10357000F6CF0E948C1A81E00F900F900F90DF9190
:10358000CF911F910F91FF90EF900895CF93DF930C
:103590001F92CDB7DEB749839E012F5F3F4F41E0B9
:1035A0000E94961A0F90DF91CF910895BF92CF920B
:1035B000DF92EF92FF920F931F93CF93DF93D82F59
:1035C000B62E8A01D22EC3E074EBF72E8E7FE82E42
:1035D000E4E8CE2EF092BC000E940C1A8823B9F0C9
:1035E0009091B900987F983011F0903191F4E09269
:1035F000BB00C092BC000E940C1A882361F090911D
:10360000B900987F903249F4C15049F0E3CF80E18E
:103610007DC081E17BC082E179C0983111F083E106
:1036200075C0B092BB0084E88093BC000E940C1A65
:10363000882389F19091B900987F983271F5C8EC90
:1036400054EBF52ED160ED2E64E8C62EF092BC004E
:103650000E940C1A882319F19091B900987F983034
:1036600011F09031F1F4E092BB00C092BC000E94D6
:103670000C1A8823C1F0D091B900D87FC83C31F032
:1036800061E070E080E090E00E94A22AD83479F4F2
:10369000C15058F0DBCF84E139C085E137C086E105
:1036A00035C087E133C088E131C089E12FC0D03413
:1036B000E1F7E80100E010E0ED2CF12C81E0E81AE0
:1036C000F10834ECB32E44E8C42E0D15D0F40E15D9
:1036D0001F0519F4C092BC0002C0B092BC000E9449
:1036E0000C1A882391F08091B900982F907F903523
:1036F00011F0887F0BC08091BB0089930F5F1F4F33
:10370000E4CF0E948C1A80E001C08AE1DF91CF9162
:103710001F910F91FF90EF90DF90CF90BF90089591
:103720007F928F929F92AF92BF92CF92DF92EF9251
:10373000FF920F931F93CF93DF931F92CDB7DEB706
:10374000782ED62EC42E79010E94712A4B015C017D
:103750002C2DA7016D2D872D880F0E94D61A81115F
:1037600002C04C2D01C04FEF01151105C1F0498376
:103770000E94712A681979098A099B0920E030E0C2
:103780004981601771078207930748F0D12C242FD5
:10379000332727FD30952C153D050CF44FEF842F72
:1037A0000F90DF91CF911F910F91FF90EF90DF90DD
:1037B000CF90BF90AF909F908F907F9008950F9380
:1037C0001F9389019A0141E00E94901B1F910F9164
:1037D0000895EF92FF920F931F93CF93DF931F9261
:1037E000CDB7DEB7182F062FF42EE22E20910E0152
:1037F00030910F01AE014F5F5F4F0E94DF1B898147
:1038000021E030E00F2C01C0220F0A94EAF7EE20ED
:1038100019F0482F422B03C0422F4095482349837B
:10382000602F812F0E94C61A0F90DF91CF911F91B8
:103830000F91FF90EF900895DF92EF92FF920F9318
:103840001F93CF93DF931F92CDB7DEB7F82EE62EEE
:10385000D42E122F20910E0130910F01AE014F5F37
:103860005F4F0E94DF1B882319F14D2D50E0411B53
:1038700051094F5F5F4FE1E0F0E002C0EE0FFF1F24
:103880001A95E2F73197042E01C0EE0F0A94EAF779
:1038900001C0000F4A95EAF74E2F409589814823D1
:1038A000E0234E2B49836E2D8F2D0E94C61A01C036
:1038B00080E00F90DF91CF911F910F91FF90EF90DB
:1038C000DF900895CF93DF93EC014FE060E28881B1
:1038D0000E94C61A40E061E288810E94C61A40E058
:1038E00062E288810E94C61A40E863E288810E94F1
:1038F000C61A40E064E288810E94C61A40E06FE187
:1039000089810E94C61A4FE660E289810E94C61A28
:1039100040E061E289810E94C61A40E062E289814A
:103920000E94C61A40E863E289810E94C61A40E9F3
:1039300064E289810E94C61A40E265E289810E94A0
:10394000C61A40E066E289810E94C61A8EE99EEDA1
:10395000ACE1BAE388879987AA87BB874CEA55EC24
:1039600067E279E34C875D876E877F8749E25CE594
:103970006FE07CE3488B598B6A8B7B8BDF91CF9117
:103980000895CF93DF93EC018AE688838EE18983E3
:1039900061E080E991E00E941B1ACE01DF91CF9196
:1039A0000C94621CCF93DF93EC0120910E013091B7
:1039B0000F01AC014E5F5F4F6FE088810E94DF1BFB
:1039C0008A81DF91CF910895CF93DF93EC0120910D
:1039D0000E0130910F01AC014E5F5F4F6FE08981A6
:1039E0000E94DF1B8A81DF91CF910895CF93DF93EF
:1039F000EC010E94D21C843D49F4CE010E94E41CDB
:103A000091E0893409F090E0892F01C080E0DF91D6
:103A1000CF9108950F93062F22E047E060E2FC016A
:103A200080810E941C1C0F9108950F93062F22E0A5
:103A300045E060E2FC0180810E941C1C0F9108950A
:103A40000F93FC016A3F710551F449E25CE56FE0B8
:103A50007CE3408B518B628B738B00E016C0643F1C
:103A6000714051F449E25CE56FE87CE3408B518B97
:103A7000628B738B01E009C049E25CE56FE87DE38E
:103A8000408B518B628B738B02E022E045E063E256
:103A900080810E941C1C0F910895262F44E064E24F
:103AA000FC0180810C94E91B0F931F93CF93DF934C
:103AB000EC01162F862F8D7F813011F461E001C05B
:103AC00060E0CE010E944D1D012F22E041E064E242
:103AD00088810E941C1C22E043E064E288810E94ED
:103AE0001C1CDF91CF911F910F9108950F93062F0A
:103AF00024E047E060E2FC0181810E941C1C0F91E0
:103B000008950F93062F22E047E061E2FC018181D6
:103B10000E941C1C0F9108950F931F93FC018B01B1
:103B20006230710501F15CF46115710599F0613045
:103B3000710531F58EE99EEDACE9BAE30FC0633053
:103B40007105B1F064307105D9F44DEE5DE46BEEB2
:103B50007BE312C08EE99EEDACE1BAE380879187EA
:103B6000A287B3870DC04DEE5DE46BEE7AE304C02F
:103B70004EE95EED6CE17BE3408751876287738796
:103B800023E045E061E281810E941C1C1F910F919E
:103B900008950F93062F23E043E064E2FC01818146
:103BA0000E941C1C0F9108950F931F93FC018B0121
:103BB00061307105C1F064F46115710509F58CEA95
:103BC00095ECA7EAB8E384879587A687B78718C0DE
:103BD0006230710569F06330710591F442E858EA8A
:103BE0006BEF79E309C04CEA55EC67E279E304C076
:103BF0004CEA55EC67EA79E344875587668777870F
:103C000022E046E065E281810E941C1C1F910F9119
:103C100008958F929F92AF92BF92CF92DF92EF92D0
:103C2000FF920F931F93CF93DF937C01EB016B0106
:103C300082E0C80ED11C00910E0110910F01960177
:103C400046E068EA89810E94901B88849984AA844E
:103C5000BB846A817B81882777FD8095982F0E949D
:103C60001E339B01AC01C501B4010E94CE33F701A4
:103C7000648F758F868F978F6C817D81882777FD04
:103C80008095982F0E941E339B01AC01C501B401A1
:103C90000E94CE33F70160A371A382A393A36E8128
:103CA0007F81882777FD8095982F0E941E339B0186
:103CB000AC01C501B4010E94CE33F70164A375A322
:103CC00086A397A300910E0110910F01960146E083
:103CD00068E889810E94901B8C849D84AE84BF8497
:103CE0006A817B81882777FD8095982F0E941E33FB
:103CF0009B01AC01C501B4010E94CE33F701608B7A
:103D0000718B828B938B6C817D81882777FD809569
:103D1000982F0E941E339B01AC01C501B4010E9483
:103D2000CE33F701648B758B868B978B6E817F8189
:103D3000882777FD8095982F0E941E339B01AC0148
:103D4000C501B4010E94CE33F701608F718F828F5D
:103D5000938F00910E0110910F01960146E068EAE1
:103D600088810E94901B88889988AA88BB886A816C
:103D70007B81882777FD8095982F0E941E339B01B9
:103D8000AC01C501B4010E94CE332BED3FE049E404
:103D900050E40E94CE3320E030E044E353E40E943C
:103DA000B432F70164837583868397836C817D8148
:103DB000882777FD8095982F0E941E339B01AC01C8
:103DC000C501B4010E94CE332BED3FE049E450E43D
:103DD0000E94CE3320E030E044E353E40E94B4324A
:103DE000F70160877187828793876E817F8188273B
:103DF00077FD8095982F0E941E339B01AC01C50171
:103E0000B4010E94CE332BED3FE049E450E40E9420
:103E1000CE3320E030E044E353E40E94B432F701B3
:103E2000648775878687978700910E0110910F012F
:103E3000960146E066EA89810E94901B6A817B8137
:103E4000882777FD8095982F0E941E3320E030E070
:103E500048E454E40E94B432F70160A771A782A736
:103E600093A7C701DF91CF911F910F91FF90EF9022
:103E7000DF90CF90BF90AF909F908F900895CF929A
:103E8000DF92EF92FF920F931F938B019C01359568
:103E90002795179507955FEDC52E59E5D52E57E364
:103EA000E52E5FE5F52EC01AD10AE20AF30A20E0FA
:103EB00030E040E05FE30E94CE33A70196010E940C
:103EC000CE33A70196010E94CE339B01AC0160E086
:103ED00070E080EC9FE30E944B329B01AC01C70174
:103EE000B6010E94CE331F910F91FF90EF90DF90AB
:103EF000CF9008954F925F926F927F928F929F9290
:103F0000AF92BF92CF92DF92EF92FF920F931F93E7
:103F1000CF93DF93CDB7DEB7C057D1090FB6F89472
:103F2000DEBF0FBECDBF69837A838B839C8329015B
:103F30003A01ED8AFE8A0F8B188F20E030E0A9014C
:103F400060911401709115018091160190911701F3
:103F50000E94B03281110CC080E090E0A0E8BFE385
:103F60008093140190931501A0931601B09317014B
:103F700020E030E0A901C557DF4F688179818A814F
:103F80009B81CB58D0400E94B032811120C020E0EC
:103F900030E0A901C157DF4F688179818A819B8117
:103FA000CF58D0400E94B032811111C020E030E0E3
:103FB000A901CD56DF4F688179818A819B81C359E0
:103FC000D0400E94B032882311F40C940D2A209125
:103FD00018013091190140911A0150911B01298B50
:103FE0003A8B4B8B5C8B80911C0190911D01A091B1
:103FF0001E01B0911F018D879E87AF87B88B2091DE
:1040000020013091210140912201509123012D8303
:104010003E834F83588769897A898B899C89905818
:1040200029813A814B815C810E94CE3369877A87EE
:104030008B879C87A30192016D857E858F859889EA
:104040000E94CE339B01AC0169857A858B859C8566
:104050000E944B3269877A878B879C872D893E899E
:104060004F89588D6D817E818F8198850E94CE33D6
:104070009B01AC0169857A858B859C850E944B32BA
:1040800020E030E040E05FE30E94CE336D966CAFFD
:104090007DAF8EAF9FAF6D97809114019091150108
:1040A000A0911601B091170189879A87AB87BC87C9
:1040B00029813A814B815C81BC01CD010E94CE33C4
:1040C0006DA37EA38FA398A72D893E894F89588D14
:1040D0006D857E858F8598890E94CE339B01AC01CA
:1040E0006DA17EA18FA198A50E944C326DA37EA3E5
:1040F0008FA398A7A30192016D817E818F819885FE
:104100000E94CE339B01AC016DA17EA18FA198A529
:104110000E944B3220E030E040E05FE30E94CE336B
:10412000A1966CAF7DAF8EAF9FAFA197A301920117
:1041300069857A858B859C850E94CE336DA37EA38D
:104140008FA398A72D893E894F89588D69897A89CF
:104150008B899C890E94CE339B01AC016DA17EA10D
:104160008FA198A50E944B326DA37EA38FA398A721
:1041700029813A814B815C816D817E818F81988517
:104180000E94CE339B01AC016DA17EA18FA198A5A9
:104190000E944C3220E030E040E05FE30E94CE33EA
:1041A000A5966CAF7DAF8EAF9FAFA5972D893E8949
:1041B0004F89588D69857A858B859C850E94CE3381
:1041C0006D8B7E8B8F8B988FA301920169897A8981
:1041D0008B899C890E94CE339B01AC016D897E89BD
:1041E0008F89988D0E944C322B013C0129813A81A4
:1041F0004B815C816D857E858F8598890E94CE3349
:104200009B01AC01C301B2010E944B3220E030E0BF
:1042100040E05FE30E94CE33A9966CAF7DAF8EAFD6
:104220009FAFA99720E030E0A901C601B5010E9427
:10423000B03281111FC020E030E0A901CD57DF4F1F
:10424000688179818A819B81C358D0400E94B032B5
:10425000811110C020E030E0A901C957DF4F68810B
:1042600079818A819B81C758D0400E94B0328823CF
:1042700009F4F3C7A6019501C601B5010E94CE332A
:104280002B013C01CD57DF4F288139814A815B8169
:10429000C358D040CA01B9010E94CE339B01AC0182
:1042A000C301B2010E944C322B013C01C957DF4FC0
:1042B000288139814A815B81C758D040CA01B90140
:1042C0000E94CE339B01AC01C301B2010E944C326B
:1042D0000E943F1F2B013C019B01AC01C601B501AF
:1042E0000E94CE3365966CAF7DAF8EAF9FAF659762
:1042F000A3019201CD57DF4F688179818A819B812B
:10430000C358D0400E94CE3369966CAF7DAF8EAF5C
:104310009FAF6997A3019201C957DF4F68817981E7
:104320008A819B81C758D0400E94CE33E1966CAF02
:104330007DAF8EAF9FAFE197C557DF4F28813981A1
:104340004A815B81CB58D040CA01B9010E94CE336B
:104350006B017C01C157DF4F288139814A815B8124
:10436000CF58D040CA01B9010E94CE339B01AC01A5
:10437000C701B6010E944C326B017C01CD56DF4F64
:10438000288139814A815B81C359D040CA01B90172
:104390000E94CE339B01AC01C701B6010E944C3292
:1043A0000E943F1F6B017C019B01AC01C557DF4F91
:1043B000688179818A819B81CB58D0400E94CE331D
:1043C000698F7A8F8B8F9C8FA7019601C157DF4F22
:1043D000688179818A819B81CF58D0400E94CE33F9
:1043E0006D8B7E8B8F8B988FA7019601CD56DF4FFB
:1043F000688179818A819B81C359D0400E94CE33E4
:104400002B013C0129853A854B855C85CA01B901A0
:104410000E944C3269A77AA78BA79CA7298D3A8D59
:104420004B8D5C8D0E94CE3321966CAF7DAF8EAFED
:104430009FAF21972D893E894F89588D69A57AA50F
:104440008BA59CA50E94CE3329966CAF7DAF8EAF15
:104450009FAF2997A301920169A57AA58BA59CA579
:104460000E94CE334B015C0129893A894B895C89D2
:10447000CA01B9010E944C3269AB7AAB8BAB9CABE1
:10448000298D3A8D4B8D5C8D0E94CE332D966CAF6D
:104490007DAF8EAF9FAF2D972D853E854F85588977
:1044A000CA01B9010E944C326DA37EA38FA398A7C5
:1044B0002D813E814F815885CA01B9010E944C323D
:1044C000AD966CAF7DAF8EAF9FAFAD9729853A8526
:1044D0004B855C85CA01B9010E94CE3369AF7AAFC2
:1044E0008BAF9CAF29893A894B895C8969857A852C
:1044F0008B859C850E94CE3325966CAF7DAF8EAFA9
:104500009FAF25972D853E854F85588969857A858A
:104510008B859C850E94CE3361966CAF7DAF8EAF4C
:104520009FAF619729893A894B895C89CA01B90192
:104530000E94CE3369A37AA38BA39CA32D813E81D5
:104540004F81588569897A898B899C890E94CE33ED
:104550006DA77EA78FA798AB2D853E854F8558897F
:10456000CA01B9010E94CE336D8F7E8F8F8F98A3C1
:104570002D813E814F815885CA01B9010E94CE33F9
:104580006DAB7EAB8FAB98AF29AD3AAD4BAD5CADAB
:10459000698D7A8D8B8D9C8D0E94CE336B017C0151
:1045A0002D813E814F81588529966CAD7DAD8EADB4
:1045B0009FAD29970E94CE339B01AC01C701B60184
:1045C0000E944B326B017C012D853E854F855889B9
:1045D000C501B4010E94CE339B01AC01C701B601F5
:1045E0000E944C326B017C0129A13AA14BA15CA134
:1045F000698D7A8D8B8D9C8D0E94CE339B01AC0191
:10460000C701B6010E944C326B017C012D893E89A5
:104610004F89588D69A97AA98BA99CA90E94CE338C
:104620002D853E854F8558890E94CE339B01AC0174
:10463000C701B6010E944C326B017C01A3019201BB
:1046400069A97AA98BA99CA90E94CE332D813E81AC
:104650004F8158850E94CE339B01AC01C701B60142
:104660000E944C326B017C012D8D3E8D4F8D58A1E7
:10467000698D7A8D8B8D9C8D0E94CE339B01AC0110
:10468000C701B6010E944B326B017C012DA93EA9E6
:104690004FA958AD698D7A8D8B8D9C8D0E94CE333C
:1046A0009B01AC01C701B6010E944B326B017C013A
:1046B0002D813E814F81588521966CAD7DAD8EADAB
:1046C0009FAD21970E94CE3369837A838B839C832D
:1046D00029AD3AAD4BAD5CAD6D897E898F89988DE2
:1046E0000E94CE339B01AC0169817A818B819C81D0
:1046F0000E944C3269837A838B839C8329893A890F
:104700004B895C89C501B4010E94CE339B01AC0189
:1047100069817A818B819C810E944B324B015C01C3
:104720002D853E854F8558892D966CAD7DAD8EAD1E
:104730009FAD2D970E94CE339B01AC01C501B40102
:104740000E944C324B015C0129A13AA14BA15CA112
:104750006D897E898F89988D0E94CE339B01AC0133
:10476000C501B4010E944B324B015C012D8D3E8D81
:104770004F8D58A16D897E898F89988D0E94CE3387
:104780009B01AC01C501B4010E944C324B015C019C
:10479000A30192016DA17EA18FA198A50E94CE33A5
:1047A0002D813E814F8158850E94CE339B01AC0103
:1047B000C501B4010E944C324B015C012DA93EA9F8
:1047C0004FA958AD6D897E898F89988D0E94CE330F
:1047D0009B01AC01C501B4010E944B324B015C014D
:1047E000A7019601C701B6010E94CE336B017C017F
:1047F000A5019401C501B4010E94CE339B01AC0117
:10480000C701B6010E944C320E94353469837A8315
:104810008B839C8321966CAD7DAD8EAD9FAD219732
:1048200090582D853E854F8558890E94CE336B0167
:104830007C0129893A894B895C8929966CAD7DADCB
:104840008EAD9FAD29970E94CE339B01AC01C7016D
:10485000B6010E944C326B017C0129AD3AAD4BADE3
:104860005CADC301B2010E94CE339B01AC01C70114
:10487000B6010E944C326B017C012D813E814F813B
:1048800058852D966CAD7DAD8EAD9FAD2D970E9458
:10489000CE339B01AC01C701B6010E944C326B01C3
:1048A0007C0129A13AA14BA15CA1C301B2010E94E4
:1048B000CE339B01AC01C701B6010E944B326B01A4
:1048C0007C012D893E894F89588D6DA17EA18FA1D4
:1048D00098A50E94CE332D813E814F8158850E943C
:1048E000CE339B01AC01C701B6010E944C326B0173
:1048F0007C012D8D3E8D4F8D58A1C301B2010E94C8
:10490000CE339B01AC01C701B6010E944B326B0153
:104910007C012DA93EA94FA958ADC301B2010E9447
:10492000CE339B01AC01C701B6010E944C324B0152
:104930005C019B01AC010E944C322D966CAF7DAFA7
:104940008EAF9FAF2D972DA53EA54FA558A9CA01A3
:10495000B9010E944C326B017C012D853E854F854B
:10496000588969A57AA58BA59CA50E94CE339B0189
:10497000AC01C701B6010E944B3265962CAD3DAD2E
:104980004EAD5FAD65970E944B3269AF7AAF8BAF8A
:104990009CAF25962CAD3DAD4EAD5FAD2597CA01C0
:1049A000B9010E944C326B017C012D813E814F8107
:1049B00058856DA17EA18FA198A50E94CE339B0141
:1049C000AC01C701B6010E944C3269962CAD3DADD9
:1049D0004EAD5FAD69970E944B3221966CAF7DAFB3
:1049E0008EAF9FAF21972D853E854F855889C50194
:1049F000B4010E94CE3365966CAF7DAF8EAF9FAF92
:104A000065972D8D3E8D4F8D58A160E070E080E060
:104A10009FE30E944B322DA93EA94FA958AD0E9499
:104A20004B329B01AC0169817A818B819C810E9410
:104A3000CE336B017C0161962CAD3DAD4EAD5FADCB
:104A400061976DA57EA58FA598A90E944B329B0109
:104A5000AC01C501B4010E94CE339B01AC01C7017A
:104A6000B6010E944C32298D3A8D4B8D5C8D0E948F
:104A70004B32698F7A8F8B8F9C8F29813A814B8142
:104A80005C81505829962CAF3DAF4EAF5FAF299750
:104A900029893A894B895C89C501B4010E94CE33CA
:104AA00069966CAF7DAF8EAF9FAF69972D853E85C0
:104AB0004F85588969897A898B899C890E94CE3370
:104AC0006B017C012D813E814F81588569857A85F6
:104AD0008B859C850E94CE339B01AC01C701B6013A
:104AE0000E944B329B01AC0169817A818B819C8150
:104AF0000E94CE336B017C012D813E814F81588510
:104B00006D857E858F8598890E94CE339B01AC018F
:104B100025966CAD7DAD8EAD9FAD25970E944C3234
:104B20009B01AC01C501B4010E94CE339B01AC01D5
:104B3000C701B6010E944C322D893E894F89588D9C
:104B40000E944B326D8B7E8B8F8B988F2D853E858F
:104B50004F85588969817A818B819C810E94CE33EF
:104B60006B017C012DA53EA54FA558A961966CADA2
:104B70007DAD8EAD9FAD61970E944C329B01AC0123
:104B800069817A818B819C810E94CE336DA77EA73B
:104B90008FA798AB29A13AA14BA15CA160E070E07E
:104BA00080E09FE30E944B322D8D3E8D4F8D58A1AA
:104BB0000E944B329B01AC01C501B4010E94CE336F
:104BC0009B01AC016DA57EA58FA598A90E944C32D2
:104BD000A30192010E944B326DA77EA78FA798ABCD
:104BE0006DA17EA18FA198A5905829AD3AAD4BAD8E
:104BF0005CAD0E94CE332B013C0121962CAD3DAD26
:104C00004EAD5FAD219769A97AA98BA99CA90E9495
:104C1000CE339B01AC01C301B2010E944C322B0187
:104C20003C01298D3A8D4B8D5C8D65966CAD7DADCB
:104C30008EAD9FAD65970E94CE339B01AC01C30141
:104C4000B2010E944B322B013C012D813E814F81EC
:104C5000588529966CAD7DAD8EAD9FAD29970E948C
:104C6000CE3369962CAD3DAD4EAD5FAD69970E94D8
:104C70004C322D893E894F89588D0E94CE339B013D
:104C8000AC01C301B2010E944C322B013C012DA5A5
:104C90003EA54FA558A9C701B6010E94CE339B017E
:104CA000AC01C301B2010E944C326DAB7EAB8FAB45
:104CB00098AF29A13AA14BA15CA1CA01B9010E94F8
:104CC0004C329B01AC0160E070E080E89FE30E9401
:104CD0004B322B013C012D8D3E8D4F8D58A1CA01C9
:104CE000B9010E944C329B01AC01C301B2010E9488
:104CF0004B32E1962CAD3DAD4EAD5FADE1970E94DC
:104D00004B322B013C012D813E814F815885C501DD
:104D1000B4010E94CE3325966CAF7DAF8EAF9FAFAE
:104D2000259729853A854B855C85C501B4010E948C
:104D3000CE3361966CAF7DAF8EAF9FAF619729ADDB
:104D40003AAD4BAD5CADAD966CAD7DAD8EAD9FAD6E
:104D5000AD970E94CE334B015C0121962CAD3DAD49
:104D60004EAD5FAD219769A57AA58BA59CA50E9444
:104D7000CE339B01AC01C501B4010E944C324B0102
:104D80005C0120E030E040E850E469897A898B8951
:104D90009C890E94CE33A30192010E94CE339B01D5
:104DA000AC01C501B4010E944B324B015C01298D5D
:104DB0003A8D4B8D5C8D25966CAD7DAD8EAD9FADE6
:104DC00025970E94CE339B01AC01C501B4010E941E
:104DD0004C324B015C0161962CAD3DAD4EAD5FADEB
:104DE0006197C701B6010E944C322D893E894F89D7
:104DF000588D0E94CE339B01AC01C501B4010E94C5
:104E00004C326B017C012D813E814F815885698137
:104E10007A818B819C810E94CE334B015C01298970
:104E20003A894B895C892D966CAD7DAD8EAD9FAD79
:104E30002D970E94CE339B01AC01C501B4010E94A5
:104E40004B322DA53EA54FA558A90E94CE339B01FC
:104E5000AC01C701B6010E944C326D8F7E8F8F8FDF
:104E600098A329813A814B815C81CA01B9010E94D2
:104E70004C329B01AC01505829A33AA34BA35CA32D
:104E800029893A894B895C8969817A818B819C81E6
:104E90000E94CE336B017C0169A57AA58BA59CA5E8
:104EA000905829AD3AAD4BAD5CAD0E94CE334B016D
:104EB0005C0121962CAD3DAD4EAD5FAD2197AD9619
:104EC0006CAD7DAD8EAD9FADAD970E94CE339B0195
:104ED000AC01C501B4010E944C324B015C0120E0E1
:104EE00030E040E850E46D857E858F8598890E948A
:104EF000CE33A30192010E94CE339B01AC01C501C8
:104F0000B4010E944B324B015C012D853E854F85DB
:104F1000588969A17AA18BA19CA10E94CE33619688
:104F20002CAD3DAD4EAD5FAD61970E944B32298DEA
:104F30003A8D4B8D5C8D0E94CE339B01AC01C50137
:104F4000B4010E944C324B015C0125962CAD3DAD65
:104F50004EAD5FAD2597C701B6010E944C322D8939
:104F60003E894F89588D0E94CE339B01AC01C5010B
:104F7000B4010E944C324B015C0129853A854B8576
:104F80005C8569817A818B819C810E94CE332B0163
:104F90003C012D853E854F8558892D966CAD7DADA4
:104FA0008EAD9FAD2D970E94CE339B01AC01C30106
:104FB000B2010E944B322DA53EA54FA558A90E94D3
:104FC000CE339B01AC01C501B4010E944C32698310
:104FD0007A838B839C8329AD3AAD4BAD5CAD69A9D7
:104FE0007AA98BA99CA90E94CE334B015C01219622
:104FF0002CAD3DAD4EAD5FAD21976DA17EA18FA1D2
:1050000098A50E94CE339B01AC01C501B4010E945A
:105010004C324B015C012D813E814F81588569A145
:105020007AA18BA19CA10E94CE3369962CAD3DAD97
:105030004EAD5FAD69970E944C32298D3A8D4B8DF4
:105040005C8D0E94CE339B01AC01C501B4010E946E
:105050004C324B015C0129853A854B855C8529964C
:105060006CAD7DAD8EAD9FAD29970E94CE33659618
:105070002CAD3DAD4EAD5FAD65970E944C322D8994
:105080003E894F89588D0E94CE339B01AC01C501EA
:10509000B4010E944C324B015C012DA53EA54FA5E9
:1050A00058A9C701B6010E94CE339B01AC01C501CE
:1050B000B4010E944C324B015C012DA93EA94FA9BD
:1050C00058ADCA01B9010E94CE336B017C012D8D10
:1050D0003E8D4F8D58A1CA01B9010E94CE339B016C
:1050E000AC01C701B6010E944C326B017C012981E1
:1050F0003A814B815C81CA01B9010E94CE339B0188
:10510000AC01C701B6010E944C326B017C01A501C4
:105110009401C501B4010E94CE339B01AC01C701CB
:10512000B6010E944C320E943F1F6B017C014090EF
:1051300030015090310160903201709033019B0139
:10514000AC016DA97EA98FA998AD0E94CE339B01B9
:10515000AC01C301B2010E94CE339B01AC016D963C
:105160006CAD7DAD8EAD9FAD6D970E944B326D964F
:105170006CAF7DAF8EAF9FAF6D9740903001509078
:1051800031016090320170903301A70196016D8D5D
:105190007E8D8F8D98A10E94CE339B01AC01C301FF
:1051A000B2010E94CE339B01AC01A1966CAD7DADE6
:1051B0008EAD9FADA1970E944B32A1966CAF7DAF93
:1051C0008EAF9FAFA1974090300150903101609019
:1051D000320170903301A701960169817A818B8138
:1051E0009C810E94CE339B01AC01C301B2010E949D
:1051F000CE339B01AC01A5966CAD7DAD8EAD9FAD60
:10520000A5970E944B32A5966CAF7DAF8EAF9FAF36
:10521000A59740903001509031016090320170901C
:105220003301A7019601C501B4010E94CE339B0151
:10523000AC01C301B2010E94CE339B01AC01A9961F
:105240006CAD7DAD8EAD9FADA9970E944B32A996F6
:105250006CAF7DAF8EAF9FAFA997C956DF4F288146
:1052600039814A815B81C759D0406D966CAD7DAD67
:105270008EAD9FAD6D970E94CE339B01AC016985C9
:105280007A858B859C850E944C3269877A878B87CB
:105290009C87C956DF4F288139814A815B81C75974
:1052A000D040A1966CAD7DAD8EAD9FADA1970E9413
:1052B000CE339B01AC0169897A898B899C890E94D4
:1052C0004C32698B7A8B8B8B9C8BC956DF4F288134
:1052D00039814A815B81C759D040A5966CAD7DADBF
:1052E0008EAD9FADA5970E94CE339B01AC016D851D
:1052F0007E858F8598890E944C322B013C01C956CE
:10530000DF4F288139814A815B81C759D040A996F6
:105310006CAD7DAD8EAD9FADA9970E94CE339B0144
:10532000AC016D817E818F8198850E944C324B014A
:105330005C0129853A854B855C85CA01B9010E94CB
:10534000CE336B017C0129893A894B895C89CA017A
:10535000B9010E94CE339B01AC01C701B6010E9486
:105360004C326B017C01A3019201C301B2010E9486
:10537000CE339B01AC01C701B6010E944C326B01D8
:105380007C01A5019401C501B4010E94CE339B01AB
:10539000AC01C701B6010E944C320E943F1F6B0155
:1053A0007C019B01AC0169857A858B859C850E9477
:1053B000CE3360931401709315018093160190937E
:1053C0001701A701960169897A898B899C890E94B6
:1053D000CE33609318017093190180931A01909352
:1053E0001B01A7019601C301B2010E94CE33609355
:1053F0001C0170931D0180931E0190931F01A70152
:105400009601C501B4010E94CE33609320017093D0
:105410002101809322019093230180E191E0C05902
:10542000DF4F0FB6F894DEBF0FBECDBFDF91CF9137
:105430001F910F91FF90EF90DF90CF90BF90AF90B2
:105440009F908F907F906F905F904F9008951F92E4
:105450000F920FB60F9211242F933F938F939F9328
:10546000AF93BF938091A2039091A303A091A40353
:10547000B091A5033091A10323E0230F2D3720F431
:105480000196A11DB11D05C026E8230F0296A11D9E
:10549000B11D2093A1038093A2039093A303A09333
:1054A000A403B093A5038091A6039091A703A091B4
:1054B000A803B091A9030196A11DB11D8093A60375
:1054C0009093A703A093A803B093A903BF91AF91B2
:1054D0009F918F913F912F910F900FBE0F901F9032
:1054E00018952FB7F8946091A2037091A30380914F
:1054F000A4039091A5032FBF08953FB7F89480911E
:10550000A6039091A703A091A803B091A90326B583
:10551000A89B05C02F3F19F00196A11DB11D3FBFEB
:10552000BA2FA92F982F8827820F911DA11DB11D79
:10553000BC01CD0142E0660F771F881F991F4A9575
:10554000D1F70895CF92DF92EF92FF92CF93DF933E
:105550006B017C010E947D2AEB01C114D104E1049E
:10556000F10489F00E942D2B0E947D2A6C1B7D0B7B
:10557000683E734090F381E0C81AD108E108F10851
:10558000C851DC4FEACFDF91CF91FF90EF90DF90D1
:10559000CF900895789484B5826084BD84B581608D
:1055A00084BD85B5826085BD85B5816085BDEEE62B
:1055B000F0E0808181608083E1E8F0E0108280810A
:1055C00082608083808181608083E0E8F0E0808178
:1055D00081608083E1E9F0E0808182608083808166
:1055E00081608083E0E9F0E0808181608083E1EC8C
:1055F000F0E080818460808380818260808380810C
:1056000081608083E3ECF0E0808181608083E0EC66
:10561000F0E0808182608083E2ECF0E08081816054
:105620008083EAE7F0E0808184608083808182600B
:1056300080838081816080838081806880830895F9
:1056400080E820E030E00FB6F8948093610020936A
:1056500061000FBE85BF85BF0895089590E0FC01ED
:105660003197EF30F105B0F5EA5AFF4F0C94E13471
:10567000809180008F7703C0809180008F7D809320
:105680008000089580918000877FF9CF84B58F775F
:1056900002C084B58F7D84BD0895809190008F777E
:1056A00007C0809190008F7D03C080919000877F1C
:1056B0008093900008958091C0008F7703C08091FF
:1056C000C0008F7D8093C00008958091C200877FC5
:1056D0008093C2000895CF93DF9390E0FC01E454DF
:1056E000FE4F2491FC01E652FE4F8491882361F124
:1056F00090E0880F991FFC01EC5EFD4FC591D4919D
:10570000FC01EA5FFD4FA591B491611109C09FB7FB
:10571000F8948881209582238883EC912E230BC0F6
:10572000623061F49FB7F8943881822F809583238B
:105730008883EC912E2B2C939FBF06C08FB7F894D3
:10574000E8812E2B28838FBFDF91CF9108951F937F
:10575000CF93DF93282F30E0F901E455FE4F849179
:10576000F901E454FE4FD491F901E652FE4FC49181
:10577000CC23C9F0162F81110E942E2BEC2FF0E0C4
:10578000EE0FFF1FEA5FFD4FA591B4918FB7F8941C
:10579000111105C09C91ED2FE095E92302C0EC9119
:1057A000ED2BEC938FBFDF91CF911F910895CF9395
:1057B000DF93282F30E0F901E455FE4F8491F90181
:1057C000E454FE4FD491F901E652FE4FC491CC232C
:1057D00091F081110E942E2BEC2FF0E0EE0FFF1FB5
:1057E000E850FE4FA591B491EC91ED2381E090E05B
:1057F00021F480E002C080E090E0DF91CF91089535
:105800000C94E734CF92DF92EF92FF920F931F93A5
:10581000CF93DF936C017A01EB01E60EF71E00E0F7
:1058200010E0CE15DF0561F06991D601ED91FC9194
:105830000190F081E02DC6010995080F191FF1CFE5
:10584000C801DF91CF911F910F91FF90EF90DF90F2
:10585000CF900895EF92FF920F931F93CF93DF9312
:105860008C01FB01C0E0D0E064917F018FEFE81A6A
:10587000F80A662361F0D801ED91FC910190F08166
:10588000E02DC8010995C80FD91FF701EDCFCE0152
:10589000DF91CF911F910F91FF90EF900895DC0160
:1058A000ED91FC910190F081E02D09940F931F93ED
:1058B000CF93DF93EC016DE00E944F2C8C016AE0E6
:1058C000CE010E944F2C800F911FDF91CF911F912D
:1058D0000F9108950F931F93CF93DF93EC010E94D4
:1058E0002A2C8C01CE010E94562C800F911FDF9133
:1058F000CF911F910F910895CF93DF931F92CDB752
:10590000DEB76983DC01ED91FC910280F381E02D2B
:1059100041E050E0BE016F5F7F4F09950F90DF912E
:10592000CF910895CF93DF93EC018C859D8597FFF0
:1059300005C082E00E94402E9D878C878C859D85C6
:10594000DF91CF91089583E00C949430FC0184851D
:10595000958597FD06C082E00E94E92D90E00196B2
:10596000089582E00E94E92D90E00895FC0184856D
:10597000958597FD05C02FEF3FEF35872487089564
:1059800082E00C94402ECF93DF93EC0180913B0199
:10599000882331F083E00E94712E1816190634F026
:1059A00081E090E09B838A8380E090E0DF91CF915B
:1059B0000895FC0120812E5F208342E450E062E2E2
:1059C00072E080E80C940B2FFC0181819081913A68
:1059D00059F4813209F04BC047E050E064E371E0D4
:1059E00080E00E940B2F45C0913209F040C0803208
:1059F00039F467E070E084E391E00E943C2F39C005
:105A0000823209F034C0828180933B01809134015D
:105A100090913501A0913601B0913701803B9440BF
:105A2000A105B10531F580913B0180FD12C087E7EA
:105A300097E790930108809300082BE088E190E0BD
:105A40000FB6F894A895809360000FBE2093600075
:105A500010C088E10FB6F894809360001092600047
:105A60000FBEA895109201081092000802C080E0B5
:105A7000089581E008952FEF3FEFFC0135872487DB
:105A800008951092AD031092AC0388EE93E0A0E06D
:105A9000B0E08093AE039093AF03A093B003B093B4
:105AA000B10380E991E09093AB038093AA038FEF59
:105AB0009FEF9093B7038093B60308950E94CA2A7C
:105AC0000E94202B8AEF93E00E94EC300E94FF019D
:105AD000C0E0D0E00E9429032097E1F30E9400007B
