:100000000C94FC010C9424020C9424020C94240201
:100010000C9424020C9424020C9424020C942402C8
:100020000C9424020C94650A0C94F7300C947831EB
:100030000C9424020C9424020C9424020C942402A8
:100040000C9424020C9424020C9424020C94240298
:100050000C9424020C9424020C9424020C94272A5D
:100060000C9424020C9424020C9424020C94240278
:100070000C9424020C9424020C9424020C94240268
:100080000C9424020C9424020C9424020C94240258
:100090000C9424020C9424020C9424020C94240248
:1000A0000C9424020C9424020C9424027374617244
:1000B00074696E6720746F2062726F61646361732C
:1000C00074206F6E2055445020706F72742035304C
:1000D00035302E2E2E000A444E53736572763A2028
:1000E000000A444843507372763A20000A4761740C
:1000F000657761793A20000A4E65746D61736B3AD9
:1001000020000A495020416464723A2000556E6113
:10011000626C6520746F2072657472696576652003
:100120007468652049502041646472657373210DC1
:100130000A004F4B004641494C0A00092E2E2E0062
:1001400072657175657374696E6720444843500029
:100150004F4B004641494C0A00636F6E6E656374F5
:10016000696E6720746F206D6F636170092E2E2E8B
:10017000004F4B004641494C0A00696E69742043A8
:100180004333303030092E2E2E004F4B004641496C
:100190004C0A00696E6974204C534D394453300940
:1001A0002E2E2E00626F6F74696E672055445020AA
:1001B0006D6F74696F6E20636170747572652076FF
:1001C000312E310A0000000000240027002A002DF3
:1001D00000300000000000250028002B002E003118
:1001E00000000000002300260029002C002F00043E
:1001F00004040404030405020202020403020202CE
:1002000002060606060606040402020204040802A8
:10021000011040804010204080408008020401808E
:100220004020100201108010204040000000020019
:10023000080E0000030401000B000007060504017E
:1002400000080A0B0C0D09080B000202020100094C
:100250000400000102020000052400100105240131
:10026000010104240206052406000107058103108C
:10027000004009040100020A0000000705020240D4
:100280000000070583024000000403090422034123
:100290000072006400750069006E006F0020004C61
:1002A0000065006F006E006100720064006F00184E
:1002B00003410072006400750069006E006F002049
:1002C000004C004C004300120100020000004041BD
:1002D0002336800001010200011201000202000029
:1002E000404123368000010102000100C18081C12C
:1002F00005010902A1010901A100850105091901F2
:1003000029031500250195037501810295017505E5
:10031000810305010930093109381581257F7508E8
:1003200095038106C0C005010906A10185020507E4
:1003300019E029E71500250175019508810295014D
:1003400075088103950675081500256505071900D0
:1003500029658100C0090402000103000000092191
:10036000010100012265000705840340000100002F
:100370000000000000002A2B280000000000000000
:1003800000000000000000000000000000002C9EA3
:10039000B4A0A1A2A434A6A7A5AE362D3738271E37
:1003A0001F20212223242526B333B62EB7B89F84DD
:1003B00085868788898A8B8C8D8E8F909192939475
:1003C00095969798999A9B9C9D2F3130A3AD3504B3
:1003D00005060708090A0B0C0D0E0F101112131455
:1003E00015161718191A1B1C1DAFB1B0B5002F0236
:1003F000340B732E3630FA3211241FBECFEFDAE001
:10040000DEBFCDBF11E0A0E0B1E0ECE3FDE602C04D
:1004100005900D92A43AB107D9F714E0A4EAB1E02F
:1004200001C01D92A631B107E1F713E0C8EFD3E098
:1004300004C02297FE010E949836CE3ED107C9F72C
:100440000E94722F0C949C360C940000FB01DC017E
:1004500002C001900D9241505040D8F708950F937B
:1004600084EA91E06AE04BE02DE004E00E94DC04C5
:1004700085EA91E00E94FD048EEE91E00E94DA1F71
:100480000F910895EF92FF920F931F93DF93CF93F5
:10049000CDB7DEB7CD55D0400FB6F894DEBF0FBE56
:1004A000CDBF84EE93E060E072EC0E94282E84EED3
:1004B00093E064EA71E00E94732D80E991E061E0CD
:1004C0000E94261D8EEE91E00E94682284EE93E049
:1004D00063E971E00E94282D8EEE91E00E94542283
:1004E000882329F484EE93E06DE871E05EC084EE29
:1004F00093E06AE871E00E94732D84EE93E06AE76E
:1005000071E00E94282D84EA91E060E040E020E064
:1005100030E00E946508882329F484EE93E064E7C4
:1005200071E043C084EE93E061E771E00E94732DB7
:1005300084EE93E069E571E00E94282D84EA91E061
:1005400060E071E046E051E020E00E947A098823F3
:1005500029F484EE93E063E571E027C084EE93E034
:1005600060E571E00E94732D84EE93E060E471E039
:100570000E94282D00E010E084EA91E00E94F4043B
:10058000882309F0EDC064E670E080E090E00E940E
:10059000A32A0F5F1F4F81E00C32180709F4E0C057
:1005A000EBCF84EE93E065E371E00E94732D79CF89
:1005B00084EE93E062E371E00E94732D84EA91E09F
:1005C000BE016F5F7F4FAE014B5F5F4F9E01275FA4
:1005D0003F4F8E01035F1F4FE1E1EE2EF12CEC0E39
:1005E000FD1E0E94BB06882339F484EE93E06DE083
:1005F00071E00E94732DFFCF84EE93E062E071E022
:100600000E94282D49815A816B817C8184EA91E086
:100610000E94130884EE93E067EF70E00E94282D9B
:100620004D815E816F81788584EA91E00E94130894
:1006300084EE93E06CEE70E00E94282D49855A8587
:100640006B857C8584EA91E00E94130884EE93E038
:1006500061EE70E00E94282D4D855E856F8578895A
:1006600084EA91E00E94130884EE93E066ED70E066
:100670000E94282D49895A896B897C8984EA91E0F6
:100680000E94130884EE93E00E94532D85E1E82E2A
:10069000F12CEC0EFD1E2D813E814F815885209559
:1006A00030954095509589819A81AB81BC81282BEA
:1006B000392B4A2B5B2BC70164EA71E00AEB13E18B
:1006C0000E94100685EA91E0B7010E947A0584EE47
:1006D00093E06CEA70E00E94732D8EEE91E060ED85
:1006E00077E00E94E9218EEE91E061E070E00E94E7
:1006F00021228EEE91E063E070E00E9416228EEEE1
:1007000091E062E00E94C7218EEE91E067E070E028
:100710000E94BC218EEE91E063E070E00E947121A6
:100720008EEE91E063E070E00E94B1218EEE91E0E8
:1007300061E070E00E942E218EEE91E065E070E0B5
:100740000E946621C35ADF4F0FB6F894DEBF0FBE7A
:10075000CDBFCF91DF911F910F91FF90EF90089542
:1007600084EE93E06BE371E00E94282D84EA91E02F
:100770000E94F404882309F414CF1ACF4F925F9299
:100780006F927F928F929F92AF92BF92CF92DF92A1
:10079000EF92FF920F931F93DF93CF93CDB7DEB706
:1007A000C454D0400FB6F894DEBF0FBECDBF0E9438
:1007B0007D2A20910202309103024091040250915F
:1007C0000502621B730B840B950B695873418040C3
:1007D000904008F4D9C00E947D2A60930202709371
:1007E00003028093040290930502CE0101966EEEFF
:1007F00071E00E94E01F8D819E81AF81B8852596B2
:100800008CAF9DAFAEAFBFAF259729853A854B859D
:100810005C8521962CAF3DAF4EAF5FAF2197ED8445
:10082000FE840F851889AD8CBE8CCF8CD8A049A0D2
:100830005AA06BA07CA08DA19EA1AFA1B8A589AF45
:100840009AAFABAFBCAF29893A894B895C892DAB94
:100850003EAB4FAB58AF8D899E89AF89B88D89ABC0
:100860009AABABABBCAB298D3A8D4B8D5C8D2DA774
:100870003EA74FA758AB0E947D2A4DB75EB748519F
:1008800050400FB6F8945EBF0FBE4DBF8DB69EB6FA
:100890000894811C911CADB7BEB711964D925D9224
:1008A0006D927C92149729AD3AAD4BAD5CADD401FD
:1008B00014962D933D934D935C9317972DA93EA9C4
:1008C0004FA958AD18962D933D934D935C931B976C
:1008D00029A93AA94BA95CA91C962D933D934D9348
:1008E0005C931F972DA53EA54FA558A950962D9313
:1008F0003D934D935C9353972091020230910302F4
:100900004091040250910502621B730B840B950BFE
:100910000E94D03420E034E244E759E40E94683475
:10092000F401648B758B868B978B25966CAD7DADB2
:100930008EAD9FAD259721962CAD3DAD4EAD5FADF3
:1009400021970E94D5228C012DB73EB7285E3F4FDC
:100950000FB6F8943EBF0FBE2DBF0E947D2AD8016E
:100960006D937D938D939C93139785EA91E0B801E5
:1009700040E250E000E010E020E030E00E9440055E
:1009800097FF02C00E944202CC5BDF4F0FB6F89483
:10099000DEBF0FBECDBFCF91DF911F910F91FF90B2
:1009A000EF90DF90CF90BF90AF909F908F907F900F
:1009B0006F905F904F9008950F93FC0110826093A9
:1009C000060240930702209308028FEF80930902EA
:1009D00000930A021092400284EE93E09093420248
:1009E000809341020F9108958091400290E0969586
:1009F00087959695879581700895FC0113821282E0
:100A00008FE391E091838083E95BFF4F8FEF9FEF4E
:100A1000918380830895CF92DF92EF92FF920F939C
:100A20001F93DF93CF930F92CDB7DEB76983FC019D
:100A3000E95BFF4F60817181882777FD8095982F52
:100A4000AE014F5F5F4F01E010E020E030E0CC24CA
:100A5000DD2476010E94A1119C01442737FD4095B9
:100A6000542F57FF02C020E030E0C9010F90CF9112
:100A7000DF911F910F91FF90EF90DF90CF9008953D
:100A80008F929F92AF92BF92CF92DF92EF92FF929E
:100A90000F931F93DB0168017901FC01E95BFF4FB4
:100AA00060817181882777FD8095982F4A01AA245B
:100AB000BB24AD01950184010E94A111182F092FBB
:100AC00006C061E070E080E090E00E94A32A80917F
:100AD0008603909187030597A0F3812F902F1F9194
:100AE0000F91FF90EF90DF90CF90BF90AF909F90CD
:100AF0008F900895FC01DB01E95BFF4FA95BBF4FBD
:100B00008D919C911197918380839E918E91929368
:100B100082938E918293E054F040A054B04080E4E0
:100B20000D9001928150E1F70895EF92FF920F939B
:100B30001F937B018C01FA01422F80E8E81680E8C0
:100B4000F80680E0080780E0180731F48091400241
:100B50008160809340022BC081E0E81680E8F806AF
:100B600080E0080780E0180731F48091400282603D
:100B70008093400228C082E0E81680E8F80680E012
:100B8000080780E0180731F480914002897F809344
:100B900040022FC080E1E81680E8F80680E00807F0
:100BA00080E0180721F480914002846009C089E93F
:100BB000E816F1040105110531F4809140028860C6
:100BC0008093400228C080E4E81680E8F80680E0C0
:100BD000080780E0180769F480910B028F5F80930B
:100BE0000B022CE032E0C901BF0150E00E94260256
:100BF00012C080E0E81688E8F80680E0080780E088
:100C0000180749F44081403230F4E42FF0E0E05E10
:100C1000FD4F81E080831F910F91FF90EF90089529
:100C20002F923F924F925F926F927F928F929F92FC
:100C3000AF92BF92CF92DF92EF92FF920F931F93EA
:100C4000DF93CF93CDB7DEB760970FB6F894DEBFD2
:100C50000FBECDBF582E492E59016A01180162E01E
:100C600070E080E090E022E030E040E050E0E1E140
:100C7000EE2EF12C012D112D0E94DF0F7C013C0185
:100C8000882477FC8094982C2FEF62162FEF720641
:100C90002FEF82062FEF920649F4E52DF42D1382F3
:100CA00012828FE391E09183808336C0FE013196FA
:100CB00080E1DF011D928A95E9F782E090E09A8356
:100CC00089833B822C828D2D9927AA27BB278D8370
:100CD000C601AA27BB278E83BB27AD2D9C2D8B2D4C
:100CE0008F83A886C401B301AF0100E110E020E0CA
:100CF00030E00E94360F0FE311E06F5F7F4F8F4FA0
:100D00009F4F89F4C401B3010E94930FE52DF42D88
:100D10001382128211830083E95BFF4F8FEF9FEFF5
:100D2000918380830DC0E52DF42D138212821183EF
:100D30000083E95BFF4FF182E082129212921292DD
:100D4000852D942D60960FB6F894DEBF0FBECDBFF3
:100D5000CF91DF911F910F91FF90EF90DF90CF9097
:100D6000BF90AF909F908F907F906F905F904F90CB
:100D70003F902F9008958F929F92AF92BF92CF9203
:100D8000DF92EF92FF920F931F93DF93CF93CDB734
:100D9000DEB7EA970FB6F894DEBF0FBECDBFFC01F9
:100DA0006B015A01490180818823F1F18091400251
:100DB00081FF3AC08091400282FF36C0CE01019689
:100DC0000E94D8118C81882379F189819A81AB8125
:100DD000BC81F60180839183A283B3838D819E8140
:100DE000AF81B885F50180839183A283B383898520
:100DF0009A85AB85BC85F40180839183A283B383FC
:100E00008D859E85AF85B889F80180839183A28303
:100E1000B38389899A89AB89BC89F70180839183DF
:100E2000A283B38381E001C080E0EA960FB6F89414
:100E3000DEBF0FBECDBFCF91DF911F910F91FF900D
:100E4000EF90DF90CF90BF90AF909F908F900895DC
:100E50002F923F924F925F926F927F928F929F92CA
:100E6000AF92BF92CF92DF92EF92FF920F931F93B8
:100E7000FC01D62EC72E342E252E8081882309F41E
:100E800066C02801390184E04816510461047104E8
:100E900008F05DC0A62FB72FFD0101900020E9F7F3
:100EA0003197EA1BFB0BB19708F051C0A42FB52F67
:100EB000FD0101900020E9F73197EA1BFB0BB19788
:100EC00008F045C060E070E080E090E020E030E0B5
:100ED00040E050E0EE24FF2487010E94FC1A6115D7
:100EE00071058105910599F564EF71E080E090E06E
:100EF0000E94A32AED2DFC2DDF010D900020E9F7C3
:100F00008D01015010400E1B1F0BE32DF22DDF0150
:100F10000D900020E9F74D010894810891088E1A80
:100F20009F0A20E030E0AA24BB24C301B2014D2D6A
:100F30005C2DEE24FF24C32CD22C0E94541B20E0F5
:100F4000611571058105910519F421E001C020E0CA
:100F5000822F1F910F91FF90EF90DF90CF90BF9065
:100F6000AF909F908F907F906F905F904F903F9049
:100F70002F9008958F929F92AF92BF92CF92DF925F
:100F8000EF92FF920F931F93FC01D62EC72E808104
:100F90008823E1F160E070E080E090E020E030E064
:100FA00040E050E0EE24FF2487010E94FC1A611506
:100FB00071058105910551F564EF71E080E090E0E5
:100FC0000E94A32AED2DFC2DDF010D900020E9F7F2
:100FD0008D01015010400E1B1F0B20E030E060E03F
:100FE00070E080E090E04D2D5C2DEE24FF24CC24B9
:100FF000DD248824992454010E94541B20E06115AB
:1010000071058105910519F421E001C020E0822FCE
:101010001F910F91FF90EF90DF90CF90BF90AF9016
:101020009F908F900895EF92FF920F931F937A01F4
:101030008B018091410290914202009709F440C0D7
:10104000272F332744275527622F4AE050E00E947C
:10105000162E80914102909142026EE20E944B2D29
:101060009801442755278091410290914202622FB6
:101070004AE050E00E94162E809141029091420277
:101080006EE20E944B2D5527412F302F2F2D80913E
:10109000410290914202622F4AE050E00E94162ED7
:1010A00080914102909142026EE20E944B2D80910C
:1010B0004102909142026E2D4AE050E00E94162EAD
:1010C0001F910F91FF90EF9008956F927F928F92F2
:1010D0009F92AF92BF92CF92DF92EF92FF920F93C7
:1010E0001F93CF93DF93EC01962E842E722E632EE6
:1010F0008881882309F081C00E94CA0D85E995E0A6
:101100006CE27BE04CE15BE024E23BE00EE41BE0C0
:10111000B9ECEB2EBEE0FB2EA5E1CA2EABE0DA2E39
:10112000FAE5AF2EFBE0BF2E0E94AC19892D90E0AE
:101130000E943D1C8820A1F460E070E080E090E017
:1011400020E030E040E050E0EE24FF2487010E94E0
:10115000FC1A6FEF70E080E090E00E94C81A0FC0A8
:1011600060E070E080E090E020E030E040E050E0BF
:10117000E1E0EE2EF12C012D112D0E94FC1A64E00D
:1011800072E880E090E00E94E01961157105810528
:101190009105A9F581E08883882079F100E010E0CD
:1011A0000EC00E94880C0F5F1F4F83E00A3E180795
:1011B00031F16AE070E080E090E00E94A32A809123
:1011C000400281FFEECF68EE73E080E090E00E9485
:1011D000A32A8091400282FF10C0E72DF62DDF0187
:1011E0000D900020E9F71197AE1BBF0B81E090E056
:1011F000672D762DAD010E94E10E81E001C080E0F7
:10120000DF91CF911F910F91FF90EF90DF90CF90E2
:10121000BF90AF909F908F907F906F900895AF9206
:10122000BF92CF92DF92EF92FF920F931F93CF93D3
:10123000DF93FC018081882311F420E04FC08DB73B
:101240009EB742970FB6F8949EBF0FBE8DBFEDB705
:10125000FEB731968FEF9FE1A0E0B0E0CDB7DEB7EB
:1012600089839A83AB83BC8388E89FEFAFEFBFEF9E
:1012700084839583A683B78310861186128613868E
:101280008CE291E0A0E0B0E084879587A687B787DD
:1012900083E491E0918B808BCB01BA0124E130E0B3
:1012A00040E050E0F4E6EF2EF12C012D112DE5E0A9
:1012B000AE2EB12CC12CD12C0E94391A20E04DB792
:1012C0005EB74E5E5F4F0FB6F8945EBF0FBE4DBF68
:1012D000611571058105910509F421E0822FDF91E7
:1012E000CF911F910F91FF90EF90DF90CF90BF9023
:1012F000AF9008957F928F929F92AF92BF92CF92BC
:10130000DF92EF92FF920F931F93CF93DF93EC0145
:101310004B015A01722E8881882309F445C0C22EE0
:10132000DD24EE24FF240E94880CCE0140EA5FE019
:1013300060E070E00E940F0964E971E180E090E0F4
:101340000E94A32ACE0140E050E060E070E00E94DD
:101350000F09772021F0F5018081882349F4CE011F
:10136000B4010E94BA078823D1F000E117E208C057
:10137000CE01B401A501970186010E942807F3CF91
:101380008091400281FD0BC00E94880C6AE070E0F1
:1013900080E090E00E94A32A0A50104089F78091D3
:1013A000400281FFC0CF81E0DF91CF911F910F916B
:1013B000FF90EF90DF90CF90BF90AF909F908F9075
:1013C0007F900895CF93DF93EC01DB0112962C936D
:1013D000129711965C934E93EA81FB81808113965C
:1013E0009C911397892B808312968C91129783304E
:1013F00011F0813031F48D8113969C911397892BD4
:101400008D8312968C9112978150823028F48E81B0
:1014100013969C91892B8E83809168009C81892BE7
:1014200080936800DF91CF910895CF93DF9390E090
:10143000FC01E151FE4F2491222309F443C02230E4
:1014400019F4A6E4B2E002C0A0E0B0E0835F9D4FD3
:10145000FC0194911896CD91DC91199731C08B8144
:10146000891759F52FB7F8941296ED91FC911397BF
:1014700080819095982390831296ED91FC9113971B
:101480008081882349F49091680014968C91149778
:10149000809589238093680015968C9115979B8180
:1014A0009095892315968C93159716968C9116977F
:1014B000982316969C932FBF05C00D80DE81C02D0A
:1014C000209769F6DF91CF9108951F920F920FB682
:1014D0000F9211240F931F932F933F934F935F937A
:1014E0006F937F938F939F93AF93BF93CF93DF932C
:1014F000EF93FF93E0914602F09147028081809341
:1015000043025091430220914D0240914B02909131
:10151000430230914C0280914302809583239423AF
:10152000892B252782239091430290934D02C091ED
:101530004E02D0914F02082F10E01CC08B81282F43
:1015400030E0C80182239323892B89F080914302E4
:1015500040E090E082239323892B09F041E04093FF
:1015600045028C8180934402E881F98109950D80C0
:10157000DE81C02D209711F78BB390914A02892309
:1015800021F08BB3892B8BBBB5CFFF91EF91DF910E
:10159000CF91BF91AF919F918F917F916F915F910B
:1015A0004F913F912F911F910F910F900FBE0F9070
:1015B0001F90189510926903809107020E94150AE6
:1015C0000895CF93DF930E94DA0A5D9A80915302C7
:1015D0008CBD80915202882319F08DB5816002C0C4
:1015E0008DB58E7F8DBDC0916002D0916102CE57C6
:1015F000DF4F8881C258D0408E3D09F0FFCF82E096
:1016000090E0A0E0B0E080935A0290935B02A09338
:101610005C02B0935D02E0915402F0915502CE015C
:1016200005960995DF91CF910895109269038091F5
:1016300007020E94150A0895FC011082118212828D
:10164000138280E090E00895FC01108211821282E2
:10165000138280E090E00895FC01108211821282D2
:10166000138280E090E00895E5EEF1E08591949199
:1016700090934702809346028BE690E09093490254
:101680008093480281E080934A0210924B021092AC
:101690004C0210924F0210924E0208958091070260
:1016A0000E94BD2C9C01442737FD4095542FB90161
:1016B000CA010895882321F08091080261E003C0E7
:1016C0008091080260E00E948A2C08950F931F9376
:1016D000CF93DF938C01EB0184E00E94F91C20E0A2
:1016E00030E093E00BC09EBD0DB407FEFDCF8EB57C
:1016F000F801E20FF31F80832F5F3F4F2C173D0748
:1017000090F3DF91CF911F910F910895EF92FF9287
:101710000F931F93CF93DF93C0916002D09161022A
:101720008D81823021F0843009F047C01BC0CE018A
:10173000059663E070E00E9478199C0140E050E05B
:1017400080FD05C02F5F3F4F4F4F5F4F05C02115F4
:1017500031054105510589F1CE010A96B9010E9472
:10176000660B2BC08885282F30E040E050E07901DF
:101770008A010894E108F10801091109DA01C90197
:101780000996A11DB11D80FF02C079018A01E114F3
:10179000F1040105110529F0CE010A96B7010E9456
:1017A000660B88E090E0A0E0B0E080935A0290934E
:1017B0005B02A0935C02B0935D0260E070E080E0A9
:1017C00090E0DF91CF911F910F91FF90EF900895DE
:1017D0000E94860B611571058105910511F40E9427
:1017E000E10A089580916002909161026AE070E0E0
:1017F0000E94660B089581E08093680380915A02ED
:1018000090915B02A0915C02B0915D020097A105EE
:10181000B10569F481E090E0A0E0B0E080935A0265
:1018200090935B02A0935C02B0935D026EC0823025
:101830009105A105B10591F586E090E0A0E0B0E04A
:1018400080935A0290935B02A0935C02B0935D0276
:101850005D988CB5809353028DB581708093520250
:10186000809150028CBD80915102882319F08DB572
:10187000816002C08DB58E7F8DBD0E94F20B88E025
:1018800090E0A0E0B0E080935A0290935B02A093B6
:101890005C02B0935D020E94E80B37C00397A1057C
:1018A000B10599F560915E0270915F024091560218
:1018B0005091570220E030E00BC0FB01E20FF31F14
:1018C00080818EBD0DB407FEFDCF8EB52F5F3F4FDB
:1018D0002417350790F382E090E0A0E0B0E0809319
:1018E0005A0290935B02A0935C02B0935D025D9AF2
:1018F000809153028CBD80915202882319F08DB5DE
:10190000816002C08DB58E7F8DBD109268030895F1
:10191000809107020E94BD2C892B51F480916803AD
:10192000882331F480916903882311F00E94FB0B16
:1019300008950F931F93CF93DF93EC018B015D9874
:101940008CB5809353028DB5817080935202809143
:1019500050028CBD80915102882319F08DB58160B1
:1019600002C08DB58E7F8DBD61E070E080E090E0BB
:101970000E94A32A20E030E0FE01E20FF31F8081E5
:101980008EBD0DB407FEFDCF8EB52F5F3F4F2430C7
:10199000310591F761E070E080E090E00E94A32AB9
:1019A000B80164507040FE0120E030E009C084813D
:1019B0008EBD0DB407FEFDCF8EB52F5F3F4F319624
:1019C00026173707A0F382E090E0A0E0B0E0809314
:1019D0005A0290935B02A0935C02B0935D025D9A01
:1019E000809153028CBD80915202882319F08DB5ED
:1019F000816002C08DB58E7F8DBD60E070E080E0BB
:101A000090E0DF91CF911F910F9108950F931F9355
:101A1000CF93DF93EC0190E060FF91E081E0888359
:101A20009B01290F311D3983960F9A831B821C82DB
:101A3000809167038E3D09F0FFCF80915A0290910B
:101A40005B02A0915C02B0915D020097A105B10517
:101A500009F4FFCF89010B5F1F4F0197A105B10565
:101A600029F4CE01B8010E94990C7DC0E0917E035B
:101A7000F0917F03099580915A0290915B02A091A9
:101A80005C02B0915D020297A105B10509F081C029
:101A900083E090E0A0E0B0E080935A0290935B0274
:101AA000A0935C02B0935D02D0935F02C0935E028C
:101AB00010935702009356025D988CB580935302A1
:101AC0008DB5817080935202809150028CBD8091BF
:101AD0005102882319F08DB5816002C08DB58E7FCB
:101AE0008DBDE0917C03F0917D030995E0917A032F
:101AF000F0917B030995611571058105910599F5B3
:101B000060915E0270915F024091560250915702BF
:101B100020E030E00BC0FB01E20FF31F80818EBD9F
:101B20000DB407FEFDCF8EB52F5F3F4F241735074D
:101B300090F382E090E0A0E0B0E080935A029093AE
:101B40005B02A0935C02B0935D025D9A80915302A8
:101B50008CBD80915202882319F08DB5816002C03E
:101B60008DB58E7F8DBD80915A0290915B02A091C0
:101B70005C02B0915D020297A105B10549F460E0F5
:101B800070E080E090E0DF91CF911F910F91089578
:101B9000FFCFFFCF8091080261E00E94ED2B809182
:101BA000080260E00E948A2C64EF71E080E090E01F
:101BB0000E94A32A559A8091070262E00E94ED2BB1
:101BC0008CB5809353028DB58170809352020E9430
:101BD0000F1D84E00E94F91C81E00E94F01C80919E
:101BE0000A020E94FE1C8CB5809350028DB5817054
:101BF000809351025D9A809153028CBD8091520274
:101C0000882319F08DB5816002C08DB58E7F8DBDA2
:101C100080E090E00895CF93DF9310925A021092E3
:101C20005B0210925C0210925D02A2E6B2E023E831
:101C3000ED01E22F1992EA95E9F7E5EEF2E0EF0106
:101C400019922A95E9F790935502809354021092C5
:101C500057021092560210925F0210925E02B093E9
:101C60006102A093600210925902109258028EED08
:101C70008093E40280936703E0917C03F0917D03FD
:101C80000995DF91CF910895CF92DF92EF92FF9265
:101C90000F931F93CF93DF938C01F62E6A01E22EF0
:101CA000FC01C085D185209789F08C818F1541F486
:101CB000C801BE01A6012E2D0E94E20980E03CC0B1
:101CC0008D819E81009731F0EC01EFCF80E090E0B4
:101CD0009C01E90187E090E00E94FB2CDC01119659
:101CE0001C921E9212961C921297009711F48FEF7D
:101CF00023C01496FC9214971296EC9212971696A3
:101D00001C921E921597EF2DF0E0E35FFD4FE491DA
:101D10001396EC931397F80180859185892B19F41C
:101D2000B187A08702C0BE83AD83C801BD01A601F3
:101D30002E2D0E94E20981E0DF91CF911F910F913A
:101D4000FF90EF90DF90CF900895582F9B01742F54
:101D5000E82FF0E0E151FE4F84918823C1F0211576
:101D60003105A9F0823019F4A6E4B2E002C0A0E087
:101D7000B0E0ED91FC911197808117968C931797A5
:101D8000CD01652FA901272F0E94440E08958FEFE2
:101D9000089581E080936903809107026BEF7BE0F7
:101DA00042E050E00E94A50E089581E0809369030F
:101DB000809107026BEF7BE042E050E00E94A50EAD
:101DC0000895CF92DF92EF92FF920F931F93DF93CC
:101DD000CF930F92CDB7DEB7D62EC72E8A014132F0
:101DE000510518F02FEF3FEF36C0E0907003F090F0
:101DF0007103AC0160E070E0C70109960E945419BC
:101E000048E050E060E070E00E945419A80160E0F2
:101E100070E00E945419DC018D2D9C2DFC019F0166
:101E2000200F311F02C081918D93E217F307D9F77C
:101E3000402F445F81E190E1B7010E94991881E150
:101E400090E1BE016F5F7F4F0E9466188981282F45
:101E5000332727FD3095C9010F90CF91DF911F9156
:101E60000F91FF90EF90DF90CF900895CF92DF9287
:101E7000EF92FF920F931F93DF93CF9300D000D088
:101E8000CDB7DEB78B019C01F42EE52E8FEF9FEFCF
:101E9000AFEFBFEF89839A83AB83BC83C09070039D
:101EA000D0907103C6010996B901A8010E94541986
:101EB00048E050E060E070E00E94541948E050E0D3
:101EC00060E070E00E945419DC018F2D9E2DFC0112
:101ED0009F01285F3F4F81918D93E217F307D9F758
:101EE00087E090E1B60144E10E94991887E090E113
:101EF000BE016F5F7F4F0E94661869817A818B8176
:101F00009C819B0120931404309315040F900F9033
:101F10000F900F90CF91DF911F910F91FF90EF9055
:101F2000DF90CF900895CF92DF92EF92FF920F93C0
:101F30001F93DF93CF9300D000D0CDB7DEB76B01F6
:101F40007C018FEF9FEFAFEFBFEF89839A83AB8365
:101F5000BC830091700310917103C8010996B70109
:101F6000A6010E9454198BE090E1B80144E00E9460
:101F700099188BE090E1BE016F5F7F4F0E94661859
:101F800089819A819093150480931404C701B60146
:101F900021E030E040E050E00E94EC1169817A815C
:101FA0008B819C810F900F900F900F90CF91DF91BC
:101FB0001F910F91FF90EF90DF90CF9008954F9277
:101FC0005F926F927F928F929F92AF92BF92CF92C9
:101FD000DF92EF92FF920F931F93DF93CF9300D086
:101FE00000D0CDB7DEB75B016C0139014A018FEF3C
:101FF0009FEFAFEFBFEF89839A83AB83BC834090A1
:10200000700350907103C2010996B601A5010E94A8
:102010005419B401A3010E945419B801A7010E94E8
:10202000541981E090E1B2014CE00E94991881E0DE
:1020300090E1BE016F5F7F4F0E94661869817A81CF
:102040008B819C81709315046093140420E030E030
:1020500040E050E00E94EC1189819A810F900F902E
:102060000F900F90CF91DF911F910F91FF90EF9004
:10207000DF90CF90BF90AF909F908F907F906F90A8
:102080005F904F9008959C0180918203909183030B
:10209000A0918403B09185030097A105B105B1F02B
:1020A0008091820390918303A0918403B091850372
:1020B0009C01909315048093140410928203109253
:1020C0008303109284031092850323C0B9018827EB
:1020D00077FD8095982F0E94381261157105810552
:1020E000910519F02FEF3FEF14C080918603909176
:1020F0008703892B19F42EEF3FEF0BC080918603E5
:10210000909187030197909387038093860320E043
:1021100030E0C90108952F923F924F925F926F92E3
:102120007F928F929F92AF92BF92CF92DF92EF9267
:10213000FF920F931F93DF93CF93CDB7DEB76A97CC
:102140000FB6F894DEBF0FBECDBF1B012C015C8B18
:102150004B8B38014901CD8ADE8AEF8AF88EBA8E20
:10216000A98ECFA4D8A8E9A8FAA8CB010E94431051
:102170009C01009709F0CBC080918E0390918F0352
:10218000A0919003B09191030196A11DB11D809380
:102190008E0390938F03A0939003B09391032091AB
:1021A0007003309171033A8B298B8BA99CA9ADA93F
:1021B000BEA981389105A105B105B9F08338910513
:1021C000A105B105F1F4A4019301285F3F4F4F4FE2
:1021D0005F4F2D873E874F87588BA988BA8842E288
:1021E00050E0A40EB51E18E10CC0A988BA888AE197
:1021F00090E0A80EB91E1A8E198ECC24DD2476012B
:1022000010E189899A890A96B201A1010E945419A4
:10221000012F10E004501040A80160E070E00C5F56
:102220001F4F0E945419B401A3010E9454194D89F3
:102230005E896F89788D0E9454192BA93CA94DA9FC
:102240005EA9233831054105510561F44D855E8550
:102250006F8578890E94541948E050E060E070E092
:102260000E94541920E030E040E050E00CC0EB89BF
:10227000FC89E20FF31F8081D5018D935D012F5FF3
:102280003F4F4F4F5F4F26153705480559057CF3E3
:102290002BA93CA94DA95EA923383105410551055B
:1022A000C1F420E030E040E050E00EC0F901D5017B
:1022B000A20FB31F898D9A8DE80FF91F80818C932F
:1022C0002F5F3F4F4F4F5F4F2C153D054E055F056C
:1022D0006CF38BA969897A89A8019301098D1A8DFC
:1022E00076010E947218BE016F5F7F4F2BA93CA937
:1022F0004DA95EA9233831054105510519F48FE038
:1023000090E102C083E090E10E9466189301C90148
:102310006A960FB6F894DEBF0FBECDBFCF91DF91A6
:102320001F910F91FF90EF90DF90CF90BF90AF90F3
:102330009F908F907F906F905F904F903F902F90E5
:1023400008958F929F92AF92BF92CF92DF92EF92B9
:10235000FF920F931F93EDB7FEB738970FB6F8941F
:10236000FEBF0FBEEDBF1182128213821482B1E84C
:102370008B2E912CA12CB12C85829682A782B086BF
:10238000AA24BB240E948B102DB73EB7285F3F4F75
:102390000FB6F8943EBF0FBE2DBF1F910F91FF9057
:1023A000EF90DF90CF90BF90AF909F908F90089567
:1023B0000F931F938C01609170037091710385E0FE
:1023C00090E240E00E94991885E090E2B8010E94F6
:1023D00066181F910F910895AF92BF92CF92DF922E
:1023E000EF92FF920F931F9359016A0168307105B4
:1023F00081059105A0F522E0A216B104C104D10423
:1024000070F521E030E0062E02C0220F331F0A943F
:10241000E2F720953095442737FD4095542FE09002
:102420000701F09008010091090110910A012E2185
:102430003F2140235123062E04C0AA0CBB1CCC1CF8
:10244000DD1C0A94D2F72A293B294C295D292093C7
:102450000701309308014093090150930A011F912D
:102460000F91FF90EF90DF90CF90BF90AF900895C5
:102470009B01AC016830710581059105E8F481E0AC
:1024800090E002C0880F991F2A95E2F79C0144272B
:1024900037FD4095542F8091070190910801A0913C
:1024A0000901B0910A01282339234A235B2321150E
:1024B00031054105510521F021E030E040E050E0D8
:1024C000B901CA0108958F929F92AF92BF92CF92A5
:1024D000DF92EF92FF920F931F93DF93CF93CDB7CD
:1024E000DEB7AA970FB6F894DEBF0FBECDBF8C0142
:1024F00061E070E00E9478199C016C01EE24FF24D9
:10250000D6FE6DC081E42030380709F068C0C801EC
:1025100065E070E00E9478194C0197E0A92EB12C7B
:10252000A00EB11ECC24DD24EE24FF24870112C0AE
:10253000C50162E070E00E947819A0E0B0E0E80E0A
:10254000F91E0A1F1B1FA4E0B0E0AA0EBB1E0894D0
:10255000C11CD11CC814D90458F3809186039091F2
:1025600087038E0D9F1D9093870380938603809130
:10257000920390919303A0919403B0919503E80E78
:10258000F91E0A1F1B1FE0929203F092930300931F
:1025900094031093950320919203309193034091FB
:1025A00094035091950380918E0390918F03A09195
:1025B0009003B0919103281739074A075B0709F088
:1025C0007EC180919603882309F479C1E091780354
:1025D000F091790369E970E080E090E03FC0C601C6
:1025E00080709078892B09F4E8C0B0E820313B076F
:1025F000C9F1E0E821313E0770F4F0E821303F07EF
:1026000008F462C180E823303807D8F024503048FD
:1026100009F05AC116C0A0E820383A0791F0B0E896
:1026200021383B0728F42054304809F04DC16CC0D4
:10263000F2E820303F0729F02050384809F044C123
:10264000A7C08091780390917903892B09F437C151
:10265000E0917803F0917903C701B60140E050E0C2
:1026600020E094C0F8013596D80115968C91159705
:102670008E8B81818F8B8281888F8381898FF801F6
:10268000399619968C9119978A8F81818B8F8281C7
:102690008C8F83818D8FF8013D961D968C911D97AF
:1026A0008E8F81818F8F828188A3838189A3F80196
:1026B000719651968C9151978AA381818BA38281C7
:1026C0008CA383818DA3F801759655968C915597AF
:1026D0008EA381818FA3828188A7838189A7149685
:1026E0008C918AA78091780390917903892B09F4C2
:1026F000E6C0E0917803F0917903C701B601AE011D
:102700004A5E5F4F25E142C00B5F1F4FC80160E08A
:1027100070E00E9482196A837B838C839D83C80149
:1027200064E070E00E9482196E837F8388879987B6
:10273000C80168E070E00E9482196A877B878C87F5
:102740009D87C8016CE070E00E9482196E877F87C8
:10275000888B998BC80160E170E00E9482199B010F
:10276000AC018091780390917903892B09F4A7C07B
:10277000E0917803F09179032A8B3B8B4C8B5D8B36
:10278000C701B601AE014E5F5F4F24E1099597C0C6
:10279000F80105818091780390917903892B09F4E0
:1027A0008EC0E0917803F09179030983C701B601E7
:1027B000AE014F5F5F4F21E0E9CFF3E0CF16F0E1CC
:1027C000DF06F0E0EF06F0E0FF0699F02FE0C2161A
:1027D00020E1D20620E0E20620E0F20651F08EE091
:1027E000C81680E1D80680E0E80680E0F80609F027
:1027F0006BC085E0C82ED12CC00ED11EC60164E08E
:1028000070E00E948219675C7F4F8F4F9F4F09F0E5
:102810005BC0F801848190E0A0E0B0E08093820387
:1028200090938303A0938403B0938503C60160E073
:1028300070E00E9482197B018C01C60164E070E0A7
:102840000E948219675C7F4F8F4F9F4FC1F528E030
:10285000E216F1040105110590F581E090E00E2CDF
:1028600002C0880F991F0A94E2F780959095AA27D5
:1028700097FDA095BA2F2091070130910801409152
:10288000090150910A0182239323A423B52321E057
:1028900030E040E050E00E2C04C0220F331F441FF4
:1028A000551F0A94D2F7822B932BA42BB52B809320
:1028B000070190930801A0930901B0930A0121E058
:1028C00030E040E050E004C020E030E040E050E084
:1028D000B901CA01AA960FB6F894DEBF0FBECDBFEC
:1028E000CF91DF911F910F91FF90EF90DF90CF90EC
:1028F000BF90AF909F908F90089580916C039091BE
:102900006D03892BD1F0E0916E03F0916F0380810C
:10291000843099F4CF010E94631261307105810502
:10292000910559F410926D0310926C030E94D50E1C
:1029300021E030E040E050E004C020E030E040E042
:1029400050E0B901CA010895DF93CF9300D000D0C1
:10295000CDB7DEB719821A821B821C82FC018581E9
:10296000823021F1833009F43FC0813009F05FC02B
:102970008091740390917503892B91F0E091740319
:10298000F0917503CE0101960995AC01009741F0D5
:10299000609170037091710329813A8181E045C093
:1029A000609170037091710381E03BC0809172036C
:1029B00090917303892B91F0E0917203F09173036E
:1029C000CE0101960995AC01009741F0609170032A
:1029D0007091710329813A8182E027C06091700370
:1029E0007091710382E01DC080917603909177030E
:1029F000892B91F0E0917603F0917703CE01019657
:102A00000995AC01009741F06091700370917103DA
:102A100029813A8183E009C060917003709171034C
:102A200083E040E050E020E030E00E94B8180F90D2
:102A30000F900F900F90CF91DF9108954F925F927A
:102A40006F927F928F929F92AF92BF92CF92DF92BE
:102A5000EF92FF920F931F93CF93DF936C012B01A3
:102A60003A01AA24BB240E94880C80916C039091A7
:102A70006D03892BC1F380906E0390906F03D40196
:102A80008C91843009F0BDC2C40161E070E00E9405
:102A900078195C01C4010E946312611571058105FA
:102AA000910509F0A2C2E4012596B8E0AB16B0E1A9
:102AB000BB0608F056C0E6E0AE16E0E1BE0608F040
:102AC000C4C0F2E0AF16F2E0BF0609F4BEC003E0F6
:102AD000A01602E0B00600F51DE0A116B10480F4D6
:102AE00068E0A616B10408F0B0C081E0A816B104F1
:102AF00008F47BC297E0A916B10408F4A6C0C2C1CD
:102B0000ADE0AA16B10409F49BC0B1E0AB16B2E087
:102B1000BB0609F06AC294C0E3E0AE16E0E1BE066F
:102B200098F4F1E0AF16F0E1BF0608F08EC005E0C2
:102B3000A01602E0B00608F483C017E0A11612E068
:102B4000B10609F052C285C064E0A61660E1B6067F
:102B500009F4C9C085E0A81680E1B80608F0A0C055
:102B60002FC191E1A91690E1B90609F469C0A2E16B
:102B7000AA16A0E1BA0658F5BBE0AB16B0E1BB0659
:102B800009F463C0ECE0AE16E0E1BE0668F4F9E0DB
:102B9000AF16F0E1BF0609F458C00AE0A01600E144
:102BA000B00608F05EC127C11FE0A11610E1B10612
:102BB00009F406C160E1A61660E1B60608F05AC045
:102BC0008DE0A81680E1B80609F00FC28CC096E02F
:102BD000A91690E2B906A1F1A7E0AA16A0E2BA06EA
:102BE00060F4B1E0AB16B0E2BB0608F4FEC1E5E06C
:102BF000AE16E0E2BE0620F180C1F8E0AF16F0E2CA
:102C0000BF0608F4F2C10AE0A01600E2B006C0F068
:102C10001BE0A11610E4B10609F0E7C1D401159636
:102C20008C9190E09093870380938603CE0161E0BE
:102C300070E00E9478199093890380938803D5C12E
:102C4000F4018481D6018C93D0C1CE0160E070E0A4
:102C50001FC0D40114968C91F60181936F01CE01AF
:102C600060E070E00E948219AB01BC01C6010E94C5
:102C70005419BBC1CE0160E070E00E948219D601F8
:102C80006D937D938D939D936D01CE0164E070E013
:102C90000E948219F6016083718382839383A5C1A8
:102CA000CE0160E070E00E948219D6016D937D93A1
:102CB0008D939D938D01CE0164E070E00E94821996
:102CC000F6016483758386839783E4E0CE2ED12C4E
:102CD000C00ED11ED601FE01389680E101900D9202
:102CE0008150E1F782C1CE0160E070E00E9482195C
:102CF000D6016D937D938D939D938D01CE0164E0FC
:102D000070E00E948219F60164837583868397833D
:102D100074E0C72ED12CC00ED11ECE0168E070E049
:102D20000E9482199B01AC01D80114966D937D938A
:102D30008D939C931797F60184819581A681B78125
:102D4000875C9F4FAF4FBF4F09F04FC1283031050F
:102D50004105510508F049C1822F21E030E0082EDD
:102D600002C0220F331F0A94E2F7209530954427C2
:102D700037FD4095542FE0900701F0900801009135
:102D8000090110910A012E213F214023512361E0C6
:102D9000E62EF12C012D112D04C0EE0CFF1C001F9E
:102DA000111F8A95D2F72E293F29402B512B2093B2
:102DB0000701309308014093090150930A0115C19E
:102DC000CE0160E070E00E948219D6016D937D9380
:102DD0008D939D938D01CE0164E070E00E94821975
:102DE000F601648375838683978354E0C52ED12CC6
:102DF000C00ED11EFAC0CE0160E070E00E948219C0
:102E0000D6016D937D938D939D938D01CE0164E0EA
:102E100070E00E948219F60164837583868397832C
:102E200044E0E42EF12CE00EF11ECE0168E070E0EB
:102E30000E948219D80114966D937D938D939C9373
:102E4000179734E0C32ED12CCE0CDF1CCE016CE0E2
:102E500070E00E948219F7016483758386839783EB
:102E6000C4C0D40114968C911497F60184831596EE
:102E70008D919D910D90BC91A02D80839183A28313
:102E8000B383B3C0CE0160E070E00E948219D60126
:102E90006D937D938D939D938D01CE0164E070E0E1
:102EA0000E948219F6016483758386839783CE011D
:102EB00068E070E00E947819A0E0B0E0F801848337
:102EC0009583A683B783CE016AE070E00E947819EB
:102ED000A0E0B0E0F60182879387A487B5872CE055
:102EE000E22EF12CCE0CDF1CD601FE013C9686E2D0
:102EF00001900D928150E1F778C0D40115968C9124
:102F0000F60181938981D60111968C938A81818300
:102F10008B81828396012C5F3F4FDE0114968C815A
:102F2000F601848311968C911197858312968C916A
:102F30001297868313968C9113978783A9014C5F10
:102F40005F4FFD01349614968C91D90114968C93A1
:102F50008181D60119968C93199782811A968C9348
:102F60001A9783811B968C93DF0114968481FA0152
:102F7000848311968C911197F601858712968C9116
:102F80001297868713968C9113978787FD01349645
:102F900014968C91DA0118968C938181D9011D9633
:102FA0008C931D9782811E968C931E9783811F960A
:102FB0008C93E4019601F401D601A4014A5F5F4FAE
:102FC000818D54968C93549731961196E417F5079A
:102FD000B9F7A401405E5F4F8F8DF901828F219672
:102FE0002F5F3F4FC417D507B9F780916A039091BF
:102FF0006B03A816B906B9F510926B0310926A0319
:1030000032C0D40112960C91C40163E070E00E94BA
:103010007819EC0141145104A1F0C401059664E053
:1030200070E00E948219462FF301608371838283CE
:10303000938394012B5E3F4FC201B90150E00E947F
:103040002602202F30E0FE01E21BF30B2B5F3F4FE7
:10305000280D391DC601B901AF010E942602109248
:103060008D0310928C0310926D0310926C030E94DA
:10307000D50ED4018C91843041F4B0E0AB16B0E1B0
:10308000BB0619F4C4010E94A41480916A039091B4
:103090006B03892B09F0E7CC80918C0390918D0311
:1030A000892B09F0E0CC80E090E0DF91CF911F9177
:1030B0000F91FF90EF90DF90CF90BF90AF909F90D7
:1030C0008F907F906F905F904F90089590936B03D7
:1030D00080936A03CB0160E070E040E050E00E9422
:1030E0001E150895CF92DF92EF92FF920F931F93D8
:1030F0006B01890192E0FB01958386834783040F6E
:10310000151F0E0D1F1DCB010896B8010E947019E6
:103110000B5F1F4FC601B8010E94060D60E070E012
:1031200080E090E01F910F91FF90EF90DF90CF90A3
:103130000895EF92FF920F931F939C017B01042F40
:1031400081E0FB018583CB010696B9010E947019CD
:10315000FC01008310E00C5F1F4FC701B8010E9403
:10316000060D80E090E01F910F91FF90EF90089581
:103170004F925F926F927F928F929F92AF92BF9287
:10318000CF92DF92EF92FF920F931F93CF93DF9333
:103190006B014A01E90145E0442E512C460E571EB1
:1031A00093E0FB019583868337E0632E712C660ED6
:1031B000771E8E010E5F1F4FC301B8010E94701968
:1031C0007C012BE0A22EB12CAC0CBD1CF3E0C93E5F
:1031D000DF0790F4BE010E947019C701BE010E9472
:1031E0007019C501B401AE010E9426022696C601DF
:1031F000BE010E94060D47C0CE0168EE73E00E943A
:103200004536660F771F060F171FC701B8010E94CA
:103210007019C70168EE73E00E947019D501F401BE
:1032200088EE93E001900D920197E1F78E01085E20
:10323000134088EEE82E83E0F82EE80CF91CC60156
:103240006EEE73E01BC00E94880C83E0093E1807F5
:1032500020F4E80100E010E004C0085E1340C8EE6E
:10326000D3E0F201D183C083C301B701AE010E9454
:103270002602EC0EFD1E2296C201BE010E94060D22
:103280000115110501F7DF91CF911F910F91FF906B
:10329000EF90DF90CF90BF90AF909F908F907F90F6
:1032A0006F905F904F900895CF93DF93FC01DC0106
:1032B0004D939D01BB27A72F962F852F8183F90161
:1032C0003196CB01AA27BB27E9018983472F5527D0
:1032D0006627772741833296CF01DF91CF910895FA
:1032E000DC01FC01619311967C933196CF01089526
:1032F000FB01E80FF91F318120E08081280F311D8B
:10330000C9010895FB01E80FF91F238130E040E077
:1033100050E0522F442733272227828190E0A0E0FB
:10332000B0E0DC0199278827280F391F4A1F5B1F4F
:103330008081280F311D411D511D818190E0A0E049
:10334000B0E0BA2FA92F982F8827280F391F4A1FBE
:103350005B1FB901CA010895AF92BF92CF92DF926D
:10336000EF92FF920F931F93709373036093720316
:10337000509375034093740330937703209376033F
:1033800010937B0300937A03F0927D03E0927C0319
:10339000D0927F03C0927E03B0928103A0928003FB
:1033A000909379038093780381E0809396031F9133
:1033B0000F91FF90EF90DF90CF90BF90AF90089566
:1033C0000F931F93DF93CF9300D000D0CDB7DEB71C
:1033D000AB01BC01DB01CA0188709078A070B070AD
:1033E00088509048A040B040A9F41092960348300D
:1033F00080E8580780E0680780E0780729F420E03B
:1034000030E040E050E02AC0477F5F776070707026
:10341000506803C081E0809396038FEF9FEFAFEF7A
:10342000BFEF89839A83AB83BC83009170031091B3
:103430007103C80109960E94541988E090E0B80110
:1034400044E00E94991888E090E0BE016F5F7F4FD2
:103450000E94661829813A814B815C81B901CA01B9
:103460000F900F900F900F90CF91DF911F910F91C0
:1034700008952F923F924F925F926F927F928F9218
:103480009F92AF92BF92CF92DF92EF92FF920F93F3
:103490001F93DF93CF93CDB7DEB728970FB6F8947D
:1034A000DEBF0FBECDBF3B014C0119012A018DA526
:1034B0008F839EA5988780917003909171039E835E
:1034C0008D83099644E250E060E070E00E94541958
:1034D000B401A3010E945419B201A1010E94541920
:1034E000B801A7010E945419B601A5010E94541900
:1034F0004D8D5E8D6F8D78A10E94541949A15AA1FE
:103500006BA17CA10E9454194DA15EA16FA178A569
:103510000E94541949A55AA56BA57CA50E9454196F
:10352000DC018F819885FC019F01205C3F4F02C028
:1035300081918D93E217F307D9F783E090E06D81D5
:103540007E8144E60E94991883E090E0BE016F5F9F
:103550007F4F0E94661869817A818B819C812896B1
:103560000FB6F894DEBF0FBECDBFCF91DF911F9194
:103570000F91FF90EF90DF90CF90BF90AF909F9012
:103580008F907F906F905F904F903F902F90089515
:103590000F931F93DF93CF9300D000D0CDB7DEB74A
:1035A000AB01BC010091700310917103C801099631
:1035B0000E9454198FEF9FEFAFEFBFEF89839A837B
:1035C000AB83BC8386E090E0B80144E00E94991888
:1035D00086E090E0BE016F5F7F4F0E9466186981B0
:1035E0007A818B819C810F900F900F900F90CF91DB
:1035F000DF911F910F9108954F925F926F927F928A
:103600008F929F92AF92BF92CF92DF92EF92FF92F2
:103610000F931F93DF93CF9300D000D0CDB7DEB7C9
:103620005B016C0139014A018FEF9FEFAFEFBFEFF4
:1036300089839A83AB83BC8340907003509071035D
:10364000C2010996B601A5010E945419B401A30153
:103650000E945419B801A7010E94541984E090E017
:10366000B2014CE00E94991884E090E0BE016F5FC7
:103670007F4F0E94661869817A818B819C810F90AF
:103680000F900F900F90CF91DF911F910F91FF90AE
:10369000EF90DF90CF90BF90AF909F908F907F90F2
:1036A0006F905F904F9008952F923F924F925F924C
:1036B0006F927F928F929F92AF92BF92CF92DF9242
:1036C000EF92FF920F931F93DF93CF93CDB7DEB7A7
:1036D00060970FB6F894DEBF0FBECDBF2B013C0143
:1036E0005C874B870D871E872F87388B16018E01CD
:1036F0000B5F1F4F86E0D8011D928A95E9F78FEF87
:103700009FEFAFEFBFEF89839A83AB83BC83C090F9
:103710007003D0907103C60109964CE150E060E05F
:1037200070E00E9454194D855E856F8578890E94EE
:103730005419B301A2010E9454194D855E856F850D
:103740007889405F5F4F6F4F7F4F0E945419B501DA
:10375000A4010E94541960E070E00E947019DC011D
:10376000E114F10481F0AC0120E030E0F701E20F58
:10377000F31F8081FA018193AF012F5F3F4F263005
:103780003105A1F70EC0B8019C01AE01455F5F4F46
:10379000FB018191BF01F90181939F0164177507B6
:1037A000B9F7BD016A5F7F4F20E030E040E050E0B4
:1037B0000CC0EB85FC85E20FF31F8081DB018D934C
:1037C000BD012F5F3F4F4F4F5F4F8D859E85AF856A
:1037D000B889281739074A075B075CF381149104FD
:1037E000A104B104C9F021143104B1F020E030E0AB
:1037F00040E050E00CC0F901DB01A20FB31FE20D65
:10380000F31D80818C932F5F3F4F4F4F5F4F2815E3
:1038100039054A055B057CF34D85445E480D81E022
:1038200090E0B6010E94991881E090E0BE016F5FC0
:103830007F4F0E94661869817A818B819C819B01F0
:10384000209314043093150460960FB6F894DEBFED
:103850000FBECDBFCF91DF911F910F91FF90EF90E1
:10386000DF90CF90BF90AF909F908F907F906F90A0
:103870005F904F903F902F900895CF92DF92EF92FC
:10388000FF920F931F93D82EC92E10928E03109281
:103890008F03109290031092910310929203109252
:1038A0009303109294031092950310926B0310925D
:1038B0006A03109287031092860310928903109274
:1038C000880310928B0310928A0310928D0310923A
:1038D0008C0310928203109283031092840310923F
:1038E000850310926D0310926C0310926F03109277
:1038F0006E0385EE92E0909371038093700383EEE4
:103900009CE10E940B0EE0917A03F0917B030995F4
:103910007B018C01E0918003F091810381E00995A6
:10392000E114F1040105110559F0E0917A03F091D9
:103930007B0309956115710581059105B1F714C0E7
:10394000E0917A03F0917B0309956115710581057A
:103950009105B1F3E0917A03F0917B03099561152C
:10396000710581059105B1F7E0917003F091710344
:103970008D2D9C2D9C012330310510F022E030E08C
:10398000218780E090E4BF0141E00E94991880E027
:1039900090E460E070E00E9466186091700370919E
:1039A00071038BE090E440E00E9499188BE090E472
:1039B00060E070E00E9466181F910F91FF90EF90F9
:1039C000DF90CF90089521E030E030936D03209395
:1039D0006C0390936F0380936E030E947D1408958F
:1039E000882319F48CB5806202C08CB58F7D8CBDA4
:1039F00008959CB5937F982B9CBD08952CB5382FC6
:103A000033702C7F322B3CBD2DB590E0959587957A
:103A10009595879581702E7F822B8DBD089581E1CC
:103A200061E00E948A2C81E161E00E94ED2B8CB55F
:103A300080618CBD8CB580648CBD8FE061E00E949C
:103A4000ED2B80E161E00E94ED2B0895FC011092C6
:103A5000BC00662319F08BB1836002C08BB18C7FF0
:103A60008BB91092B9009F01442737FD4095542F20
:103A700060E87EE380E090E00E947B362051304099
:103A800040405040CA01B90122E030E040E050E03F
:103A90000E947B362093B80084E08093BC00089598
:103AA000482F440F92E064EB54E86093BC002AEF87
:103AB00030E08091BC0087FD34C0215030408FEF52
:103AC0002F3F3807B1F727C08091B900887F883031
:103AD00021F0803111F082E008954093BB005093B3
:103AE000BC002AEF30E08091BC0087FD1EC0215051
:103AF00030408FEF2F3F3807B1F70FC08091B900EA
:103B0000887F803221F4992351F09150CECF8831B3
:103B100031F480E0089581E0089583E0089584E021
:103B200008951216130684F2F6CF1216130634F314
:103B3000F4CFEF92FF920F931F93162FE42E022FD4
:103B4000F32E0E94501D1093BB0084E88093BC00AC
:103B50002AEF30E08091BC0087FD07C02150304043
:103B60008FEF2F3F3807B1F703C0121613063CF052
:103B7000802F9F2D9C01F90190E044E81CC08091AA
:103B8000B900F6CF80818093BB004093BC002AEF40
:103B900030E08091BC0087FD07C0215030408FEF9E
:103BA0002F3F3807B1F705C01216130614F48091A1
:103BB000B9009F5F31969E1528F384E98093BC007D
:103BC0002AEF30E08091BC0087FD06C02115310549
:103BD00019F021503040F6CF81E01F910F91FF90F6
:103BE000EF900895DF93CF930F92CDB7DEB749835F
:103BF00041E09E012F5F3F4F0E94991D0F90CF9192
:103C0000DF9108951F93F82F122F72E0B4EBE82F85
:103C1000EE7FA4E8B093BC002AEF30E08091BC00B6
:103C200087FDD0C0215030408FEF2F3F3807B1F7CC
:103C3000B7C08091B900887F883021F0803111F0C1
:103C400091E1BDC0E093BB00A093BC002AEF30E03F
:103C50008091BC0087FDBBC0215030408FEF2F3FCB
:103C60003807B1F79FC09091B900987F903229F43E
:103C7000772309F499C07150CDCF983109F094C0E1
:103C80006093BB0084E88093BC002AEF30E0809111
:103C9000BC0087FDA1C0215030408FEF2F3F380777
:103CA000B1F784C08091B900887F883211F095E126
:103CB00086C062E0A4EB7F2F7160E4E8A093BC00B3
:103CC0002AEF30E08091BC0087FD8BC0215030404E
:103CD0008FEF2F3F3807B1F76BC08091B900887F15
:103CE000883021F0803111F097E169C07093BB00FA
:103CF000E093BC002AEF30E08091BC0087FD76C0E5
:103D0000215030408FEF2F3F3807B1F758C08091D6
:103D1000B900887F883429F4662309F44BC06150C8
:103D2000CDCF803409F046C0FA0160E0412F50E069
:103D300041505040A4EC74E822C0862F90E08417D4
:103D4000950719F47093BC0002C0A093BC002AEF41
:103D500030E08091BC0087FD4EC0215030408FEF95
:103D60002F3F3807B1F728C09091B900987F903560
:103D700011F0983521F58091BB0081936F5F611739
:103D8000E0F284E98093BC002AEF30E08091BC002F
:103D900087FD14C02115310589F021503040F6CF40
:103DA00090E10DC092E10BC093E109C094E107C01E
:103DB00096E105C099E103C09AE101C090E0892F26
:103DC0001F910895121613060CF433CFE9CF121683
:103DD00013060CF448CFE6CF121613060CF462CF8C
:103DE000E5CF121613060CF478CFE2CF12161306A5
:103DF0000CF48DCFE4CF121613060CF4B5CFDCCF44
:103E00007F928F929F92AF92BF92CF92DF92EF926A
:103E1000FF920F931F93CF93DF93F82EE62E742E0D
:103E20006901E8010E946F2A4B015C018F2D880F08
:103E30006E2DA601272D0E94021E882311F01FEF70
:103E400001C0172D2097C1F00E946F2A68197909C7
:103E50008A099B099E0140E050E0621773078407BE
:103E6000950750F0212F332727FD3095872D90E0BF
:103E7000281739070CF41FEF812FDF91CF911F9185
:103E80000F91FF90EF90DF90CF90BF90AF909F90F9
:103E90008F907F9008950F931F93FA01890141E05D
:103EA0009F010E94001F1F910F910895DF92EF92D2
:103EB000FF920F931F93DF93CF930F92CDB7DEB78F
:103EC000E82ED62EF42E122F20910B0130910C01EA
:103ED000AE014F5F5F4F0E944B1F882341F1212F9E
:103EE00030E04F2D50E04F5F5F4F421B530B81E09E
:103EF00090E002C0880F991F1A95E2F70197042EEF
:103F000002C0880F991F0A94E2F7202F30E002C008
:103F1000220F331F4A95E2F7482F409559814523D8
:103F20008223482B49838E2D6D2D0E94F21D0F9008
:103F3000CF91DF911F910F91FF90EF90DF90089547
:103F4000EF92FF920F931F93DF93CF930F92CDB712
:103F5000DEB7F82EE62E042F122F20910B013091A0
:103F60000C01AE014F5F5F4F0E944B1F298111234F
:103F700051F081E090E002C0880F991F0A95E2F7A6
:103F8000422F482B0AC081E090E002C0880F991FA1
:103F90000A95E2F7482F4095422349838F2D6E2DD5
:103FA0000E94F21D0F90CF91DF911F910F91FF9012
:103FB000EF900895FC018AE680838EE18183089565
:103FC000AF92BF92CF92DF92EF92FF920F931F9327
:103FD0006C017B0182E0A82EB12CA60EB71E0091C9
:103FE0000B0110910C01FB01818168EA46E095010B
:103FF0000E94001FF70162817381882777FD8095F9
:10400000982F0E94D2349B01AC01F7016085718525
:10401000828593850E945E35F601648F758F868F49
:10402000978FF50162817381882777FD8095982F9E
:104030000E94D2349B01AC01F701608571858285B5
:1040400093850E945E35F60160A371A382A393A3BA
:10405000F70166817781882777FD8095982F0E94E8
:10406000D2349B01AC01F70160857185828593850F
:104070000E945E35F60164A375A386A397A3009101
:104080000B0110910C01F701818168E846E0950170
:104090000E94001FF70162817381882777FD809558
:1040A000982F0E94D2349B01AC01F701648575857D
:1040B000868597850E945E35F601608B718B828BB9
:1040C000938BF50162817381882777FD8095982F06
:1040D0000E94D2349B01AC01F70164857585868509
:1040E00097850E945E35F601648B758B868B978B66
:1040F000F70166817781882777FD8095982F0E9448
:10410000D2349B01AC01F70164857585868597855E
:104110000E945E35F601608F718F828F938F0091C0
:104120000B0110910C01F701808168EA46E09501CE
:104130000E94001FF70162817381882777FD8095B7
:10414000982F0E94D234F7012089318942895389FE
:104150000E945E352BED3FE049E450E40E945E355D
:1041600020E030E044E353E40E946834F6016483C5
:10417000758386839783F50162817381882777FD34
:104180008095982F0E94D234F70120893189428985
:1041900053890E945E352BED3FE049E450E40E94D4
:1041A0005E3520E030E044E353E40E946834F601D9
:1041B0006087718782879387F70166817781882777
:1041C00077FD8095982F0E94D234F701208931899C
:1041D000428953890E945E352BED3FE049E450E46B
:1041E0000E945E3520E030E044E353E40E946834EE
:1041F000F601648775878687978700910B01109178
:104200000C01F701818166EA46E095010E94001FDA
:10421000F70162817381882777FD8095982F0E942E
:10422000D23420E030E048E454E40E946834F601DF
:1042300060A771A782A793A7C6011F910F91FF9056
:10424000EF90DF90CF90BF90AF900895FC01262FA4
:10425000808164E244E00E94A01F08950F93CF93F1
:10426000DF93EC01FB016130710599F0623071055B
:1042700024F46115710541F01EC06230710571F0C2
:1042800063307105C1F40FC08CEA95ECA7EAB8E37E
:104290000EC08CEA95ECA7E2B9E309C08CEA95EC74
:1042A000A7EAB9E304C082E898EAABEFB9E38C87E8
:1042B0009D87AE87BF87898165E246E022E00E2FA9
:1042C0000E94561FDF91CF910F9108950F93062FF3
:1042D000FC01818164E243E023E00E94561F0F91BC
:1042E00008950F93CF93DF93EC01FB0162307105CA
:1042F000D9F0633071053CF46115710559F06130F6
:10430000710521F50CC06330710599F064307105B9
:10431000E9F414C08EE99EEDACE1BAE313C08EE976
:104320009EEDACE9BAE30EC08DEE9DE4ABEEBAE3D0
:1043300009C08EE99EEDACE1BBE304C08DEE9DE4C7
:10434000ABEEBBE388879987AA87BB87898161E247
:1043500045E023E00E2F0E94561FDF91CF910F9171
:1043600008950F93062FFC01818161E247E022E06E
:104370000E94561F0F9108950F93062FFC01818113
:1043800060E247E024E00E94561F0F9108950F93CA
:104390001F93CF93DF93EC01162F613011F0633040
:1043A00019F4CE0161E001C060E00E9426218881FD
:1043B00064E241E022E0012F0E94561F888164E2FE
:1043C00043E022E00E94561FDF91CF911F910F9191
:1043D00008950F93FC016A3F710551F489E29CE551
:1043E000AFE0BCE3808B918BA28BB38B00E016C057
:1043F000645F714051F489E29CE5AFE8BCE3808BD7
:10440000918BA28BB38B01E009C089E29CE5AFE8F8
:10441000BDE3808B918BA28BB38B02E0808163E242
:1044200045E022E00E94561F0F9108950F93FC0172
:10443000062F808160E245E022E00E94561F0F9126
:1044400008950F93FC01062F808160E247E022E08F
:104450000E94561F0F9108950F931F938C01AC017A
:104460004E5F5F4F20910B0130910C01FC01818167
:104470006FE00E944B1FF80182811F910F910895F8
:104480000F931F938C01AC014E5F5F4F20910B0186
:1044900030910C01FC0180816FE00E944B1FF801FC
:1044A00082811F910F910895CF93DF93EC010E94B9
:1044B0004022843D11F090E007C0CE010E942C22E2
:1044C00090E0893409F491E0892FDF91CF9108952C
:1044D0000F931F938C01FC01808160E24FE00E94EA
:1044E000F21DF801808161E240E00E94F21DF801B6
:1044F000808162E240E00E94F21DF801808163E267
:1045000040E80E94F21DF801808164E240E00E94D0
:10451000F21DF80181816FE140E00E94F21DF80177
:10452000818160E24FE60E94F21DF801818161E223
:1045300040E00E94F21DF801818162E240E00E94A9
:10454000F21DF801818163E240E80E94F21DF8014A
:10455000818164E240E90E94F21DF801818165E2F7
:1045600040E20E94F21DF801818166E240E00E9473
:10457000F21D8EE99EEDACE1BAE3F80180879187E8
:10458000A287B3878CEA95ECA7E2B9E38487958785
:10459000A687B78789E29CE5AFE0BCE3808B918B6F
:1045A000A28BB38B1F910F9108952F923F924F9240
:1045B0005F926F927F928F929F92AF92BF92CF92B3
:1045C000DF92EF92FF920F931F93DF93CF93CDB7BC
:1045D000DEB7C85AD0400FB6F894DEBF0FBECDBFCD
:1045E000698B7A8B8B8B9C8B2D8B3E8B4F8B588F53
:1045F000C354DF4F288039804A805B80CD5BD04038
:104600008091110190911201A0911301B0911401B8
:104610008D879E87AF87B88B809115019091160189
:10462000A0911701B091180189879A87AB87BC8741
:104630006D857E858F85988929853A854B855C8532
:104640000E945E35698F7A8F8B8F9C8F80911901C4
:1046500090911A01A0911B01B0911C018D839E8342
:10466000AF83B8876D857E858F8598892D813E8142
:104670004F8158850E945E356D8F7E8F8F8F98A3F6
:1046800080911D0190911E01A0911F01B091200108
:1046900089839A83AB83BC836D857E858F8598895A
:1046A00029813A814B815C810E945E3569A37AA39E
:1046B0008BA39CA369857A858B859C859B01AC0126
:1046C0000E945E356DA37EA38FA398A769857A8526
:1046D0008B859C852D813E814F8158850E945E355A
:1046E00069A77AA78BA79CA769857A858B859C8506
:1046F00029813A814B815C810E945E356DA77EA73E
:104700008FA798AB6D817E818F8198859B01AC01CD
:104710000E945E3569AB7AAB8BAB9CAB6D817E81C1
:104720008F81988529813A814B815C810E945E3519
:104730006DAB7EAB8FAB98AF69817A818B819C81A9
:104740009B01AC010E945E3569AF7AAF8BAF9CAF25
:10475000C601B501A60195010E945E353B014C01E1
:10476000C201B101A20191010E945E359B01AC0121
:10477000C401B3010E9404343B014C01CF53DF4F0D
:10478000688179818A819B81C15CD0409B01AC01A9
:104790000E945E359B01AC01C401B3010E94043448
:1047A0000E94C5353B014C01C601B501A40193012E
:1047B0000E94683421966CAF7DAF8EAF9FAF21977A
:1047C000C201B101A40193010E94683425966CAF27
:1047D0007DAF8EAF9FAF2597CF53DF4F6881798133
:1047E0008A819B81C15CD040A40193010E946834FE
:1047F00029966CAF7DAF8EAF9FAF2997CB53DF4F1C
:10480000688179818A819B81C55CD0409B01AC0124
:104810000E945E355B016C01C753DF4F688179816F
:104820008A819B81C95CD0409B01AC010E945E35AE
:104830009B01AC01C601B5010E9404345B016C010F
:10484000C353DF4F688179818A819B81CD5CD040E1
:104850009B01AC010E945E359B01AC01C601B50114
:104860000E9404340E94C5355B016C01CB53DF4FBD
:10487000688179818A819B81C55CD040A6019501C0
:104880000E9468342D966CAF7DAF8EAF9FAF2D9791
:10489000C753DF4F688179818A819B81C95CD04091
:1048A000A60195010E94683461966CAF7DAF8EAF12
:1048B0009FAF6197C353DF4F688179818A819B8164
:1048C000CD5CD040A60195010E94683465966CAF1E
:1048D0007DAF8EAF9FAF65972D966CAD7DAD8EADE4
:1048E0009FAD2D979B01AC010E94043469966CAF7B
:1048F0007DAF8EAF9FAF699760E070E080E09FE38F
:1049000029A93AA94BA95CA90E94033429AD3AAD63
:104910004BAD5CAD0E9403346D966CAF7DAF8EAF36
:104920009FAF6D9761966CAD7DAD8EAD9FAD61977C
:104930009B01AC010E940434A1966CAF7DAF8EAF99
:104940009FAFA19769A57AA58BA59CA529A13AA19E
:104950004BA15CA10E940334A5966CAF7DAF8EAFD6
:104960009FAFA59765966CAD7DAD8EAD9FAD6597FC
:104970009B01AC010E940434A9966CAF7DAF8EAF51
:104980009FAFA9976DA57EA58FA598A92D8D3E8D6A
:104990004F8D58A10E940434AD966CAF7DAF8EAFA1
:1049A0009FAFAD9769966CAD7DAD8EAD9FAD6997AC
:1049B0006D962CAD3DAD4EAD5FAD6D970E945E35F1
:1049C0005B016C01A1966CAD7DAD8EAD9FADA197E5
:1049D000A5962CAD3DAD4EAD5FADA5970E945E3561
:1049E0009B01AC01C601B5010E9404345B016C015E
:1049F000A9966CAD7DAD8EAD9FADA997AD962CAD52
:104A00003DAD4EAD5FADAD970E945E359B01AC01F3
:104A1000C601B5010E940434E1966CAF7DAF8EAF44
:104A20009FAFE19760E070E080E09FE32DA13EA1A1
:104A30004FA158A50E9403341B012C0169A57AA53A
:104A40008BA59CA529A13AA14BA15CA10E9404348D
:104A50009B01AC0169966CAD7DAD8EAD9FAD699744
:104A60000E945E355B016C01C201B10129AD3AAD16
:104A70004BAD5CAD0E9403349B01AC01A1966CADC3
:104A80007DAD8EAD9FADA1970E945E359B01AC01BF
:104A9000C601B5010E9404345B016C016DA97EA9B9
:104AA0008FA998AD298D3A8D4B8D5C8D0E94033472
:104AB0009B01AC01A9966CAD7DAD8EAD9FADA99764
:104AC0000E945E359B01AC01C601B5010E94043411
:104AD0003B014C016DA57EA58FA598A92D8D3E8D1E
:104AE0004F8D58A10E940334E5966CAF7DAF8EAF19
:104AF0009FAFE5976DA97EA98FA998AD298D3A8DB5
:104B00004B8D5C8D0E940434E9966CAF7DAF8EAF07
:104B10009FAFE997C201B10129A93AA94BA95CA9A4
:104B20000E940334ED966CAF7DAF8EAF9FAFED97D3
:104B3000E1966CAD7DAD8EAD9FADE1979B01AC0173
:104B40000E945E355B016C01C401B301A4019301B5
:104B50000E945E359B01AC01C601B5010E94043480
:104B60000E94C5355B016C01E5966CAD7DAD8EADE7
:104B70009FADE5979B01AC010E940434C358DF4F01
:104B8000688379838A839B83CD57D040E9966CAD47
:104B90007DAD8EAD9FADE9979B01AC010E940434C1
:104BA000CF57DF4F688379838A839B83C158D04076
:104BB0006D857E858F8598899B01AC010E945E354D
:104BC0002DA13EA14FA158A50E94033429A93AA9BD
:104BD0004BA95CA90E94033429AD3AAD4BAD5CAD45
:104BE0000E940434CB57DF4F688379838A839B8389
:104BF000C558D040C601B501A60195010E940434F4
:104C00001B012C0169966CAD7DAD8EAD9FAD699792
:104C1000E5962CAD3DAD4EAD5FADE5970E945E359E
:104C20005B016C01A1966CAD7DAD8EAD9FADA19782
:104C3000E9962CAD3DAD4EAD5FADE9970E945E3576
:104C40009B01AC01C601B5010E9404345B016C01FB
:104C5000A9966CAD7DAD8EAD9FADA997ED962CADAF
:104C60003DAD4EAD5FADED970E945E359B01AC0151
:104C7000C601B5010E9404349B01AC010E940434BA
:104C80003B014C01C201B1016D962CAD3DAD4EAD65
:104C90005FAD6D970E945E355B016C01C401B3018D
:104CA000E5962CAD3DAD4EAD5FADE5970E945E350E
:104CB0009B01AC01C601B5010E940434C757DF4F08
:104CC000688379838A839B83C958D040C201B1012C
:104CD000A5962CAD3DAD4EAD5FADA5970E945E355E
:104CE0005B016C01C401B301E9962CAD3DAD4EAD45
:104CF0005FADE9970E945E359B01AC01C601B5012D
:104D00000E940434C357DF4F688379838A839B836F
:104D1000CD58D040C201B101AD962CAD3DAD4EADE8
:104D20005FADAD970E945E355B016C01C401B301BC
:104D3000ED962CAD3DAD4EAD5FADED970E945E356D
:104D40009B01AC01C601B5010E9404341B012C017A
:104D500025966CAD7DAD8EAD9FAD2597CB57DF4FC2
:104D6000288139814A815B81C558D0400E945E35D7
:104D70005B016C0129966CAD7DAD8EAD9FAD299721
:104D8000CF57DF4F288139814A815B81C158D0409C
:104D90000E945E359B01AC01C601B5010E9403343F
:104DA0003B014C0161966CAD7DAD8EAD9FAD6197C1
:104DB000A20191010E945E355B016C0165966CADAC
:104DC0007DAD8EAD9FAD6597C357DF4F288139818B
:104DD0004A815B81CD58D0400E945E359B01AC0179
:104DE000C601B5010E9403349B01AC01C401B301AB
:104DF0000E940434CF56DF4F688379838A839B8374
:104E0000C159D04029966CAD7DAD8EAD9FAD29972F
:104E1000C358DF4F288139814A815B81CD57D0400B
:104E20000E945E355B016C0121966CAD7DAD8EAD4F
:104E30009FAD2197CB57DF4F288139814A815B8114
:104E4000C558D0400E945E359B01AC01C601B5013A
:104E50000E9403343B014C0165966CAD7DAD8EAD77
:104E60009FAD6597C757DF4F288139814A815B81A4
:104E7000C958D0400E945E355B016C012D966CAD27
:104E80007DAD8EAD9FAD2D97A20191010E945E3543
:104E90009B01AC01C601B5010E9403349B01AC012A
:104EA000C401B3010E9404341B012C0121966CAD96
:104EB0007DAD8EAD9FAD2197CF57DF4F28813981D2
:104EC0004A815B81C158D0400E945E355B016C0114
:104ED00025966CAD7DAD8EAD9FAD2597C358DF4F48
:104EE000288139814A815B81CD57D0400E945E354F
:104EF0009B01AC01C601B5010E9403343B014C018A
:104F00002D966CAD7DAD8EAD9FAD2D97C357DF4F08
:104F1000288139814A815B81CD58D0400E945E351D
:104F20005B016C0161966CAD7DAD8EAD9FAD6197FF
:104F3000C757DF4F288139814A815B81C958D040EA
:104F40000E945E359B01AC01C601B5010E9403348D
:104F50009B01AC01C401B3010E9404345B016C01EC
:104F6000CF56DF4F688179818A819B81C159D040BA
:104F70002AE037ED43EA5BE30E945E352091210190
:104F80003091220140912301509124010E94043468
:104F90003B014C0160932101709322018093230116
:104FA00090932401C201B1012AE037ED43EA5BE3AB
:104FB0000E945E3520912501309126014091270104
:104FC000509128010E940434CB56DF4F68837983C7
:104FD0008A839B83C559D040609325017093260135
:104FE0008093270190932801C601B5012AE037ED8F
:104FF00043EA5BE30E945E352091290130912A014A
:1050000040912B0150912C010E940434C756DF4F70
:10501000688379838A839B83C959D040609329012F
:1050200070932A0180932B0190932C01CF56DF4F70
:10503000688179818A819B81C159D0409B01AC01F3
:105040000E9404349B01AC0169897A898B899C890F
:105050000E940434A40193010E940434C356DF4F1C
:10506000688379838A839B83CD59D040C201B10183
:10507000A20191010E9404349B01AC016D897E89DB
:105080008F89988D0E940434CB56DF4F2881398157
:105090004A815B81C559D0400E940434CF55DF4F0F
:1050A000688379838A839B83C15AD040C601B50146
:1050B000A60195010E9404349B01AC01C801B7010F
:1050C0000E940434C756DF4F288139814A815B81B1
:1050D000C959D0400E9404345B016C0169857A850E
:1050E0008B859C859058C356DF4F288139814A8132
:1050F0005B81CD59D0400E945E357B018C016D8172
:105100007E818F819885CF55DF4F288139814A81F3
:105110005B81C15AD0400E945E359B01AC01C80141
:10512000B7010E9403347B018C0169817A818B81F4
:105130009C81A60195010E945E359B01AC01C801CE
:10514000B7010E940334CF52DF4F288139814A8151
:105150005B81C15DD0400E945E359B01AC016D85D5
:105160007E858F8598890E940434CB55DF4F6883F4
:1051700079838A839B83C55AD040C356DF4F2881E9
:1051800039814A815B81CD59D0400E945E357B01D7
:105190008C016D817E818F819885A60195010E9489
:1051A0005E359B01AC01C801B7010E9404347B014C
:1051B0008C0169817A818B819C81CF55DF4F288159
:1051C00039814A815B81C15AD0400E945E359B0182
:1051D000AC01C801B7010E940334CF52DF4F2881D0
:1051E00039814A815B81C15DD0400E945E359B015F
:1051F000AC0169857A858B859C850E9404341B01EE
:105200002C01CB55DF4F688179818A819B81C55AFA
:10521000D040CF55DF4F288139814A815B81C15A07
:10522000D0400E945E357B018C01C201B101A60114
:1052300095010E945E359B01AC01C801B7010E9437
:1052400003347B018C0169817A818B819C81C356F7
:10525000DF4F288139814A815B81CD59D0400E943E
:105260005E359B01AC01C801B7010E940434CF52E6
:10527000DF4F288139814A815B81C15DD0400E9426
:105280005E359B01AC016D817E818F8198850E9486
:1052900004343B014C01CB55DF4F688179818A8111
:1052A0009B81C55AD040A60195010E945E357B01C5
:1052B0008C01C201B101CF55DF4F288139814A816C
:1052C0005B81C15AD0400E945E359B01AC01C80190
:1052D000B7010E9404347B018C01C401B301C356A1
:1052E000DF4F288139814A815B81CD59D0400E94AE
:1052F0005E359B01AC01C801B7010E940334CF5257
:10530000DF4F288139814A815B81C15DD0400E9495
:105310005E359B01AC0169817A818B819C810E9401
:1053200004345B016C01CB55DF4F688179818A8140
:105330009B81C55AD0409B01AC010E945E357B0128
:105340008C01C201B101A20191010E945E359B0155
:10535000AC01C801B7010E9404347B018C01C40177
:10536000B301A40193010E945E359B01AC01C80109
:10537000B7010E9404347B018C01C601B501A6016E
:1053800095010E945E359B01AC01C801B7010E94E6
:1053900004340E94C5357B018C01CB55DF4F6881F9
:1053A00079818A819B81C55AD040A80197010E94CA
:1053B00068346093110170931201809313019093EC
:1053C0001401C201B101A80197010E9468346093E1
:1053D0001501709316018093170190931801C40171
:1053E000B301A80197010E9468346093190170937A
:1053F0001A0180931B0190931C01C601B501A801FD
:1054000097010E94683460931D0170931E01809380
:105410001F01909320018DE091E0C855DF4F0FB63A
:10542000F894DEBF0FBECDBFCF91DF911F910F91DA
:10543000FF90EF90DF90CF90BF90AF909F908F90B4
:105440007F906F905F904F903F902F9008951F92A4
:105450000F920FB60F9211242F933F938F939F9328
:10546000AF93BF9380919B0390919C03A0919D0368
:10547000B0919E0330919F030196A11DB11D232F72
:105480002D5F2D3720F02D570196A11DB11D2093C2
:105490009F0380939B0390939C03A0939D03B093E1
:1054A0009E038091970390919803A0919903B091E6
:1054B0009A030196A11DB11D8093970390939803C1
:1054C000A0939903B0939A03BF91AF919F918F914D
:1054D0003F912F910F900FBE0F901F9018958FB78F
:1054E000F89420919B0330919C0340919D0350912F
:1054F0009E038FBFB901CA0108959FB7F894209108
:105500009703309198034091990350919A0386B57F
:10551000A89B06C08F3F21F02F5F3F4F4F4F5F4F3B
:105520009FBF542F432F322F2227280F311D411D9B
:10553000511D82E0220F331F441F551F8A95D1F75A
:10554000B901CA0108959B01AC017FB7F89480911D
:10555000970390919803A0919903B0919A0366B52F
:10556000A89B05C06F3F19F00196A11DB11D7FBF1B
:10557000BA2FA92F982F8827860F911DA11DB11D25
:1055800062E0880F991FAA1FBB1F6A95D1F7BC0163
:105590002DC0FFB7F8948091970390919803A09144
:1055A0009903B0919A03E6B5A89B05C0EF3F19F0A7
:1055B0000196A11DB11DFFBFBA2FA92F982F8827D3
:1055C0008E0F911DA11DB11DE2E0880F991FAA1F2A
:1055D000BB1FEA95D1F7861B970B885E9340C8F2F4
:1055E000215030404040504068517C4F21153105DA
:1055F0004105510571F60895789480E090E020E827
:105600000FB6F89420936100809361000FBE84B5BB
:10561000826084BD84B5816084BD85B5826085BDAE
:1056200085B5816085BDEEE6F0E080818160808394
:10563000E1E8F0E010828081826080838081816077
:105640008083E0E8F0E0808181608083E1EBF0E03E
:10565000808184608083E0EBF0E0808181608083E2
:10566000E1E9F0E0808182608083808181608083D5
:10567000E0E9F0E0808181608083E1ECF0E080810E
:105680008460808380818260808380818160808368
:10569000E3ECF0E0808181608083E0ECF0E08081E9
:1056A00082608083E2ECF0E0808181608083EAE7C1
:1056B000F0E080818460808380818260808380814B
:1056C0008160808380818068808308950F931F9319
:1056D000CF93DF93BC018230910510F462E070E05B
:1056E000E0911204F091130440E050E0A0E0B0E03B
:1056F00024C08081918186179707D0F0861797077D
:1057000071F482819381109729F013969C938E9364
:1057100012972CC0909313048093120427C0411554
:10572000510519F08417950718F4AC01EF018D01AC
:10573000DF01828193819C01F9013097D1F64115F7
:105740005105F9F0CA01861B970B8430910580F44E
:105750008A819B810115110521F0F80193838283D1
:1057600004C09093130480931204FE0132962FC05C
:10577000FE01E80FF91F6193719302979983888363
:1057800026C08DB79EB78857904020912D0130914B
:105790002E0128173907C8F4AC01421B530B4617DA
:1057A000570798F0CB0102964817590770F0820FFF
:1057B000931F90932E0180932D019093300180933D
:1057C0002F01F9016193719302C0E0E0F0E0CF0195
:1057D000DF91CF911F910F910895CF93DF93482FC1
:1057E00050E0CA01835F9D4FFC01349141515E4FEF
:1057F000FA018491882369F190E0880F991FFC01D8
:10580000EB53FE4FA591B491FC01ED52FE4FC591B3
:10581000D491662351F42FB7F8948C91932F9095DF
:1058200089238C93888189230BC0623061F42FB760
:10583000F8948C91932F909589238C938881832B56
:1058400088832FBF06C09FB7F8948C91832B8C93CD
:105850009FBFDF91CF9108958730C1F1883080F4E8
:105860008330F9F0843030F4813029F1823009F04E
:1058700050C024C08430C9F0863009F04AC022C02C
:105880008A3091F18B3030F4883031F1893009F071
:1058900040C026C08C3091F18C3060F18E30C9F55B
:1058A00033C0809180008F7703C0809180008F7D0E
:1058B00080938000089584B58F7702C084B58F7D72
:1058C00084BD08958091B0008F7703C08091B000AF
:1058D0008F7D8093B0000895809190008F7707C0EE
:1058E000809190008F7D03C080919000877F80938E
:1058F000900008958091C0008F7703C08091C00010
:105900008F7D8093C00008958091C200877F80932F
:10591000C2000895FF920F931F93F62E482F50E078
:10592000CA01855D9D4FFC012491CA01835F9D4F93
:10593000FC01149141515E4FFA0104910023C9F01A
:10594000222319F0822F0E942C2CE02FF0E0EE0F82
:10595000FF1FED52FE4FA591B4919FB7F894FF2021
:1059600021F48C911095812302C08C91812B8C9312
:105970009FBF1F910F91FF9008950F931F93482F82
:1059800050E0CA01855D9D4FFC012491CA01835FEF
:105990009D4FFC01049141515E4FFA011491112376
:1059A00019F420E030E015C0222319F0822F0E9464
:1059B0002C2C812F90E0880F991F8F519E4FFC0156
:1059C000A591B4918C9120E030E0802311F021E08A
:1059D00030E0C9011F910F910895FC0120E030E0F3
:1059E0008081882311F421E030E0C9010895FC0191
:1059F00081E0808308950E94662B0895CF92DF9204
:105A0000EF92FF920F931F93CF93DF937C016B0173
:105A10008A01C0E0D0E00FC0D6016D916D01D701C1
:105A2000ED91FC910190F081E02DC7010995C80F1F
:105A3000D91F015010400115110571F7CE01DF91FA
:105A4000CF911F910F91FF90EF90DF90CF9008952D
:105A5000EF92FF920F931F93CF93DF937C018B0103
:105A6000C0E0D0E0F8010F5F1F4F6491662359F04A
:105A7000D701ED91FC910190F081E02DC7010995CE
:105A8000C80FD91FEFCFCE01DF91CF911F910F919A
:105A9000FF90EF900895DC01ED91FC910190F08171
:105AA000E02D09950895EF92FF920F931F938C01BB
:105AB000DC01ED91FC910190F081E02D6DE0099504
:105AC0007C01D801ED91FC910190F081E02DC8019D
:105AD0006AE009959C012E0D3F1DC9011F910F9190
