:100000000C94D5010C94FD010C94FD010C94FD01A0
:100010000C94FD010C94FD010C94FD010C94FD0168
:100020000C94FD010C94BE090C9497300C9418317B
:100030000C94FD010C94FD010C94FD010C94FD0148
:100040000C94FD010C94FD010C94FD010C94FD0138
:100050000C94FD010C94FD010C94FD010C94BA2A42
:100060000C94FD010C94FD010C94FD010C94FD0118
:100070000C94FD010C94FD010C94FD010C94FD0108
:100080000C94FD010C94FD010C94FD010C94FD01F8
:100090000C94FD010C94FD010C94FD010C94FD01E8
:1000A0000C94FD010C94FD010C94FD01DC2BDF2B65
:1000B000D22BD62B0A2CE32BE72BED2BF12BF52B98
:1000C000FB2BFF2B0A2C052C7374617274696E670D
:1000D00020746F2062726F616463617374206F6E4D
:1000E0002055445020706F727420353035302E2EDC
:1000F0002E00556E61626C6520746F20726574729B
:100100006965766520746865204950204164647291
:10011000657373210D0A004F4B004641494C0A009C
:10012000092E2E2E0072657175657374696E6720D5
:1001300044484350004F4B004641494C0A00636F0E
:100140006E6E656374696E6720746F206D6F636196
:1001500070092E2E2E004F4B004641494C0A006973
:100160006E697420434333303030092E2E2E004FF9
:100170004B004641494C0A00696E6974204C534D4E
:1001800039445330092E2E2E00626F6F74696E67EA
:1001900020554450206D6F74696F6E2063617074D8
:1001A0007572652076312E320A00000000020008C8
:1001B0000E0000030401000B0000040802011040BF
:1001C00080401020408040800802040180402010C0
:1001D00002011080102040400404040404030405BC
:1001E00002020202040302020202060606060606D4
:1001F000040402020204000000002300260029007B
:100200002C002F0000000000250028002B002E00ED
:10021000310000000000240027002A002D003000DB
:10022000080B0002020201000904000001020200A2
:100230000005240010010524010101042402060523
:100240002406000107058103100040090401000293
:100250000A00000007050202400000070583024073
:10026000000004030904455353206A4E6F6465007F
:10027000537061726B46756E00120100020000003F
:10028000404F1B0692000101020001120100020210
:100290000000404F1B069200010102000100C180D6
:1002A00081C105010902A1010901A100850105091A
:1002B0001901290315002501950375018102950196
:1002C0007505810305010930093109381581257F3C
:1002D000750895038106C0C005010906A1018502C4
:1002E000050719E029E71500250175019508810228
:1002F00095017508810395067508150025650507A4
:10030000190029658100C0090402000103000000F2
:100310000921010100012265000705840340000155
:1003200000000000000000002A2B28000000000050
:1003300000000000000000000000000000000000BD
:100340002C9EB4A0A1A2A434A6A7A5AE362D373802
:10035000271E1F20212223242526B333B62EB7B80B
:100360009F8485868788898A8B8C8D8E8F909192C9
:10037000939495969798999A9B9C9D2F3130A3AD15
:10038000350405060708090A0B0C0D0E0F10111293
:10039000131415161718191A1B1C1DAFB1B0B50090
:1003A000FF018D0A5F2DD62F9F3211241FBECFEF84
:1003B000DAE0DEBFCDBF12E0A0E0B1E0E6E9FCE6A6
:1003C00002C005900D92A43BB107D9F715E0A4EB4C
:1003D000B2E001C01D92AE31B107E1F713E0CAEA05
:1003E000D3E004C02297FE010E943C36C03AD107F8
:1003F000C9F70E946D2E0C9449360C9400000F939F
:1004000084EB92E06AE04BE02DE004E00E9485047A
:1004100085EB92E00E94A6048EEF92E00E942822D3
:100420000F9108954F925F926F927F928F929F9259
:10043000AF92BF92CF92DF92EF92FF920F931F93F2
:10044000DF93CF93CDB7DEB7CD55D0400FB6F8943C
:10045000DEBF0FBECDBF45E0442E512C4C0E5D1EBD
:1004600039E0632E712C6C0E7D1E2DE0822E912CB6
:100470008C0E9D1E91E1A92EB12CAC0EBD1E6E01FD
:100480000894C11CD11C84EB94E040E052EC61E084
:1004900070E00E94242D84EB94E069E871E00E94F2
:1004A000102D84EB94E068E771E00E94CD2C8EEF74
:1004B00092E00E94A721882329F484EB94E062E76C
:1004C00071E074C084EB94E06FE671E00E94102D3F
:1004D00084EB94E06FE571E00E94CD2C84EB92E018
:1004E00060E040E020E030E00E94BC07882329F46F
:1004F00084EB94E069E571E059C084EB94E066E533
:1005000071E00E94102D84EB94E06EE371E00E9494
:10051000CD2C84EB92E060E071E046E051E020E019
:100520000E94D108882329F484EB94E068E371E009
:100530003DC084EB94E065E371E00E94102D84EBF4
:1005400094E065E271E00E94CD2C00E010E084EBC5
:1005500092E00E949D04882309F0A3C064E670E045
:1005600080E090E00E94352B0F5F1F4F81E00C323E
:10057000180709F496C0EBCF84EB94E06AE171E0D0
:1005800015C084EB94E067E171E00E94102D84EBCC
:1005900092E0B601A2019301840175010E946406F4
:1005A000882339F484EB94E062EF70E00E94102D10
:1005B0006ACF84EB94E00E94F02C85E1E82EF12CC8
:1005C000EC0EFD1E2D813E814F8158852095309582
:1005D0004095509589819A81AB81BC81282B392B1C
:1005E0004A2B5B2BC70164EB72E00AEB13E10E941C
:1005F000B90585EB92E0B7010E94230584EB94E0F6
:1006000068EC70E00E94102D8EEF92E060ED77E0D4
:100610000E943C218EEF92E060E070E00E94742125
:100620008EEF92E060E070E00E9469218EEF92E030
:1006300062E00E941A218EEF92E066E070E00E9474
:100640000F218EEF92E060E070E00E94C4208EEFF8
:1006500092E062E070E00E9404218EEF92E060E0A0
:1006600070E00E9481208EEF92E064E070E00E94D2
:10067000B920C35ADF4F0FB6F894DEBF0FBECDBF0F
:10068000CF91DF911F910F91FF90EF90DF90CF906E
:10069000BF90AF909F908F907F906F905F904F90A2
:1006A000089584EB94E060E271E00E94CD2C84EB2D
:1006B00092E00E949D04882309F063CF5DCF4F92A2
:1006C0005F926F927F928F929F92AF92BF92CF92E2
:1006D000DF92EF92FF920F931F93DF93CF93CDB7EB
:1006E000DEB7E0970FB6F894DEBF0FBECDBF0E9415
:1006F000102B209112033091130340911403509159
:100700001503621B730B840B950B6151774280407C
:10071000904008F4E3C00E94102B60931203709382
:10072000130380931403909315030E94102B60937E
:100730001603709317038093180390931903CE0147
:1007400001966EEF72E00E94331F0E94102B2091E1
:100750001603309117034091180350911903621B3F
:10076000730B840B950B60931603709317038093A0
:100770001803909319034DB75EB7485150400FB618
:10078000F8945EBF0FBE4DBF8DB69EB60894811C17
:10079000911C4D805E806F80788429853A854B85D9
:1007A0005C852DA73EA74FA758ABED84FE840F852F
:1007B0001889AD8CBE8CCF8CD8A029A13AA14BA1B1
:1007C0005CA1EDB7FEB721833283438354832DA10F
:1007D0003EA14FA158A5F401248335834683578356
:1007E00029893A894B895C892087318742875387D9
:1007F0002D893E894F89588D2487358746875787AD
:10080000298D3A8D4B8D5C8D5058208B318B428BCE
:10081000538B0E94753420E034E244E759E40E948F
:100820000D34F401648B758B868B978BC301B201F9
:100830002DA53EA54FA558A90E943B228C012DB79E
:100840003EB7285E3F4F0FB6F8943EBF0FBE2DBF98
:100850000E94102BF801608371838283938324812B
:10086000358146815781CA01B9010E94CC35882360
:1008700031F180E090E0A0E8BFE3F8018483958344
:10088000A683B78380E090E0A0E0B0E0808B918BFE
:10089000A28BB38B84879587A687B787808791873C
:1008A000A287B387848F958FA68FB78F808F918F04
:1008B000A28FB38F848B958BA68BB78B0FC085EBE4
:1008C00092E0B80140E250E000E010E020E030E0CB
:1008D0000E94E90497FF02C00E941202E0960FB640
:1008E000F894DEBF0FBECDBFCF91DF911F910F9166
:1008F000FF90EF90DF90CF90BF90AF909F908F9040
:100900007F906F905F904F9008950F93FC0110823D
:1009100060931A0340931B0320931C038FEF809373
:100920001D0300931E031092540384EB94E09093F4
:100930005603809355030F9108958091540390E0DE
:10094000969587959695879581700895FC011382F9
:1009500012828FE492E091838083E95BFF4F8FEFF7
:100960009FEF918380830895CF92DF92EF92FF9261
:100970000F931F93DF93CF930F92CDB7DEB76983A9
:10098000FC01E95BFF4F60817181882777FD8095CD
:10099000982FAE014F5F5F4F01E010E020E030E0A4
:1009A000CC24DD2476010E94FA109C01442737FDF7
:1009B0004095542F57FF02C020E030E0C9010F904E
:1009C000CF91DF911F910F91FF90EF90DF90CF902B
:1009D00008958F929F92AF92BF92CF92DF92EF9243
:1009E000FF920F931F93DB0168017901FC01E95B22
:1009F000FF4F60817181882777FD8095982F4A018C
:100A0000AA24BB24AD01950184010E94FA10182F7D
:100A1000092F06C061E070E080E090E00E94352B75
:100A200080919A0490919B040597A0F3812F902FB9
:100A30001F910F91FF90EF90DF90CF90BF90AF90FC
:100A40009F908F900895FC01DB01E95BFF4FA95B4C
:100A5000BF4F8D919C911197918380839E918E9130
:100A6000929382938E918293E054F040A054B040D0
:100A700080E40D9001928150E1F70895EF92FF928A
:100A80000F931F937B018C01FA01422F80E8E81637
:100A900080E8F80680E0080780E0180731F48091CC
:100AA00054038160809354032BC081E0E81680E8F2
:100AB000F80680E0080780E0180731F480915403BD
:100AC00082608093540328C082E0E81680E8F8062C
:100AD00080E0080780E0180731F480915403897F93
:100AE000809354032FC080E1E81680E8F80680E088
:100AF000080780E0180721F480915403846009C03E
:100B000089E9E816F1040105110531F480915403D7
:100B100088608093540328C080E4E81680E8F806D3
:100B200080E0080780E0180769F480911F038F5F59
:100B300080931F0320E233E0C901BF0150E00E940F
:100B4000403612C080E0E81688E8F80680E0080722
:100B500080E0180749F44081403230F4E42FF0E09F
:100B6000EC5CFC4F81E080831F910F91FF90EF9030
:100B700008952F923F924F925F926F927F928F9241
:100B80009F92AF92BF92CF92DF92EF92FF920F931C
:100B90001F93DF93CF93CDB7DEB760970FB6F8946E
:100BA000DEBF0FBECDBF582E492E59016A01180174
:100BB00062E070E080E090E022E030E040E050E071
:100BC000E1E1EE2EF12C012D112D0E94380F7C0158
:100BD0003C01882477FC8094982C2FEF62162FEF2D
:100BE00072062FEF82062FEF920649F4E52DF42DC1
:100BF000138212828FE492E09183808336C0FE01DB
:100C0000319680E1DF011D928A95E9F782E090E05C
:100C10009A8389833B822C828D2D9927AA27BB2713
:100C20008D83C601AA27BB278E83BB27AD2D9C2DA4
:100C30008B2D8F83A886C401B301AF0100E110E0C2
:100C400020E030E00E948F0E0FE412E06F5F7F4FD4
:100C50008F4F9F4F89F4C401B3010E94EC0EE52D24
:100C6000F42D1382128211830083E95BFF4F8FEF13
:100C70009FEF918380830DC0E52DF42D13821282A6
:100C800011830083E95BFF4FF182E082129212929E
:100C90001292852D942D60960FB6F894DEBF0FBE8C
:100CA000CDBFCF91DF911F910F91FF90EF90DF901B
:100CB000CF90BF90AF909F908F907F906F905F90FC
:100CC0004F903F902F9008958F929F92AF92BF9236
:100CD000CF92DF92EF92FF920F931F93DF93CF9308
:100CE000CDB7DEB7EA970FB6F894DEBF0FBECDBF23
:100CF000FC016B015A01490180818823F1F1809147
:100D0000540381FF3AC08091540382FF36C0CE0164
:100D100001960E9431118C81882379F189819A8111
:100D2000AB81BC81F60180839183A283B3838D81E3
:100D30009E81AF81B885F50180839183A283B383BF
:100D400089859A85AB85BC85F40180839183A283D4
:100D5000B3838D859E85AF85B889F80180839183A3
:100D6000A283B38389899A89AB89BC89F70180837F
:100D70009183A283B38381E001C080E0EA960FB63D
:100D8000F894DEBF0FBECDBFCF91DF911F910F91C1
:100D9000FF90EF90DF90CF90BF90AF909F908F909B
:100DA00008952F923F924F925F926F927F928F920F
:100DB0009F92AF92BF92CF92DF92EF92FF920F93EA
:100DC0001F93FC01D62EC72E342E252E808188231A
:100DD00009F466C02801390184E048165104610411
:100DE000710408F05DC0A62FB72FFD01019000200F
:100DF000E9F73197EA1BFB0BB19708F051C0A42F1C
:100E0000B52FFD0101900020E9F73197EA1BFB0B9C
:100E1000B19708F045C060E070E080E090E020E02D
:100E200030E040E050E0EE24FF2487010E94551A94
:100E3000611571058105910599F564EF71E080E018
:100E400090E00E94352BED2DFC2DDF010D90002050
:100E5000E9F78D01015010400E1B1F0BE32DF22D01
:100E6000DF010D900020E9F74D01089481089108F9
:100E70008E1A9F0A20E030E0AA24BB24C301B201ED
:100E80004D2D5C2DEE24FF24C32CD22C0E94AD1AD4
:100E900020E0611571058105910519F421E001C07B
:100EA00020E0822F1F910F91FF90EF90DF90CF9065
:100EB000BF90AF909F908F907F906F905F904F907A
:100EC0003F902F9008958F929F92AF92BF92CF92B2
:100ED000DF92EF92FF920F931F93FC01D62EC72E45
:100EE00080818823E1F160E070E080E090E020E024
:100EF00030E040E050E0EE24FF2487010E94551AC4
:100F0000611571058105910551F564EF71E080E08F
:100F100090E00E94352BED2DFC2DDF010D9000207F
:100F2000E9F78D01015010400E1B1F0B20E030E04F
:100F300060E070E080E090E04D2D5C2DEE24FF2419
:100F4000CC24DD248824992454010E94AD1A20E089
:100F5000611571058105910519F421E001C020E0BA
:100F6000822F1F910F91FF90EF90DF90CF90BF9055
:100F7000AF909F908F9008956F927F928F929F92E3
:100F8000AF92BF92CF92DF92EF92FF920F931F9397
:100F9000CF93DF93EC01962E842E722E632E8881E0
:100FA000882309F081C00E94230D8EE395E065E857
:100FB0007AE045E75AE02DE73AE007EA1AE0B2E2C4
:100FC000EB2EBEE0FB2EAEE6CA2EAAE0DA2EF3EB45
:100FD000AF2EFAE0BF2E0E940519892D90E00E94E5
:100FE000961B8820A1F460E070E080E090E020E0B3
:100FF00030E040E050E0EE24FF2487010E94551AC3
:101000006FEF70E080E090E00E94211A0FC060E076
:1010100070E080E090E020E030E040E050E0E1E08F
:10102000EE2EF12C012D112D0E94551A64E072E86C
:1010300080E090E00E9439196115710581059105E4
:10104000A9F581E08883882079F100E010E00EC0E6
:101050000E94E10B0F5F1F4F83E00A3E180731F13A
:101060006AE070E080E090E00E94352B80915403AC
:1010700081FFEECF68EE73E080E090E00E94352BB8
:101080008091540382FF10C0E72DF62DDF010D90F3
:101090000020E9F71197AE1BBF0B81E090E0672DB0
:1010A000762DAD010E943A0E81E001C080E0DF9113
:1010B000CF911F910F91FF90EF90DF90CF90BF9055
:1010C000AF909F908F907F906F900895AF92BF9256
:1010D000CF92DF92EF92FF920F931F93CF93DF9304
:1010E000FC018081882311F420E04FC08DB79EB7AA
:1010F00042970FB6F8949EBF0FBE8DBFEDB7FEB7F7
:1011000031968FEF9FE1A0E0B0E0CDB7DEB78983E5
:101110009A83AB83BC8388E89FEFAFEFBFEF8483F4
:101120009583A683B78310861186128613868CE278
:1011300091E0A0E0B0E084879587A687B78783E534
:1011400092E0918B808BCB01BA0124E130E040E04A
:1011500050E0F4E6EF2EF12C012D112DE5E0AE2E3E
:10116000B12CC12CD12C0E94921920E04DB75EB752
:101170004E5E5F4F0FB6F8945EBF0FBE4DBF611558
:1011800071058105910509F421E0822FDF91CF914E
:101190001F910F91FF90EF90DF90CF90BF90AF9095
:1011A00008957F928F929F92AF92BF92CF92DF92DB
:1011B000EF92FF920F931F93CF93DF93EC014B01BC
:1011C0005A01722E8881882309F445C0C22EDD247D
:1011D000EE24FF240E94E10BCE0140EA5FE060E0D4
:1011E00070E00E94660864E971E180E090E00E948E
:1011F000352BCE0140E050E060E070E00E946608D0
:10120000772021F0F5018081882349F4CE01B401D3
:101210000E9463078823D1F000E117E208C0CE01E5
:10122000B401A501970186010E94D106F3CF8091F8
:10123000540381FD0BC00E94E10B6AE070E080E086
:1012400090E00E94352B0A50104089F7809154039A
:1012500081FFC0CF81E0DF91CF911F910F91FF906F
:10126000EF90DF90CF90BF90AF909F908F907F9046
:101270000895CF93DF93EC01DB0112962C93129724
:1012800011965C934E93EA81FB81808113969C9129
:101290001397892B808312968C911297833011F0CB
:1012A000813031F48D8113969C911397892B8D8316
:1012B00012968C9112978150823028F48E81139669
:1012C0009C91892B8E83809168009C81892B8093CF
:1012D0006800DF91CF910895CF93DF9390E0FC01F8
:1012E000E852FE4F2491222309F445C0223019F41C
:1012F000AAE5B3E002C0A0E0B0E086549E4FFC0136
:1013000094911896CD91DC91199733C08B818917F0
:1013100069F52FB7F8941296ED91FC91139780819F
:101320009095982390831296ED91FC91139780816C
:10133000882349F49091680014968C9114978095B5
:1013400089238093680015969C9115978B818095D1
:10135000892315968C93159716969C9116978B81D9
:101360008095892316968C932FBF05C00D80DE8152
:10137000C02D209759F6DF91CF9108951F920F92BB
:101380000FB60F9211240F931F932F933F934F93F8
:101390005F936F937F938F939F93AF93BF93CF93FD
:1013A000DF93EF93FF93E0915A03F0915B03808109
:1013B00080935703509157032091610340915F033D
:1013C0009091570330916003809157038095832358
:1013D0009423892B252782239091570390936103AF
:1013E000C0916203D0916303082F10E01CC08B8171
:1013F000282F30E0C80182239323892B89F0809124
:10140000570340E090E082239323892B09F041E0C9
:10141000409359038C8180935803E881F9810995A1
:101420000D80DE81C02D209711F78BB390915E0364
:10143000892321F08BB3892B8BBBB5CFFF91EF9123
:10144000DF91CF91BF91AF919F918F917F916F91DC
:101450005F914F913F912F911F910F910F900FBE70
:101460000F901F90189510927D0480911B030E948D
:101470006C090895CF93DF930E94330A5D9A80919F
:1014800067038CBD80916603882319F08DB5816058
:1014900002C08DB58E7F8DBDC0917403D091750350
:1014A000CE57DF4F8881C258D0408E3D09F0FFCF24
:1014B00082E090E0A0E0B0E080936E0390936F0331
:1014C000A0937003B0937103E0916803F0916903F6
:1014D000CE0105960995DF91CF91089510927D0474
:1014E00080911B030E946C090895FC0110821182F7
:1014F0001282138280E090E00895FC011082118234
:101500001282138280E090E00895FC011082118223
:101510001282138280E090E00895EAEFF1E0859175
:10152000949190935B0380935A038BE690E09093A1
:101530005D0380935C0381E080935E0310925F0300
:1015400010926003109263031092620308958091D9
:101550001B030E94772C9C01442737FD4095542F94
:10156000B901CA010895882321F080911C0361E02C
:1015700003C080911C0360E00E94472C08950F93E4
:101580001F93CF93DF938C01EB0184E00E94521CE8
:1015900020E030E093E00BC09EBD0DB407FEFDCF10
:1015A0008EB5F801E20FF31F80832F5F3F4F2C179A
:1015B0003D0790F3DF91CF911F910F910895EF9226
:1015C000FF920F931F93CF93DF93C0917403D09139
:1015D00075038D81823021F0843009F047C01BC033
:1015E000CE01059663E070E00E94D1189C0140E0B6
:1015F00050E080FD05C02F5F3F4F4F4F5F4F05C04C
:10160000211531054105510589F1CE010A96B9012F
:101610000E94BF0A2BC08885282F30E040E050E0B0
:1016200079018A010894E108F10801091109DA0138
:10163000C9010996A11DB11D80FF02C079018A016F
:10164000E114F1040105110529F0CE010A96B70154
:101650000E94BF0A88E090E0A0E0B0E080936E03B3
:1016600090936F03A0937003B093710360E070E0F8
:1016700080E090E0DF91CF911F910F91FF90EF906C
:1016800008950E94DF0A611571058105910511F425
:101690000E943A0A089580917403909175036AE05C
:1016A00070E00E94BF0A089581E080937C048091DD
:1016B0006E0390916F03A0917003B0917103009736
:1016C000A105B10569F481E090E0A0E0B0E080936D
:1016D0006E0390936F03A0937003B09371036EC079
:1016E00082309105A105B10591F586E090E0A0E07A
:1016F000B0E080936E0390936F03A0937003B09358
:1017000071035D988CB5809367038DB5817080936C
:101710006603809164038CBD80916503882319F072
:101720008DB5816002C08DB58E7F8DBD0E944B0B43
:1017300088E090E0A0E0B0E080936E0390936F03A8
:10174000A0937003B09371030E94410B37C00397BD
:10175000A105B10599F560917203709173034091F1
:101760006A0350916B0320E030E00BC0FB01E20FF5
:10177000F31F80818EBD0DB407FEFDCF8EB52F5FA8
:101780003F4F2417350790F382E090E0A0E0B0E0EF
:1017900080936E0390936F03A0937003B0937103D3
:1017A0005D9A809167038CBD80916603882319F050
:1017B0008DB5816002C08DB58E7F8DBD10927C0489
:1017C000089580911B030E94772C892B51F48091FE
:1017D0007C04882331F480917D04882311F00E94D9
:1017E000540B08950F931F93CF93DF93EC018B015C
:1017F0005D988CB5809367038DB581708093660387
:10180000809164038CBD80916503882319F08DB5A8
:10181000816002C08DB58E7F8DBD61E070E080E09B
:1018200090E00E94352B20E030E0FE01E20FF31F34
:1018300080818EBD0DB407FEFDCF8EB52F5F3F4F6B
:101840002430310591F761E070E080E090E00E9483
:10185000352BB80164507040FE0120E030E009C033
:1018600084818EBD0DB407FEFDCF8EB52F5F3F4F37
:10187000319626173707A0F382E090E0A0E0B0E0B1
:1018800080936E0390936F03A0937003B0937103E2
:101890005D9A809167038CBD80916603882319F05F
:1018A0008DB5816002C08DB58E7F8DBD60E070E02A
:1018B00080E090E0DF91CF911F910F9108950F93F9
:1018C0001F93CF93DF93EC0190E060FF91E081E004
:1018D00088839B01290F311D3983960F9A831B82C0
:1018E0001C8280917B048E3D09F0FFCF80916E03B6
:1018F00090916F03A0917003B09171030097A105BF
:10190000B10509F4FFCF89010B5F1F4F0197A105B6
:10191000B10529F4CE01B8010E94F20B7DC0E0911F
:101920009204F0919304099580916E0390916F0356
:10193000A0917003B09171030297A105B10509F060
:1019400081C083E090E0A0E0B0E080936E039093CC
:101950006F03A0937003B0937103D0937303C0938C
:10196000720310936B0300936A035D988CB58093A8
:1019700067038DB5817080936603809164038CBD8D
:1019800080916503882319F08DB5816002C08DB503
:101990008E7F8DBDE0919004F09191040995E091C6
:1019A0008E04F0918F0409956115710581059105EB
:1019B00099F5609172037091730340916A0350919D
:1019C0006B0320E030E00BC0FB01E20FF31F8081CE
:1019D0008EBD0DB407FEFDCF8EB52F5F3F4F241790
:1019E000350790F382E090E0A0E0B0E080936E03D2
:1019F00090936F03A0937003B09371035D9A8091ED
:101A000067038CBD80916603882319F08DB58160D2
:101A100002C08DB58E7F8DBD80916E0390916F0356
:101A2000A0917003B09171030297A105B10549F42B
:101A300060E070E080E090E0DF91CF911F910F9126
:101A40000895FFCFFFCF80911C0361E00E940B2C13
:101A500080911C0360E00E94472C64EF71E080E0FD
:101A600090E00E94352B559A80911B0362E00E9402
:101A70000B2C8CB5809367038DB5817080936603C2
:101A80000E94681C84E00E94521C81E00E94491C54
:101A900080911E030E94571C8CB5809364038DB502
:101AA0008170809365035D9A809167038CBD8091FE
:101AB0006603882319F08DB5816002C08DB58E7FD5
:101AC0008DBD80E090E00895CF93DF9310926E0378
:101AD00010926F031092700310927103A6E7B3E0A7
:101AE00023E8ED01E22F1992EA95E9F7E9EFF3E037
:101AF000EF0119922A95E9F790936903809368039F
:101B000010926B0310926A03109273031092720387
:101B1000B0937503A093740310926D0310926C033D
:101B20008EED8093F80380937B04E0919004F09114
:101B300091040995DF91CF910895CF92DF92EF92B2
:101B4000FF920F931F93CF93DF938C01F62E6A01C0
:101B5000E22EFC01C085D185209789F08C818F15FC
:101B600041F4C801BE01A6012E2D0E94390980E072
:101B70003CC08D819E81009731F0EC01EFCF80E079
:101B800090E09C01E90187E090E00E94A02CDC013C
:101B900011961C921E9212961C921297009711F4A5
:101BA0008FEF23C01496FC9214971296EC92129722
:101BB00016961C921E921597EF2DF0E0E654FE4FFC
:101BC000E4911396EC931397F80180859185892B06
:101BD00019F4B187A08702C0BE83AD83C801BD01DF
:101BE000A6012E2D0E94390981E0DF91CF911F912E
:101BF0000F91FF90EF90DF90CF900895582F9B01A9
:101C0000742FE82FF0E0E852FE4F84918823C1F052
:101C100021153105A9F0823019F4AAE5B3E002C01C
:101C2000A0E0B0E0ED91FC911197808117968C9324
:101C30001797CD01652FA901272F0E949D0D0895AB
:101C40008FEF089581E080937D0480911B0364E50C
:101C50007BE042E050E00E94FE0D089581E0809319
:101C60007D0480911B0364E57BE042E050E00E942C
:101C7000FE0D0895CF92DF92EF92FF920F931F9384
:101C8000DF93CF930F92CDB7DEB7D62EC72E8A0142
:101C90004132510518F02FEF3FEF36C0E090840439
:101CA000F0908504AC0160E070E0C70109960E94E5
:101CB000AD1848E050E060E070E00E94AD18A80167
:101CC00060E070E00E94AD18DC018D2D9C2DFC01C0
:101CD0009F01200F311F02C081918D93E217F307FE
:101CE000D9F7402F445F81E190E1B7010E94F217DC
:101CF00081E190E1BE016F5F7F4F0E94BF17898134
:101D0000282F332727FD3095C9010F90CF91DF9100
:101D10001F910F91FF90EF90DF90CF900895CF9299
:101D2000DF92EF92FF920F931F93DF93CF9300D038
:101D300000D0CDB7DEB78B019C01F42EE52E8FEFDE
:101D40009FEFAFEFBFEF89839A83AB83BC83C090D3
:101D50008404D0908504C6010996B901A8010E94A7
:101D6000AD1848E050E060E070E00E94AD1848E037
:101D700050E060E070E00E94AD18DC018F2D9E2DD8
:101D8000FC019F01285F3F4F81918D93E217F3077C
:101D9000D9F787E090E1B60144E10E94F21787E0AD
:101DA00090E1BE016F5F7F4F0E94BF1769817A810A
:101DB0008B819C819B0120931C0530931D050F9006
:101DC0000F900F900F90CF91DF911F910F91FF9087
:101DD000EF90DF90CF900895CF92DF92EF92FF9235
:101DE0000F931F93DF93CF9300D000D0CDB7DEB712
:101DF0006B017C018FEF9FEFAFEFBFEF89839A8379
:101E0000AB83BC830091840410918504C8010996BA
:101E1000B701A6010E94AD188BE090E1B80144E043
:101E20000E94F2178BE090E1BE016F5F7F4F0E942E
:101E3000BF1789819A8190931D0580931C05C70166
:101E4000B60121E030E040E050E00E944511698198
:101E50007A818B819C810F900F900F900F90CF9182
:101E6000DF911F910F91FF90EF90DF90CF90089539
:101E70004F925F926F927F928F929F92AF92BF929A
:101E8000CF92DF92EF92FF920F931F93DF93CF9346
:101E900000D000D0CDB7DEB75B016C0139014A013B
:101EA0008FEF9FEFAFEFBFEF89839A83AB83BC8344
:101EB0004090840450908504C2010996B601A501A2
:101EC0000E94AD18B401A3010E94AD18B801A7018A
:101ED0000E94AD1881E090E1B2014CE00E94F2173F
:101EE00081E090E1BE016F5F7F4F0E94BF17698163
:101EF0007A818B819C8170931D0560931C0520E085
:101F000030E040E050E00E94451189819A810F90B5
:101F10000F900F900F90CF91DF911F910F91FF9035
:101F2000EF90DF90CF90BF90AF909F908F907F9079
:101F30006F905F904F9008959C01809196049091CE
:101F40009704A0919804B09199040097A105B10558
:101F5000B1F08091960490919704A0919804B0916B
:101F600099049C0190931D0580931C051092960482
:101F700010929704109298041092990423C0B9010A
:101F8000882777FD8095982F0E9491116115710522
:101F90008105910519F02FEF3FEF14C080919A044D
:101FA00090919B04892B19F42EEF3FEF0BC0809189
:101FB0009A0490919B04019790939B0480939A04B8
:101FC00020E030E0C90108952F923F924F925F9236
:101FD0006F927F928F929F92AF92BF92CF92DF9239
:101FE000EF92FF920F931F93DF93CF93CDB7DEB79E
:101FF0006A970FB6F894DEBF0FBECDBF1B012C0150
:102000005C8B4B8B38014901CD8ADE8AEF8AF88ED2
:10201000BA8EA98ECFA4D8A8E9A8FAA8CB010E94AD
:102020009C0F9C01009709F0CBC08091A204909175
:10203000A304A091A404B091A5040196A11DB11D13
:102040008093A2049093A304A093A404B093A50446
:1020500020918404309185043A8B298B8BA99CA90B
:10206000ADA9BEA981389105A105B105B9F08338A4
:102070009105A105B105F1F4A4019301285F3F4F3B
:102080004F4F5F4F2D873E874F87588BA988BA885F
:1020900042E250E0A40EB51E18E10CC0A988BA882F
:1020A0008AE190E0A80EB91E1A8E198ECC24DD2488
:1020B000760110E189899A890A96B201A1010E94EC
:1020C000AD18012F10E004501040A80160E070E04E
:1020D0000C5F1F4F0E94AD18B401A3010E94AD1800
:1020E0004D895E896F89788D0E94AD182BA93CA916
:1020F0004DA95EA9233831054105510561F44D858F
:102100005E856F8578890E94AD1848E050E060E0F8
:1021100070E00E94AD1820E030E040E050E00CC0DC
:10212000EB89FC89E20FF31F8081D5018D935D015E
:102130002F5F3F4F4F4F5F4F261537054805590515
:102140007CF32BA93CA94DA95EA923383105410593
:102150005105C1F420E030E040E050E00EC0F9014C
:10216000D501A20FB31F898D9A8DE80FF91F8081C9
:102170008C932F5F3F4F4F4F5F4F2C153D054E0502
:102180005F056CF38BA969897A89A8019301098D90
:102190001A8D76010E94CB17BE016F5F7F4F2BA96E
:1021A0003CA94DA95EA9233831054105510519F413
:1021B0008FE090E102C083E090E10E94BF1793019D
:1021C000C9016A960FB6F894DEBF0FBECDBFCF919E
:1021D000DF911F910F91FF90EF90DF90CF90BF9014
:1021E000AF909F908F907F906F905F904F903F90B7
:1021F0002F9008958F929F92AF92BF92CF92DF92CD
:10220000EF92FF920F931F93EDB7FEB738970FB67B
:10221000F894FEBF0FBEEDBF1182128213821482AA
:10222000B1E88B2E912CA12CB12C85829682A782AD
:10223000B086AA24BB240E94E40F2DB73EB7285FC6
:102240003F4F0FB6F8943EBF0FBE2DBF1F910F91A9
:10225000FF90EF90DF90CF90BF90AF909F908F90C6
:1022600008950F931F938C016091840470918504ED
:1022700085E090E240E00E94F21785E090E2B8012C
:102280000E94BF171F910F910895AF92BF92CF92F6
:10229000DF92EF92FF920F931F9359016A0168300A
:1022A000710581059105A0F522E0A216B104C104D3
:1022B000D10470F521E030E0062E02C0220F331F5A
:1022C0000A94E2F720953095442737FD4095542F26
:1022D000E0901502F090160200911702109118027A
:1022E0002E213F2140235123062E04C0AA0CBB1CE3
:1022F000CC1CDD1C0A94D2F72A293B294C295D29E4
:10230000209315023093160240931702509318023F
:102310001F910F91FF90EF90DF90CF90BF90AF9003
:1023200008959B01AC016830710581059105E8F4C1
:1023300081E090E002C0880F991F2A95E2F79C0186
:10234000442737FD4095542F809115029091160235
:10235000A0911702B0911802282339234A235B2346
:10236000211531054105510521F021E030E040E023
:1023700050E0B901CA0108958F929F92AF92BF9227
:10238000CF92DF92EF92FF920F931F93DF93CF9341
:10239000CDB7DEB7AA970FB6F894DEBF0FBECDBF9C
:1023A0008C0161E070E00E94D1189C016C01EE2468
:1023B000FF24D6FE6DC081E42030380709F068C0E4
:1023C000C80165E070E00E94D1184C0197E0A92E89
:1023D000B12CA00EB11EEE24FF248701CC24DD24F5
:1023E00012C0C50162E070E00E94D118A0E0B0E028
:1023F000E80EF91E0A1F1B1FA4E0B0E0AA0EBB1EC8
:102400000894C11CD11CC814D90458F380919A04B3
:1024100090919B048E0D9F1D90939B0480939A0432
:102420008091A6049091A704A091A804B091A9045A
:10243000E80EF91E0A1F1B1FE092A604F092A704E3
:102440000093A8041093A9042091A6043091A70436
:102450004091A8045091A9048091A2049091A304F2
:10246000A091A404B091A504281739074A075B0777
:1024700009F07EC18091AA04882309F479C1E09112
:102480008C04F0918D0469E970E080E090E03FC039
:10249000C60180709078892B09F4E8C0B0E820313B
:1024A0003B07C9F1E0E821313E0770F4F0E8213044
:1024B0003F0708F462C180E823303807D8F0245081
:1024C000304809F05AC116C0A0E820383A0791F008
:1024D000B0E821383B0728F42054304809F04DC1BA
:1024E0006CC0F2E820303F0729F02050384809F04E
:1024F00044C1A7C080918C0490918D04892B09F46C
:1025000037C1E0918C04F0918D04C701B60140E021
:1025100050E020E094C0F8013596D80115968C91D2
:1025200015978E8B81818F8B8281888F8381898F94
:10253000F801399619968C9119978A8F81818B8F22
:1025400082818C8F83818D8FF8013D961D968C91B1
:102550001D978E8F81818F8F828188A3838189A32C
:10256000F801719651968C9151978AA381818BA322
:1025700082818CA383818DA3F801759655968C91E9
:1025800055978EA381818FA3828188A7838189A794
:1025900014968C918AA780918C0490918D04892B3C
:1025A00009F4E6C0E0918C04F0918D04C701B601F6
:1025B000AE014A5E5F4F25E142C00B5F1F4FC8016D
:1025C00060E070E00E94DB186A837B838C839D83CC
:1025D000C80164E070E00E94DB186E837F83888707
:1025E0009987C80168E070E00E94DB186A877B87E2
:1025F0008C879D87C8016CE070E00E94DB186E87B5
:102600007F87888B998BC80160E170E00E94DB189E
:102610009B01AC0180918C0490918D04892B09F46D
:10262000A7C0E0918C04F0918D042A8B3B8B4C8BDE
:102630005D8BC701B601AE014E5F5F4F24E1099586
:1026400097C0F801058180918C0490918D04892BAD
:1026500009F48EC0E0918C04F0918D040983C701C8
:10266000B601AE014F5F5F4F21E0E9CFF3E0CF1637
:10267000F0E1DF06F0E0EF06F0E0FF0699F02FE072
:10268000C21620E1D20620E0E20620E0F20651F078
:102690008EE0C81680E1D80680E0E80680E0F80603
:1026A00009F06BC085E0C82ED12CC00ED11EC6012A
:1026B00064E070E00E94DB18675C7F4F8F4F9F4F94
:1026C00009F05BC0F801848190E0A0E0B0E0809365
:1026D000960490939704A0939804B0939904C6012C
:1026E00060E070E00E94DB187B018C01C60164E0B1
:1026F00070E00E94DB18675C7F4F8F4F9F4FC1F5E2
:1027000028E0E216F1040105110590F581E090E062
:102710000E2C02C0880F991F0A94E2F780959095BD
:10272000AA2797FDA095BA2F209115023091160285
:10273000409117025091180282239323A423B523BA
:1027400021E030E040E050E00E2C04C0220F331FA7
:10275000441F551F0A94D2F7822B932BA42BB52B21
:102760008093150290931602A0931702B09318025B
:1027700021E030E040E050E004C020E030E040E004
:1027800050E0B901CA01AA960FB6F894DEBF0FBE99
:10279000CDBFCF91DF911F910F91FF90EF90DF9010
:1027A000CF90BF90AF909F908F90089580918004BC
:1027B00090918104892BD1F0E0918204F0918304FF
:1027C0008081843099F4CF010E94BC116130710581
:1027D0008105910559F410928104109280040E94A1
:1027E0002E0E21E030E040E050E004C020E030E078
:1027F00040E050E0B901CA010895DF93CF9300D0C3
:1028000000D0CDB7DEB719821A821B821C82FC0170
:102810008581823021F1833009F43FC0813009F095
:102820005FC08091880490918904892B91F0E09198
:102830008804F0918904CE0101960995AC010097B6
:1028400041F0609184047091850429813A8181E08E
:1028500045C0609184047091850481E03BC0809103
:10286000860490918704892B91F0E0918604F09181
:102870008704CE0101960995AC01009741F0609163
:1028800084047091850429813A8182E027C0609197
:1028900084047091850482E01DC080918A04909127
:1028A0008B04892B91F0E0918A04F0918B04CE0186
:1028B00001960995AC01009741F0609184047091F4
:1028C000850429813A8183E009C060918404709174
:1028D000850483E040E050E020E030E00E941118E1
:1028E0000F900F900F900F90CF91DF9108954F921E
:1028F0005F926F927F928F929F92AF92BF92CF9290
:10290000DF92EF92FF920F931F93CF93DF936C01AF
:102910002B013A01AA24BB240E94E10B8091800480
:1029200090918104892BC1F380908204909083045C
:10293000D4018C91843009F0BDC2C40161E070E023
:102940000E94D1185C01C4010E94BC11611571057F
:102950008105910509F0A2C2E4012596B8E0AB1605
:10296000B0E1BB0608F056C0E6E0AE16E0E1BE06F8
:1029700008F0C4C0F2E0AF16F2E0BF0609F4BEC032
:1029800003E0A01602E0B00600F51DE0A116B104B8
:1029900080F468E0A616B10408F0B0C081E0A81683
:1029A000B10408F47BC297E0A916B10408F4A6C0EC
:1029B000C2C1ADE0AA16B10409F49BC0B1E0AB16E8
:1029C000B2E0BB0609F06AC294C0E3E0AE16E0E1F3
:1029D000BE0698F4F1E0AF16F0E1BF0608F08EC035
:1029E00005E0A01602E0B00608F483C017E0A116C7
:1029F00012E0B10609F052C285C064E0A61660E19B
:102A0000B60609F4C9C085E0A81680E1B80608F04A
:102A1000A0C02FC191E1A91690E1B90609F469C0DF
:102A2000A2E1AA16A0E1BA0658F5BBE0AB16B0E1E8
:102A3000BB0609F463C0ECE0AE16E0E1BE0668F444
:102A4000F9E0AF16F0E1BF0609F458C00AE0A0169D
:102A500000E1B00608F05EC127C11FE0A11610E139
:102A6000B10609F406C160E1A61660E1B60608F0F9
:102A70005AC08DE0A81680E1B80609F00FC28CC0DC
:102A800096E0A91690E2B906A1F1A7E0AA16A0E285
:102A9000BA0660F4B1E0AB16B0E2BB0608F4FEC1C2
:102AA000E5E0AE16E0E2BE0620F180C1F8E0AF1628
:102AB000F0E2BF0608F4F2C10AE0A01600E2B00698
:102AC000C0F01BE0A11610E4B10609F0E7C1D40183
:102AD00015968C9190E090939B0480939A04CE017C
:102AE00061E070E00E94D11890939D0480939C0453
:102AF000D5C1F4018481D6018C93D0C1CE0160E0B0
:102B000070E01FC0D40114968C91F60181936F017F
:102B1000CE0160E070E00E94DB18AB01BC01C60191
:102B20000E94AD18BBC1CE0160E070E00E94DB18CE
:102B3000D6016D937D938D939D936D01CE0164E0DD
:102B400070E00E94DB18F6016083718382839383B7
:102B5000A5C1CE0160E070E00E94DB18D6016D9344
:102B60007D938D939D938D01CE0164E070E00E9472
:102B7000DB18F6016483758386839783E4E0CE2EA9
:102B8000D12CC00ED11ED601FE01389680E10190F5
:102B90000D928150E1F782C1CE0160E070E00E94A9
:102BA000DB18D6016D937D938D939D938D01CE019E
:102BB00064E070E00E94DB18F6016483758386830D
:102BC000978374E0C72ED12CC00ED11ECE0168E0D1
:102BD00070E00E94DB189B01AC01D80114966D9344
:102BE0007D938D939C931797F60184819581A6819F
:102BF000B781875C9F4FAF4FBF4F09F04FC128305F
:102C000031054105510508F049C1822F21E030E02E
:102C1000082E02C0220F331F0A94E2F72095309548
:102C2000442737FD4095542FE0901502F09016028E
:102C300000911702109118022E213F2140235123A9
:102C400061E0E62EF12C012D112D04C0EE0CFF1CCD
:102C5000001F111F8A95D2F72E293F29402B512B97
:102C600020931502309316024093170250931802D6
:102C700015C1CE0160E070E00E94DB18D6016D93B3
:102C80007D938D939D938D01CE0164E070E00E9451
:102C9000DB18F601648375838683978354E0C52E21
:102CA000D12CC00ED11EFAC0CE0160E070E00E94AF
:102CB000DB18D6016D937D938D939D938D01CE018D
:102CC00064E070E00E94DB18F601648375838683FC
:102CD000978344E0E42EF12CE00EF11ECE0168E073
:102CE00070E00E94DB18D80114966D937D938D934C
:102CF0009C93179734E0C32ED12CCE0CDF1CCE0151
:102D00006CE070E00E94DB18F701648375838683B2
:102D10009783C4C0D40114968C911497F6018483D0
:102D200015968D919D910D90BC91A02D80839183DE
:102D3000A283B383B3C0CE0160E070E00E94DB18D1
:102D4000D6016D937D938D939D938D01CE0164E0AB
:102D500070E00E94DB18F601648375838683978395
:102D6000CE0168E070E00E94D118A0E0B0E0F80168
:102D700084839583A683B783CE016AE070E00E94C6
:102D8000D118A0E0B0E0F60182879387A487B587C9
:102D90002CE0E22EF12CCE0CDF1CD601FE013C967D
:102DA00086E201900D928150E1F778C0D40115962A
:102DB0008C91F60181938981D60111968C938A8139
:102DC00081838B81828396012C5F3F4FDE011496B5
:102DD0008C81F601848311968C91119785831296CC
:102DE0008C911297868313968C9113978783A901F0
:102DF0004C5F5F4FFD01349614968C91D901149667
:102E00008C938181D60119968C93199782811A9699
:102E10008C931A9783811B968C93DF01149684817F
:102E2000FA01848311968C911197F6018587129689
:102E30008C911297868713968C9113978787FD0143
:102E4000349614968C91DA0118968C938181D9016D
:102E50001D968C931D9782811E968C931E9783815D
:102E60001F968C93E4019601F401D601A4014A5FF8
:102E70005F4F818D54968C93549731961196E41739
:102E8000F507B9F7A401405E5F4F8F8DF901828F7E
:102E900021962F5F3F4FC417D507B9F780917E0465
:102EA00090917F04A816B906B9F510927F0410928C
:102EB0007E0432C0D40112960C91C40163E070E02C
:102EC0000E94D118EC0141145104A1F0C4010596EF
:102ED00064E070E00E94DB18462FF3016083718389
:102EE0008283938394012B5E3F4FC201B90150E06E
:102EF0000E944036202F30E0FE01E21BF30B2B5FD7
:102F00003F4F280D391DC601B901AF010E9440365F
:102F10001092A1041092A0041092810410928004D7
:102F20000E942E0ED4018C91843041F4B0E0AB1697
:102F3000B0E1BB0619F4C4010E94FD1380917E0428
:102F400090917F04892B09F0E7CC8091A0049091A7
:102F5000A104892B09F0E0CC80E090E0DF91CF91D3
:102F60001F910F91FF90EF90DF90CF90BF90AF90A7
:102F70009F908F907F906F905F904F900895909367
:102F80007F0480937E04CB0160E070E040E050E07D
:102F90000E9477140895CF92DF92EF92FF920F93E1
:102FA0001F936B01890192E0FB0195838683478320
:102FB000040F151F0E0D1F1DCB010896B8010E94AE
:102FC000C9180B5F1F4FC601B8010E945F0C60E07B
:102FD00070E080E090E01F910F91FF90EF90DF9004
:102FE000CF900895EF92FF920F931F939C017B0166
:102FF000042F81E0FB018583CB010696B9010E9475
:10300000C918FC01008310E00C5F1F4FC701B80115
:103010000E945F0C80E090E01F910F91FF90EF9075
:1030200008954F925F926F927F928F929F92AF928C
:10303000BF92CF92DF92EF92FF920F931F93CF93A5
:10304000DF936B014A01E90145E0442E512C460E05
:10305000571E93E0FB019583868337E0632E712C26
:10306000660E771E8E010E5F1F4FC301B8010E94CE
:10307000C9187C012BE0A22EB12CAC0CBD1CF3E0D6
:10308000C93EDF0790F4BE010E94C918C701BE0106
:103090000E94C918C501B401AE010E9440362696AF
:1030A000C601BE010E945F0C47C0CE0168EE73E00E
:1030B0000E94E535660F771F060F171FC701B8017D
:1030C0000E94C918C70168EE73E00E94C918D501B3
:1030D000F40188EE93E001900D920197E1F78E01E3
:1030E000085E134088EEE82E83E0F82EE80CF91C09
:1030F000C6016EEE73E01BC00E94E10B83E0093E47
:10310000180720F4E80100E010E004C0085E134056
:10311000C8EED3E0F201D183C083C301B701AE0191
:103120000E944036EC0EFD1E2296C201BE010E9496
:103130005F0C0115110501F7DF91CF911F910F91E0
:10314000FF90EF90DF90CF90BF90AF909F908F90C7
:103150007F906F905F904F900895CF93DF93FC0125
:10316000DC014D939D01BB27A72F962F852F8183CF
:10317000F9013196CB01AA27BB27E9018983472FA3
:1031800055276627772741833296CF01DF91CF916C
:103190000895DC01FC01619311967C933196CF0177
:1031A0000895FB01E80FF91F318120E08081280F8D
:1031B000311DC9010895FB01E80FF91F238130E09B
:1031C00040E050E0522F442733272227828190E0AD
:1031D000A0E0B0E0DC0199278827280F391F4A1F9B
:1031E0005B1F8081280F311D411D511D818190E0A1
:1031F000A0E0B0E0BA2FA92F982F8827280F391FF9
:103200004A1F5B1FB901CA010895AF92BF92CF92C6
:10321000DF92EF92FF920F931F9370938704609356
:103220008604509389044093880430938B04209340
:103230008A0410938F0400938E04F0929104E0921C
:103240009004D0929304C0929204B0929504A092FC
:10325000940490938D0480938C0481E08093AA045D
:103260001F910F91FF90EF90DF90CF90BF90AF90A4
:1032700008950F931F93DF93CF9300D000D0CDB765
:10328000DEB7AB01BC01DB01CA0188709078A07089
:10329000B07088509048A040B040A9F41092AA04A1
:1032A000483080E8580780E0680780E0780729F414
:1032B00020E030E040E050E02AC0477F5F77607058
:1032C0007070506803C081E08093AA048FEF9FEF75
:1032D000AFEFBFEF89839A83AB83BC8300918404F3
:1032E00010918504C80109960E94AD1888E090E00D
:1032F000B80144E00E94F21788E090E0BE016F5FE1
:103300007F4F0E94BF1729813A814B815C81B901AF
:10331000CA010F900F900F900F90CF91DF911F91E6
:103320000F9108952F923F924F925F926F927F92EA
:103330008F929F92AF92BF92CF92DF92EF92FF92C5
:103340000F931F93DF93CF93CDB7DEB728970FB6B8
:10335000F894DEBF0FBECDBF3B014C0119012A011D
:103360008DA58F839EA59887809184049091850474
:103370009E838D83099644E250E060E070E00E94F5
:10338000AD18B401A3010E94AD18B201A1010E94C1
:10339000AD18B801A7010E94AD18B601A5010E94A1
:1033A000AD184D8D5E8D6F8D78A10E94AD1849A12D
:1033B0005AA16BA17CA10E94AD184DA15EA16FA185
:1033C00078A50E94AD1849A55AA56BA57CA50E94B9
:1033D000AD18DC018F819885FC019F01205C3F4F77
:1033E00002C081918D93E217F307D9F783E090E053
:1033F0006D817E8144E60E94F21783E090E0BE0179
:103400006F5F7F4F0E94BF1769817A818B819C819A
:1034100028960FB6F894DEBF0FBECDBFCF91DF91D7
:103420001F910F91FF90EF90DF90CF90BF90AF90E2
:103430009F908F907F906F905F904F903F902F90D4
:1034400008950F931F93DF93CF9300D000D0CDB793
:10345000DEB7AB01BC010091840410918504C80162
:1034600009960E94AD188FEF9FEFAFEFBFEF8983F2
:103470009A83AB83BC8386E090E0B80144E00E946D
:10348000F21786E090E0BE016F5F7F4F0E94BF178A
:1034900069817A818B819C810F900F900F900F90A2
:1034A000CF91DF911F910F9108954F925F926F928C
:1034B0007F928F929F92AF92BF92CF92DF92EF92C4
:1034C000FF920F931F93DF93CF9300D000D0CDB71F
:1034D000DEB75B016C0139014A018FEF9FEFAFEF5F
:1034E000BFEF89839A83AB83BC8340908404509060
:1034F0008504C2010996B601A5010E94AD18B40168
:10350000A3010E94AD18B801A7010E94AD1884E084
:1035100090E0B2014CE00E94F21784E090E0BE011E
:103520006F5F7F4F0E94BF1769817A818B819C8179
:103530000F900F900F900F90CF91DF911F910F91EF
:10354000FF90EF90DF90CF90BF90AF909F908F90C3
:103550007F906F905F904F9008952F923F924F927F
:103560005F926F927F928F929F92AF92BF92CF9213
:10357000DF92EF92FF920F931F93DF93CF93CDB71C
:10358000DEB760970FB6F894DEBF0FBECDBF2B013C
:103590003C015C874B870D871E872F87388B160170
:1035A0008E010B5F1F4F86E0D8011D928A95E9F7C7
:1035B0008FEF9FEFAFEFBFEF89839A83AB83BC831D
:1035C000C0908404D0908504C60109964CE150E077
:1035D00060E070E00E94AD184D855E856F8578894A
:1035E0000E94AD18B301A2010E94AD184D855E8501
:1035F0006F857889405F5F4F6F4F7F4F0E94AD1896
:10360000B501A4010E94AD1860E070E00E94C918E5
:10361000DC01E114F10481F0AC0120E030E0F701BD
:10362000E20FF31F8081FA018193AF012F5F3F4FBB
:1036300026303105A1F70EC0B8019C01AE01455FEF
:103640005F4FFB018191BF01F90181939F016417D5
:103650007507B9F7BD016A5F7F4F20E030E040E0B9
:1036600050E00CC0EB85FC85E20FF31F8081DB018D
:103670008D93BD012F5F3F4F4F4F5F4F8D859E85CF
:10368000AF85B889281739074A075B075CF38114AF
:103690009104A104B104C9F021143104B1F020E077
:1036A00030E040E050E00CC0F901DB01A20FB31F95
:1036B000E20DF31D80818C932F5F3F4F4F4F5F4F83
:1036C000281539054A055B057CF34D85445E480D98
:1036D00081E090E0B6010E94F21781E090E0BE0127
:1036E0006F5F7F4F0E94BF1769817A818B819C81B8
:1036F0009B0120931C0530931D0560960FB6F8942E
:10370000DEBF0FBECDBFCF91DF911F910F91FF9014
:10371000EF90DF90CF90BF90AF909F908F907F9071
:103720006F905F904F903F902F900895CF92DF92CF
:10373000EF92FF920F931F93D82EC92E1092A204DE
:103740001092A3041092A4041092A5041092A6044F
:103750001092A7041092A8041092A90410927F045A
:1037600010927E0410929B0410929A0410929D0471
:1037700010929C0410929F0410929E041092A10437
:103780001092A0041092960410929704109298043C
:103790001092990410928104109280041092830474
:1037A0001092820489EF93E09093850480938404BF
:1037B0008CE39CE10E94640DE0918E04F0918F04F3
:1037C00009957B018C01E0919404F091950481E0CE
:1037D0000995E114F1040105110559F0E0918E04F9
:1037E000F0918F0409956115710581059105B1F777
:1037F00014C0E0918E04F0918F0409956115710554
:1038000081059105B1F3E0918E04F0918F04099543
:103810006115710581059105B1F7E0918404F0917E
:1038200085048D2D9C2D9C012330310510F022E064
:1038300030E0218780E090E4BF0141E00E94F21770
:1038400080E090E460E070E00E94BF176091840423
:10385000709185048BE090E440E00E94F2178BE0C9
:1038600090E460E070E00E94BF171F910F91FF90FD
:10387000EF90DF90CF90089521E030E03093810405
:103880002093800490938304809382040E94D61333
:103890000895882319F48CB5806202C08CB58F7DA1
:1038A0008CBD08959CB5937F982B9CBD08952CB535
:1038B000382F33702C7F322B3CBD2DB590E0959581
:1038C00087959595879581702E7F822B8DBD089564
:1038D00081E161E00E94472C81E161E00E940B2CB4
:1038E0008CB580618CBD8CB580648CBD8FE061E04F
:1038F0000E940B2C80E161E00E940B2C0895FC01DA
:103900001092BC00662319F08BB1836002C08BB1AA
:103910008C7F8BB91092B9009F01442737FD4095E9
:10392000542F60E87EE380E090E00E941B36205137
:10393000304040405040CA01B90122E030E040E050
:1039400050E00E941B362093B80084E08093BC00B6
:103950000895482F440F92E064EB54E86093BC0054
:103960002AEF30E08091BC0087FD34C02150304008
:103970008FEF2F3F3807B1F727C08091B900887FBC
:10398000883021F0803111F082E008954093BB002F
:103990005093BC002AEF30E08091BC0087FD1EC030
:1039A000215030408FEF2F3F3807B1F70FC0809183
:1039B000B900887F803221F4992351F09150CECF05
:1039C000883131F480E0089581E0089583E008951E
:1039D00084E008951216130684F2F6CF1216130629
:1039E00034F3F4CFEF92FF920F931F93162FE42E30
:1039F000022FF32E0E94A91C1093BB0084E8809331
:103A0000BC002AEF30E08091BC0087FD07C0215048
:103A100030408FEF2F3F3807B1F703C0121613065F
:103A20003CF0802F9F2D9C01F90190E044E81CC0E0
:103A30008091B900F6CF80818093BB004093BC0099
:103A40002AEF30E08091BC0087FD07C02150304054
:103A50008FEF2F3F3807B1F705C01216130614F485
:103A60008091B9009F5F31969E1528F384E9809379
:103A7000BC002AEF30E08091BC0087FD06C0211514
:103A8000310519F021503040F6CF81E01F910F91A0
:103A9000FF90EF900895DF93CF930F92CDB7DEB7ED
:103AA000498341E09E012F5F3F4F0E94F21C0F901F
:103AB000CF91DF9108951F93F82F122F72E0B4EB8E
:103AC000E82FEE7FA4E8B093BC002AEF30E08091AD
:103AD000BC0087FDD0C0215030408FEF2F3F38070A
:103AE000B1F7B7C08091B900887F883021F080316C
:103AF00011F091E1BDC0E093BB00A093BC002AEFA0
:103B000030E08091BC0087FDBBC0215030408FEF7A
:103B10002F3F3807B1F79FC09091B900987F90323E
:103B200029F4772309F499C07150CDCF983109F069
:103B300094C06093BB0084E88093BC002AEF30E01F
:103B40008091BC0087FDA1C0215030408FEF2F3FF6
:103B50003807B1F784C08091B900887F883211F0AE
:103B600095E186C062E0A4EB7F2F7160E4E8A0934A
:103B7000BC002AEF30E08091BC0087FD8BC0215053
:103B800030408FEF2F3F3807B1F76BC08091B900FD
:103B9000887F883021F0803111F097E169C07093FF
:103BA000BB00E093BC002AEF30E08091BC0087FDB1
:103BB00076C0215030408FEF2F3F3807B1F758C003
:103BC0008091B900887F883429F4662309F44BC0BA
:103BD0006150CDCF803409F046C0FA0160E0412F3A
:103BE00050E041505040A4EC74E822C0862F90E091
:103BF0008417950719F47093BC0002C0A093BC0011
:103C00002AEF30E08091BC0087FD4EC0215030404B
:103C10008FEF2F3F3807B1F728C09091B900987FF8
:103C2000903511F0983521F58091BB0081936F5F3D
:103C30006117E0F284E98093BC002AEF30E08091C4
:103C4000BC0087FD14C02115310589F0215030409A
:103C5000F6CF90E10DC092E10BC093E109C094E171
:103C600007C096E105C099E103C09AE101C090E068
:103C7000892F1F910895121613060CF433CFE9CF44
:103C8000121613060CF448CFE6CF121613060CF4E6
:103C900062CFE5CF121613060CF478CFE2CF1216DE
:103CA00013060CF48DCFE4CF121613060CF4B5CF27
:103CB000DCCF7F928F929F92AF92BF92CF92DF9292
:103CC000EF92FF920F931F93CF93DF93F82EE62E80
:103CD000742E6901E8010E94042B4B015C018F2DB9
:103CE000880F6E2DA601272D0E945B1D882311F0E1
:103CF0001FEF01C0172D2097C1F00E94042B6819F7
:103D000079098A099B099E0140E050E06217730718
:103D10008407950750F0212F332727FD3095872DF5
:103D200090E0281739070CF41FEF812FDF91CF9116
:103D30001F910F91FF90EF90DF90CF90BF90AF90C9
:103D40009F908F907F9008950F931F93FA018901A0
:103D500041E09F010E94591E1F910F910895DF922B
:103D6000EF92FF920F931F93DF93CF930F92CDB7F4
:103D7000DEB7E82ED62EF42E122F209119023091A4
:103D80001A02AE014F5F5F4F0E94A41E882341F1CB
:103D9000212F30E04F2D50E04F5F5F4F421B530B00
:103DA00081E090E002C0880F991F1A95E2F7019711
:103DB000042E02C0880F991F0A94E2F7202F30E0EA
:103DC00002C0220F331F4A95E2F7482F40955981D0
:103DD00045238223482B49838E2D6D2D0E944B1D38
:103DE0000F90CF91DF911F910F91FF90EF90DF9097
:103DF0000895EF92FF920F931F93DF93CF930F924B
:103E0000CDB7DEB7F82EE62E042F122F209119021F
:103E100030911A02AE014F5F5F4F0E94A41E2981AC
:103E2000112351F081E090E002C0880F991F0A959C
:103E3000E2F7422F482B0AC081E090E002C0880FD1
:103E4000991F0A95E2F7482F4095422349838F2D09
:103E50006E2D0E944B1D0F90CF91DF911F910F91FE
:103E6000FF90EF900895AF92BF92CF92DF92EF92C2
:103E7000FF920F931F936C017B0182E0A82EB12C5F
:103E8000A60EB71E0091190210911A02FB01818142
:103E900068EA46E095010E94591EF701628173812C
:103EA000882777FD8095982F0E9477349B01AC017D
:103EB000F70160857185828593850E942735F6011B
:103EC000648F758F868F978FF50162817381882744
:103ED00077FD8095982F0E9477349B01AC01F70104
:103EE00060857185828593850E942735F60160A3E0
:103EF00071A382A393A3F70166817781882777FD59
:103F00008095982F0E9477349B01AC01F701608562
:103F10007185828593850E942735F60164A375A378
:103F200086A397A30091190210911A02F7018181CB
:103F300068E846E095010E94591EF701628173818D
:103F4000882777FD8095982F0E9477349B01AC01DC
:103F5000F70164857585868597850E942735F6016A
:103F6000608B718B828B938BF501628173818827C3
:103F700077FD8095982F0E9477349B01AC01F70163
:103F800064857585868597850E942735F601648B43
:103F9000758B868B978BF70166817781882777FDF4
:103FA0008095982F0E9477349B01AC01F7016485BE
:103FB0007585868597850E942735F601608F718FFC
:103FC000828F938F0091190210911A02F70180815C
:103FD00068EA46E095010E94591EF70162817381EB
:103FE000882777FD8095982F0E947734F7012089E4
:103FF0003189428953890E9427352BED3FE049E4FE
:1040000050E40E94273520E030E044E353E40E946E
:104010000D34F6016483758386839783F50162818D
:104020007381882777FD8095982F0E947734F70158
:1040300020893189428953890E9427352BED3FE041
:1040400049E450E40E94273520E030E044E353E4A3
:104050000E940D34F6016087718782879387F7018C
:1040600066817781882777FD8095982F0E94773425
:10407000F70120893189428953890E9427352BED28
:104080003FE049E450E40E94273520E030E044E37B
:1040900053E40E940D34F6016487758786879787FD
:1040A0000091190210911A02F701818166EA46E037
:1040B00095010E94591EF70162817381882777FD5F
:1040C0008095982F0E94773420E030E048E454E453
:1040D0000E940D34F60160A771A782A793A7C601BD
:1040E0001F910F91FF90EF90DF90CF90BF90AF9016
:1040F0000895FC01262F808164E244E00E94F91EAD
:1041000008950F93CF93DF93EC01FB0161307105AC
:1041100099F06230710524F46115710541F01EC0FB
:104120006230710571F063307105C1F40FC08CEA23
:1041300095ECA7EAB8E30EC08CEA95ECA7E2B9E3E8
:1041400009C08CEA95ECA7EAB9E304C082E898EAD2
:10415000ABEFB9E38C879D87AE87BF87898165E226
:1041600046E022E00E2F0E94AF1EDF91CF910F910B
:1041700008950F93062FFC01818164E243E023E060
:104180000E94AF1E0F9108950F93CF93DF93EC0120
:10419000FB0162307105D9F0633071053CF46115A3
:1041A000710559F06130710521F50CC0633071055E
:1041B00099F064307105E9F414C08EE99EEDACE12C
:1041C000BAE313C08EE99EEDACE9BAE30EC08DEE02
:1041D0009DE4ABEEBAE309C08EE99EEDACE1BBE332
:1041E00004C08DEE9DE4ABEEBBE388879987AA8778
:1041F000BB87898161E245E023E00E2F0E94AF1E5C
:10420000DF91CF910F9108950F93062FFC018181CB
:1042100061E247E022E00E94AF1E0F9108950F93E4
:10422000062FFC01818160E247E024E00E94AF1E7E
:104230000F9108950F931F93CF93DF93EC01162FE7
:10424000613011F0633019F4CE0161E001C060E02B
:104250000E947920888164E241E022E0012F0E94DF
:10426000AF1E888164E243E022E00E94AF1EDF912E
:10427000CF911F910F9108950F93FC016A3F710533
:1042800051F489E29CE5AFE0BCE3808B918BA28B7B
:10429000B38B00E016C0645F714051F489E29CE585
:1042A000AFE8BCE3808B918BA28BB38B01E009C09C
:1042B00089E29CE5AFE8BDE3808B918BA28BB38B49
:1042C00002E0808163E245E022E00E94AF1E0F9190
:1042D00008950F93FC01062F808160E245E022E003
:1042E0000E94AF1E0F9108950F93FC01062F80814D
:1042F00060E247E022E00E94AF1E0F9108950F9305
:104300001F938C01AC014E5F5F4F209119023091D9
:104310001A02FC0181816FE00E94A41EF8018281D3
:104320001F910F9108950F931F938C01AC014E5F65
:104330005F4F2091190230911A02FC0180816FE0D9
:104340000E94A41EF80182811F910F910895CF93BE
:10435000DF93EC010E949321843D11F090E007C0AF
:10436000CE010E947F2190E0893409F491E0892FE9
:10437000DF91CF9108950F931F938C01FC018081F1
:1043800060E24FE00E944B1DF801808161E240E055
:104390000E944B1DF801808162E240E00E944B1DAB
:1043A000F801808163E240E80E944B1DF8018081A2
:1043B00064E240E00E944B1DF80181816FE140E022
:1043C0000E944B1DF801818160E24FE60E944B1D67
:1043D000F801818161E240E00E944B1DF80181817A
:1043E00062E240E00E944B1DF801818163E240E8F7
:1043F0000E944B1DF801818164E240E90E944B1D3F
:10440000F801818165E240E20E944B1DF801818143
:1044100066E240E00E944B1D8EE99EEDACE1BAE3FE
:10442000F80180879187A287B3878CEA95ECA7E291
:10443000B9E384879587A687B78789E29CE5AFE0D3
:10444000BCE3808B918BA28BB38B1F910F9108954E
:104450000F931F938C018AE6F80180838EE181839C
:1044600080E991E061E00E947F1CC8010E94BB21AD
:104470001F910F9108952F923F924F925F926F92EA
:104480007F928F929F92AF92BF92CF92DF92EF92E4
:10449000FF920F931F93DF93CF93CDB7DEB7C85A28
:1044A000D0400FB6F894DEBF0FBECDBF698B7A8BBC
:1044B0008B8B9C8B2D8B3E8B4F8B588FC354DF4F38
:1044C000288039804A805B80CD5BD04080911F027C
:1044D00090912002A0912102B09122028D879E87A7
:1044E000AF87B88B8091230290912402A09125027E
:1044F000B091260289879A87AB87BC876D857E85B8
:104500008F85988929853A854B855C850E9427355A
:10451000698F7A8F8B8F9C8F8091270290912802D0
:10452000A0912902B0912A028D839E83AF83B88720
:104530006D857E858F8598892D813E814F81588537
:104540000E9427356D8F7E8F8F8F98A380912B02CD
:1045500090912C02A0912D02B0912E0289839A8312
:10456000AB83BC836D857E858F85988929813A814F
:104570004B815C810E94273569A37AA38BA39CA3FE
:1045800069857A858B859C859B01AC010E942735C6
:104590006DA37EA38FA398A769857A858B859C855B
:1045A0002D813E814F8158850E94273569A77AA7C2
:1045B0008BA79CA769857A858B859C8529813A8103
:1045C0004B815C810E9427356DA77EA78FA798AB92
:1045D0006D817E818F8198859B01AC010E9427357A
:1045E00069AB7AAB8BAB9CAB6D817E818F819885FB
:1045F00029813A814B815C810E9427356DAB7EAB6E
:104600008FAB98AF69817A818B819C819B01AC01D2
:104610000E94273569AF7AAF8BAF9CAFC601B50159
:10462000A60195010E9427353B014C01C201B10151
:10463000A20191010E9427359B01AC01C401B30185
:104640000E94A9333B014C01CF53DF4F6881798130
:104650008A819B81C15CD0409B01AC010E942735BF
:104660009B01AC01C401B3010E94A9330E948E35A5
:104670003B014C01C601B501A40193010E940D3418
:1046800021966CAF7DAF8EAF9FAF2197C201B10174
:10469000A40193010E940D3425966CAF7DAF8EAFBF
:1046A0009FAF2597CF53DF4F688179818A819B81A6
:1046B000C15CD040A40193010E940D3429966CAFD7
:1046C0007DAF8EAF9FAF2997CB53DF4F6881798144
:1046D0008A819B81C55CD0409B01AC010E9427353B
:1046E0005B016C01C753DF4F688179818A819B81AF
:1046F000C95CD0409B01AC010E9427359B01AC01F5
:10470000C601B5010E94A9335B016C01C353DF4FA1
:10471000688179818A819B81CD5CD0409B01AC010D
:104720000E9427359B01AC01C601B5010E94A93347
:104730000E948E355B016C01CB53DF4F688179811C
:104740008A819B81C55CD040A60195010E940D34F1
:104750002D966CAF7DAF8EAF9FAF2D97C753DF4FB8
:10476000688179818A819B81C95CD040A6019501CD
:104770000E940D3461966CAF7DAF8EAF9FAF619795
:10478000C353DF4F688179818A819B81CD5CD040A2
:10479000A60195010E940D3465966CAF7DAF8EAF7A
:1047A0009FAF65972D966CAD7DAD8EAD9FAD2D976E
:1047B0009B01AC010E94A93369966CAF7DAF8EAFAF
:1047C0009FAF699760E070E080E09FE329A93AA974
:1047D0004BA95CA90E94A83329AD3AAD4BAD5CADA5
:1047E0000E94A8336D966CAF7DAF8EAF9FAF6D9773
:1047F00061966CAD7DAD8EAD9FAD61979B01AC01B7
:104800000E94A933A1966CAF7DAF8EAF9FAFA197E9
:1048100069A57AA58BA59CA529A13AA14BA15CA16C
:104820000E94A833A5966CAF7DAF8EAF9FAFA597C2
:1048300065966CAD7DAD8EAD9FAD65979B01AC016E
:104840000E94A933A9966CAF7DAF8EAF9FAFA99799
:104850006DA57EA58FA598A92D8D3E8D4F8D58A154
:104860000E94A933AD966CAF7DAF8EAF9FAFAD9771
:1048700069966CAD7DAD8EAD9FAD69976D962CAD93
:104880003DAD4EAD5FAD6D970E9427355B016C016C
:10489000A1966CAD7DAD8EAD9FADA197A5962CADCB
:1048A0003DAD4EAD5FADA5970E9427359B01AC0194
:1048B000C601B5010E94A9335B016C01A9966CADDC
:1048C0007DAD8EAD9FADA997AD962CAD3DAD4EADF6
:1048D0005FADAD970E9427359B01AC01C601B501C4
:1048E0000E94A933E1966CAF7DAF8EAF9FAFE19789
:1048F00060E070E080E09FE32DA13EA14FA158A5AC
:104900000E94A8331B012C0169A57AA58BA59CA543
:1049100029A13AA14BA15CA10E94A9339B01AC0142
:1049200069966CAD7DAD8EAD9FAD69970E942735C0
:104930005B016C01C201B10129AD3AAD4BAD5CAD7B
:104940000E94A8339B01AC01A1966CAD7DAD8EADEC
:104950009FADA1970E9427359B01AC01C601B5010F
:104960000E94A9335B016C016DA97EA98FA998AD46
:10497000298D3A8D4B8D5C8D0E94A8339B01AC0133
:10498000A9966CAD7DAD8EAD9FADA9970E942735E0
:104990009B01AC01C601B5010E94A9333B014C014A
:1049A0006DA57EA58FA598A92D8D3E8D4F8D58A103
:1049B0000E94A833E5966CAF7DAF8EAF9FAFE597B1
:1049C0006DA97EA98FA998AD298D3A8D4B8D5C8DEF
:1049D0000E94A933E9966CAF7DAF8EAF9FAFE99788
:1049E000C201B10129A93AA94BA95CA90E94A83327
:1049F000ED966CAF7DAF8EAF9FAFED97E1966CAD4E
:104A00007DAD8EAD9FADE1979B01AC010E94273536
:104A10005B016C01C401B301A40193010E9427351D
:104A20009B01AC01C601B5010E94A9330E948E35DD
:104A30005B016C01E5966CAD7DAD8EAD9FADE597EC
:104A40009B01AC010E94A933C358DF4F688379836F
:104A50008A839B83CD57D040E9966CAD7DAD8EADFA
:104A60009FADE9979B01AC010E94A933CF57DF4F5F
:104A7000688379838A839B83C158D0406D857E8506
:104A80008F8598899B01AC010E9427352DA13EA1FD
:104A90004FA158A50E94A83329A93AA94BA95CA9FE
:104AA0000E94A83329AD3AAD4BAD5CAD0E94A9334D
:104AB000CB57DF4F688379838A839B83C558D04067
:104AC000C601B501A60195010E94A9331B012C0165
:104AD00069966CAD7DAD8EAD9FAD6997E5962CADB9
:104AE0003DAD4EAD5FADE5970E9427355B016C0192
:104AF000A1966CAD7DAD8EAD9FADA197E9962CAD25
:104B00003DAD4EAD5FADE9970E9427359B01AC01ED
:104B1000C601B5010E94A9335B016C01A9966CAD79
:104B20007DAD8EAD9FADA997ED962CAD3DAD4EAD53
:104B30005FADED970E9427359B01AC01C601B50121
:104B40000E94A9339B01AC010E94A9333B014C0197
:104B5000C201B1016D962CAD3DAD4EAD5FAD6D970F
:104B60000E9427355B016C01C401B301E5962CADB1
:104B70003DAD4EAD5FADE5970E9427359B01AC0181
:104B8000C601B5010E94A933C757DF4F68837983F7
:104B90008A839B83C958D040C201B101A5962CAD30
:104BA0003DAD4EAD5FADA5970E9427355B016C0111
:104BB000C401B301E9962CAD3DAD4EAD5FADE997B3
:104BC0000E9427359B01AC01C601B5010E94A933A3
:104BD000C357DF4F688379838A839B83CD58D04046
:104BE000C201B101AD962CAD3DAD4EAD5FADAD97FF
:104BF0000E9427355B016C01C401B301ED962CAD19
:104C00003DAD4EAD5FADED970E9427359B01AC01E8
:104C1000C601B5010E94A9331B012C0125966CAD7C
:104C20007DAD8EAD9FAD2597CB57DF4F2881398164
:104C30004A815B81C558D0400E9427355B016C01D9
:104C400029966CAD7DAD8EAD9FAD2997CF57DF4FC7
:104C5000288139814A815B81C158D0400E94273523
:104C60009B01AC01C601B5010E94A8333B014C0178
:104C700061966CAD7DAD8EAD9FAD6197A201910146
:104C80000E9427355B016C0165966CAD7DAD8EADE4
:104C90009FAD6597C357DF4F288139814A815B817A
:104CA000CD58D0400E9427359B01AC01C601B5010B
:104CB0000E94A8339B01AC01C401B3010E94A93337
:104CC000CF56DF4F688379838A839B83C159D04055
:104CD00029966CAD7DAD8EAD9FAD2997C358DF4F42
:104CE000288139814A815B81CD57D0400E94273588
:104CF0005B016C0121966CAD7DAD8EAD9FAD2197B2
:104D0000CB57DF4F288139814A815B81C558D0401C
:104D10000E9427359B01AC01C601B5010E94A83352
:104D20003B014C0165966CAD7DAD8EAD9FAD659739
:104D3000C757DF4F288139814A815B81C958D040EC
:104D40000E9427355B016C012D966CAD7DAD8EAD5B
:104D50009FAD2D97A20191010E9427359B01AC01C7
:104D6000C601B5010E94A8339B01AC01C401B30187
:104D70000E94A9331B012C0121966CAD7DAD8EAD37
:104D80009FAD2197CF57DF4F288139814A815B81C1
:104D9000C158D0400E9427355B016C0125966CAD4F
:104DA0007DAD8EAD9FAD2597C358DF4F28813981EA
:104DB0004A815B81CD57D0400E9427359B01AC01D1
:104DC000C601B5010E94A8333B014C012D966CAD84
:104DD0007DAD8EAD9FAD2D97C357DF4F28813981B3
:104DE0004A815B81CD58D0400E9427355B016C0120
:104DF00061966CAD7DAD8EAD9FAD6197C757DF4FAE
:104E0000288139814A815B81C958D0400E94273569
:104E10009B01AC01C601B5010E94A8339B01AC0106
:104E2000C401B3010E94A9335B016C01CF56DF4F6F
:104E3000688179818A819B81C159D0402AE037ED10
:104E400043EA5BE30E94273520912F023091300224
:104E500040913102509132020E94A9333B014C0132
:104E600060932F027093300280933102909332024C
:104E7000C201B1012AE037ED43EA5BE30E94273526
:104E80002091330230913402409135025091360224
:104E90000E94A933CB56DF4F688379838A839B8333
:104EA000C559D04060933302709334028093350229
:104EB00090933602C601B5012AE037ED43EA5BE381
:104EC0000E942735209137023091380240913902F3
:104ED00050913A020E94A933C756DF4F6883798305
:104EE0008A839B83C959D0406093370270933802FC
:104EF0008093390290933A02CF56DF4F68817981CF
:104F00008A819B81C159D0409B01AC010E94A93389
:104F10009B01AC0169897A898B899C890E94A9339C
:104F2000A40193010E94A933C356DF4F688379839C
:104F30008A839B83CD59D040C201B101A201910166
:104F40000E94A9339B01AC016D897E898F89988D60
:104F50000E94A933CB56DF4F288139814A815B817A
:104F6000C559D0400E94A933CF55DF4F688379835C
:104F70008A839B83C15AD040C601B501A601950121
:104F80000E94A9339B01AC01C801B7010E94A9335B
:104F9000C756DF4F288139814A815B81C959D0408A
:104FA0000E94A9335B016C0169857A858B859C859C
:104FB0009058C356DF4F288139814A815B81CD5992
:104FC000D0400E9427357B018C016D817E818F81CD
:104FD0009885CF55DF4F288139814A815B81C15A3D
:104FE000D0400E9427359B01AC01C801B7010E9447
:104FF000A8337B018C0169817A818B819C81A60118
:1050000095010E9427359B01AC01C801B7010E94A0
:10501000A833CF52DF4F288139814A815B81C15D3E
:10502000D0400E9427359B01AC016D857E858F8520
:1050300098890E94A933CB55DF4F688379838A838F
:105040009B83C55AD040C356DF4F288139814A819E
:105050005B81CD59D0400E9427357B018C016D8149
:105060007E818F819885A60195010E9427359B013D
:10507000AC01C801B7010E94A9337B018C01698191
:105080007A818B819C81CF55DF4F288139814A817C
:105090005B81C15AD0400E9427359B01AC01C801F9
:1050A000B7010E94A833CF52DF4F288139814A814E
:1050B0005B81C15DD0400E9427359B01AC016985B1
:1050C0007A858B859C850E94A9331B012C01CB55C9
:1050D000DF4F688179818A819B81C55AD040CF5545
:1050E000DF4F288139814A815B81C15AD0400E94BB
:1050F00027357B018C01C201B101A60195010E94F7
:1051000027359B01AC01C801B7010E94A8337B0180
:105110008C0169817A818B819C81C356DF4F288104
:1051200039814A815B81CD59D0400E9427359B014E
:10513000AC01C801B7010E94A933CF52DF4F2881CB
:1051400039814A815B81C15DD0400E9427359B0136
:10515000AC016D817E818F8198850E94A9333B01CE
:105160004C01CB55DF4F688179818A819B81C55A7B
:10517000D040A60195010E9427357B018C01C20118
:10518000B101CF55DF4F288139814A815B81C15AF6
:10519000D0400E9427359B01AC01C801B7010E9495
:1051A000A9337B018C01C401B301C356DF4F2881B1
:1051B00039814A815B81CD59D0400E9427359B01BE
:1051C000AC01C801B7010E94A833CF52DF4F28813C
:1051D00039814A815B81C15DD0400E9427359B01A6
:1051E000AC0169817A818B819C810E94A9335B012A
:1051F0006C01CB55DF4F688179818A819B81C55ACB
:10520000D0409B01AC010E9427357B018C01C2017B
:10521000B101A20191010E9427359B01AC01C80197
:10522000B7010E94A9337B018C01C401B301A40121
:1052300093010E9427359B01AC01C801B7010E9470
:10524000A9337B018C01C601B501A60195010E941D
:1052500027359B01AC01C801B7010E94A9330E9408
:105260008E357B018C01CB55DF4F688179818A8136
:105270009B81C55AD040A80197010E940D346093CC
:105280001F02709320028093210290932202C20198
:10529000B101A80197010E940D346093230270931D
:1052A00024028093250290932602C401B301A80131
:1052B00097010E940D346093270270932802809317
:1052C000290290932A02C601B501A80197010E9404
:1052D0000D3460932B0270932C0280932D029093D7
:1052E0002E028BE192E0C855DF4F0FB6F894DEBF77
:1052F0000FBECDBFCF91DF911F910F91FF90EF9027
:10530000DF90CF90BF90AF909F908F907F906F90E5
:105310005F904F903F902F900895CF93DF9382300E
:10532000910510F482E090E0E0911A05F0911B05E0
:1053300020E030E0C0E0D0E0309711F140815181B1
:1053400048175907C0F04817590761F482819381C3
:10535000209719F09B838A832BC090931B05809321
:105360001A0526C02115310519F04217530718F404
:105370009A01BE01DF01EF010280F381E02DDCCF55
:105380002115310509F1281B390B2430310590F422
:1053900012968D919C9113976115710521F0FB0177
:1053A0009383828304C090931B0580931A05FD01AB
:1053B000329644C0FD01E20FF31F81939193225076
:1053C00031092D933C933AC020911805309119056D
:1053D000232B41F420913D0230913E023093190578
:1053E0002093180520913B0230913C022115310594
:1053F00041F42DB73EB740913F0250914002241B2B
:10540000350BE0911805F0911905E217F307A0F4A8
:105410002E1B3F0B2817390778F0AC014E5F5F4F0A
:105420002417350748F04E0F5F1F5093190540931E
:1054300018058193919302C0E0E0F0E0CF01DF9185
:10544000CF9108950F931F93CF93DF93009709F4A3
:105450008CC0FC0132971382128200911A051091C0
:105460001B050115110581F420813181820F931FE5
:1054700020911805309119052817390779F5F0930F
:105480001905E093180571C0D80140E050E0AE174F
:10549000BF0750F412962D913C911397AD01211541
:1054A000310509F1D901F3CF9D01DA01338322835C
:1054B00060817181860F971F8217930769F4EC0151
:1054C00028813981260F371F2E5F3F4F318320837C
:1054D0008A819B8193838283452B29F4F0931B055A
:1054E000E0931A0542C01396FC93EE931297ED01D8
:1054F000499159919E01240F351FE217F30771F46A
:1055000080819181840F951F029611969C938E93B2
:105510008281938113969C938E931297E0E0F0E042
:10552000D80112968D919C911397009719F0F8016C
:105530008C01F6CF8D919C9198012E5F3F4F820F89
:10554000931F20911805309119052817390769F420
:10555000309729F410921B0510921A0502C013828D
:1055600012821093190500931805DF91CF911F91B6
:105570000F9108951F920F920FB60F9211242F933F
:105580003F938F939F93AF93BF938091AC0490917F
:10559000AD04A091AE04B091AF043091AB0423E010
:1055A000230F2D3720F40196A11DB11D05C026E85B
:1055B000230F0296A11DB11D2093AB048093AC0470
:1055C0009093AD04A093AE04B093AF048091B00467
:1055D0009091B104A091B204B091B3040196A11DC1
:1055E000B11D8093B0049093B104A093B204B09322
:1055F000B304BF91AF919F918F913F912F910F90E5
:105600000FBE0F901F9018952FB7F8946091AC04BF
:105610007091AD048091AE049091AF042FBF0895B6
:105620003FB7F8948091B0049091B104A091B20476
:10563000B091B30426B5A89B05C02F3F19F0019681
:10564000A11DB11D3FBFBA2FA92F982F8827820F08
:10565000911DA11DB11DBC01CD0142E0660F771F58
:10566000881F991F4A95D1F70895CF92DF92EF9244
:10567000FF92CF93DF936B017C010E94102BEB0113
:10568000C114D104E104F10489F00E94C72B0E94E7
:10569000102B6C1B7D0B683E734090F381E0C81AA1
:1056A000D108E108F108C851DC4FEACFDF91CF9172
:1056B000FF90EF90DF90CF900895789420E030E055
:1056C00080E80FB6F89480936100209361000FBECC
:1056D00084B5826084BD84B5816084BD85B58260F7
:1056E00085BD85B5816085BDEEE6F0E08081816095
:1056F0008083E1E8F0E01082808182608083808195
:1057000081608083E0E8F0E0808181608083E1EB6C
:10571000F0E0808184608083E0EBF0E08081816054
:105720008083E1E9F0E08081826080838081816014
:105730008083E0E9F0E0808181608083E1ECF0E04B
:1057400080818460808380818260808380818160A9
:105750008083E3ECF0E0808181608083E0ECF0E026
:10576000808182608083E2ECF0E0808181608083D0
:10577000EAE7F0E0808184608083808182608083BA
:10578000808181608083808180688083089508950E
:1057900090E0FC013197EE30F105E0F5EA5AFF4F59
:1057A0000C943A36809180008F7703C080918000FE
:1057B0008F7D80938000089584B58F7702C084B573
:1057C0008F7D84BD08958091B0008F7703C0809154
:1057D000B0008F7D8093B0000895809190008F7706
:1057E00007C0809190008F7D03C080919000877FDB
:1057F0008093900008958091C0008F7703C08091BE
:10580000C0008F7D8093C00008958091C200877F83
:105810008093C2000895CF93DF9390E0FC01E6549B
:10582000FE4F2491FC01E852FE4F8491882361F1E0
:1058300090E0880F991FFC01EE5EFD4FC591D49159
:10584000FC01EC5FFD4FA591B491611109C09FB7B8
:10585000F8948881209582238883EC912E230BC0B5
:10586000623061F49FB7F8943881822F809583234A
:105870008883EC912E2B2C939FBF06C08FB7F89492
:10588000E8812E2B28838FBFDF91CF9108951F933E
:10589000CF93DF93282F30E0F901E655FE4F849136
:1058A000F901E654FE4FD491F901E852FE4FC4913C
:1058B000CC23C9F0162F81110E94C82BEC2FF0E0E9
:1058C000EE0FFF1FEC5FFD4FA591B4918FB7F894D9
:1058D000111105C09C91ED2FE095E92302C0EC91D8
:1058E000ED2BEC938FBFDF91CF911F910895CF9354
:1058F000DF93282F30E0F901E655FE4F8491F9013E
:10590000E654FE4FD491F901E852FE4FC491CC23E6
:1059100091F081110E94C82BEC2FF0E0EE0FFF1FD9
:10592000EA50FE4FA591B491EC91ED2381E090E017
:1059300021F480E002C080E090E0DF91CF910895F3
:105940000E948D290895CF92DF92EF92FF920F93DC
:105950001F93CF93DF937C016B018A01C0E0D0E0FD
:105960000FC0D6016D916D01D701ED91FC910190B1
:10597000F081E02DC7010995C80FD91F01501040D3
:105980000115110571F7CE01DF91CF911F910F9194
:10599000FF90EF90DF90CF900895EF92FF920F93DA
:1059A0001F93CF93DF937C018B01C0E0D0E0F8011F
:1059B0000F5F1F4F6491662359F0D701ED91FC9161
:1059C0000190F081E02DC7010995C80FD91FEFCFD5
:1059D000CE01DF91CF911F910F91FF90EF9008952D
:1059E000EF92FF920F931F938C01DC01ED91FC91DC
:1059F0000190F081E02D6DE009957C01D801ED91D9
:105A0000FC910190F081E02DC8016AE009959C01AC
:105A10002E0D3F1DC9011F910F91FF90EF9008952A
:105A2000EF92FF920F931F937C010E94CD2C8C016B
:105A3000C7010E94F02C9C01200F311FC9011F914A
:105A40000F91FF90EF9008950895FC0124858585BE
:105A500030E0205C3F4F281B31092F733070C901A3
:105A60000895FC0194858585981719F42FEF3FEF71
:105A700006C08585E80FF11D8685282F30E0C90115
:105A80000895DC011C969C911C971D968C911D9786
:105A9000981719F42FEF3FEF10C01D968C911D97AA
:105AA000FD01E80FF11D96851D968C911D978F5F66
:105AB0008F731D968C93292F30E0C90108951092A1
:105AC000B7041092B60488EE93E0A0E0B0E08093B3
:105AD000B8049093B904A093BA04B093BB0487E9C7
